{
	"UniV2/v2-periphery/TaralSwapRouter01.sol": {
		"TaralSwapRouter01": {
			"abi": [
				{
					"inputs": [
						{
							"internalType": "address",
							"name": "_factory",
							"type": "address"
						},
						{
							"internalType": "address",
							"name": "_WTARAL",
							"type": "address"
						}
					],
					"stateMutability": "nonpayable",
					"type": "constructor"
				},
				{
					"inputs": [],
					"name": "WTARAL",
					"outputs": [
						{
							"internalType": "address",
							"name": "",
							"type": "address"
						}
					],
					"stateMutability": "view",
					"type": "function"
				},
				{
					"inputs": [
						{
							"internalType": "address",
							"name": "tokenA",
							"type": "address"
						},
						{
							"internalType": "address",
							"name": "tokenB",
							"type": "address"
						},
						{
							"internalType": "uint256",
							"name": "amountADesired",
							"type": "uint256"
						},
						{
							"internalType": "uint256",
							"name": "amountBDesired",
							"type": "uint256"
						},
						{
							"internalType": "uint256",
							"name": "amountAMin",
							"type": "uint256"
						},
						{
							"internalType": "uint256",
							"name": "amountBMin",
							"type": "uint256"
						},
						{
							"internalType": "address",
							"name": "to",
							"type": "address"
						},
						{
							"internalType": "uint256",
							"name": "deadline",
							"type": "uint256"
						}
					],
					"name": "addLiquidity",
					"outputs": [
						{
							"internalType": "uint256",
							"name": "amountA",
							"type": "uint256"
						},
						{
							"internalType": "uint256",
							"name": "amountB",
							"type": "uint256"
						},
						{
							"internalType": "uint256",
							"name": "liquidity",
							"type": "uint256"
						}
					],
					"stateMutability": "nonpayable",
					"type": "function"
				},
				{
					"inputs": [
						{
							"internalType": "address",
							"name": "token",
							"type": "address"
						},
						{
							"internalType": "uint256",
							"name": "amountTokenDesired",
							"type": "uint256"
						},
						{
							"internalType": "uint256",
							"name": "amountTokenMin",
							"type": "uint256"
						},
						{
							"internalType": "uint256",
							"name": "amountETHMin",
							"type": "uint256"
						},
						{
							"internalType": "address",
							"name": "to",
							"type": "address"
						},
						{
							"internalType": "uint256",
							"name": "deadline",
							"type": "uint256"
						}
					],
					"name": "addLiquidityETH",
					"outputs": [
						{
							"internalType": "uint256",
							"name": "amountToken",
							"type": "uint256"
						},
						{
							"internalType": "uint256",
							"name": "amountETH",
							"type": "uint256"
						},
						{
							"internalType": "uint256",
							"name": "liquidity",
							"type": "uint256"
						}
					],
					"stateMutability": "payable",
					"type": "function"
				},
				{
					"inputs": [],
					"name": "factory",
					"outputs": [
						{
							"internalType": "address",
							"name": "",
							"type": "address"
						}
					],
					"stateMutability": "view",
					"type": "function"
				},
				{
					"inputs": [
						{
							"internalType": "uint256",
							"name": "amountOut",
							"type": "uint256"
						},
						{
							"internalType": "uint256",
							"name": "reserveIn",
							"type": "uint256"
						},
						{
							"internalType": "uint256",
							"name": "reserveOut",
							"type": "uint256"
						}
					],
					"name": "getAmountIn",
					"outputs": [
						{
							"internalType": "uint256",
							"name": "amountIn",
							"type": "uint256"
						}
					],
					"stateMutability": "pure",
					"type": "function"
				},
				{
					"inputs": [
						{
							"internalType": "uint256",
							"name": "amountIn",
							"type": "uint256"
						},
						{
							"internalType": "uint256",
							"name": "reserveIn",
							"type": "uint256"
						},
						{
							"internalType": "uint256",
							"name": "reserveOut",
							"type": "uint256"
						}
					],
					"name": "getAmountOut",
					"outputs": [
						{
							"internalType": "uint256",
							"name": "amountOut",
							"type": "uint256"
						}
					],
					"stateMutability": "pure",
					"type": "function"
				},
				{
					"inputs": [
						{
							"internalType": "uint256",
							"name": "amountOut",
							"type": "uint256"
						},
						{
							"internalType": "address[]",
							"name": "path",
							"type": "address[]"
						}
					],
					"name": "getAmountsIn",
					"outputs": [
						{
							"internalType": "uint256[]",
							"name": "amounts",
							"type": "uint256[]"
						}
					],
					"stateMutability": "view",
					"type": "function"
				},
				{
					"inputs": [
						{
							"internalType": "uint256",
							"name": "amountIn",
							"type": "uint256"
						},
						{
							"internalType": "address[]",
							"name": "path",
							"type": "address[]"
						}
					],
					"name": "getAmountsOut",
					"outputs": [
						{
							"internalType": "uint256[]",
							"name": "amounts",
							"type": "uint256[]"
						}
					],
					"stateMutability": "view",
					"type": "function"
				},
				{
					"inputs": [
						{
							"internalType": "uint256",
							"name": "amountA",
							"type": "uint256"
						},
						{
							"internalType": "uint256",
							"name": "reserveA",
							"type": "uint256"
						},
						{
							"internalType": "uint256",
							"name": "reserveB",
							"type": "uint256"
						}
					],
					"name": "quote",
					"outputs": [
						{
							"internalType": "uint256",
							"name": "amountB",
							"type": "uint256"
						}
					],
					"stateMutability": "pure",
					"type": "function"
				},
				{
					"inputs": [
						{
							"internalType": "address",
							"name": "tokenA",
							"type": "address"
						},
						{
							"internalType": "address",
							"name": "tokenB",
							"type": "address"
						},
						{
							"internalType": "uint256",
							"name": "liquidity",
							"type": "uint256"
						},
						{
							"internalType": "uint256",
							"name": "amountAMin",
							"type": "uint256"
						},
						{
							"internalType": "uint256",
							"name": "amountBMin",
							"type": "uint256"
						},
						{
							"internalType": "address",
							"name": "to",
							"type": "address"
						},
						{
							"internalType": "uint256",
							"name": "deadline",
							"type": "uint256"
						}
					],
					"name": "removeLiquidity",
					"outputs": [
						{
							"internalType": "uint256",
							"name": "amountA",
							"type": "uint256"
						},
						{
							"internalType": "uint256",
							"name": "amountB",
							"type": "uint256"
						}
					],
					"stateMutability": "nonpayable",
					"type": "function"
				},
				{
					"inputs": [
						{
							"internalType": "address",
							"name": "token",
							"type": "address"
						},
						{
							"internalType": "uint256",
							"name": "liquidity",
							"type": "uint256"
						},
						{
							"internalType": "uint256",
							"name": "amountTokenMin",
							"type": "uint256"
						},
						{
							"internalType": "uint256",
							"name": "amountETHMin",
							"type": "uint256"
						},
						{
							"internalType": "address",
							"name": "to",
							"type": "address"
						},
						{
							"internalType": "uint256",
							"name": "deadline",
							"type": "uint256"
						}
					],
					"name": "removeLiquidityETH",
					"outputs": [
						{
							"internalType": "uint256",
							"name": "amountToken",
							"type": "uint256"
						},
						{
							"internalType": "uint256",
							"name": "amountETH",
							"type": "uint256"
						}
					],
					"stateMutability": "nonpayable",
					"type": "function"
				},
				{
					"inputs": [
						{
							"internalType": "address",
							"name": "token",
							"type": "address"
						},
						{
							"internalType": "uint256",
							"name": "liquidity",
							"type": "uint256"
						},
						{
							"internalType": "uint256",
							"name": "amountTokenMin",
							"type": "uint256"
						},
						{
							"internalType": "uint256",
							"name": "amountETHMin",
							"type": "uint256"
						},
						{
							"internalType": "address",
							"name": "to",
							"type": "address"
						},
						{
							"internalType": "uint256",
							"name": "deadline",
							"type": "uint256"
						},
						{
							"internalType": "bool",
							"name": "approveMax",
							"type": "bool"
						},
						{
							"internalType": "uint8",
							"name": "v",
							"type": "uint8"
						},
						{
							"internalType": "bytes32",
							"name": "r",
							"type": "bytes32"
						},
						{
							"internalType": "bytes32",
							"name": "s",
							"type": "bytes32"
						}
					],
					"name": "removeLiquidityETHWithPermit",
					"outputs": [
						{
							"internalType": "uint256",
							"name": "amountToken",
							"type": "uint256"
						},
						{
							"internalType": "uint256",
							"name": "amountETH",
							"type": "uint256"
						}
					],
					"stateMutability": "nonpayable",
					"type": "function"
				},
				{
					"inputs": [
						{
							"internalType": "address",
							"name": "tokenA",
							"type": "address"
						},
						{
							"internalType": "address",
							"name": "tokenB",
							"type": "address"
						},
						{
							"internalType": "uint256",
							"name": "liquidity",
							"type": "uint256"
						},
						{
							"internalType": "uint256",
							"name": "amountAMin",
							"type": "uint256"
						},
						{
							"internalType": "uint256",
							"name": "amountBMin",
							"type": "uint256"
						},
						{
							"internalType": "address",
							"name": "to",
							"type": "address"
						},
						{
							"internalType": "uint256",
							"name": "deadline",
							"type": "uint256"
						},
						{
							"internalType": "bool",
							"name": "approveMax",
							"type": "bool"
						},
						{
							"internalType": "uint8",
							"name": "v",
							"type": "uint8"
						},
						{
							"internalType": "bytes32",
							"name": "r",
							"type": "bytes32"
						},
						{
							"internalType": "bytes32",
							"name": "s",
							"type": "bytes32"
						}
					],
					"name": "removeLiquidityWithPermit",
					"outputs": [
						{
							"internalType": "uint256",
							"name": "amountA",
							"type": "uint256"
						},
						{
							"internalType": "uint256",
							"name": "amountB",
							"type": "uint256"
						}
					],
					"stateMutability": "nonpayable",
					"type": "function"
				},
				{
					"inputs": [
						{
							"internalType": "uint256",
							"name": "amountOut",
							"type": "uint256"
						},
						{
							"internalType": "address[]",
							"name": "path",
							"type": "address[]"
						},
						{
							"internalType": "address",
							"name": "to",
							"type": "address"
						},
						{
							"internalType": "uint256",
							"name": "deadline",
							"type": "uint256"
						}
					],
					"name": "swapETHForExactTokens",
					"outputs": [
						{
							"internalType": "uint256[]",
							"name": "amounts",
							"type": "uint256[]"
						}
					],
					"stateMutability": "payable",
					"type": "function"
				},
				{
					"inputs": [
						{
							"internalType": "uint256",
							"name": "amountOutMin",
							"type": "uint256"
						},
						{
							"internalType": "address[]",
							"name": "path",
							"type": "address[]"
						},
						{
							"internalType": "address",
							"name": "to",
							"type": "address"
						},
						{
							"internalType": "uint256",
							"name": "deadline",
							"type": "uint256"
						}
					],
					"name": "swapExactETHForTokens",
					"outputs": [
						{
							"internalType": "uint256[]",
							"name": "amounts",
							"type": "uint256[]"
						}
					],
					"stateMutability": "payable",
					"type": "function"
				},
				{
					"inputs": [
						{
							"internalType": "uint256",
							"name": "amountIn",
							"type": "uint256"
						},
						{
							"internalType": "uint256",
							"name": "amountOutMin",
							"type": "uint256"
						},
						{
							"internalType": "address[]",
							"name": "path",
							"type": "address[]"
						},
						{
							"internalType": "address",
							"name": "to",
							"type": "address"
						},
						{
							"internalType": "uint256",
							"name": "deadline",
							"type": "uint256"
						}
					],
					"name": "swapExactTokensForETH",
					"outputs": [
						{
							"internalType": "uint256[]",
							"name": "amounts",
							"type": "uint256[]"
						}
					],
					"stateMutability": "nonpayable",
					"type": "function"
				},
				{
					"inputs": [
						{
							"internalType": "uint256",
							"name": "amountIn",
							"type": "uint256"
						},
						{
							"internalType": "uint256",
							"name": "amountOutMin",
							"type": "uint256"
						},
						{
							"internalType": "address[]",
							"name": "path",
							"type": "address[]"
						},
						{
							"internalType": "address",
							"name": "to",
							"type": "address"
						},
						{
							"internalType": "uint256",
							"name": "deadline",
							"type": "uint256"
						}
					],
					"name": "swapExactTokensForTokens",
					"outputs": [
						{
							"internalType": "uint256[]",
							"name": "amounts",
							"type": "uint256[]"
						}
					],
					"stateMutability": "nonpayable",
					"type": "function"
				},
				{
					"inputs": [
						{
							"internalType": "uint256",
							"name": "amountOut",
							"type": "uint256"
						},
						{
							"internalType": "uint256",
							"name": "amountInMax",
							"type": "uint256"
						},
						{
							"internalType": "address[]",
							"name": "path",
							"type": "address[]"
						},
						{
							"internalType": "address",
							"name": "to",
							"type": "address"
						},
						{
							"internalType": "uint256",
							"name": "deadline",
							"type": "uint256"
						}
					],
					"name": "swapTokensForExactETH",
					"outputs": [
						{
							"internalType": "uint256[]",
							"name": "amounts",
							"type": "uint256[]"
						}
					],
					"stateMutability": "nonpayable",
					"type": "function"
				},
				{
					"inputs": [
						{
							"internalType": "uint256",
							"name": "amountOut",
							"type": "uint256"
						},
						{
							"internalType": "uint256",
							"name": "amountInMax",
							"type": "uint256"
						},
						{
							"internalType": "address[]",
							"name": "path",
							"type": "address[]"
						},
						{
							"internalType": "address",
							"name": "to",
							"type": "address"
						},
						{
							"internalType": "uint256",
							"name": "deadline",
							"type": "uint256"
						}
					],
					"name": "swapTokensForExactTokens",
					"outputs": [
						{
							"internalType": "uint256[]",
							"name": "amounts",
							"type": "uint256[]"
						}
					],
					"stateMutability": "nonpayable",
					"type": "function"
				},
				{
					"stateMutability": "payable",
					"type": "receive"
				}
			],
			"devdoc": {
				"methods": {}
			},
			"evm": {
				"assembly": "    /* \"UniV2/v2-periphery/TaralSwapRouter01.sol\":317:12769  contract TaralSwapRouter01 is ITaralSwapRouter01 {... */\n  mstore(0x40, 0xc0)\n    /* \"UniV2/v2-periphery/TaralSwapRouter01.sol\":595:710  constructor(address _factory, address _WTARAL) public {... */\n  callvalue\n    /* \"--CODEGEN--\":5:14   */\n  dup1\n    /* \"--CODEGEN--\":2:4   */\n  iszero\n  tag_1\n  jumpi\n    /* \"--CODEGEN--\":27:28   */\n  0x00\n    /* \"--CODEGEN--\":24:25   */\n  dup1\n    /* \"--CODEGEN--\":17:29   */\n  revert\n    /* \"--CODEGEN--\":2:4   */\ntag_1:\n    /* \"UniV2/v2-periphery/TaralSwapRouter01.sol\":595:710  constructor(address _factory, address _WTARAL) public {... */\n  pop\n  mload(0x40)\n  sub(codesize, bytecodeSize)\n  dup1\n  bytecodeSize\n  dup4\n  codecopy\n  dup2\n  dup2\n  add\n  0x40\n  mstore\n    /* \"--CODEGEN--\":15:17   */\n  0x40\n    /* \"--CODEGEN--\":10:13   */\n  dup2\n    /* \"--CODEGEN--\":7:18   */\n  lt\n    /* \"--CODEGEN--\":4:6   */\n  iszero\n  tag_2\n  jumpi\n    /* \"--CODEGEN--\":31:32   */\n  0x00\n    /* \"--CODEGEN--\":28:29   */\n  dup1\n    /* \"--CODEGEN--\":21:33   */\n  revert\n    /* \"--CODEGEN--\":4:6   */\ntag_2:\n  pop\n    /* \"UniV2/v2-periphery/TaralSwapRouter01.sol\":595:710  constructor(address _factory, address _WTARAL) public {... */\n  dup1\n  mload\n  0x20\n  swap1\n  swap2\n  add\n  mload\n  not(sub(shl(0x60, 0x01), 0x01))\n    /* \"UniV2/v2-periphery/TaralSwapRouter01.sol\":659:677  factory = _factory */\n  0x60\n  swap3\n  dup4\n  shl\n  dup2\n  and\n  0x80\n  mstore\n    /* \"UniV2/v2-periphery/TaralSwapRouter01.sol\":687:703  WTARAL = _WTARAL */\n  swap2\n  shl\n  and\n  0xa0\n  mstore\n    /* \"UniV2/v2-periphery/TaralSwapRouter01.sol\":317:12769  contract TaralSwapRouter01 is ITaralSwapRouter01 {... */\n  shr(0x60, mload(0x80))\n  shr(0x60, mload(0xa0))\n  codecopy(0x00, dataOffset(sub_0), dataSize(sub_0))\n  assignImmutable(\"0xb87264ef8bf99bc710f0d9de51012e0b2f3ac2595d912802c21dad6f786bfe81\")\n  assignImmutable(\"0x198ed63d80d143525b60af21f7dc77e6c7796a43366dbb557d0a8832a905997b\")\n  return(0x00, dataSize(sub_0))\nstop\n\nsub_0: assembly {\n        /* \"UniV2/v2-periphery/TaralSwapRouter01.sol\":317:12769  contract TaralSwapRouter01 is ITaralSwapRouter01 {... */\n      mstore(0x40, 0x80)\n      jumpi(tag_1, lt(calldatasize, 0x04))\n      shr(0xe0, calldataload(0x00))\n      dup1\n      0x85f8c259\n      gt\n      tag_22\n      jumpi\n      dup1\n      0xd06ca61f\n      gt\n      tag_23\n      jumpi\n      dup1\n      0xd06ca61f\n      eq\n      tag_17\n      jumpi\n      dup1\n      0xded9382a\n      eq\n      tag_18\n      jumpi\n      dup1\n      0xe8e33700\n      eq\n      tag_19\n      jumpi\n      dup1\n      0xf305d719\n      eq\n      tag_20\n      jumpi\n      dup1\n      0xfb3bdb41\n      eq\n      tag_21\n      jumpi\n      jump(tag_2)\n    tag_23:\n      dup1\n      0x85f8c259\n      eq\n      tag_4\n      jumpi\n      dup1\n      0x8803dbee\n      eq\n      tag_13\n      jumpi\n      dup1\n      0xad615dec\n      eq\n      tag_14\n      jumpi\n      dup1\n      0xbaa2abde\n      eq\n      tag_15\n      jumpi\n      dup1\n      0xc45a0155\n      eq\n      tag_16\n      jumpi\n      jump(tag_2)\n    tag_22:\n      dup1\n      0x1f00ca74\n      gt\n      tag_24\n      jumpi\n      dup1\n      0x1f00ca74\n      eq\n      tag_7\n      jumpi\n      dup1\n      0x2195995c\n      eq\n      tag_8\n      jumpi\n      dup1\n      0x38ed1739\n      eq\n      tag_9\n      jumpi\n      dup1\n      0x4a25d94a\n      eq\n      tag_10\n      jumpi\n      dup1\n      0x7ff36ab5\n      eq\n      tag_11\n      jumpi\n      jump(tag_2)\n    tag_24:\n      dup1\n      0x02751cec\n      eq\n      tag_3\n      jumpi\n      dup1\n      0x054d50d4\n      eq\n      tag_4\n      jumpi\n      dup1\n      0x18cbafe5\n      eq\n      tag_5\n      jumpi\n      dup1\n      0x1f003483\n      eq\n      tag_6\n      jumpi\n      jump(tag_2)\n    tag_1:\n      jumpi(tag_2, calldatasize)\n        /* \"UniV2/v2-periphery/TaralSwapRouter01.sol\":760:770  msg.sender */\n      caller\n      sub(shl(0xa0, 0x01), 0x01)\n        /* \"UniV2/v2-periphery/TaralSwapRouter01.sol\":774:780  WTARAL */\n      immutable(\"0xb87264ef8bf99bc710f0d9de51012e0b2f3ac2595d912802c21dad6f786bfe81\")\n        /* \"UniV2/v2-periphery/TaralSwapRouter01.sol\":760:780  msg.sender == WTARAL */\n      and\n      eq\n        /* \"UniV2/v2-periphery/TaralSwapRouter01.sol\":753:781  assert(msg.sender == WTARAL) */\n      tag_27\n      jumpi\n      invalid\n    tag_27:\n        /* \"UniV2/v2-periphery/TaralSwapRouter01.sol\":317:12769  contract TaralSwapRouter01 is ITaralSwapRouter01 {... */\n      stop\n    tag_2:\n        /* \"--CODEGEN--\":12:13   */\n      0x00\n        /* \"--CODEGEN--\":9:10   */\n      dup1\n        /* \"--CODEGEN--\":2:14   */\n      revert\n        /* \"UniV2/v2-periphery/TaralSwapRouter01.sol\":4794:5445  function removeLiquidityETH(... */\n    tag_3:\n      callvalue\n        /* \"--CODEGEN--\":5:14   */\n      dup1\n        /* \"--CODEGEN--\":2:4   */\n      iszero\n      tag_28\n      jumpi\n        /* \"--CODEGEN--\":27:28   */\n      0x00\n        /* \"--CODEGEN--\":24:25   */\n      dup1\n        /* \"--CODEGEN--\":17:29   */\n      revert\n        /* \"--CODEGEN--\":2:4   */\n    tag_28:\n        /* \"UniV2/v2-periphery/TaralSwapRouter01.sol\":4794:5445  function removeLiquidityETH(... */\n      pop\n      tag_29\n      0x04\n      dup1\n      calldatasize\n      sub\n        /* \"--CODEGEN--\":15:18   */\n      0xc0\n        /* \"--CODEGEN--\":10:13   */\n      dup2\n        /* \"--CODEGEN--\":7:19   */\n      lt\n        /* \"--CODEGEN--\":4:6   */\n      iszero\n      tag_30\n      jumpi\n        /* \"--CODEGEN--\":32:33   */\n      0x00\n        /* \"--CODEGEN--\":29:30   */\n      dup1\n        /* \"--CODEGEN--\":22:34   */\n      revert\n        /* \"--CODEGEN--\":4:6   */\n    tag_30:\n      pop\n      sub(shl(0xa0, 0x01), 0x01)\n        /* \"UniV2/v2-periphery/TaralSwapRouter01.sol\":4794:5445  function removeLiquidityETH(... */\n      dup2\n      calldataload\n      dup2\n      and\n      swap2\n      0x20\n      dup2\n      add\n      calldataload\n      swap2\n      0x40\n      dup3\n      add\n      calldataload\n      swap2\n      0x60\n      dup2\n      add\n      calldataload\n      swap2\n      0x80\n      dup3\n      add\n      calldataload\n      and\n      swap1\n      0xa0\n      add\n      calldataload\n      tag_31\n      jump\t// in\n    tag_29:\n      0x40\n      dup1\n      mload\n      swap3\n      dup4\n      mstore\n      0x20\n      dup4\n      add\n      swap2\n      swap1\n      swap2\n      mstore\n      dup1\n      mload\n      swap2\n      dup3\n      swap1\n      sub\n      add\n      swap1\n      return\n        /* \"UniV2/v2-periphery/TaralSwapRouter01.sol\":11959:12161  function getAmountOut(uint amountIn, uint reserveIn, uint reserveOut) public pure override returns (uint amountOut) {... */\n    tag_4:\n      callvalue\n        /* \"--CODEGEN--\":5:14   */\n      dup1\n        /* \"--CODEGEN--\":2:4   */\n      iszero\n      tag_32\n      jumpi\n        /* \"--CODEGEN--\":27:28   */\n      0x00\n        /* \"--CODEGEN--\":24:25   */\n      dup1\n        /* \"--CODEGEN--\":17:29   */\n      revert\n        /* \"--CODEGEN--\":2:4   */\n    tag_32:\n        /* \"UniV2/v2-periphery/TaralSwapRouter01.sol\":11959:12161  function getAmountOut(uint amountIn, uint reserveIn, uint reserveOut) public pure override returns (uint amountOut) {... */\n      pop\n      tag_33\n      0x04\n      dup1\n      calldatasize\n      sub\n        /* \"--CODEGEN--\":15:17   */\n      0x60\n        /* \"--CODEGEN--\":10:13   */\n      dup2\n        /* \"--CODEGEN--\":7:18   */\n      lt\n        /* \"--CODEGEN--\":4:6   */\n      iszero\n      tag_34\n      jumpi\n        /* \"--CODEGEN--\":31:32   */\n      0x00\n        /* \"--CODEGEN--\":28:29   */\n      dup1\n        /* \"--CODEGEN--\":21:33   */\n      revert\n        /* \"--CODEGEN--\":4:6   */\n    tag_34:\n      pop\n        /* \"UniV2/v2-periphery/TaralSwapRouter01.sol\":11959:12161  function getAmountOut(uint amountIn, uint reserveIn, uint reserveOut) public pure override returns (uint amountOut) {... */\n      dup1\n      calldataload\n      swap1\n      0x20\n      dup2\n      add\n      calldataload\n      swap1\n      0x40\n      add\n      calldataload\n      tag_35\n      jump\t// in\n    tag_33:\n      0x40\n      dup1\n      mload\n      swap2\n      dup3\n      mstore\n      mload\n      swap1\n      dup2\n      swap1\n      sub\n      0x20\n      add\n      swap1\n      return\n        /* \"UniV2/v2-periphery/TaralSwapRouter01.sol\":10182:10984  function swapExactTokensForETH(uint amountIn, uint amountOutMin, address[] calldata path, address to, uint deadline)... */\n    tag_5:\n      callvalue\n        /* \"--CODEGEN--\":5:14   */\n      dup1\n        /* \"--CODEGEN--\":2:4   */\n      iszero\n      tag_36\n      jumpi\n        /* \"--CODEGEN--\":27:28   */\n      0x00\n        /* \"--CODEGEN--\":24:25   */\n      dup1\n        /* \"--CODEGEN--\":17:29   */\n      revert\n        /* \"--CODEGEN--\":2:4   */\n    tag_36:\n        /* \"UniV2/v2-periphery/TaralSwapRouter01.sol\":10182:10984  function swapExactTokensForETH(uint amountIn, uint amountOutMin, address[] calldata path, address to, uint deadline)... */\n      pop\n      tag_37\n      0x04\n      dup1\n      calldatasize\n      sub\n        /* \"--CODEGEN--\":15:18   */\n      0xa0\n        /* \"--CODEGEN--\":10:13   */\n      dup2\n        /* \"--CODEGEN--\":7:19   */\n      lt\n        /* \"--CODEGEN--\":4:6   */\n      iszero\n      tag_38\n      jumpi\n        /* \"--CODEGEN--\":32:33   */\n      0x00\n        /* \"--CODEGEN--\":29:30   */\n      dup1\n        /* \"--CODEGEN--\":22:34   */\n      revert\n        /* \"--CODEGEN--\":4:6   */\n    tag_38:\n        /* \"UniV2/v2-periphery/TaralSwapRouter01.sol\":10182:10984  function swapExactTokensForETH(uint amountIn, uint amountOutMin, address[] calldata path, address to, uint deadline)... */\n      dup2\n      calldataload\n      swap2\n      0x20\n      dup2\n      add\n      calldataload\n      swap2\n      dup2\n      add\n      swap1\n      0x60\n      dup2\n      add\n      0x40\n      dup3\n      add\n      calldataload\n      shl(0x20, 0x01)\n        /* \"--CODEGEN--\":11:39   */\n      dup2\n      gt\n        /* \"--CODEGEN--\":8:10   */\n      iszero\n      tag_39\n      jumpi\n        /* \"--CODEGEN--\":52:53   */\n      0x00\n        /* \"--CODEGEN--\":49:50   */\n      dup1\n        /* \"--CODEGEN--\":42:54   */\n      revert\n        /* \"--CODEGEN--\":8:10   */\n    tag_39:\n        /* \"UniV2/v2-periphery/TaralSwapRouter01.sol\":10182:10984  function swapExactTokensForETH(uint amountIn, uint amountOutMin, address[] calldata path, address to, uint deadline)... */\n      dup3\n      add\n        /* \"--CODEGEN--\":41:50   */\n      dup4\n        /* \"--CODEGEN--\":34:38   */\n      0x20\n        /* \"--CODEGEN--\":18:32   */\n      dup3\n        /* \"--CODEGEN--\":14:39   */\n      add\n        /* \"--CODEGEN--\":11:51   */\n      gt\n        /* \"--CODEGEN--\":8:10   */\n      iszero\n      tag_40\n      jumpi\n        /* \"--CODEGEN--\":64:65   */\n      0x00\n        /* \"--CODEGEN--\":61:62   */\n      dup1\n        /* \"--CODEGEN--\":54:66   */\n      revert\n        /* \"--CODEGEN--\":8:10   */\n    tag_40:\n        /* \"UniV2/v2-periphery/TaralSwapRouter01.sol\":10182:10984  function swapExactTokensForETH(uint amountIn, uint amountOutMin, address[] calldata path, address to, uint deadline)... */\n      dup1\n      calldataload\n      swap1\n      0x20\n      add\n      swap2\n        /* \"--CODEGEN--\":101:110   */\n      dup5\n        /* \"--CODEGEN--\":95:97   */\n      0x20\n        /* \"--CODEGEN--\":81:93   */\n      dup4\n        /* \"--CODEGEN--\":77:98   */\n      mul\n        /* \"--CODEGEN--\":67:75   */\n      dup5\n        /* \"--CODEGEN--\":63:99   */\n      add\n        /* \"--CODEGEN--\":60:111   */\n      gt\n      shl(0x20, 0x01)\n        /* \"--CODEGEN--\":25:37   */\n      dup4\n        /* \"--CODEGEN--\":22:51   */\n      gt\n        /* \"--CODEGEN--\":11:119   */\n      or\n        /* \"--CODEGEN--\":8:10   */\n      iszero\n      tag_41\n      jumpi\n        /* \"--CODEGEN--\":132:133   */\n      0x00\n        /* \"--CODEGEN--\":129:130   */\n      dup1\n        /* \"--CODEGEN--\":122:134   */\n      revert\n        /* \"--CODEGEN--\":8:10   */\n    tag_41:\n        /* \"UniV2/v2-periphery/TaralSwapRouter01.sol\":10182:10984  function swapExactTokensForETH(uint amountIn, uint amountOutMin, address[] calldata path, address to, uint deadline)... */\n      swap2\n      swap4\n      pop\n      swap2\n      pop\n      sub(shl(0xa0, 0x01), 0x01)\n      dup2\n      calldataload\n      and\n      swap1\n      0x20\n      add\n      calldataload\n      tag_42\n      jump\t// in\n    tag_37:\n      0x40\n      dup1\n      mload\n      0x20\n      dup1\n      dup3\n      mstore\n      dup4\n      mload\n      dup2\n      dup4\n      add\n      mstore\n      dup4\n      mload\n      swap2\n      swap3\n      dup4\n      swap3\n      swap1\n      dup4\n      add\n      swap2\n      dup6\n      dup2\n      add\n      swap2\n      mul\n      dup1\n      dup4\n      dup4\n      0x00\n        /* \"--CODEGEN--\":8:108   */\n    tag_43:\n        /* \"--CODEGEN--\":33:36   */\n      dup4\n        /* \"--CODEGEN--\":30:31   */\n      dup2\n        /* \"--CODEGEN--\":27:37   */\n      lt\n        /* \"--CODEGEN--\":8:108   */\n      iszero\n      tag_45\n      jumpi\n        /* \"--CODEGEN--\":90:101   */\n      dup2\n      dup2\n      add\n        /* \"--CODEGEN--\":84:102   */\n      mload\n        /* \"--CODEGEN--\":71:82   */\n      dup4\n      dup3\n      add\n        /* \"--CODEGEN--\":64:103   */\n      mstore\n        /* \"--CODEGEN--\":52:54   */\n      0x20\n        /* \"--CODEGEN--\":45:55   */\n      add\n        /* \"--CODEGEN--\":8:108   */\n      jump(tag_43)\n    tag_45:\n        /* \"--CODEGEN--\":12:26   */\n      pop\n        /* \"UniV2/v2-periphery/TaralSwapRouter01.sol\":10182:10984  function swapExactTokensForETH(uint amountIn, uint amountOutMin, address[] calldata path, address to, uint deadline)... */\n      pop\n      pop\n      pop\n      swap1\n      pop\n      add\n      swap3\n      pop\n      pop\n      pop\n      mload(0x40)\n      dup1\n      swap2\n      sub\n      swap1\n      return\n        /* \"UniV2/v2-periphery/TaralSwapRouter01.sol\":419:459  address public immutable override WTARAL */\n    tag_6:\n      callvalue\n        /* \"--CODEGEN--\":5:14   */\n      dup1\n        /* \"--CODEGEN--\":2:4   */\n      iszero\n      tag_46\n      jumpi\n        /* \"--CODEGEN--\":27:28   */\n      0x00\n        /* \"--CODEGEN--\":24:25   */\n      dup1\n        /* \"--CODEGEN--\":17:29   */\n      revert\n        /* \"--CODEGEN--\":2:4   */\n    tag_46:\n        /* \"UniV2/v2-periphery/TaralSwapRouter01.sol\":419:459  address public immutable override WTARAL */\n      pop\n      tag_47\n      tag_48\n      jump\t// in\n    tag_47:\n      0x40\n      dup1\n      mload\n      sub(shl(0xa0, 0x01), 0x01)\n      swap1\n      swap3\n      and\n      dup3\n      mstore\n      mload\n      swap1\n      dup2\n      swap1\n      sub\n      0x20\n      add\n      swap1\n      return\n        /* \"UniV2/v2-periphery/TaralSwapRouter01.sol\":12574:12767  function getAmountsIn(uint amountOut, address[] memory path) public view override returns (uint[] memory amounts) {... */\n    tag_7:\n      callvalue\n        /* \"--CODEGEN--\":5:14   */\n      dup1\n        /* \"--CODEGEN--\":2:4   */\n      iszero\n      tag_49\n      jumpi\n        /* \"--CODEGEN--\":27:28   */\n      0x00\n        /* \"--CODEGEN--\":24:25   */\n      dup1\n        /* \"--CODEGEN--\":17:29   */\n      revert\n        /* \"--CODEGEN--\":2:4   */\n    tag_49:\n        /* \"UniV2/v2-periphery/TaralSwapRouter01.sol\":12574:12767  function getAmountsIn(uint amountOut, address[] memory path) public view override returns (uint[] memory amounts) {... */\n      pop\n      tag_37\n      0x04\n      dup1\n      calldatasize\n      sub\n        /* \"--CODEGEN--\":15:17   */\n      0x40\n        /* \"--CODEGEN--\":10:13   */\n      dup2\n        /* \"--CODEGEN--\":7:18   */\n      lt\n        /* \"--CODEGEN--\":4:6   */\n      iszero\n      tag_51\n      jumpi\n        /* \"--CODEGEN--\":31:32   */\n      0x00\n        /* \"--CODEGEN--\":28:29   */\n      dup1\n        /* \"--CODEGEN--\":21:33   */\n      revert\n        /* \"--CODEGEN--\":4:6   */\n    tag_51:\n        /* \"UniV2/v2-periphery/TaralSwapRouter01.sol\":12574:12767  function getAmountsIn(uint amountOut, address[] memory path) public view override returns (uint[] memory amounts) {... */\n      dup2\n      calldataload\n      swap2\n      swap1\n      dup2\n      add\n      swap1\n      0x40\n      dup2\n      add\n      0x20\n      dup3\n      add\n      calldataload\n      shl(0x20, 0x01)\n        /* \"--CODEGEN--\":11:39   */\n      dup2\n      gt\n        /* \"--CODEGEN--\":8:10   */\n      iszero\n      tag_52\n      jumpi\n        /* \"--CODEGEN--\":52:53   */\n      0x00\n        /* \"--CODEGEN--\":49:50   */\n      dup1\n        /* \"--CODEGEN--\":42:54   */\n      revert\n        /* \"--CODEGEN--\":8:10   */\n    tag_52:\n        /* \"UniV2/v2-periphery/TaralSwapRouter01.sol\":12574:12767  function getAmountsIn(uint amountOut, address[] memory path) public view override returns (uint[] memory amounts) {... */\n      dup3\n      add\n        /* \"--CODEGEN--\":41:50   */\n      dup4\n        /* \"--CODEGEN--\":34:38   */\n      0x20\n        /* \"--CODEGEN--\":18:32   */\n      dup3\n        /* \"--CODEGEN--\":14:39   */\n      add\n        /* \"--CODEGEN--\":11:51   */\n      gt\n        /* \"--CODEGEN--\":8:10   */\n      iszero\n      tag_53\n      jumpi\n        /* \"--CODEGEN--\":64:65   */\n      0x00\n        /* \"--CODEGEN--\":61:62   */\n      dup1\n        /* \"--CODEGEN--\":54:66   */\n      revert\n        /* \"--CODEGEN--\":8:10   */\n    tag_53:\n        /* \"UniV2/v2-periphery/TaralSwapRouter01.sol\":12574:12767  function getAmountsIn(uint amountOut, address[] memory path) public view override returns (uint[] memory amounts) {... */\n      dup1\n      calldataload\n      swap1\n      0x20\n      add\n      swap2\n        /* \"--CODEGEN--\":101:110   */\n      dup5\n        /* \"--CODEGEN--\":95:97   */\n      0x20\n        /* \"--CODEGEN--\":81:93   */\n      dup4\n        /* \"--CODEGEN--\":77:98   */\n      mul\n        /* \"--CODEGEN--\":67:75   */\n      dup5\n        /* \"--CODEGEN--\":63:99   */\n      add\n        /* \"--CODEGEN--\":60:111   */\n      gt\n      shl(0x20, 0x01)\n        /* \"--CODEGEN--\":25:37   */\n      dup4\n        /* \"--CODEGEN--\":22:51   */\n      gt\n        /* \"--CODEGEN--\":11:119   */\n      or\n        /* \"--CODEGEN--\":8:10   */\n      iszero\n      tag_54\n      jumpi\n        /* \"--CODEGEN--\":132:133   */\n      0x00\n        /* \"--CODEGEN--\":129:130   */\n      dup1\n        /* \"--CODEGEN--\":122:134   */\n      revert\n        /* \"--CODEGEN--\":8:10   */\n    tag_54:\n        /* \"UniV2/v2-periphery/TaralSwapRouter01.sol\":12574:12767  function getAmountsIn(uint amountOut, address[] memory path) public view override returns (uint[] memory amounts) {... */\n      swap2\n      swap1\n      dup1\n      dup1\n      0x20\n      mul\n      0x20\n      add\n      mload(0x40)\n      swap1\n      dup2\n      add\n      0x40\n      mstore\n      dup1\n      swap4\n      swap3\n      swap2\n      swap1\n      dup2\n      dup2\n      mstore\n      0x20\n      add\n      dup4\n      dup4\n      0x20\n      mul\n        /* \"--CODEGEN--\":30:33   */\n      dup1\n        /* \"--CODEGEN--\":22:28   */\n      dup3\n        /* \"--CODEGEN--\":14:20   */\n      dup5\n        /* \"--CODEGEN--\":1:34   */\n      calldatacopy\n        /* \"--CODEGEN--\":99:100   */\n      0x00\n        /* \"--CODEGEN--\":81:97   */\n      swap3\n      add\n        /* \"--CODEGEN--\":74:101   */\n      swap2\n      swap1\n      swap2\n      mstore\n      pop\n        /* \"UniV2/v2-periphery/TaralSwapRouter01.sol\":12574:12767  function getAmountsIn(uint amountOut, address[] memory path) public view override returns (uint[] memory amounts) {... */\n      swap3\n      swap6\n      pop\n      tag_55\n      swap5\n      pop\n      pop\n      pop\n      pop\n      pop\n      jump\t// in\n        /* \"UniV2/v2-periphery/TaralSwapRouter01.sol\":5450:6105  function removeLiquidityWithPermit(... */\n    tag_8:\n      callvalue\n        /* \"--CODEGEN--\":5:14   */\n      dup1\n        /* \"--CODEGEN--\":2:4   */\n      iszero\n      tag_59\n      jumpi\n        /* \"--CODEGEN--\":27:28   */\n      0x00\n        /* \"--CODEGEN--\":24:25   */\n      dup1\n        /* \"--CODEGEN--\":17:29   */\n      revert\n        /* \"--CODEGEN--\":2:4   */\n    tag_59:\n        /* \"UniV2/v2-periphery/TaralSwapRouter01.sol\":5450:6105  function removeLiquidityWithPermit(... */\n      pop\n      tag_29\n      0x04\n      dup1\n      calldatasize\n      sub\n        /* \"--CODEGEN--\":15:18   */\n      0x0160\n        /* \"--CODEGEN--\":10:13   */\n      dup2\n        /* \"--CODEGEN--\":7:19   */\n      lt\n        /* \"--CODEGEN--\":4:6   */\n      iszero\n      tag_61\n      jumpi\n        /* \"--CODEGEN--\":32:33   */\n      0x00\n        /* \"--CODEGEN--\":29:30   */\n      dup1\n        /* \"--CODEGEN--\":22:34   */\n      revert\n        /* \"--CODEGEN--\":4:6   */\n    tag_61:\n      pop\n      sub(shl(0xa0, 0x01), 0x01)\n        /* \"UniV2/v2-periphery/TaralSwapRouter01.sol\":5450:6105  function removeLiquidityWithPermit(... */\n      dup2\n      calldataload\n      dup2\n      and\n      swap2\n      0x20\n      dup2\n      add\n      calldataload\n      dup3\n      and\n      swap2\n      0x40\n      dup3\n      add\n      calldataload\n      swap2\n      0x60\n      dup2\n      add\n      calldataload\n      swap2\n      0x80\n      dup3\n      add\n      calldataload\n      swap2\n      0xa0\n      dup2\n      add\n      calldataload\n      swap1\n      swap2\n      and\n      swap1\n      0xc0\n      dup2\n      add\n      calldataload\n      swap1\n      0xe0\n      dup2\n      add\n      calldataload\n      iszero\n      iszero\n      swap1\n      0xff\n      0x0100\n      dup3\n      add\n      calldataload\n      and\n      swap1\n      0x0120\n      dup2\n      add\n      calldataload\n      swap1\n      0x0140\n      add\n      calldataload\n      tag_62\n      jump\t// in\n        /* \"UniV2/v2-periphery/TaralSwapRouter01.sol\":7557:8142  function swapExactTokensForTokens(... */\n    tag_9:\n      callvalue\n        /* \"--CODEGEN--\":5:14   */\n      dup1\n        /* \"--CODEGEN--\":2:4   */\n      iszero\n      tag_63\n      jumpi\n        /* \"--CODEGEN--\":27:28   */\n      0x00\n        /* \"--CODEGEN--\":24:25   */\n      dup1\n        /* \"--CODEGEN--\":17:29   */\n      revert\n        /* \"--CODEGEN--\":2:4   */\n    tag_63:\n        /* \"UniV2/v2-periphery/TaralSwapRouter01.sol\":7557:8142  function swapExactTokensForTokens(... */\n      pop\n      tag_37\n      0x04\n      dup1\n      calldatasize\n      sub\n        /* \"--CODEGEN--\":15:18   */\n      0xa0\n        /* \"--CODEGEN--\":10:13   */\n      dup2\n        /* \"--CODEGEN--\":7:19   */\n      lt\n        /* \"--CODEGEN--\":4:6   */\n      iszero\n      tag_65\n      jumpi\n        /* \"--CODEGEN--\":32:33   */\n      0x00\n        /* \"--CODEGEN--\":29:30   */\n      dup1\n        /* \"--CODEGEN--\":22:34   */\n      revert\n        /* \"--CODEGEN--\":4:6   */\n    tag_65:\n        /* \"UniV2/v2-periphery/TaralSwapRouter01.sol\":7557:8142  function swapExactTokensForTokens(... */\n      dup2\n      calldataload\n      swap2\n      0x20\n      dup2\n      add\n      calldataload\n      swap2\n      dup2\n      add\n      swap1\n      0x60\n      dup2\n      add\n      0x40\n      dup3\n      add\n      calldataload\n      shl(0x20, 0x01)\n        /* \"--CODEGEN--\":11:39   */\n      dup2\n      gt\n        /* \"--CODEGEN--\":8:10   */\n      iszero\n      tag_66\n      jumpi\n        /* \"--CODEGEN--\":52:53   */\n      0x00\n        /* \"--CODEGEN--\":49:50   */\n      dup1\n        /* \"--CODEGEN--\":42:54   */\n      revert\n        /* \"--CODEGEN--\":8:10   */\n    tag_66:\n        /* \"UniV2/v2-periphery/TaralSwapRouter01.sol\":7557:8142  function swapExactTokensForTokens(... */\n      dup3\n      add\n        /* \"--CODEGEN--\":41:50   */\n      dup4\n        /* \"--CODEGEN--\":34:38   */\n      0x20\n        /* \"--CODEGEN--\":18:32   */\n      dup3\n        /* \"--CODEGEN--\":14:39   */\n      add\n        /* \"--CODEGEN--\":11:51   */\n      gt\n        /* \"--CODEGEN--\":8:10   */\n      iszero\n      tag_67\n      jumpi\n        /* \"--CODEGEN--\":64:65   */\n      0x00\n        /* \"--CODEGEN--\":61:62   */\n      dup1\n        /* \"--CODEGEN--\":54:66   */\n      revert\n        /* \"--CODEGEN--\":8:10   */\n    tag_67:\n        /* \"UniV2/v2-periphery/TaralSwapRouter01.sol\":7557:8142  function swapExactTokensForTokens(... */\n      dup1\n      calldataload\n      swap1\n      0x20\n      add\n      swap2\n        /* \"--CODEGEN--\":101:110   */\n      dup5\n        /* \"--CODEGEN--\":95:97   */\n      0x20\n        /* \"--CODEGEN--\":81:93   */\n      dup4\n        /* \"--CODEGEN--\":77:98   */\n      mul\n        /* \"--CODEGEN--\":67:75   */\n      dup5\n        /* \"--CODEGEN--\":63:99   */\n      add\n        /* \"--CODEGEN--\":60:111   */\n      gt\n      shl(0x20, 0x01)\n        /* \"--CODEGEN--\":25:37   */\n      dup4\n        /* \"--CODEGEN--\":22:51   */\n      gt\n        /* \"--CODEGEN--\":11:119   */\n      or\n        /* \"--CODEGEN--\":8:10   */\n      iszero\n      tag_68\n      jumpi\n        /* \"--CODEGEN--\":132:133   */\n      0x00\n        /* \"--CODEGEN--\":129:130   */\n      dup1\n        /* \"--CODEGEN--\":122:134   */\n      revert\n        /* \"--CODEGEN--\":8:10   */\n    tag_68:\n        /* \"UniV2/v2-periphery/TaralSwapRouter01.sol\":7557:8142  function swapExactTokensForTokens(... */\n      swap2\n      swap4\n      pop\n      swap2\n      pop\n      sub(shl(0xa0, 0x01), 0x01)\n      dup2\n      calldataload\n      and\n      swap1\n      0x20\n      add\n      calldataload\n      tag_69\n      jump\t// in\n        /* \"UniV2/v2-periphery/TaralSwapRouter01.sol\":9397:10177  function swapTokensForExactETH(uint amountOut, uint amountInMax, address[] calldata path, address to, uint deadline)... */\n    tag_10:\n      callvalue\n        /* \"--CODEGEN--\":5:14   */\n      dup1\n        /* \"--CODEGEN--\":2:4   */\n      iszero\n      tag_73\n      jumpi\n        /* \"--CODEGEN--\":27:28   */\n      0x00\n        /* \"--CODEGEN--\":24:25   */\n      dup1\n        /* \"--CODEGEN--\":17:29   */\n      revert\n        /* \"--CODEGEN--\":2:4   */\n    tag_73:\n        /* \"UniV2/v2-periphery/TaralSwapRouter01.sol\":9397:10177  function swapTokensForExactETH(uint amountOut, uint amountInMax, address[] calldata path, address to, uint deadline)... */\n      pop\n      tag_37\n      0x04\n      dup1\n      calldatasize\n      sub\n        /* \"--CODEGEN--\":15:18   */\n      0xa0\n        /* \"--CODEGEN--\":10:13   */\n      dup2\n        /* \"--CODEGEN--\":7:19   */\n      lt\n        /* \"--CODEGEN--\":4:6   */\n      iszero\n      tag_75\n      jumpi\n        /* \"--CODEGEN--\":32:33   */\n      0x00\n        /* \"--CODEGEN--\":29:30   */\n      dup1\n        /* \"--CODEGEN--\":22:34   */\n      revert\n        /* \"--CODEGEN--\":4:6   */\n    tag_75:\n        /* \"UniV2/v2-periphery/TaralSwapRouter01.sol\":9397:10177  function swapTokensForExactETH(uint amountOut, uint amountInMax, address[] calldata path, address to, uint deadline)... */\n      dup2\n      calldataload\n      swap2\n      0x20\n      dup2\n      add\n      calldataload\n      swap2\n      dup2\n      add\n      swap1\n      0x60\n      dup2\n      add\n      0x40\n      dup3\n      add\n      calldataload\n      shl(0x20, 0x01)\n        /* \"--CODEGEN--\":11:39   */\n      dup2\n      gt\n        /* \"--CODEGEN--\":8:10   */\n      iszero\n      tag_76\n      jumpi\n        /* \"--CODEGEN--\":52:53   */\n      0x00\n        /* \"--CODEGEN--\":49:50   */\n      dup1\n        /* \"--CODEGEN--\":42:54   */\n      revert\n        /* \"--CODEGEN--\":8:10   */\n    tag_76:\n        /* \"UniV2/v2-periphery/TaralSwapRouter01.sol\":9397:10177  function swapTokensForExactETH(uint amountOut, uint amountInMax, address[] calldata path, address to, uint deadline)... */\n      dup3\n      add\n        /* \"--CODEGEN--\":41:50   */\n      dup4\n        /* \"--CODEGEN--\":34:38   */\n      0x20\n        /* \"--CODEGEN--\":18:32   */\n      dup3\n        /* \"--CODEGEN--\":14:39   */\n      add\n        /* \"--CODEGEN--\":11:51   */\n      gt\n        /* \"--CODEGEN--\":8:10   */\n      iszero\n      tag_77\n      jumpi\n        /* \"--CODEGEN--\":64:65   */\n      0x00\n        /* \"--CODEGEN--\":61:62   */\n      dup1\n        /* \"--CODEGEN--\":54:66   */\n      revert\n        /* \"--CODEGEN--\":8:10   */\n    tag_77:\n        /* \"UniV2/v2-periphery/TaralSwapRouter01.sol\":9397:10177  function swapTokensForExactETH(uint amountOut, uint amountInMax, address[] calldata path, address to, uint deadline)... */\n      dup1\n      calldataload\n      swap1\n      0x20\n      add\n      swap2\n        /* \"--CODEGEN--\":101:110   */\n      dup5\n        /* \"--CODEGEN--\":95:97   */\n      0x20\n        /* \"--CODEGEN--\":81:93   */\n      dup4\n        /* \"--CODEGEN--\":77:98   */\n      mul\n        /* \"--CODEGEN--\":67:75   */\n      dup5\n        /* \"--CODEGEN--\":63:99   */\n      add\n        /* \"--CODEGEN--\":60:111   */\n      gt\n      shl(0x20, 0x01)\n        /* \"--CODEGEN--\":25:37   */\n      dup4\n        /* \"--CODEGEN--\":22:51   */\n      gt\n        /* \"--CODEGEN--\":11:119   */\n      or\n        /* \"--CODEGEN--\":8:10   */\n      iszero\n      tag_78\n      jumpi\n        /* \"--CODEGEN--\":132:133   */\n      0x00\n        /* \"--CODEGEN--\":129:130   */\n      dup1\n        /* \"--CODEGEN--\":122:134   */\n      revert\n        /* \"--CODEGEN--\":8:10   */\n    tag_78:\n        /* \"UniV2/v2-periphery/TaralSwapRouter01.sol\":9397:10177  function swapTokensForExactETH(uint amountOut, uint amountInMax, address[] calldata path, address to, uint deadline)... */\n      swap2\n      swap4\n      pop\n      swap2\n      pop\n      sub(shl(0xa0, 0x01), 0x01)\n      dup2\n      calldataload\n      and\n      swap1\n      0x20\n      add\n      calldataload\n      tag_79\n      jump\t// in\n        /* \"UniV2/v2-periphery/TaralSwapRouter01.sol\":8715:9392  function swapExactETHForTokens(uint amountOutMin, address[] calldata path, address to, uint deadline)... */\n    tag_11:\n      tag_37\n      0x04\n      dup1\n      calldatasize\n      sub\n        /* \"--CODEGEN--\":15:18   */\n      0x80\n        /* \"--CODEGEN--\":10:13   */\n      dup2\n        /* \"--CODEGEN--\":7:19   */\n      lt\n        /* \"--CODEGEN--\":4:6   */\n      iszero\n      tag_84\n      jumpi\n        /* \"--CODEGEN--\":32:33   */\n      0x00\n        /* \"--CODEGEN--\":29:30   */\n      dup1\n        /* \"--CODEGEN--\":22:34   */\n      revert\n        /* \"--CODEGEN--\":4:6   */\n    tag_84:\n        /* \"UniV2/v2-periphery/TaralSwapRouter01.sol\":8715:9392  function swapExactETHForTokens(uint amountOutMin, address[] calldata path, address to, uint deadline)... */\n      dup2\n      calldataload\n      swap2\n      swap1\n      dup2\n      add\n      swap1\n      0x40\n      dup2\n      add\n      0x20\n      dup3\n      add\n      calldataload\n      shl(0x20, 0x01)\n        /* \"--CODEGEN--\":11:39   */\n      dup2\n      gt\n        /* \"--CODEGEN--\":8:10   */\n      iszero\n      tag_85\n      jumpi\n        /* \"--CODEGEN--\":52:53   */\n      0x00\n        /* \"--CODEGEN--\":49:50   */\n      dup1\n        /* \"--CODEGEN--\":42:54   */\n      revert\n        /* \"--CODEGEN--\":8:10   */\n    tag_85:\n        /* \"UniV2/v2-periphery/TaralSwapRouter01.sol\":8715:9392  function swapExactETHForTokens(uint amountOutMin, address[] calldata path, address to, uint deadline)... */\n      dup3\n      add\n        /* \"--CODEGEN--\":41:50   */\n      dup4\n        /* \"--CODEGEN--\":34:38   */\n      0x20\n        /* \"--CODEGEN--\":18:32   */\n      dup3\n        /* \"--CODEGEN--\":14:39   */\n      add\n        /* \"--CODEGEN--\":11:51   */\n      gt\n        /* \"--CODEGEN--\":8:10   */\n      iszero\n      tag_86\n      jumpi\n        /* \"--CODEGEN--\":64:65   */\n      0x00\n        /* \"--CODEGEN--\":61:62   */\n      dup1\n        /* \"--CODEGEN--\":54:66   */\n      revert\n        /* \"--CODEGEN--\":8:10   */\n    tag_86:\n        /* \"UniV2/v2-periphery/TaralSwapRouter01.sol\":8715:9392  function swapExactETHForTokens(uint amountOutMin, address[] calldata path, address to, uint deadline)... */\n      dup1\n      calldataload\n      swap1\n      0x20\n      add\n      swap2\n        /* \"--CODEGEN--\":101:110   */\n      dup5\n        /* \"--CODEGEN--\":95:97   */\n      0x20\n        /* \"--CODEGEN--\":81:93   */\n      dup4\n        /* \"--CODEGEN--\":77:98   */\n      mul\n        /* \"--CODEGEN--\":67:75   */\n      dup5\n        /* \"--CODEGEN--\":63:99   */\n      add\n        /* \"--CODEGEN--\":60:111   */\n      gt\n      shl(0x20, 0x01)\n        /* \"--CODEGEN--\":25:37   */\n      dup4\n        /* \"--CODEGEN--\":22:51   */\n      gt\n        /* \"--CODEGEN--\":11:119   */\n      or\n        /* \"--CODEGEN--\":8:10   */\n      iszero\n      tag_87\n      jumpi\n        /* \"--CODEGEN--\":132:133   */\n      0x00\n        /* \"--CODEGEN--\":129:130   */\n      dup1\n        /* \"--CODEGEN--\":122:134   */\n      revert\n        /* \"--CODEGEN--\":8:10   */\n    tag_87:\n        /* \"UniV2/v2-periphery/TaralSwapRouter01.sol\":8715:9392  function swapExactETHForTokens(uint amountOutMin, address[] calldata path, address to, uint deadline)... */\n      swap2\n      swap4\n      pop\n      swap2\n      pop\n      sub(shl(0xa0, 0x01), 0x01)\n      dup2\n      calldataload\n      and\n      swap1\n      0x20\n      add\n      calldataload\n      tag_88\n      jump\t// in\n        /* \"UniV2/v2-periphery/TaralSwapRouter01.sol\":8147:8710  function swapTokensForExactTokens(... */\n    tag_13:\n      callvalue\n        /* \"--CODEGEN--\":5:14   */\n      dup1\n        /* \"--CODEGEN--\":2:4   */\n      iszero\n      tag_96\n      jumpi\n        /* \"--CODEGEN--\":27:28   */\n      0x00\n        /* \"--CODEGEN--\":24:25   */\n      dup1\n        /* \"--CODEGEN--\":17:29   */\n      revert\n        /* \"--CODEGEN--\":2:4   */\n    tag_96:\n        /* \"UniV2/v2-periphery/TaralSwapRouter01.sol\":8147:8710  function swapTokensForExactTokens(... */\n      pop\n      tag_37\n      0x04\n      dup1\n      calldatasize\n      sub\n        /* \"--CODEGEN--\":15:18   */\n      0xa0\n        /* \"--CODEGEN--\":10:13   */\n      dup2\n        /* \"--CODEGEN--\":7:19   */\n      lt\n        /* \"--CODEGEN--\":4:6   */\n      iszero\n      tag_98\n      jumpi\n        /* \"--CODEGEN--\":32:33   */\n      0x00\n        /* \"--CODEGEN--\":29:30   */\n      dup1\n        /* \"--CODEGEN--\":22:34   */\n      revert\n        /* \"--CODEGEN--\":4:6   */\n    tag_98:\n        /* \"UniV2/v2-periphery/TaralSwapRouter01.sol\":8147:8710  function swapTokensForExactTokens(... */\n      dup2\n      calldataload\n      swap2\n      0x20\n      dup2\n      add\n      calldataload\n      swap2\n      dup2\n      add\n      swap1\n      0x60\n      dup2\n      add\n      0x40\n      dup3\n      add\n      calldataload\n      shl(0x20, 0x01)\n        /* \"--CODEGEN--\":11:39   */\n      dup2\n      gt\n        /* \"--CODEGEN--\":8:10   */\n      iszero\n      tag_99\n      jumpi\n        /* \"--CODEGEN--\":52:53   */\n      0x00\n        /* \"--CODEGEN--\":49:50   */\n      dup1\n        /* \"--CODEGEN--\":42:54   */\n      revert\n        /* \"--CODEGEN--\":8:10   */\n    tag_99:\n        /* \"UniV2/v2-periphery/TaralSwapRouter01.sol\":8147:8710  function swapTokensForExactTokens(... */\n      dup3\n      add\n        /* \"--CODEGEN--\":41:50   */\n      dup4\n        /* \"--CODEGEN--\":34:38   */\n      0x20\n        /* \"--CODEGEN--\":18:32   */\n      dup3\n        /* \"--CODEGEN--\":14:39   */\n      add\n        /* \"--CODEGEN--\":11:51   */\n      gt\n        /* \"--CODEGEN--\":8:10   */\n      iszero\n      tag_100\n      jumpi\n        /* \"--CODEGEN--\":64:65   */\n      0x00\n        /* \"--CODEGEN--\":61:62   */\n      dup1\n        /* \"--CODEGEN--\":54:66   */\n      revert\n        /* \"--CODEGEN--\":8:10   */\n    tag_100:\n        /* \"UniV2/v2-periphery/TaralSwapRouter01.sol\":8147:8710  function swapTokensForExactTokens(... */\n      dup1\n      calldataload\n      swap1\n      0x20\n      add\n      swap2\n        /* \"--CODEGEN--\":101:110   */\n      dup5\n        /* \"--CODEGEN--\":95:97   */\n      0x20\n        /* \"--CODEGEN--\":81:93   */\n      dup4\n        /* \"--CODEGEN--\":77:98   */\n      mul\n        /* \"--CODEGEN--\":67:75   */\n      dup5\n        /* \"--CODEGEN--\":63:99   */\n      add\n        /* \"--CODEGEN--\":60:111   */\n      gt\n      shl(0x20, 0x01)\n        /* \"--CODEGEN--\":25:37   */\n      dup4\n        /* \"--CODEGEN--\":22:51   */\n      gt\n        /* \"--CODEGEN--\":11:119   */\n      or\n        /* \"--CODEGEN--\":8:10   */\n      iszero\n      tag_101\n      jumpi\n        /* \"--CODEGEN--\":132:133   */\n      0x00\n        /* \"--CODEGEN--\":129:130   */\n      dup1\n        /* \"--CODEGEN--\":122:134   */\n      revert\n        /* \"--CODEGEN--\":8:10   */\n    tag_101:\n        /* \"UniV2/v2-periphery/TaralSwapRouter01.sol\":8147:8710  function swapTokensForExactTokens(... */\n      swap2\n      swap4\n      pop\n      swap2\n      pop\n      sub(shl(0xa0, 0x01), 0x01)\n      dup2\n      calldataload\n      and\n      swap1\n      0x20\n      add\n      calldataload\n      tag_102\n      jump\t// in\n        /* \"UniV2/v2-periphery/TaralSwapRouter01.sol\":11775:11953  function quote(uint amountA, uint reserveA, uint reserveB) public pure override returns (uint amountB) {... */\n    tag_14:\n      callvalue\n        /* \"--CODEGEN--\":5:14   */\n      dup1\n        /* \"--CODEGEN--\":2:4   */\n      iszero\n      tag_106\n      jumpi\n        /* \"--CODEGEN--\":27:28   */\n      0x00\n        /* \"--CODEGEN--\":24:25   */\n      dup1\n        /* \"--CODEGEN--\":17:29   */\n      revert\n        /* \"--CODEGEN--\":2:4   */\n    tag_106:\n        /* \"UniV2/v2-periphery/TaralSwapRouter01.sol\":11775:11953  function quote(uint amountA, uint reserveA, uint reserveB) public pure override returns (uint amountB) {... */\n      pop\n      tag_33\n      0x04\n      dup1\n      calldatasize\n      sub\n        /* \"--CODEGEN--\":15:17   */\n      0x60\n        /* \"--CODEGEN--\":10:13   */\n      dup2\n        /* \"--CODEGEN--\":7:18   */\n      lt\n        /* \"--CODEGEN--\":4:6   */\n      iszero\n      tag_108\n      jumpi\n        /* \"--CODEGEN--\":31:32   */\n      0x00\n        /* \"--CODEGEN--\":28:29   */\n      dup1\n        /* \"--CODEGEN--\":21:33   */\n      revert\n        /* \"--CODEGEN--\":4:6   */\n    tag_108:\n      pop\n        /* \"UniV2/v2-periphery/TaralSwapRouter01.sol\":11775:11953  function quote(uint amountA, uint reserveA, uint reserveB) public pure override returns (uint amountB) {... */\n      dup1\n      calldataload\n      swap1\n      0x20\n      dup2\n      add\n      calldataload\n      swap1\n      0x40\n      add\n      calldataload\n      tag_109\n      jump\t// in\n        /* \"UniV2/v2-periphery/TaralSwapRouter01.sol\":3948:4789  function removeLiquidity(... */\n    tag_15:\n      callvalue\n        /* \"--CODEGEN--\":5:14   */\n      dup1\n        /* \"--CODEGEN--\":2:4   */\n      iszero\n      tag_110\n      jumpi\n        /* \"--CODEGEN--\":27:28   */\n      0x00\n        /* \"--CODEGEN--\":24:25   */\n      dup1\n        /* \"--CODEGEN--\":17:29   */\n      revert\n        /* \"--CODEGEN--\":2:4   */\n    tag_110:\n        /* \"UniV2/v2-periphery/TaralSwapRouter01.sol\":3948:4789  function removeLiquidity(... */\n      pop\n      tag_29\n      0x04\n      dup1\n      calldatasize\n      sub\n        /* \"--CODEGEN--\":15:18   */\n      0xe0\n        /* \"--CODEGEN--\":10:13   */\n      dup2\n        /* \"--CODEGEN--\":7:19   */\n      lt\n        /* \"--CODEGEN--\":4:6   */\n      iszero\n      tag_112\n      jumpi\n        /* \"--CODEGEN--\":32:33   */\n      0x00\n        /* \"--CODEGEN--\":29:30   */\n      dup1\n        /* \"--CODEGEN--\":22:34   */\n      revert\n        /* \"--CODEGEN--\":4:6   */\n    tag_112:\n      pop\n      sub(shl(0xa0, 0x01), 0x01)\n        /* \"UniV2/v2-periphery/TaralSwapRouter01.sol\":3948:4789  function removeLiquidity(... */\n      dup2\n      calldataload\n      dup2\n      and\n      swap2\n      0x20\n      dup2\n      add\n      calldataload\n      dup3\n      and\n      swap2\n      0x40\n      dup3\n      add\n      calldataload\n      swap2\n      0x60\n      dup2\n      add\n      calldataload\n      swap2\n      0x80\n      dup3\n      add\n      calldataload\n      swap2\n      0xa0\n      dup2\n      add\n      calldataload\n      swap1\n      swap2\n      and\n      swap1\n      0xc0\n      add\n      calldataload\n      tag_113\n      jump\t// in\n        /* \"UniV2/v2-periphery/TaralSwapRouter01.sol\":372:413  address public immutable override factory */\n    tag_16:\n      callvalue\n        /* \"--CODEGEN--\":5:14   */\n      dup1\n        /* \"--CODEGEN--\":2:4   */\n      iszero\n      tag_114\n      jumpi\n        /* \"--CODEGEN--\":27:28   */\n      0x00\n        /* \"--CODEGEN--\":24:25   */\n      dup1\n        /* \"--CODEGEN--\":17:29   */\n      revert\n        /* \"--CODEGEN--\":2:4   */\n    tag_114:\n        /* \"UniV2/v2-periphery/TaralSwapRouter01.sol\":372:413  address public immutable override factory */\n      pop\n      tag_47\n      tag_116\n      jump\t// in\n        /* \"UniV2/v2-periphery/TaralSwapRouter01.sol\":12375:12568  function getAmountsOut(uint amountIn, address[] memory path) public view override returns (uint[] memory amounts) {... */\n    tag_17:\n      callvalue\n        /* \"--CODEGEN--\":5:14   */\n      dup1\n        /* \"--CODEGEN--\":2:4   */\n      iszero\n      tag_117\n      jumpi\n        /* \"--CODEGEN--\":27:28   */\n      0x00\n        /* \"--CODEGEN--\":24:25   */\n      dup1\n        /* \"--CODEGEN--\":17:29   */\n      revert\n        /* \"--CODEGEN--\":2:4   */\n    tag_117:\n        /* \"UniV2/v2-periphery/TaralSwapRouter01.sol\":12375:12568  function getAmountsOut(uint amountIn, address[] memory path) public view override returns (uint[] memory amounts) {... */\n      pop\n      tag_37\n      0x04\n      dup1\n      calldatasize\n      sub\n        /* \"--CODEGEN--\":15:17   */\n      0x40\n        /* \"--CODEGEN--\":10:13   */\n      dup2\n        /* \"--CODEGEN--\":7:18   */\n      lt\n        /* \"--CODEGEN--\":4:6   */\n      iszero\n      tag_119\n      jumpi\n        /* \"--CODEGEN--\":31:32   */\n      0x00\n        /* \"--CODEGEN--\":28:29   */\n      dup1\n        /* \"--CODEGEN--\":21:33   */\n      revert\n        /* \"--CODEGEN--\":4:6   */\n    tag_119:\n        /* \"UniV2/v2-periphery/TaralSwapRouter01.sol\":12375:12568  function getAmountsOut(uint amountIn, address[] memory path) public view override returns (uint[] memory amounts) {... */\n      dup2\n      calldataload\n      swap2\n      swap1\n      dup2\n      add\n      swap1\n      0x40\n      dup2\n      add\n      0x20\n      dup3\n      add\n      calldataload\n      shl(0x20, 0x01)\n        /* \"--CODEGEN--\":11:39   */\n      dup2\n      gt\n        /* \"--CODEGEN--\":8:10   */\n      iszero\n      tag_120\n      jumpi\n        /* \"--CODEGEN--\":52:53   */\n      0x00\n        /* \"--CODEGEN--\":49:50   */\n      dup1\n        /* \"--CODEGEN--\":42:54   */\n      revert\n        /* \"--CODEGEN--\":8:10   */\n    tag_120:\n        /* \"UniV2/v2-periphery/TaralSwapRouter01.sol\":12375:12568  function getAmountsOut(uint amountIn, address[] memory path) public view override returns (uint[] memory amounts) {... */\n      dup3\n      add\n        /* \"--CODEGEN--\":41:50   */\n      dup4\n        /* \"--CODEGEN--\":34:38   */\n      0x20\n        /* \"--CODEGEN--\":18:32   */\n      dup3\n        /* \"--CODEGEN--\":14:39   */\n      add\n        /* \"--CODEGEN--\":11:51   */\n      gt\n        /* \"--CODEGEN--\":8:10   */\n      iszero\n      tag_121\n      jumpi\n        /* \"--CODEGEN--\":64:65   */\n      0x00\n        /* \"--CODEGEN--\":61:62   */\n      dup1\n        /* \"--CODEGEN--\":54:66   */\n      revert\n        /* \"--CODEGEN--\":8:10   */\n    tag_121:\n        /* \"UniV2/v2-periphery/TaralSwapRouter01.sol\":12375:12568  function getAmountsOut(uint amountIn, address[] memory path) public view override returns (uint[] memory amounts) {... */\n      dup1\n      calldataload\n      swap1\n      0x20\n      add\n      swap2\n        /* \"--CODEGEN--\":101:110   */\n      dup5\n        /* \"--CODEGEN--\":95:97   */\n      0x20\n        /* \"--CODEGEN--\":81:93   */\n      dup4\n        /* \"--CODEGEN--\":77:98   */\n      mul\n        /* \"--CODEGEN--\":67:75   */\n      dup5\n        /* \"--CODEGEN--\":63:99   */\n      add\n        /* \"--CODEGEN--\":60:111   */\n      gt\n      shl(0x20, 0x01)\n        /* \"--CODEGEN--\":25:37   */\n      dup4\n        /* \"--CODEGEN--\":22:51   */\n      gt\n        /* \"--CODEGEN--\":11:119   */\n      or\n        /* \"--CODEGEN--\":8:10   */\n      iszero\n      tag_122\n      jumpi\n        /* \"--CODEGEN--\":132:133   */\n      0x00\n        /* \"--CODEGEN--\":129:130   */\n      dup1\n        /* \"--CODEGEN--\":122:134   */\n      revert\n        /* \"--CODEGEN--\":8:10   */\n    tag_122:\n        /* \"UniV2/v2-periphery/TaralSwapRouter01.sol\":12375:12568  function getAmountsOut(uint amountIn, address[] memory path) public view override returns (uint[] memory amounts) {... */\n      swap2\n      swap1\n      dup1\n      dup1\n      0x20\n      mul\n      0x20\n      add\n      mload(0x40)\n      swap1\n      dup2\n      add\n      0x40\n      mstore\n      dup1\n      swap4\n      swap3\n      swap2\n      swap1\n      dup2\n      dup2\n      mstore\n      0x20\n      add\n      dup4\n      dup4\n      0x20\n      mul\n        /* \"--CODEGEN--\":30:33   */\n      dup1\n        /* \"--CODEGEN--\":22:28   */\n      dup3\n        /* \"--CODEGEN--\":14:20   */\n      dup5\n        /* \"--CODEGEN--\":1:34   */\n      calldatacopy\n        /* \"--CODEGEN--\":99:100   */\n      0x00\n        /* \"--CODEGEN--\":81:97   */\n      swap3\n      add\n        /* \"--CODEGEN--\":74:101   */\n      swap2\n      swap1\n      swap2\n      mstore\n      pop\n        /* \"UniV2/v2-periphery/TaralSwapRouter01.sol\":12375:12568  function getAmountsOut(uint amountIn, address[] memory path) public view override returns (uint[] memory amounts) {... */\n      swap3\n      swap6\n      pop\n      tag_123\n      swap5\n      pop\n      pop\n      pop\n      pop\n      pop\n      jump\t// in\n        /* \"UniV2/v2-periphery/TaralSwapRouter01.sol\":6110:6760  function removeLiquidityETHWithPermit(... */\n    tag_18:\n      callvalue\n        /* \"--CODEGEN--\":5:14   */\n      dup1\n        /* \"--CODEGEN--\":2:4   */\n      iszero\n      tag_127\n      jumpi\n        /* \"--CODEGEN--\":27:28   */\n      0x00\n        /* \"--CODEGEN--\":24:25   */\n      dup1\n        /* \"--CODEGEN--\":17:29   */\n      revert\n        /* \"--CODEGEN--\":2:4   */\n    tag_127:\n        /* \"UniV2/v2-periphery/TaralSwapRouter01.sol\":6110:6760  function removeLiquidityETHWithPermit(... */\n      pop\n      tag_29\n      0x04\n      dup1\n      calldatasize\n      sub\n        /* \"--CODEGEN--\":15:18   */\n      0x0140\n        /* \"--CODEGEN--\":10:13   */\n      dup2\n        /* \"--CODEGEN--\":7:19   */\n      lt\n        /* \"--CODEGEN--\":4:6   */\n      iszero\n      tag_129\n      jumpi\n        /* \"--CODEGEN--\":32:33   */\n      0x00\n        /* \"--CODEGEN--\":29:30   */\n      dup1\n        /* \"--CODEGEN--\":22:34   */\n      revert\n        /* \"--CODEGEN--\":4:6   */\n    tag_129:\n      pop\n      sub(shl(0xa0, 0x01), 0x01)\n        /* \"UniV2/v2-periphery/TaralSwapRouter01.sol\":6110:6760  function removeLiquidityETHWithPermit(... */\n      dup2\n      calldataload\n      dup2\n      and\n      swap2\n      0x20\n      dup2\n      add\n      calldataload\n      swap2\n      0x40\n      dup3\n      add\n      calldataload\n      swap2\n      0x60\n      dup2\n      add\n      calldataload\n      swap2\n      0x80\n      dup3\n      add\n      calldataload\n      and\n      swap1\n      0xa0\n      dup2\n      add\n      calldataload\n      swap1\n      0xc0\n      dup2\n      add\n      calldataload\n      iszero\n      iszero\n      swap1\n      0xff\n      0xe0\n      dup3\n      add\n      calldataload\n      and\n      swap1\n      0x0100\n      dup2\n      add\n      calldataload\n      swap1\n      0x0120\n      add\n      calldataload\n      tag_130\n      jump\t// in\n        /* \"UniV2/v2-periphery/TaralSwapRouter01.sol\":2241:2956  function addLiquidity(... */\n    tag_19:\n      callvalue\n        /* \"--CODEGEN--\":5:14   */\n      dup1\n        /* \"--CODEGEN--\":2:4   */\n      iszero\n      tag_131\n      jumpi\n        /* \"--CODEGEN--\":27:28   */\n      0x00\n        /* \"--CODEGEN--\":24:25   */\n      dup1\n        /* \"--CODEGEN--\":17:29   */\n      revert\n        /* \"--CODEGEN--\":2:4   */\n    tag_131:\n        /* \"UniV2/v2-periphery/TaralSwapRouter01.sol\":2241:2956  function addLiquidity(... */\n      pop\n      tag_132\n      0x04\n      dup1\n      calldatasize\n      sub\n        /* \"--CODEGEN--\":15:18   */\n      0x0100\n        /* \"--CODEGEN--\":10:13   */\n      dup2\n        /* \"--CODEGEN--\":7:19   */\n      lt\n        /* \"--CODEGEN--\":4:6   */\n      iszero\n      tag_133\n      jumpi\n        /* \"--CODEGEN--\":32:33   */\n      0x00\n        /* \"--CODEGEN--\":29:30   */\n      dup1\n        /* \"--CODEGEN--\":22:34   */\n      revert\n        /* \"--CODEGEN--\":4:6   */\n    tag_133:\n      pop\n      sub(shl(0xa0, 0x01), 0x01)\n        /* \"UniV2/v2-periphery/TaralSwapRouter01.sol\":2241:2956  function addLiquidity(... */\n      dup2\n      calldataload\n      dup2\n      and\n      swap2\n      0x20\n      dup2\n      add\n      calldataload\n      dup3\n      and\n      swap2\n      0x40\n      dup3\n      add\n      calldataload\n      swap2\n      0x60\n      dup2\n      add\n      calldataload\n      swap2\n      0x80\n      dup3\n      add\n      calldataload\n      swap2\n      0xa0\n      dup2\n      add\n      calldataload\n      swap2\n      0xc0\n      dup3\n      add\n      calldataload\n      and\n      swap1\n      0xe0\n      add\n      calldataload\n      tag_134\n      jump\t// in\n    tag_132:\n      0x40\n      dup1\n      mload\n      swap4\n      dup5\n      mstore\n      0x20\n      dup5\n      add\n      swap3\n      swap1\n      swap3\n      mstore\n      dup3\n      dup3\n      add\n      mstore\n      mload\n      swap1\n      dup2\n      swap1\n      sub\n      0x60\n      add\n      swap1\n      return\n        /* \"UniV2/v2-periphery/TaralSwapRouter01.sol\":2961:3908  function addLiquidityETH(... */\n    tag_20:\n      tag_132\n      0x04\n      dup1\n      calldatasize\n      sub\n        /* \"--CODEGEN--\":15:18   */\n      0xc0\n        /* \"--CODEGEN--\":10:13   */\n      dup2\n        /* \"--CODEGEN--\":7:19   */\n      lt\n        /* \"--CODEGEN--\":4:6   */\n      iszero\n      tag_136\n      jumpi\n        /* \"--CODEGEN--\":32:33   */\n      0x00\n        /* \"--CODEGEN--\":29:30   */\n      dup1\n        /* \"--CODEGEN--\":22:34   */\n      revert\n        /* \"--CODEGEN--\":4:6   */\n    tag_136:\n      pop\n      sub(shl(0xa0, 0x01), 0x01)\n        /* \"UniV2/v2-periphery/TaralSwapRouter01.sol\":2961:3908  function addLiquidityETH(... */\n      dup2\n      calldataload\n      dup2\n      and\n      swap2\n      0x20\n      dup2\n      add\n      calldataload\n      swap2\n      0x40\n      dup3\n      add\n      calldataload\n      swap2\n      0x60\n      dup2\n      add\n      calldataload\n      swap2\n      0x80\n      dup3\n      add\n      calldataload\n      and\n      swap1\n      0xa0\n      add\n      calldataload\n      tag_137\n      jump\t// in\n        /* \"UniV2/v2-periphery/TaralSwapRouter01.sol\":10989:11769  function swapETHForExactTokens(uint amountOut, address[] calldata path, address to, uint deadline)... */\n    tag_21:\n      tag_37\n      0x04\n      dup1\n      calldatasize\n      sub\n        /* \"--CODEGEN--\":15:18   */\n      0x80\n        /* \"--CODEGEN--\":10:13   */\n      dup2\n        /* \"--CODEGEN--\":7:19   */\n      lt\n        /* \"--CODEGEN--\":4:6   */\n      iszero\n      tag_139\n      jumpi\n        /* \"--CODEGEN--\":32:33   */\n      0x00\n        /* \"--CODEGEN--\":29:30   */\n      dup1\n        /* \"--CODEGEN--\":22:34   */\n      revert\n        /* \"--CODEGEN--\":4:6   */\n    tag_139:\n        /* \"UniV2/v2-periphery/TaralSwapRouter01.sol\":10989:11769  function swapETHForExactTokens(uint amountOut, address[] calldata path, address to, uint deadline)... */\n      dup2\n      calldataload\n      swap2\n      swap1\n      dup2\n      add\n      swap1\n      0x40\n      dup2\n      add\n      0x20\n      dup3\n      add\n      calldataload\n      shl(0x20, 0x01)\n        /* \"--CODEGEN--\":11:39   */\n      dup2\n      gt\n        /* \"--CODEGEN--\":8:10   */\n      iszero\n      tag_140\n      jumpi\n        /* \"--CODEGEN--\":52:53   */\n      0x00\n        /* \"--CODEGEN--\":49:50   */\n      dup1\n        /* \"--CODEGEN--\":42:54   */\n      revert\n        /* \"--CODEGEN--\":8:10   */\n    tag_140:\n        /* \"UniV2/v2-periphery/TaralSwapRouter01.sol\":10989:11769  function swapETHForExactTokens(uint amountOut, address[] calldata path, address to, uint deadline)... */\n      dup3\n      add\n        /* \"--CODEGEN--\":41:50   */\n      dup4\n        /* \"--CODEGEN--\":34:38   */\n      0x20\n        /* \"--CODEGEN--\":18:32   */\n      dup3\n        /* \"--CODEGEN--\":14:39   */\n      add\n        /* \"--CODEGEN--\":11:51   */\n      gt\n        /* \"--CODEGEN--\":8:10   */\n      iszero\n      tag_141\n      jumpi\n        /* \"--CODEGEN--\":64:65   */\n      0x00\n        /* \"--CODEGEN--\":61:62   */\n      dup1\n        /* \"--CODEGEN--\":54:66   */\n      revert\n        /* \"--CODEGEN--\":8:10   */\n    tag_141:\n        /* \"UniV2/v2-periphery/TaralSwapRouter01.sol\":10989:11769  function swapETHForExactTokens(uint amountOut, address[] calldata path, address to, uint deadline)... */\n      dup1\n      calldataload\n      swap1\n      0x20\n      add\n      swap2\n        /* \"--CODEGEN--\":101:110   */\n      dup5\n        /* \"--CODEGEN--\":95:97   */\n      0x20\n        /* \"--CODEGEN--\":81:93   */\n      dup4\n        /* \"--CODEGEN--\":77:98   */\n      mul\n        /* \"--CODEGEN--\":67:75   */\n      dup5\n        /* \"--CODEGEN--\":63:99   */\n      add\n        /* \"--CODEGEN--\":60:111   */\n      gt\n      shl(0x20, 0x01)\n        /* \"--CODEGEN--\":25:37   */\n      dup4\n        /* \"--CODEGEN--\":22:51   */\n      gt\n        /* \"--CODEGEN--\":11:119   */\n      or\n        /* \"--CODEGEN--\":8:10   */\n      iszero\n      tag_142\n      jumpi\n        /* \"--CODEGEN--\":132:133   */\n      0x00\n        /* \"--CODEGEN--\":129:130   */\n      dup1\n        /* \"--CODEGEN--\":122:134   */\n      revert\n        /* \"--CODEGEN--\":8:10   */\n    tag_142:\n        /* \"UniV2/v2-periphery/TaralSwapRouter01.sol\":10989:11769  function swapETHForExactTokens(uint amountOut, address[] calldata path, address to, uint deadline)... */\n      swap2\n      swap4\n      pop\n      swap2\n      pop\n      sub(shl(0xa0, 0x01), 0x01)\n      dup2\n      calldataload\n      and\n      swap1\n      0x20\n      add\n      calldataload\n      tag_143\n      jump\t// in\n        /* \"UniV2/v2-periphery/TaralSwapRouter01.sol\":4794:5445  function removeLiquidityETH(... */\n    tag_31:\n        /* \"UniV2/v2-periphery/TaralSwapRouter01.sol\":5016:5032  uint amountToken */\n      0x00\n        /* \"UniV2/v2-periphery/TaralSwapRouter01.sol\":5034:5048  uint amountETH */\n      dup1\n        /* \"UniV2/v2-periphery/TaralSwapRouter01.sol\":4997:5005  deadline */\n      dup3\n        /* \"UniV2/v2-periphery/TaralSwapRouter01.sol\":527:542  block.timestamp */\n      timestamp\n        /* \"UniV2/v2-periphery/TaralSwapRouter01.sol\":515:523  deadline */\n      dup2\n        /* \"UniV2/v2-periphery/TaralSwapRouter01.sol\":515:542  deadline >= block.timestamp */\n      lt\n      iszero\n        /* \"UniV2/v2-periphery/TaralSwapRouter01.sol\":507:571  require(deadline >= block.timestamp, 'TaralSwapRouter: EXPIRED') */\n      tag_148\n      jumpi\n      0x40\n      dup1\n      mload\n      shl(0xe5, 0x461bcd)\n      dup2\n      mstore\n      0x20\n      0x04\n      dup3\n      add\n      mstore\n      0x18\n      0x24\n      dup3\n      add\n      mstore\n      0x00\n      dup1\n      mload\n      0x20\n      data_e96b09f95fa29a1eee4625e76757185dca0ed927e79d13b4068878b0a4e26735\n      dup4\n      codecopy\n      dup2\n      mload\n      swap2\n      mstore\n      0x44\n      dup3\n      add\n      mstore\n      swap1\n      mload\n      swap1\n      dup2\n      swap1\n      sub\n      0x64\n      add\n      swap1\n      revert\n    tag_148:\n        /* \"UniV2/v2-periphery/TaralSwapRouter01.sol\":5087:5277  removeLiquidity(... */\n      tag_150\n        /* \"UniV2/v2-periphery/TaralSwapRouter01.sol\":5116:5121  token */\n      dup10\n        /* \"UniV2/v2-periphery/TaralSwapRouter01.sol\":5135:5141  WTARAL */\n      immutable(\"0xb87264ef8bf99bc710f0d9de51012e0b2f3ac2595d912802c21dad6f786bfe81\")\n        /* \"UniV2/v2-periphery/TaralSwapRouter01.sol\":5155:5164  liquidity */\n      dup11\n        /* \"UniV2/v2-periphery/TaralSwapRouter01.sol\":5178:5192  amountTokenMin */\n      dup11\n        /* \"UniV2/v2-periphery/TaralSwapRouter01.sol\":5206:5218  amountETHMin */\n      dup11\n        /* \"UniV2/v2-periphery/TaralSwapRouter01.sol\":5240:5244  this */\n      address\n        /* \"UniV2/v2-periphery/TaralSwapRouter01.sol\":5259:5267  deadline */\n      dup11\n        /* \"UniV2/v2-periphery/TaralSwapRouter01.sol\":5087:5102  removeLiquidity */\n      tag_113\n        /* \"UniV2/v2-periphery/TaralSwapRouter01.sol\":5087:5277  removeLiquidity(... */\n      jump\t// in\n    tag_150:\n        /* \"UniV2/v2-periphery/TaralSwapRouter01.sol\":5060:5277  (amountToken, amountETH) = removeLiquidity(... */\n      swap1\n      swap4\n      pop\n      swap2\n      pop\n        /* \"UniV2/v2-periphery/TaralSwapRouter01.sol\":5287:5338  TransferHelper.safeTransfer(token, to, amountToken) */\n      tag_151\n        /* \"UniV2/v2-periphery/TaralSwapRouter01.sol\":5315:5320  token */\n      dup10\n        /* \"UniV2/v2-periphery/TaralSwapRouter01.sol\":5322:5324  to */\n      dup7\n        /* \"UniV2/v2-periphery/TaralSwapRouter01.sol\":5060:5277  (amountToken, amountETH) = removeLiquidity(... */\n      dup6\n        /* \"UniV2/v2-periphery/TaralSwapRouter01.sol\":5287:5314  TransferHelper.safeTransfer */\n      tag_152\n        /* \"UniV2/v2-periphery/TaralSwapRouter01.sol\":5287:5338  TransferHelper.safeTransfer(token, to, amountToken) */\n      jump\t// in\n    tag_151:\n        /* \"UniV2/v2-periphery/TaralSwapRouter01.sol\":5356:5362  WTARAL */\n      immutable(\"0xb87264ef8bf99bc710f0d9de51012e0b2f3ac2595d912802c21dad6f786bfe81\")\n      sub(shl(0xa0, 0x01), 0x01)\n        /* \"UniV2/v2-periphery/TaralSwapRouter01.sol\":5348:5372  IWTARAL(WTARAL).withdraw */\n      and\n      0x2e1a7d4d\n        /* \"UniV2/v2-periphery/TaralSwapRouter01.sol\":5373:5382  amountETH */\n      dup4\n        /* \"UniV2/v2-periphery/TaralSwapRouter01.sol\":5348:5383  IWTARAL(WTARAL).withdraw(amountETH) */\n      mload(0x40)\n      dup3\n      0xffffffff\n      and\n      0xe0\n      shl\n      dup2\n      mstore\n      0x04\n      add\n      dup1\n      dup3\n      dup2\n      mstore\n      0x20\n      add\n      swap2\n      pop\n      pop\n      0x00\n      mload(0x40)\n      dup1\n      dup4\n      sub\n      dup2\n      0x00\n      dup8\n      dup1\n      extcodesize\n      iszero\n        /* \"--CODEGEN--\":5:14   */\n      dup1\n        /* \"--CODEGEN--\":2:4   */\n      iszero\n      tag_153\n      jumpi\n        /* \"--CODEGEN--\":27:28   */\n      0x00\n        /* \"--CODEGEN--\":24:25   */\n      dup1\n        /* \"--CODEGEN--\":17:29   */\n      revert\n        /* \"--CODEGEN--\":2:4   */\n    tag_153:\n        /* \"UniV2/v2-periphery/TaralSwapRouter01.sol\":5348:5383  IWTARAL(WTARAL).withdraw(amountETH) */\n      pop\n      gas\n      call\n      iszero\n        /* \"--CODEGEN--\":8:17   */\n      dup1\n        /* \"--CODEGEN--\":5:7   */\n      iszero\n      tag_155\n      jumpi\n        /* \"--CODEGEN--\":45:61   */\n      returndatasize\n        /* \"--CODEGEN--\":42:43   */\n      0x00\n        /* \"--CODEGEN--\":39:40   */\n      dup1\n        /* \"--CODEGEN--\":24:62   */\n      returndatacopy\n        /* \"--CODEGEN--\":77:93   */\n      returndatasize\n        /* \"--CODEGEN--\":74:75   */\n      0x00\n        /* \"--CODEGEN--\":67:94   */\n      revert\n        /* \"--CODEGEN--\":5:7   */\n    tag_155:\n        /* \"UniV2/v2-periphery/TaralSwapRouter01.sol\":5348:5383  IWTARAL(WTARAL).withdraw(amountETH) */\n      pop\n      pop\n      pop\n      pop\n        /* \"UniV2/v2-periphery/TaralSwapRouter01.sol\":5393:5438  TransferHelper.safeTransferETH(to, amountETH) */\n      tag_156\n        /* \"UniV2/v2-periphery/TaralSwapRouter01.sol\":5424:5426  to */\n      dup6\n        /* \"UniV2/v2-periphery/TaralSwapRouter01.sol\":5428:5437  amountETH */\n      dup4\n        /* \"UniV2/v2-periphery/TaralSwapRouter01.sol\":5393:5423  TransferHelper.safeTransferETH */\n      tag_157\n        /* \"UniV2/v2-periphery/TaralSwapRouter01.sol\":5393:5438  TransferHelper.safeTransferETH(to, amountETH) */\n      jump\t// in\n    tag_156:\n        /* \"UniV2/v2-periphery/TaralSwapRouter01.sol\":4794:5445  function removeLiquidityETH(... */\n      pop\n      swap7\n      pop\n      swap7\n      swap5\n      pop\n      pop\n      pop\n      pop\n      pop\n      jump\t// out\n        /* \"UniV2/v2-periphery/TaralSwapRouter01.sol\":11959:12161  function getAmountOut(uint amountIn, uint reserveIn, uint reserveOut) public pure override returns (uint amountOut) {... */\n    tag_35:\n        /* \"UniV2/v2-periphery/TaralSwapRouter01.sol\":12059:12073  uint amountOut */\n      0x00\n        /* \"UniV2/v2-periphery/TaralSwapRouter01.sol\":12092:12154  TaralSwapLibrary.getAmountOut(amountIn, reserveIn, reserveOut) */\n      tag_159\n        /* \"UniV2/v2-periphery/TaralSwapRouter01.sol\":12122:12130  amountIn */\n      dup5\n        /* \"UniV2/v2-periphery/TaralSwapRouter01.sol\":12132:12141  reserveIn */\n      dup5\n        /* \"UniV2/v2-periphery/TaralSwapRouter01.sol\":12143:12153  reserveOut */\n      dup5\n        /* \"UniV2/v2-periphery/TaralSwapRouter01.sol\":12092:12121  TaralSwapLibrary.getAmountOut */\n      tag_160\n        /* \"UniV2/v2-periphery/TaralSwapRouter01.sol\":12092:12154  TaralSwapLibrary.getAmountOut(amountIn, reserveIn, reserveOut) */\n      jump\t// in\n    tag_159:\n        /* \"UniV2/v2-periphery/TaralSwapRouter01.sol\":12085:12154  return TaralSwapLibrary.getAmountOut(amountIn, reserveIn, reserveOut) */\n      swap5\n        /* \"UniV2/v2-periphery/TaralSwapRouter01.sol\":11959:12161  function getAmountOut(uint amountIn, uint reserveIn, uint reserveOut) public pure override returns (uint amountOut) {... */\n      swap4\n      pop\n      pop\n      pop\n      pop\n      jump\t// out\n        /* \"UniV2/v2-periphery/TaralSwapRouter01.sol\":10182:10984  function swapExactTokensForETH(uint amountIn, uint amountOutMin, address[] calldata path, address to, uint deadline)... */\n    tag_42:\n        /* \"UniV2/v2-periphery/TaralSwapRouter01.sol\":10375:10396  uint[] memory amounts */\n      0x60\n        /* \"UniV2/v2-periphery/TaralSwapRouter01.sol\":10348:10356  deadline */\n      dup2\n        /* \"UniV2/v2-periphery/TaralSwapRouter01.sol\":527:542  block.timestamp */\n      timestamp\n        /* \"UniV2/v2-periphery/TaralSwapRouter01.sol\":515:523  deadline */\n      dup2\n        /* \"UniV2/v2-periphery/TaralSwapRouter01.sol\":515:542  deadline >= block.timestamp */\n      lt\n      iszero\n        /* \"UniV2/v2-periphery/TaralSwapRouter01.sol\":507:571  require(deadline >= block.timestamp, 'TaralSwapRouter: EXPIRED') */\n      tag_162\n      jumpi\n      0x40\n      dup1\n      mload\n      shl(0xe5, 0x461bcd)\n      dup2\n      mstore\n      0x20\n      0x04\n      dup3\n      add\n      mstore\n      0x18\n      0x24\n      dup3\n      add\n      mstore\n      0x00\n      dup1\n      mload\n      0x20\n      data_e96b09f95fa29a1eee4625e76757185dca0ed927e79d13b4068878b0a4e26735\n      dup4\n      codecopy\n      dup2\n      mload\n      swap2\n      mstore\n      0x44\n      dup3\n      add\n      mstore\n      swap1\n      mload\n      swap1\n      dup2\n      swap1\n      sub\n      0x64\n      add\n      swap1\n      revert\n    tag_162:\n      sub(shl(0xa0, 0x01), 0x01)\n        /* \"UniV2/v2-periphery/TaralSwapRouter01.sol\":10445:10451  WTARAL */\n      immutable(\"0xb87264ef8bf99bc710f0d9de51012e0b2f3ac2595d912802c21dad6f786bfe81\")\n        /* \"UniV2/v2-periphery/TaralSwapRouter01.sol\":10420:10451  path[path.length - 1] == WTARAL */\n      and\n        /* \"UniV2/v2-periphery/TaralSwapRouter01.sol\":10420:10424  path */\n      dup7\n      dup7\n      not(0x00)\n        /* \"UniV2/v2-periphery/TaralSwapRouter01.sol\":10425:10440  path.length - 1 */\n      dup2\n      add\n        /* \"UniV2/v2-periphery/TaralSwapRouter01.sol\":10420:10441  path[path.length - 1] */\n      dup2\n      dup2\n      lt\n      tag_164\n      jumpi\n      invalid\n    tag_164:\n      swap1\n      pop\n      0x20\n      mul\n      add\n      calldataload\n      sub(shl(0xa0, 0x01), 0x01)\n      and\n      sub(shl(0xa0, 0x01), 0x01)\n        /* \"UniV2/v2-periphery/TaralSwapRouter01.sol\":10420:10451  path[path.length - 1] == WTARAL */\n      and\n      eq\n        /* \"UniV2/v2-periphery/TaralSwapRouter01.sol\":10412:10485  require(path[path.length - 1] == WTARAL, 'TaralSwapRouter: INVALID_PATH') */\n      tag_165\n      jumpi\n      0x40\n      dup1\n      mload\n      shl(0xe5, 0x461bcd)\n      dup2\n      mstore\n      0x20\n      0x04\n      dup3\n      add\n      mstore\n      0x1d\n      0x24\n      dup3\n      add\n      mstore\n      0x00\n      dup1\n      mload\n      0x20\n      data_df971177b5426e6ce4d394de74a4e6abf41b62b9e691f4e6867726998c87692f\n      dup4\n      codecopy\n      dup2\n      mload\n      swap2\n      mstore\n      0x44\n      dup3\n      add\n      mstore\n      swap1\n      mload\n      swap1\n      dup2\n      swap1\n      sub\n      0x64\n      add\n      swap1\n      revert\n    tag_165:\n        /* \"UniV2/v2-periphery/TaralSwapRouter01.sol\":10505:10560  TaralSwapLibrary.getAmountsOut(factory, amountIn, path) */\n      tag_166\n        /* \"UniV2/v2-periphery/TaralSwapRouter01.sol\":10536:10543  factory */\n      immutable(\"0x198ed63d80d143525b60af21f7dc77e6c7796a43366dbb557d0a8832a905997b\")\n        /* \"UniV2/v2-periphery/TaralSwapRouter01.sol\":10545:10553  amountIn */\n      dup10\n        /* \"UniV2/v2-periphery/TaralSwapRouter01.sol\":10555:10559  path */\n      dup9\n      dup9\n        /* \"UniV2/v2-periphery/TaralSwapRouter01.sol\":10505:10560  TaralSwapLibrary.getAmountsOut(factory, amountIn, path) */\n      dup1\n      dup1\n      0x20\n      mul\n      0x20\n      add\n      mload(0x40)\n      swap1\n      dup2\n      add\n      0x40\n      mstore\n      dup1\n      swap4\n      swap3\n      swap2\n      swap1\n      dup2\n      dup2\n      mstore\n      0x20\n      add\n      dup4\n      dup4\n      0x20\n      mul\n        /* \"--CODEGEN--\":30:33   */\n      dup1\n        /* \"--CODEGEN--\":22:28   */\n      dup3\n        /* \"--CODEGEN--\":14:20   */\n      dup5\n        /* \"--CODEGEN--\":1:34   */\n      calldatacopy\n        /* \"--CODEGEN--\":99:100   */\n      0x00\n        /* \"--CODEGEN--\":81:97   */\n      swap3\n      add\n        /* \"--CODEGEN--\":74:101   */\n      swap2\n      swap1\n      swap2\n      mstore\n      pop\n        /* \"UniV2/v2-periphery/TaralSwapRouter01.sol\":10505:10535  TaralSwapLibrary.getAmountsOut */\n      tag_167\n      swap3\n      pop\n      pop\n      pop\n        /* \"UniV2/v2-periphery/TaralSwapRouter01.sol\":10505:10560  TaralSwapLibrary.getAmountsOut(factory, amountIn, path) */\n      jump\t// in\n    tag_166:\n        /* \"UniV2/v2-periphery/TaralSwapRouter01.sol\":10495:10560  amounts = TaralSwapLibrary.getAmountsOut(factory, amountIn, path) */\n      swap2\n      pop\n        /* \"UniV2/v2-periphery/TaralSwapRouter01.sol\":10609:10621  amountOutMin */\n      dup7\n        /* \"UniV2/v2-periphery/TaralSwapRouter01.sol\":10578:10585  amounts */\n      dup3\n        /* \"UniV2/v2-periphery/TaralSwapRouter01.sol\":10603:10604  1 */\n      0x01\n        /* \"UniV2/v2-periphery/TaralSwapRouter01.sol\":10586:10593  amounts */\n      dup5\n        /* \"UniV2/v2-periphery/TaralSwapRouter01.sol\":10586:10600  amounts.length */\n      mload\n        /* \"UniV2/v2-periphery/TaralSwapRouter01.sol\":10586:10604  amounts.length - 1 */\n      sub\n        /* \"UniV2/v2-periphery/TaralSwapRouter01.sol\":10578:10605  amounts[amounts.length - 1] */\n      dup2\n      mload\n      dup2\n      lt\n      tag_168\n      jumpi\n      invalid\n    tag_168:\n      0x20\n      mul\n      0x20\n      add\n      add\n      mload\n        /* \"UniV2/v2-periphery/TaralSwapRouter01.sol\":10578:10621  amounts[amounts.length - 1] >= amountOutMin */\n      lt\n      iszero\n        /* \"UniV2/v2-periphery/TaralSwapRouter01.sol\":10570:10669  require(amounts[amounts.length - 1] >= amountOutMin, 'TaralSwapRouter: INSUFFICIENT_OUTPUT_AMOUNT') */\n      tag_169\n      jumpi\n      mload(0x40)\n      shl(0xe5, 0x461bcd)\n      dup2\n      mstore\n      0x04\n      add\n      dup1\n      dup1\n      0x20\n      add\n      dup3\n      dup2\n      sub\n      dup3\n      mstore\n      0x2b\n      dup2\n      mstore\n      0x20\n      add\n      dup1\n      data_d1cedc27005fb96d9303e9bc5ef4636504c9cdd8f302363019a792c8d594671d\n      0x2b\n      swap2\n      codecopy\n      0x40\n      add\n      swap2\n      pop\n      pop\n      mload(0x40)\n      dup1\n      swap2\n      sub\n      swap1\n      revert\n    tag_169:\n        /* \"UniV2/v2-periphery/TaralSwapRouter01.sol\":10679:10796  TransferHelper.safeTransferFrom(path[0], msg.sender, TaralSwapLibrary.pairFor(factory, path[0], path[1]), amounts[0]) */\n      tag_170\n        /* \"UniV2/v2-periphery/TaralSwapRouter01.sol\":10711:10715  path */\n      dup7\n      dup7\n        /* \"UniV2/v2-periphery/TaralSwapRouter01.sol\":10716:10717  0 */\n      0x00\n        /* \"UniV2/v2-periphery/TaralSwapRouter01.sol\":10711:10718  path[0] */\n      dup2\n      dup2\n      lt\n      tag_171\n      jumpi\n      invalid\n    tag_171:\n      swap1\n      pop\n      0x20\n      mul\n      add\n      calldataload\n      sub(shl(0xa0, 0x01), 0x01)\n      and\n        /* \"UniV2/v2-periphery/TaralSwapRouter01.sol\":10720:10730  msg.sender */\n      caller\n        /* \"UniV2/v2-periphery/TaralSwapRouter01.sol\":10732:10783  TaralSwapLibrary.pairFor(factory, path[0], path[1]) */\n      tag_172\n        /* \"UniV2/v2-periphery/TaralSwapRouter01.sol\":10757:10764  factory */\n      immutable(\"0x198ed63d80d143525b60af21f7dc77e6c7796a43366dbb557d0a8832a905997b\")\n        /* \"UniV2/v2-periphery/TaralSwapRouter01.sol\":10766:10770  path */\n      dup11\n      dup11\n        /* \"UniV2/v2-periphery/TaralSwapRouter01.sol\":10771:10772  0 */\n      0x00\n        /* \"UniV2/v2-periphery/TaralSwapRouter01.sol\":10766:10773  path[0] */\n      dup2\n      dup2\n      lt\n      tag_173\n      jumpi\n      invalid\n    tag_173:\n      swap1\n      pop\n      0x20\n      mul\n      add\n      calldataload\n      sub(shl(0xa0, 0x01), 0x01)\n      and\n        /* \"UniV2/v2-periphery/TaralSwapRouter01.sol\":10775:10779  path */\n      dup12\n      dup12\n        /* \"UniV2/v2-periphery/TaralSwapRouter01.sol\":10780:10781  1 */\n      0x01\n        /* \"UniV2/v2-periphery/TaralSwapRouter01.sol\":10775:10782  path[1] */\n      dup2\n      dup2\n      lt\n      tag_174\n      jumpi\n      invalid\n    tag_174:\n      swap1\n      pop\n      0x20\n      mul\n      add\n      calldataload\n      sub(shl(0xa0, 0x01), 0x01)\n      and\n        /* \"UniV2/v2-periphery/TaralSwapRouter01.sol\":10732:10756  TaralSwapLibrary.pairFor */\n      tag_175\n        /* \"UniV2/v2-periphery/TaralSwapRouter01.sol\":10732:10783  TaralSwapLibrary.pairFor(factory, path[0], path[1]) */\n      jump\t// in\n    tag_172:\n        /* \"UniV2/v2-periphery/TaralSwapRouter01.sol\":10785:10792  amounts */\n      dup6\n        /* \"UniV2/v2-periphery/TaralSwapRouter01.sol\":10793:10794  0 */\n      0x00\n        /* \"UniV2/v2-periphery/TaralSwapRouter01.sol\":10785:10795  amounts[0] */\n      dup2\n      mload\n      dup2\n      lt\n      tag_176\n      jumpi\n      invalid\n    tag_176:\n      0x20\n      mul\n      0x20\n      add\n      add\n      mload\n        /* \"UniV2/v2-periphery/TaralSwapRouter01.sol\":10679:10710  TransferHelper.safeTransferFrom */\n      tag_177\n        /* \"UniV2/v2-periphery/TaralSwapRouter01.sol\":10679:10796  TransferHelper.safeTransferFrom(path[0], msg.sender, TaralSwapLibrary.pairFor(factory, path[0], path[1]), amounts[0]) */\n      jump\t// in\n    tag_170:\n        /* \"UniV2/v2-periphery/TaralSwapRouter01.sol\":10806:10841  _swap(amounts, path, address(this)) */\n      tag_178\n        /* \"UniV2/v2-periphery/TaralSwapRouter01.sol\":10812:10819  amounts */\n      dup3\n        /* \"UniV2/v2-periphery/TaralSwapRouter01.sol\":10821:10825  path */\n      dup8\n      dup8\n        /* \"UniV2/v2-periphery/TaralSwapRouter01.sol\":10806:10841  _swap(amounts, path, address(this)) */\n      dup1\n      dup1\n      0x20\n      mul\n      0x20\n      add\n      mload(0x40)\n      swap1\n      dup2\n      add\n      0x40\n      mstore\n      dup1\n      swap4\n      swap3\n      swap2\n      swap1\n      dup2\n      dup2\n      mstore\n      0x20\n      add\n      dup4\n      dup4\n      0x20\n      mul\n        /* \"--CODEGEN--\":30:33   */\n      dup1\n        /* \"--CODEGEN--\":22:28   */\n      dup3\n        /* \"--CODEGEN--\":14:20   */\n      dup5\n        /* \"--CODEGEN--\":1:34   */\n      calldatacopy\n        /* \"--CODEGEN--\":99:100   */\n      0x00\n        /* \"--CODEGEN--\":81:97   */\n      swap3\n      add\n        /* \"--CODEGEN--\":74:101   */\n      swap2\n      swap1\n      swap2\n      mstore\n      pop\n        /* \"UniV2/v2-periphery/TaralSwapRouter01.sol\":10835:10839  this */\n      address\n      swap3\n      pop\n        /* \"UniV2/v2-periphery/TaralSwapRouter01.sol\":10806:10811  _swap */\n      tag_179\n      swap2\n      pop\n      pop\n        /* \"UniV2/v2-periphery/TaralSwapRouter01.sol\":10806:10841  _swap(amounts, path, address(this)) */\n      jump\t// in\n    tag_178:\n        /* \"UniV2/v2-periphery/TaralSwapRouter01.sol\":10859:10865  WTARAL */\n      immutable(\"0xb87264ef8bf99bc710f0d9de51012e0b2f3ac2595d912802c21dad6f786bfe81\")\n      sub(shl(0xa0, 0x01), 0x01)\n        /* \"UniV2/v2-periphery/TaralSwapRouter01.sol\":10851:10875  IWTARAL(WTARAL).withdraw */\n      and\n      0x2e1a7d4d\n        /* \"UniV2/v2-periphery/TaralSwapRouter01.sol\":10876:10883  amounts */\n      dup4\n        /* \"UniV2/v2-periphery/TaralSwapRouter01.sol\":10901:10902  1 */\n      0x01\n        /* \"UniV2/v2-periphery/TaralSwapRouter01.sol\":10884:10891  amounts */\n      dup6\n        /* \"UniV2/v2-periphery/TaralSwapRouter01.sol\":10884:10898  amounts.length */\n      mload\n        /* \"UniV2/v2-periphery/TaralSwapRouter01.sol\":10884:10902  amounts.length - 1 */\n      sub\n        /* \"UniV2/v2-periphery/TaralSwapRouter01.sol\":10876:10903  amounts[amounts.length - 1] */\n      dup2\n      mload\n      dup2\n      lt\n      tag_180\n      jumpi\n      invalid\n    tag_180:\n      0x20\n      mul\n      0x20\n      add\n      add\n      mload\n        /* \"UniV2/v2-periphery/TaralSwapRouter01.sol\":10851:10904  IWTARAL(WTARAL).withdraw(amounts[amounts.length - 1]) */\n      mload(0x40)\n      dup3\n      0xffffffff\n      and\n      0xe0\n      shl\n      dup2\n      mstore\n      0x04\n      add\n      dup1\n      dup3\n      dup2\n      mstore\n      0x20\n      add\n      swap2\n      pop\n      pop\n      0x00\n      mload(0x40)\n      dup1\n      dup4\n      sub\n      dup2\n      0x00\n      dup8\n      dup1\n      extcodesize\n      iszero\n        /* \"--CODEGEN--\":5:14   */\n      dup1\n        /* \"--CODEGEN--\":2:4   */\n      iszero\n      tag_181\n      jumpi\n        /* \"--CODEGEN--\":27:28   */\n      0x00\n        /* \"--CODEGEN--\":24:25   */\n      dup1\n        /* \"--CODEGEN--\":17:29   */\n      revert\n        /* \"--CODEGEN--\":2:4   */\n    tag_181:\n        /* \"UniV2/v2-periphery/TaralSwapRouter01.sol\":10851:10904  IWTARAL(WTARAL).withdraw(amounts[amounts.length - 1]) */\n      pop\n      gas\n      call\n      iszero\n        /* \"--CODEGEN--\":8:17   */\n      dup1\n        /* \"--CODEGEN--\":5:7   */\n      iszero\n      tag_183\n      jumpi\n        /* \"--CODEGEN--\":45:61   */\n      returndatasize\n        /* \"--CODEGEN--\":42:43   */\n      0x00\n        /* \"--CODEGEN--\":39:40   */\n      dup1\n        /* \"--CODEGEN--\":24:62   */\n      returndatacopy\n        /* \"--CODEGEN--\":77:93   */\n      returndatasize\n        /* \"--CODEGEN--\":74:75   */\n      0x00\n        /* \"--CODEGEN--\":67:94   */\n      revert\n        /* \"--CODEGEN--\":5:7   */\n    tag_183:\n        /* \"UniV2/v2-periphery/TaralSwapRouter01.sol\":10851:10904  IWTARAL(WTARAL).withdraw(amounts[amounts.length - 1]) */\n      pop\n      pop\n      pop\n      pop\n        /* \"UniV2/v2-periphery/TaralSwapRouter01.sol\":10914:10977  TransferHelper.safeTransferETH(to, amounts[amounts.length - 1]) */\n      tag_184\n        /* \"UniV2/v2-periphery/TaralSwapRouter01.sol\":10945:10947  to */\n      dup5\n        /* \"UniV2/v2-periphery/TaralSwapRouter01.sol\":10949:10956  amounts */\n      dup4\n        /* \"UniV2/v2-periphery/TaralSwapRouter01.sol\":10974:10975  1 */\n      0x01\n        /* \"UniV2/v2-periphery/TaralSwapRouter01.sol\":10957:10964  amounts */\n      dup6\n        /* \"UniV2/v2-periphery/TaralSwapRouter01.sol\":10957:10971  amounts.length */\n      mload\n        /* \"UniV2/v2-periphery/TaralSwapRouter01.sol\":10957:10975  amounts.length - 1 */\n      sub\n        /* \"UniV2/v2-periphery/TaralSwapRouter01.sol\":10949:10976  amounts[amounts.length - 1] */\n      dup2\n      mload\n      dup2\n      lt\n      tag_185\n      jumpi\n      invalid\n    tag_185:\n      0x20\n      mul\n      0x20\n      add\n      add\n      mload\n        /* \"UniV2/v2-periphery/TaralSwapRouter01.sol\":10914:10944  TransferHelper.safeTransferETH */\n      tag_157\n        /* \"UniV2/v2-periphery/TaralSwapRouter01.sol\":10914:10977  TransferHelper.safeTransferETH(to, amounts[amounts.length - 1]) */\n      jump\t// in\n    tag_184:\n        /* \"UniV2/v2-periphery/TaralSwapRouter01.sol\":10182:10984  function swapExactTokensForETH(uint amountIn, uint amountOutMin, address[] calldata path, address to, uint deadline)... */\n      pop\n      swap7\n      swap6\n      pop\n      pop\n      pop\n      pop\n      pop\n      pop\n      jump\t// out\n        /* \"UniV2/v2-periphery/TaralSwapRouter01.sol\":419:459  address public immutable override WTARAL */\n    tag_48:\n      immutable(\"0xb87264ef8bf99bc710f0d9de51012e0b2f3ac2595d912802c21dad6f786bfe81\")\n      dup2\n      jump\t// out\n        /* \"UniV2/v2-periphery/TaralSwapRouter01.sol\":12574:12767  function getAmountsIn(uint amountOut, address[] memory path) public view override returns (uint[] memory amounts) {... */\n    tag_55:\n        /* \"UniV2/v2-periphery/TaralSwapRouter01.sol\":12665:12686  uint[] memory amounts */\n      0x60\n        /* \"UniV2/v2-periphery/TaralSwapRouter01.sol\":12705:12760  TaralSwapLibrary.getAmountsIn(factory, amountOut, path) */\n      tag_187\n        /* \"UniV2/v2-periphery/TaralSwapRouter01.sol\":12735:12742  factory */\n      immutable(\"0x198ed63d80d143525b60af21f7dc77e6c7796a43366dbb557d0a8832a905997b\")\n        /* \"UniV2/v2-periphery/TaralSwapRouter01.sol\":12744:12753  amountOut */\n      dup5\n        /* \"UniV2/v2-periphery/TaralSwapRouter01.sol\":12755:12759  path */\n      dup5\n        /* \"UniV2/v2-periphery/TaralSwapRouter01.sol\":12705:12734  TaralSwapLibrary.getAmountsIn */\n      tag_188\n        /* \"UniV2/v2-periphery/TaralSwapRouter01.sol\":12705:12760  TaralSwapLibrary.getAmountsIn(factory, amountOut, path) */\n      jump\t// in\n    tag_187:\n        /* \"UniV2/v2-periphery/TaralSwapRouter01.sol\":12698:12760  return TaralSwapLibrary.getAmountsIn(factory, amountOut, path) */\n      swap1\n      pop\n        /* \"UniV2/v2-periphery/TaralSwapRouter01.sol\":12574:12767  function getAmountsIn(uint amountOut, address[] memory path) public view override returns (uint[] memory amounts) {... */\n    tag_186:\n      swap3\n      swap2\n      pop\n      pop\n      jump\t// out\n        /* \"UniV2/v2-periphery/TaralSwapRouter01.sol\":5450:6105  function removeLiquidityWithPermit(... */\n    tag_62:\n        /* \"UniV2/v2-periphery/TaralSwapRouter01.sol\":5739:5751  uint amountA */\n      0x00\n        /* \"UniV2/v2-periphery/TaralSwapRouter01.sol\":5753:5765  uint amountB */\n      dup1\n        /* \"UniV2/v2-periphery/TaralSwapRouter01.sol\":5777:5789  address pair */\n      0x00\n        /* \"UniV2/v2-periphery/TaralSwapRouter01.sol\":5792:5841  TaralSwapLibrary.pairFor(factory, tokenA, tokenB) */\n      tag_190\n        /* \"UniV2/v2-periphery/TaralSwapRouter01.sol\":5817:5824  factory */\n      immutable(\"0x198ed63d80d143525b60af21f7dc77e6c7796a43366dbb557d0a8832a905997b\")\n        /* \"UniV2/v2-periphery/TaralSwapRouter01.sol\":5826:5832  tokenA */\n      dup16\n        /* \"UniV2/v2-periphery/TaralSwapRouter01.sol\":5834:5840  tokenB */\n      dup16\n        /* \"UniV2/v2-periphery/TaralSwapRouter01.sol\":5792:5816  TaralSwapLibrary.pairFor */\n      tag_175\n        /* \"UniV2/v2-periphery/TaralSwapRouter01.sol\":5792:5841  TaralSwapLibrary.pairFor(factory, tokenA, tokenB) */\n      jump\t// in\n    tag_190:\n        /* \"UniV2/v2-periphery/TaralSwapRouter01.sol\":5777:5841  address pair = TaralSwapLibrary.pairFor(factory, tokenA, tokenB) */\n      swap1\n      pop\n        /* \"UniV2/v2-periphery/TaralSwapRouter01.sol\":5851:5861  uint value */\n      0x00\n        /* \"UniV2/v2-periphery/TaralSwapRouter01.sol\":5864:5874  approveMax */\n      dup8\n        /* \"UniV2/v2-periphery/TaralSwapRouter01.sol\":5864:5897  approveMax ? uint(-1) : liquidity */\n      tag_191\n      jumpi\n        /* \"UniV2/v2-periphery/TaralSwapRouter01.sol\":5888:5897  liquidity */\n      dup13\n        /* \"UniV2/v2-periphery/TaralSwapRouter01.sol\":5864:5897  approveMax ? uint(-1) : liquidity */\n      jump(tag_192)\n    tag_191:\n      not(0x00)\n    tag_192:\n        /* \"UniV2/v2-periphery/TaralSwapRouter01.sol\":5907:5987  IUniswapV2Pair(pair).permit(msg.sender, address(this), value, deadline, v, r, s) */\n      0x40\n      dup1\n      mload\n      shl(0xe0, 0xd505accf)\n      dup2\n      mstore\n        /* \"UniV2/v2-periphery/TaralSwapRouter01.sol\":5935:5945  msg.sender */\n      caller\n        /* \"UniV2/v2-periphery/TaralSwapRouter01.sol\":5907:5987  IUniswapV2Pair(pair).permit(msg.sender, address(this), value, deadline, v, r, s) */\n      0x04\n      dup3\n      add\n      mstore\n        /* \"UniV2/v2-periphery/TaralSwapRouter01.sol\":5955:5959  this */\n      address\n        /* \"UniV2/v2-periphery/TaralSwapRouter01.sol\":5907:5987  IUniswapV2Pair(pair).permit(msg.sender, address(this), value, deadline, v, r, s) */\n      0x24\n      dup3\n      add\n      mstore\n      0x44\n      dup2\n      add\n      dup4\n      swap1\n      mstore\n      0x64\n      dup2\n      add\n      dup13\n      swap1\n      mstore\n      0xff\n      dup11\n      and\n      0x84\n      dup3\n      add\n      mstore\n      0xa4\n      dup2\n      add\n      dup10\n      swap1\n      mstore\n      0xc4\n      dup2\n      add\n      dup9\n      swap1\n      mstore\n      swap1\n      mload\n        /* \"UniV2/v2-periphery/TaralSwapRouter01.sol\":5851:5897  uint value = approveMax ? uint(-1) : liquidity */\n      swap2\n      swap3\n      pop\n      sub(shl(0xa0, 0x01), 0x01)\n        /* \"UniV2/v2-periphery/TaralSwapRouter01.sol\":5907:5934  IUniswapV2Pair(pair).permit */\n      dup5\n      and\n      swap2\n      0xd505accf\n      swap2\n        /* \"UniV2/v2-periphery/TaralSwapRouter01.sol\":5907:5987  IUniswapV2Pair(pair).permit(msg.sender, address(this), value, deadline, v, r, s) */\n      0xe4\n      dup1\n      dup3\n      add\n      swap3\n      0x00\n      swap3\n      swap1\n      swap2\n      swap1\n      dup3\n      swap1\n      sub\n      add\n      dup2\n      dup4\n        /* \"UniV2/v2-periphery/TaralSwapRouter01.sol\":5907:5934  IUniswapV2Pair(pair).permit */\n      dup8\n        /* \"UniV2/v2-periphery/TaralSwapRouter01.sol\":5907:5987  IUniswapV2Pair(pair).permit(msg.sender, address(this), value, deadline, v, r, s) */\n      dup1\n      extcodesize\n      iszero\n        /* \"--CODEGEN--\":2:4   */\n      dup1\n      iszero\n      tag_193\n      jumpi\n        /* \"--CODEGEN--\":27:28   */\n      0x00\n        /* \"--CODEGEN--\":24:25   */\n      dup1\n        /* \"--CODEGEN--\":17:29   */\n      revert\n        /* \"--CODEGEN--\":2:4   */\n    tag_193:\n        /* \"UniV2/v2-periphery/TaralSwapRouter01.sol\":5907:5987  IUniswapV2Pair(pair).permit(msg.sender, address(this), value, deadline, v, r, s) */\n      pop\n      gas\n      call\n      iszero\n        /* \"--CODEGEN--\":8:17   */\n      dup1\n        /* \"--CODEGEN--\":5:7   */\n      iszero\n      tag_195\n      jumpi\n        /* \"--CODEGEN--\":45:61   */\n      returndatasize\n        /* \"--CODEGEN--\":42:43   */\n      0x00\n        /* \"--CODEGEN--\":39:40   */\n      dup1\n        /* \"--CODEGEN--\":24:62   */\n      returndatacopy\n        /* \"--CODEGEN--\":77:93   */\n      returndatasize\n        /* \"--CODEGEN--\":74:75   */\n      0x00\n        /* \"--CODEGEN--\":67:94   */\n      revert\n        /* \"--CODEGEN--\":5:7   */\n    tag_195:\n        /* \"UniV2/v2-periphery/TaralSwapRouter01.sol\":5907:5987  IUniswapV2Pair(pair).permit(msg.sender, address(this), value, deadline, v, r, s) */\n      pop\n      pop\n      pop\n      pop\n        /* \"UniV2/v2-periphery/TaralSwapRouter01.sol\":6018:6098  removeLiquidity(tokenA, tokenB, liquidity, amountAMin, amountBMin, to, deadline) */\n      tag_196\n        /* \"UniV2/v2-periphery/TaralSwapRouter01.sol\":6034:6040  tokenA */\n      dup16\n        /* \"UniV2/v2-periphery/TaralSwapRouter01.sol\":6042:6048  tokenB */\n      dup16\n        /* \"UniV2/v2-periphery/TaralSwapRouter01.sol\":6050:6059  liquidity */\n      dup16\n        /* \"UniV2/v2-periphery/TaralSwapRouter01.sol\":6061:6071  amountAMin */\n      dup16\n        /* \"UniV2/v2-periphery/TaralSwapRouter01.sol\":6073:6083  amountBMin */\n      dup16\n        /* \"UniV2/v2-periphery/TaralSwapRouter01.sol\":6085:6087  to */\n      dup16\n        /* \"UniV2/v2-periphery/TaralSwapRouter01.sol\":6089:6097  deadline */\n      dup16\n        /* \"UniV2/v2-periphery/TaralSwapRouter01.sol\":6018:6033  removeLiquidity */\n      tag_113\n        /* \"UniV2/v2-periphery/TaralSwapRouter01.sol\":6018:6098  removeLiquidity(tokenA, tokenB, liquidity, amountAMin, amountBMin, to, deadline) */\n      jump\t// in\n    tag_196:\n        /* \"UniV2/v2-periphery/TaralSwapRouter01.sol\":5997:6098  (amountA, amountB) = removeLiquidity(tokenA, tokenB, liquidity, amountAMin, amountBMin, to, deadline) */\n      dup1\n      swap5\n      pop\n      dup2\n      swap6\n      pop\n      pop\n      pop\n        /* \"UniV2/v2-periphery/TaralSwapRouter01.sol\":5450:6105  function removeLiquidityWithPermit(... */\n      pop\n      pop\n      swap12\n      pop\n      swap12\n      swap10\n      pop\n      pop\n      pop\n      pop\n      pop\n      pop\n      pop\n      pop\n      pop\n      pop\n      jump\t// out\n        /* \"UniV2/v2-periphery/TaralSwapRouter01.sol\":7557:8142  function swapExactTokensForTokens(... */\n    tag_69:\n        /* \"UniV2/v2-periphery/TaralSwapRouter01.sol\":7767:7788  uint[] memory amounts */\n      0x60\n        /* \"UniV2/v2-periphery/TaralSwapRouter01.sol\":7748:7756  deadline */\n      dup2\n        /* \"UniV2/v2-periphery/TaralSwapRouter01.sol\":527:542  block.timestamp */\n      timestamp\n        /* \"UniV2/v2-periphery/TaralSwapRouter01.sol\":515:523  deadline */\n      dup2\n        /* \"UniV2/v2-periphery/TaralSwapRouter01.sol\":515:542  deadline >= block.timestamp */\n      lt\n      iszero\n        /* \"UniV2/v2-periphery/TaralSwapRouter01.sol\":507:571  require(deadline >= block.timestamp, 'TaralSwapRouter: EXPIRED') */\n      tag_198\n      jumpi\n      0x40\n      dup1\n      mload\n      shl(0xe5, 0x461bcd)\n      dup2\n      mstore\n      0x20\n      0x04\n      dup3\n      add\n      mstore\n      0x18\n      0x24\n      dup3\n      add\n      mstore\n      0x00\n      dup1\n      mload\n      0x20\n      data_e96b09f95fa29a1eee4625e76757185dca0ed927e79d13b4068878b0a4e26735\n      dup4\n      codecopy\n      dup2\n      mload\n      swap2\n      mstore\n      0x44\n      dup3\n      add\n      mstore\n      swap1\n      mload\n      swap1\n      dup2\n      swap1\n      sub\n      0x64\n      add\n      swap1\n      revert\n    tag_198:\n        /* \"UniV2/v2-periphery/TaralSwapRouter01.sol\":7810:7865  TaralSwapLibrary.getAmountsOut(factory, amountIn, path) */\n      tag_200\n        /* \"UniV2/v2-periphery/TaralSwapRouter01.sol\":7841:7848  factory */\n      immutable(\"0x198ed63d80d143525b60af21f7dc77e6c7796a43366dbb557d0a8832a905997b\")\n        /* \"UniV2/v2-periphery/TaralSwapRouter01.sol\":7850:7858  amountIn */\n      dup10\n        /* \"UniV2/v2-periphery/TaralSwapRouter01.sol\":7860:7864  path */\n      dup9\n      dup9\n        /* \"UniV2/v2-periphery/TaralSwapRouter01.sol\":7810:7865  TaralSwapLibrary.getAmountsOut(factory, amountIn, path) */\n      dup1\n      dup1\n      0x20\n      mul\n      0x20\n      add\n      mload(0x40)\n      swap1\n      dup2\n      add\n      0x40\n      mstore\n      dup1\n      swap4\n      swap3\n      swap2\n      swap1\n      dup2\n      dup2\n      mstore\n      0x20\n      add\n      dup4\n      dup4\n      0x20\n      mul\n        /* \"--CODEGEN--\":30:33   */\n      dup1\n        /* \"--CODEGEN--\":22:28   */\n      dup3\n        /* \"--CODEGEN--\":14:20   */\n      dup5\n        /* \"--CODEGEN--\":1:34   */\n      calldatacopy\n        /* \"--CODEGEN--\":99:100   */\n      0x00\n        /* \"--CODEGEN--\":81:97   */\n      swap3\n      add\n        /* \"--CODEGEN--\":74:101   */\n      swap2\n      swap1\n      swap2\n      mstore\n      pop\n        /* \"UniV2/v2-periphery/TaralSwapRouter01.sol\":7810:7840  TaralSwapLibrary.getAmountsOut */\n      tag_167\n      swap3\n      pop\n      pop\n      pop\n        /* \"UniV2/v2-periphery/TaralSwapRouter01.sol\":7810:7865  TaralSwapLibrary.getAmountsOut(factory, amountIn, path) */\n      jump\t// in\n    tag_200:\n        /* \"UniV2/v2-periphery/TaralSwapRouter01.sol\":7800:7865  amounts = TaralSwapLibrary.getAmountsOut(factory, amountIn, path) */\n      swap2\n      pop\n        /* \"UniV2/v2-periphery/TaralSwapRouter01.sol\":7914:7926  amountOutMin */\n      dup7\n        /* \"UniV2/v2-periphery/TaralSwapRouter01.sol\":7883:7890  amounts */\n      dup3\n        /* \"UniV2/v2-periphery/TaralSwapRouter01.sol\":7908:7909  1 */\n      0x01\n        /* \"UniV2/v2-periphery/TaralSwapRouter01.sol\":7891:7898  amounts */\n      dup5\n        /* \"UniV2/v2-periphery/TaralSwapRouter01.sol\":7891:7905  amounts.length */\n      mload\n        /* \"UniV2/v2-periphery/TaralSwapRouter01.sol\":7891:7909  amounts.length - 1 */\n      sub\n        /* \"UniV2/v2-periphery/TaralSwapRouter01.sol\":7883:7910  amounts[amounts.length - 1] */\n      dup2\n      mload\n      dup2\n      lt\n      tag_201\n      jumpi\n      invalid\n    tag_201:\n      0x20\n      mul\n      0x20\n      add\n      add\n      mload\n        /* \"UniV2/v2-periphery/TaralSwapRouter01.sol\":7883:7926  amounts[amounts.length - 1] >= amountOutMin */\n      lt\n      iszero\n        /* \"UniV2/v2-periphery/TaralSwapRouter01.sol\":7875:7974  require(amounts[amounts.length - 1] >= amountOutMin, 'TaralSwapRouter: INSUFFICIENT_OUTPUT_AMOUNT') */\n      tag_202\n      jumpi\n      mload(0x40)\n      shl(0xe5, 0x461bcd)\n      dup2\n      mstore\n      0x04\n      add\n      dup1\n      dup1\n      0x20\n      add\n      dup3\n      dup2\n      sub\n      dup3\n      mstore\n      0x2b\n      dup2\n      mstore\n      0x20\n      add\n      dup1\n      data_d1cedc27005fb96d9303e9bc5ef4636504c9cdd8f302363019a792c8d594671d\n      0x2b\n      swap2\n      codecopy\n      0x40\n      add\n      swap2\n      pop\n      pop\n      mload(0x40)\n      dup1\n      swap2\n      sub\n      swap1\n      revert\n    tag_202:\n        /* \"UniV2/v2-periphery/TaralSwapRouter01.sol\":7984:8101  TransferHelper.safeTransferFrom(path[0], msg.sender, TaralSwapLibrary.pairFor(factory, path[0], path[1]), amounts[0]) */\n      tag_203\n        /* \"UniV2/v2-periphery/TaralSwapRouter01.sol\":8016:8020  path */\n      dup7\n      dup7\n        /* \"UniV2/v2-periphery/TaralSwapRouter01.sol\":8021:8022  0 */\n      0x00\n        /* \"UniV2/v2-periphery/TaralSwapRouter01.sol\":8016:8023  path[0] */\n      dup2\n      dup2\n      lt\n      tag_171\n      jumpi\n      invalid\n        /* \"UniV2/v2-periphery/TaralSwapRouter01.sol\":7984:8101  TransferHelper.safeTransferFrom(path[0], msg.sender, TaralSwapLibrary.pairFor(factory, path[0], path[1]), amounts[0]) */\n    tag_203:\n        /* \"UniV2/v2-periphery/TaralSwapRouter01.sol\":8111:8135  _swap(amounts, path, to) */\n      tag_184\n        /* \"UniV2/v2-periphery/TaralSwapRouter01.sol\":8117:8124  amounts */\n      dup3\n        /* \"UniV2/v2-periphery/TaralSwapRouter01.sol\":8126:8130  path */\n      dup8\n      dup8\n        /* \"UniV2/v2-periphery/TaralSwapRouter01.sol\":8111:8135  _swap(amounts, path, to) */\n      dup1\n      dup1\n      0x20\n      mul\n      0x20\n      add\n      mload(0x40)\n      swap1\n      dup2\n      add\n      0x40\n      mstore\n      dup1\n      swap4\n      swap3\n      swap2\n      swap1\n      dup2\n      dup2\n      mstore\n      0x20\n      add\n      dup4\n      dup4\n      0x20\n      mul\n        /* \"--CODEGEN--\":30:33   */\n      dup1\n        /* \"--CODEGEN--\":22:28   */\n      dup3\n        /* \"--CODEGEN--\":14:20   */\n      dup5\n        /* \"--CODEGEN--\":1:34   */\n      calldatacopy\n        /* \"--CODEGEN--\":99:100   */\n      0x00\n        /* \"--CODEGEN--\":81:97   */\n      swap3\n      add\n        /* \"--CODEGEN--\":74:101   */\n      swap2\n      swap1\n      swap2\n      mstore\n      pop\n        /* \"UniV2/v2-periphery/TaralSwapRouter01.sol\":8132:8134  to */\n      dup10\n      swap3\n      pop\n        /* \"UniV2/v2-periphery/TaralSwapRouter01.sol\":8111:8116  _swap */\n      tag_179\n      swap2\n      pop\n      pop\n        /* \"UniV2/v2-periphery/TaralSwapRouter01.sol\":8111:8135  _swap(amounts, path, to) */\n      jump\t// in\n        /* \"UniV2/v2-periphery/TaralSwapRouter01.sol\":9397:10177  function swapTokensForExactETH(uint amountOut, uint amountInMax, address[] calldata path, address to, uint deadline)... */\n    tag_79:\n        /* \"UniV2/v2-periphery/TaralSwapRouter01.sol\":9590:9611  uint[] memory amounts */\n      0x60\n        /* \"UniV2/v2-periphery/TaralSwapRouter01.sol\":9563:9571  deadline */\n      dup2\n        /* \"UniV2/v2-periphery/TaralSwapRouter01.sol\":527:542  block.timestamp */\n      timestamp\n        /* \"UniV2/v2-periphery/TaralSwapRouter01.sol\":515:523  deadline */\n      dup2\n        /* \"UniV2/v2-periphery/TaralSwapRouter01.sol\":515:542  deadline >= block.timestamp */\n      lt\n      iszero\n        /* \"UniV2/v2-periphery/TaralSwapRouter01.sol\":507:571  require(deadline >= block.timestamp, 'TaralSwapRouter: EXPIRED') */\n      tag_211\n      jumpi\n      0x40\n      dup1\n      mload\n      shl(0xe5, 0x461bcd)\n      dup2\n      mstore\n      0x20\n      0x04\n      dup3\n      add\n      mstore\n      0x18\n      0x24\n      dup3\n      add\n      mstore\n      0x00\n      dup1\n      mload\n      0x20\n      data_e96b09f95fa29a1eee4625e76757185dca0ed927e79d13b4068878b0a4e26735\n      dup4\n      codecopy\n      dup2\n      mload\n      swap2\n      mstore\n      0x44\n      dup3\n      add\n      mstore\n      swap1\n      mload\n      swap1\n      dup2\n      swap1\n      sub\n      0x64\n      add\n      swap1\n      revert\n    tag_211:\n      sub(shl(0xa0, 0x01), 0x01)\n        /* \"UniV2/v2-periphery/TaralSwapRouter01.sol\":9660:9666  WTARAL */\n      immutable(\"0xb87264ef8bf99bc710f0d9de51012e0b2f3ac2595d912802c21dad6f786bfe81\")\n        /* \"UniV2/v2-periphery/TaralSwapRouter01.sol\":9635:9666  path[path.length - 1] == WTARAL */\n      and\n        /* \"UniV2/v2-periphery/TaralSwapRouter01.sol\":9635:9639  path */\n      dup7\n      dup7\n      not(0x00)\n        /* \"UniV2/v2-periphery/TaralSwapRouter01.sol\":9640:9655  path.length - 1 */\n      dup2\n      add\n        /* \"UniV2/v2-periphery/TaralSwapRouter01.sol\":9635:9656  path[path.length - 1] */\n      dup2\n      dup2\n      lt\n      tag_213\n      jumpi\n      invalid\n    tag_213:\n      swap1\n      pop\n      0x20\n      mul\n      add\n      calldataload\n      sub(shl(0xa0, 0x01), 0x01)\n      and\n      sub(shl(0xa0, 0x01), 0x01)\n        /* \"UniV2/v2-periphery/TaralSwapRouter01.sol\":9635:9666  path[path.length - 1] == WTARAL */\n      and\n      eq\n        /* \"UniV2/v2-periphery/TaralSwapRouter01.sol\":9627:9700  require(path[path.length - 1] == WTARAL, 'TaralSwapRouter: INVALID_PATH') */\n      tag_214\n      jumpi\n      0x40\n      dup1\n      mload\n      shl(0xe5, 0x461bcd)\n      dup2\n      mstore\n      0x20\n      0x04\n      dup3\n      add\n      mstore\n      0x1d\n      0x24\n      dup3\n      add\n      mstore\n      0x00\n      dup1\n      mload\n      0x20\n      data_df971177b5426e6ce4d394de74a4e6abf41b62b9e691f4e6867726998c87692f\n      dup4\n      codecopy\n      dup2\n      mload\n      swap2\n      mstore\n      0x44\n      dup3\n      add\n      mstore\n      swap1\n      mload\n      swap1\n      dup2\n      swap1\n      sub\n      0x64\n      add\n      swap1\n      revert\n    tag_214:\n        /* \"UniV2/v2-periphery/TaralSwapRouter01.sol\":9720:9775  TaralSwapLibrary.getAmountsIn(factory, amountOut, path) */\n      tag_215\n        /* \"UniV2/v2-periphery/TaralSwapRouter01.sol\":9750:9757  factory */\n      immutable(\"0x198ed63d80d143525b60af21f7dc77e6c7796a43366dbb557d0a8832a905997b\")\n        /* \"UniV2/v2-periphery/TaralSwapRouter01.sol\":9759:9768  amountOut */\n      dup10\n        /* \"UniV2/v2-periphery/TaralSwapRouter01.sol\":9770:9774  path */\n      dup9\n      dup9\n        /* \"UniV2/v2-periphery/TaralSwapRouter01.sol\":9720:9775  TaralSwapLibrary.getAmountsIn(factory, amountOut, path) */\n      dup1\n      dup1\n      0x20\n      mul\n      0x20\n      add\n      mload(0x40)\n      swap1\n      dup2\n      add\n      0x40\n      mstore\n      dup1\n      swap4\n      swap3\n      swap2\n      swap1\n      dup2\n      dup2\n      mstore\n      0x20\n      add\n      dup4\n      dup4\n      0x20\n      mul\n        /* \"--CODEGEN--\":30:33   */\n      dup1\n        /* \"--CODEGEN--\":22:28   */\n      dup3\n        /* \"--CODEGEN--\":14:20   */\n      dup5\n        /* \"--CODEGEN--\":1:34   */\n      calldatacopy\n        /* \"--CODEGEN--\":99:100   */\n      0x00\n        /* \"--CODEGEN--\":81:97   */\n      swap3\n      add\n        /* \"--CODEGEN--\":74:101   */\n      swap2\n      swap1\n      swap2\n      mstore\n      pop\n        /* \"UniV2/v2-periphery/TaralSwapRouter01.sol\":9720:9749  TaralSwapLibrary.getAmountsIn */\n      tag_188\n      swap3\n      pop\n      pop\n      pop\n        /* \"UniV2/v2-periphery/TaralSwapRouter01.sol\":9720:9775  TaralSwapLibrary.getAmountsIn(factory, amountOut, path) */\n      jump\t// in\n    tag_215:\n        /* \"UniV2/v2-periphery/TaralSwapRouter01.sol\":9710:9775  amounts = TaralSwapLibrary.getAmountsIn(factory, amountOut, path) */\n      swap2\n      pop\n        /* \"UniV2/v2-periphery/TaralSwapRouter01.sol\":9807:9818  amountInMax */\n      dup7\n        /* \"UniV2/v2-periphery/TaralSwapRouter01.sol\":9793:9800  amounts */\n      dup3\n        /* \"UniV2/v2-periphery/TaralSwapRouter01.sol\":9801:9802  0 */\n      0x00\n        /* \"UniV2/v2-periphery/TaralSwapRouter01.sol\":9793:9803  amounts[0] */\n      dup2\n      mload\n      dup2\n      lt\n      tag_216\n      jumpi\n      invalid\n    tag_216:\n      0x20\n      mul\n      0x20\n      add\n      add\n      mload\n        /* \"UniV2/v2-periphery/TaralSwapRouter01.sol\":9793:9818  amounts[0] <= amountInMax */\n      gt\n      iszero\n        /* \"UniV2/v2-periphery/TaralSwapRouter01.sol\":9785:9862  require(amounts[0] <= amountInMax, 'TaralSwapRouter: EXCESSIVE_INPUT_AMOUNT') */\n      tag_169\n      jumpi\n      mload(0x40)\n      shl(0xe5, 0x461bcd)\n      dup2\n      mstore\n      0x04\n      add\n      dup1\n      dup1\n      0x20\n      add\n      dup3\n      dup2\n      sub\n      dup3\n      mstore\n      0x27\n      dup2\n      mstore\n      0x20\n      add\n      dup1\n      data_5c443119ebb8aeb32321126cfb2ff0dcc2f8093b40ff96bbc9a97732d462f01a\n      0x27\n      swap2\n      codecopy\n      0x40\n      add\n      swap2\n      pop\n      pop\n      mload(0x40)\n      dup1\n      swap2\n      sub\n      swap1\n      revert\n        /* \"UniV2/v2-periphery/TaralSwapRouter01.sol\":8715:9392  function swapExactETHForTokens(uint amountOutMin, address[] calldata path, address to, uint deadline)... */\n    tag_88:\n        /* \"UniV2/v2-periphery/TaralSwapRouter01.sol\":8909:8930  uint[] memory amounts */\n      0x60\n        /* \"UniV2/v2-periphery/TaralSwapRouter01.sol\":8882:8890  deadline */\n      dup2\n        /* \"UniV2/v2-periphery/TaralSwapRouter01.sol\":527:542  block.timestamp */\n      timestamp\n        /* \"UniV2/v2-periphery/TaralSwapRouter01.sol\":515:523  deadline */\n      dup2\n        /* \"UniV2/v2-periphery/TaralSwapRouter01.sol\":515:542  deadline >= block.timestamp */\n      lt\n      iszero\n        /* \"UniV2/v2-periphery/TaralSwapRouter01.sol\":507:571  require(deadline >= block.timestamp, 'TaralSwapRouter: EXPIRED') */\n      tag_232\n      jumpi\n      0x40\n      dup1\n      mload\n      shl(0xe5, 0x461bcd)\n      dup2\n      mstore\n      0x20\n      0x04\n      dup3\n      add\n      mstore\n      0x18\n      0x24\n      dup3\n      add\n      mstore\n      0x00\n      dup1\n      mload\n      0x20\n      data_e96b09f95fa29a1eee4625e76757185dca0ed927e79d13b4068878b0a4e26735\n      dup4\n      codecopy\n      dup2\n      mload\n      swap2\n      mstore\n      0x44\n      dup3\n      add\n      mstore\n      swap1\n      mload\n      swap1\n      dup2\n      swap1\n      sub\n      0x64\n      add\n      swap1\n      revert\n    tag_232:\n        /* \"UniV2/v2-periphery/TaralSwapRouter01.sol\":8965:8971  WTARAL */\n      immutable(\"0xb87264ef8bf99bc710f0d9de51012e0b2f3ac2595d912802c21dad6f786bfe81\")\n      sub(shl(0xa0, 0x01), 0x01)\n        /* \"UniV2/v2-periphery/TaralSwapRouter01.sol\":8954:8971  path[0] == WTARAL */\n      and\n        /* \"UniV2/v2-periphery/TaralSwapRouter01.sol\":8954:8958  path */\n      dup7\n      dup7\n        /* \"UniV2/v2-periphery/TaralSwapRouter01.sol\":8959:8960  0 */\n      0x00\n        /* \"UniV2/v2-periphery/TaralSwapRouter01.sol\":8954:8961  path[0] */\n      dup2\n      dup2\n      lt\n      tag_234\n      jumpi\n      invalid\n    tag_234:\n      swap1\n      pop\n      0x20\n      mul\n      add\n      calldataload\n      sub(shl(0xa0, 0x01), 0x01)\n      and\n      sub(shl(0xa0, 0x01), 0x01)\n        /* \"UniV2/v2-periphery/TaralSwapRouter01.sol\":8954:8971  path[0] == WTARAL */\n      and\n      eq\n        /* \"UniV2/v2-periphery/TaralSwapRouter01.sol\":8946:9005  require(path[0] == WTARAL, 'TaralSwapRouter: INVALID_PATH') */\n      tag_235\n      jumpi\n      0x40\n      dup1\n      mload\n      shl(0xe5, 0x461bcd)\n      dup2\n      mstore\n      0x20\n      0x04\n      dup3\n      add\n      mstore\n      0x1d\n      0x24\n      dup3\n      add\n      mstore\n      0x00\n      dup1\n      mload\n      0x20\n      data_df971177b5426e6ce4d394de74a4e6abf41b62b9e691f4e6867726998c87692f\n      dup4\n      codecopy\n      dup2\n      mload\n      swap2\n      mstore\n      0x44\n      dup3\n      add\n      mstore\n      swap1\n      mload\n      swap1\n      dup2\n      swap1\n      sub\n      0x64\n      add\n      swap1\n      revert\n    tag_235:\n        /* \"UniV2/v2-periphery/TaralSwapRouter01.sol\":9025:9081  TaralSwapLibrary.getAmountsOut(factory, msg.value, path) */\n      tag_236\n        /* \"UniV2/v2-periphery/TaralSwapRouter01.sol\":9056:9063  factory */\n      immutable(\"0x198ed63d80d143525b60af21f7dc77e6c7796a43366dbb557d0a8832a905997b\")\n        /* \"UniV2/v2-periphery/TaralSwapRouter01.sol\":9065:9074  msg.value */\n      callvalue\n        /* \"UniV2/v2-periphery/TaralSwapRouter01.sol\":9076:9080  path */\n      dup9\n      dup9\n        /* \"UniV2/v2-periphery/TaralSwapRouter01.sol\":9025:9081  TaralSwapLibrary.getAmountsOut(factory, msg.value, path) */\n      dup1\n      dup1\n      0x20\n      mul\n      0x20\n      add\n      mload(0x40)\n      swap1\n      dup2\n      add\n      0x40\n      mstore\n      dup1\n      swap4\n      swap3\n      swap2\n      swap1\n      dup2\n      dup2\n      mstore\n      0x20\n      add\n      dup4\n      dup4\n      0x20\n      mul\n        /* \"--CODEGEN--\":30:33   */\n      dup1\n        /* \"--CODEGEN--\":22:28   */\n      dup3\n        /* \"--CODEGEN--\":14:20   */\n      dup5\n        /* \"--CODEGEN--\":1:34   */\n      calldatacopy\n        /* \"--CODEGEN--\":99:100   */\n      0x00\n        /* \"--CODEGEN--\":81:97   */\n      swap3\n      add\n        /* \"--CODEGEN--\":74:101   */\n      swap2\n      swap1\n      swap2\n      mstore\n      pop\n        /* \"UniV2/v2-periphery/TaralSwapRouter01.sol\":9025:9055  TaralSwapLibrary.getAmountsOut */\n      tag_167\n      swap3\n      pop\n      pop\n      pop\n        /* \"UniV2/v2-periphery/TaralSwapRouter01.sol\":9025:9081  TaralSwapLibrary.getAmountsOut(factory, msg.value, path) */\n      jump\t// in\n    tag_236:\n        /* \"UniV2/v2-periphery/TaralSwapRouter01.sol\":9015:9081  amounts = TaralSwapLibrary.getAmountsOut(factory, msg.value, path) */\n      swap2\n      pop\n        /* \"UniV2/v2-periphery/TaralSwapRouter01.sol\":9130:9142  amountOutMin */\n      dup7\n        /* \"UniV2/v2-periphery/TaralSwapRouter01.sol\":9099:9106  amounts */\n      dup3\n        /* \"UniV2/v2-periphery/TaralSwapRouter01.sol\":9124:9125  1 */\n      0x01\n        /* \"UniV2/v2-periphery/TaralSwapRouter01.sol\":9107:9114  amounts */\n      dup5\n        /* \"UniV2/v2-periphery/TaralSwapRouter01.sol\":9107:9121  amounts.length */\n      mload\n        /* \"UniV2/v2-periphery/TaralSwapRouter01.sol\":9107:9125  amounts.length - 1 */\n      sub\n        /* \"UniV2/v2-periphery/TaralSwapRouter01.sol\":9099:9126  amounts[amounts.length - 1] */\n      dup2\n      mload\n      dup2\n      lt\n      tag_237\n      jumpi\n      invalid\n    tag_237:\n      0x20\n      mul\n      0x20\n      add\n      add\n      mload\n        /* \"UniV2/v2-periphery/TaralSwapRouter01.sol\":9099:9142  amounts[amounts.length - 1] >= amountOutMin */\n      lt\n      iszero\n        /* \"UniV2/v2-periphery/TaralSwapRouter01.sol\":9091:9190  require(amounts[amounts.length - 1] >= amountOutMin, 'TaralSwapRouter: INSUFFICIENT_OUTPUT_AMOUNT') */\n      tag_238\n      jumpi\n      mload(0x40)\n      shl(0xe5, 0x461bcd)\n      dup2\n      mstore\n      0x04\n      add\n      dup1\n      dup1\n      0x20\n      add\n      dup3\n      dup2\n      sub\n      dup3\n      mstore\n      0x2b\n      dup2\n      mstore\n      0x20\n      add\n      dup1\n      data_d1cedc27005fb96d9303e9bc5ef4636504c9cdd8f302363019a792c8d594671d\n      0x2b\n      swap2\n      codecopy\n      0x40\n      add\n      swap2\n      pop\n      pop\n      mload(0x40)\n      dup1\n      swap2\n      sub\n      swap1\n      revert\n    tag_238:\n        /* \"UniV2/v2-periphery/TaralSwapRouter01.sol\":9208:9214  WTARAL */\n      immutable(\"0xb87264ef8bf99bc710f0d9de51012e0b2f3ac2595d912802c21dad6f786bfe81\")\n      sub(shl(0xa0, 0x01), 0x01)\n        /* \"UniV2/v2-periphery/TaralSwapRouter01.sol\":9200:9223  IWTARAL(WTARAL).deposit */\n      and\n      0xd0e30db0\n        /* \"UniV2/v2-periphery/TaralSwapRouter01.sol\":9231:9238  amounts */\n      dup4\n        /* \"UniV2/v2-periphery/TaralSwapRouter01.sol\":9239:9240  0 */\n      0x00\n        /* \"UniV2/v2-periphery/TaralSwapRouter01.sol\":9231:9241  amounts[0] */\n      dup2\n      mload\n      dup2\n      lt\n      tag_239\n      jumpi\n      invalid\n    tag_239:\n      0x20\n      mul\n      0x20\n      add\n      add\n      mload\n        /* \"UniV2/v2-periphery/TaralSwapRouter01.sol\":9200:9244  IWTARAL(WTARAL).deposit{value: amounts[0]}() */\n      mload(0x40)\n      dup3\n      0xffffffff\n      and\n      0xe0\n      shl\n      dup2\n      mstore\n      0x04\n      add\n      0x00\n      mload(0x40)\n      dup1\n      dup4\n      sub\n      dup2\n      dup6\n      dup9\n      dup1\n      extcodesize\n      iszero\n        /* \"--CODEGEN--\":5:14   */\n      dup1\n        /* \"--CODEGEN--\":2:4   */\n      iszero\n      tag_240\n      jumpi\n        /* \"--CODEGEN--\":27:28   */\n      0x00\n        /* \"--CODEGEN--\":24:25   */\n      dup1\n        /* \"--CODEGEN--\":17:29   */\n      revert\n        /* \"--CODEGEN--\":2:4   */\n    tag_240:\n        /* \"UniV2/v2-periphery/TaralSwapRouter01.sol\":9200:9244  IWTARAL(WTARAL).deposit{value: amounts[0]}() */\n      pop\n      gas\n      call\n      iszero\n        /* \"--CODEGEN--\":8:17   */\n      dup1\n        /* \"--CODEGEN--\":5:7   */\n      iszero\n      tag_242\n      jumpi\n        /* \"--CODEGEN--\":45:61   */\n      returndatasize\n        /* \"--CODEGEN--\":42:43   */\n      0x00\n        /* \"--CODEGEN--\":39:40   */\n      dup1\n        /* \"--CODEGEN--\":24:62   */\n      returndatacopy\n        /* \"--CODEGEN--\":77:93   */\n      returndatasize\n        /* \"--CODEGEN--\":74:75   */\n      0x00\n        /* \"--CODEGEN--\":67:94   */\n      revert\n        /* \"--CODEGEN--\":5:7   */\n    tag_242:\n        /* \"UniV2/v2-periphery/TaralSwapRouter01.sol\":9200:9244  IWTARAL(WTARAL).deposit{value: amounts[0]}() */\n      pop\n      pop\n      pop\n      pop\n      pop\n        /* \"UniV2/v2-periphery/TaralSwapRouter01.sol\":9269:9275  WTARAL */\n      immutable(\"0xb87264ef8bf99bc710f0d9de51012e0b2f3ac2595d912802c21dad6f786bfe81\")\n      sub(shl(0xa0, 0x01), 0x01)\n        /* \"UniV2/v2-periphery/TaralSwapRouter01.sol\":9261:9285  IWTARAL(WTARAL).transfer */\n      and\n      0xa9059cbb\n        /* \"UniV2/v2-periphery/TaralSwapRouter01.sol\":9286:9337  TaralSwapLibrary.pairFor(factory, path[0], path[1]) */\n      tag_243\n        /* \"UniV2/v2-periphery/TaralSwapRouter01.sol\":9311:9318  factory */\n      immutable(\"0x198ed63d80d143525b60af21f7dc77e6c7796a43366dbb557d0a8832a905997b\")\n        /* \"UniV2/v2-periphery/TaralSwapRouter01.sol\":9320:9324  path */\n      dup10\n      dup10\n        /* \"UniV2/v2-periphery/TaralSwapRouter01.sol\":9325:9326  0 */\n      0x00\n        /* \"UniV2/v2-periphery/TaralSwapRouter01.sol\":9320:9327  path[0] */\n      dup2\n      dup2\n      lt\n      tag_244\n      jumpi\n      invalid\n    tag_244:\n      swap1\n      pop\n      0x20\n      mul\n      add\n      calldataload\n      sub(shl(0xa0, 0x01), 0x01)\n      and\n        /* \"UniV2/v2-periphery/TaralSwapRouter01.sol\":9329:9333  path */\n      dup11\n      dup11\n        /* \"UniV2/v2-periphery/TaralSwapRouter01.sol\":9334:9335  1 */\n      0x01\n        /* \"UniV2/v2-periphery/TaralSwapRouter01.sol\":9329:9336  path[1] */\n      dup2\n      dup2\n      lt\n      tag_174\n      jumpi\n      invalid\n        /* \"UniV2/v2-periphery/TaralSwapRouter01.sol\":9286:9337  TaralSwapLibrary.pairFor(factory, path[0], path[1]) */\n    tag_243:\n        /* \"UniV2/v2-periphery/TaralSwapRouter01.sol\":9339:9346  amounts */\n      dup5\n        /* \"UniV2/v2-periphery/TaralSwapRouter01.sol\":9347:9348  0 */\n      0x00\n        /* \"UniV2/v2-periphery/TaralSwapRouter01.sol\":9339:9349  amounts[0] */\n      dup2\n      mload\n      dup2\n      lt\n      tag_246\n      jumpi\n      invalid\n    tag_246:\n      0x20\n      mul\n      0x20\n      add\n      add\n      mload\n        /* \"UniV2/v2-periphery/TaralSwapRouter01.sol\":9261:9350  IWTARAL(WTARAL).transfer(TaralSwapLibrary.pairFor(factory, path[0], path[1]), amounts[0]) */\n      mload(0x40)\n      dup4\n      0xffffffff\n      and\n      0xe0\n      shl\n      dup2\n      mstore\n      0x04\n      add\n      dup1\n      dup4\n      sub(shl(0xa0, 0x01), 0x01)\n      and\n      sub(shl(0xa0, 0x01), 0x01)\n      and\n      dup2\n      mstore\n      0x20\n      add\n      dup3\n      dup2\n      mstore\n      0x20\n      add\n      swap3\n      pop\n      pop\n      pop\n      0x20\n      mload(0x40)\n      dup1\n      dup4\n      sub\n      dup2\n      0x00\n      dup8\n      dup1\n      extcodesize\n      iszero\n        /* \"--CODEGEN--\":5:14   */\n      dup1\n        /* \"--CODEGEN--\":2:4   */\n      iszero\n      tag_247\n      jumpi\n        /* \"--CODEGEN--\":27:28   */\n      0x00\n        /* \"--CODEGEN--\":24:25   */\n      dup1\n        /* \"--CODEGEN--\":17:29   */\n      revert\n        /* \"--CODEGEN--\":2:4   */\n    tag_247:\n        /* \"UniV2/v2-periphery/TaralSwapRouter01.sol\":9261:9350  IWTARAL(WTARAL).transfer(TaralSwapLibrary.pairFor(factory, path[0], path[1]), amounts[0]) */\n      pop\n      gas\n      call\n      iszero\n        /* \"--CODEGEN--\":8:17   */\n      dup1\n        /* \"--CODEGEN--\":5:7   */\n      iszero\n      tag_249\n      jumpi\n        /* \"--CODEGEN--\":45:61   */\n      returndatasize\n        /* \"--CODEGEN--\":42:43   */\n      0x00\n        /* \"--CODEGEN--\":39:40   */\n      dup1\n        /* \"--CODEGEN--\":24:62   */\n      returndatacopy\n        /* \"--CODEGEN--\":77:93   */\n      returndatasize\n        /* \"--CODEGEN--\":74:75   */\n      0x00\n        /* \"--CODEGEN--\":67:94   */\n      revert\n        /* \"--CODEGEN--\":5:7   */\n    tag_249:\n        /* \"UniV2/v2-periphery/TaralSwapRouter01.sol\":9261:9350  IWTARAL(WTARAL).transfer(TaralSwapLibrary.pairFor(factory, path[0], path[1]), amounts[0]) */\n      pop\n      pop\n      pop\n      pop\n      mload(0x40)\n      returndatasize\n        /* \"--CODEGEN--\":15:17   */\n      0x20\n        /* \"--CODEGEN--\":10:13   */\n      dup2\n        /* \"--CODEGEN--\":7:18   */\n      lt\n        /* \"--CODEGEN--\":4:6   */\n      iszero\n      tag_250\n      jumpi\n        /* \"--CODEGEN--\":31:32   */\n      0x00\n        /* \"--CODEGEN--\":28:29   */\n      dup1\n        /* \"--CODEGEN--\":21:33   */\n      revert\n        /* \"--CODEGEN--\":4:6   */\n    tag_250:\n      pop\n        /* \"UniV2/v2-periphery/TaralSwapRouter01.sol\":9261:9350  IWTARAL(WTARAL).transfer(TaralSwapLibrary.pairFor(factory, path[0], path[1]), amounts[0]) */\n      mload\n        /* \"UniV2/v2-periphery/TaralSwapRouter01.sol\":9254:9351  assert(IWTARAL(WTARAL).transfer(TaralSwapLibrary.pairFor(factory, path[0], path[1]), amounts[0])) */\n      tag_251\n      jumpi\n      invalid\n    tag_251:\n        /* \"UniV2/v2-periphery/TaralSwapRouter01.sol\":9361:9385  _swap(amounts, path, to) */\n      tag_252\n        /* \"UniV2/v2-periphery/TaralSwapRouter01.sol\":9367:9374  amounts */\n      dup3\n        /* \"UniV2/v2-periphery/TaralSwapRouter01.sol\":9376:9380  path */\n      dup8\n      dup8\n        /* \"UniV2/v2-periphery/TaralSwapRouter01.sol\":9361:9385  _swap(amounts, path, to) */\n      dup1\n      dup1\n      0x20\n      mul\n      0x20\n      add\n      mload(0x40)\n      swap1\n      dup2\n      add\n      0x40\n      mstore\n      dup1\n      swap4\n      swap3\n      swap2\n      swap1\n      dup2\n      dup2\n      mstore\n      0x20\n      add\n      dup4\n      dup4\n      0x20\n      mul\n        /* \"--CODEGEN--\":30:33   */\n      dup1\n        /* \"--CODEGEN--\":22:28   */\n      dup3\n        /* \"--CODEGEN--\":14:20   */\n      dup5\n        /* \"--CODEGEN--\":1:34   */\n      calldatacopy\n        /* \"--CODEGEN--\":99:100   */\n      0x00\n        /* \"--CODEGEN--\":81:97   */\n      swap3\n      add\n        /* \"--CODEGEN--\":74:101   */\n      swap2\n      swap1\n      swap2\n      mstore\n      pop\n        /* \"UniV2/v2-periphery/TaralSwapRouter01.sol\":9382:9384  to */\n      dup10\n      swap3\n      pop\n        /* \"UniV2/v2-periphery/TaralSwapRouter01.sol\":9361:9366  _swap */\n      tag_179\n      swap2\n      pop\n      pop\n        /* \"UniV2/v2-periphery/TaralSwapRouter01.sol\":9361:9385  _swap(amounts, path, to) */\n      jump\t// in\n    tag_252:\n        /* \"UniV2/v2-periphery/TaralSwapRouter01.sol\":8715:9392  function swapExactETHForTokens(uint amountOutMin, address[] calldata path, address to, uint deadline)... */\n      pop\n      swap6\n      swap5\n      pop\n      pop\n      pop\n      pop\n      pop\n      jump\t// out\n        /* \"UniV2/v2-periphery/TaralSwapRouter01.sol\":8147:8710  function swapTokensForExactTokens(... */\n    tag_102:\n        /* \"UniV2/v2-periphery/TaralSwapRouter01.sol\":8357:8378  uint[] memory amounts */\n      0x60\n        /* \"UniV2/v2-periphery/TaralSwapRouter01.sol\":8338:8346  deadline */\n      dup2\n        /* \"UniV2/v2-periphery/TaralSwapRouter01.sol\":527:542  block.timestamp */\n      timestamp\n        /* \"UniV2/v2-periphery/TaralSwapRouter01.sol\":515:523  deadline */\n      dup2\n        /* \"UniV2/v2-periphery/TaralSwapRouter01.sol\":515:542  deadline >= block.timestamp */\n      lt\n      iszero\n        /* \"UniV2/v2-periphery/TaralSwapRouter01.sol\":507:571  require(deadline >= block.timestamp, 'TaralSwapRouter: EXPIRED') */\n      tag_256\n      jumpi\n      0x40\n      dup1\n      mload\n      shl(0xe5, 0x461bcd)\n      dup2\n      mstore\n      0x20\n      0x04\n      dup3\n      add\n      mstore\n      0x18\n      0x24\n      dup3\n      add\n      mstore\n      0x00\n      dup1\n      mload\n      0x20\n      data_e96b09f95fa29a1eee4625e76757185dca0ed927e79d13b4068878b0a4e26735\n      dup4\n      codecopy\n      dup2\n      mload\n      swap2\n      mstore\n      0x44\n      dup3\n      add\n      mstore\n      swap1\n      mload\n      swap1\n      dup2\n      swap1\n      sub\n      0x64\n      add\n      swap1\n      revert\n    tag_256:\n        /* \"UniV2/v2-periphery/TaralSwapRouter01.sol\":8400:8455  TaralSwapLibrary.getAmountsIn(factory, amountOut, path) */\n      tag_258\n        /* \"UniV2/v2-periphery/TaralSwapRouter01.sol\":8430:8437  factory */\n      immutable(\"0x198ed63d80d143525b60af21f7dc77e6c7796a43366dbb557d0a8832a905997b\")\n        /* \"UniV2/v2-periphery/TaralSwapRouter01.sol\":8439:8448  amountOut */\n      dup10\n        /* \"UniV2/v2-periphery/TaralSwapRouter01.sol\":8450:8454  path */\n      dup9\n      dup9\n        /* \"UniV2/v2-periphery/TaralSwapRouter01.sol\":8400:8455  TaralSwapLibrary.getAmountsIn(factory, amountOut, path) */\n      dup1\n      dup1\n      0x20\n      mul\n      0x20\n      add\n      mload(0x40)\n      swap1\n      dup2\n      add\n      0x40\n      mstore\n      dup1\n      swap4\n      swap3\n      swap2\n      swap1\n      dup2\n      dup2\n      mstore\n      0x20\n      add\n      dup4\n      dup4\n      0x20\n      mul\n        /* \"--CODEGEN--\":30:33   */\n      dup1\n        /* \"--CODEGEN--\":22:28   */\n      dup3\n        /* \"--CODEGEN--\":14:20   */\n      dup5\n        /* \"--CODEGEN--\":1:34   */\n      calldatacopy\n        /* \"--CODEGEN--\":99:100   */\n      0x00\n        /* \"--CODEGEN--\":81:97   */\n      swap3\n      add\n        /* \"--CODEGEN--\":74:101   */\n      swap2\n      swap1\n      swap2\n      mstore\n      pop\n        /* \"UniV2/v2-periphery/TaralSwapRouter01.sol\":8400:8429  TaralSwapLibrary.getAmountsIn */\n      tag_188\n      swap3\n      pop\n      pop\n      pop\n        /* \"UniV2/v2-periphery/TaralSwapRouter01.sol\":8400:8455  TaralSwapLibrary.getAmountsIn(factory, amountOut, path) */\n      jump\t// in\n    tag_258:\n        /* \"UniV2/v2-periphery/TaralSwapRouter01.sol\":8390:8455  amounts = TaralSwapLibrary.getAmountsIn(factory, amountOut, path) */\n      swap2\n      pop\n        /* \"UniV2/v2-periphery/TaralSwapRouter01.sol\":8487:8498  amountInMax */\n      dup7\n        /* \"UniV2/v2-periphery/TaralSwapRouter01.sol\":8473:8480  amounts */\n      dup3\n        /* \"UniV2/v2-periphery/TaralSwapRouter01.sol\":8481:8482  0 */\n      0x00\n        /* \"UniV2/v2-periphery/TaralSwapRouter01.sol\":8473:8483  amounts[0] */\n      dup2\n      mload\n      dup2\n      lt\n      tag_259\n      jumpi\n      invalid\n    tag_259:\n      0x20\n      mul\n      0x20\n      add\n      add\n      mload\n        /* \"UniV2/v2-periphery/TaralSwapRouter01.sol\":8473:8498  amounts[0] <= amountInMax */\n      gt\n      iszero\n        /* \"UniV2/v2-periphery/TaralSwapRouter01.sol\":8465:8542  require(amounts[0] <= amountInMax, 'TaralSwapRouter: EXCESSIVE_INPUT_AMOUNT') */\n      tag_202\n      jumpi\n      mload(0x40)\n      shl(0xe5, 0x461bcd)\n      dup2\n      mstore\n      0x04\n      add\n      dup1\n      dup1\n      0x20\n      add\n      dup3\n      dup2\n      sub\n      dup3\n      mstore\n      0x27\n      dup2\n      mstore\n      0x20\n      add\n      dup1\n      data_5c443119ebb8aeb32321126cfb2ff0dcc2f8093b40ff96bbc9a97732d462f01a\n      0x27\n      swap2\n      codecopy\n      0x40\n      add\n      swap2\n      pop\n      pop\n      mload(0x40)\n      dup1\n      swap2\n      sub\n      swap1\n      revert\n        /* \"UniV2/v2-periphery/TaralSwapRouter01.sol\":11775:11953  function quote(uint amountA, uint reserveA, uint reserveB) public pure override returns (uint amountB) {... */\n    tag_109:\n        /* \"UniV2/v2-periphery/TaralSwapRouter01.sol\":11864:11876  uint amountB */\n      0x00\n        /* \"UniV2/v2-periphery/TaralSwapRouter01.sol\":11895:11946  TaralSwapLibrary.quote(amountA, reserveA, reserveB) */\n      tag_159\n        /* \"UniV2/v2-periphery/TaralSwapRouter01.sol\":11918:11925  amountA */\n      dup5\n        /* \"UniV2/v2-periphery/TaralSwapRouter01.sol\":11927:11935  reserveA */\n      dup5\n        /* \"UniV2/v2-periphery/TaralSwapRouter01.sol\":11937:11945  reserveB */\n      dup5\n        /* \"UniV2/v2-periphery/TaralSwapRouter01.sol\":11895:11917  TaralSwapLibrary.quote */\n      tag_270\n        /* \"UniV2/v2-periphery/TaralSwapRouter01.sol\":11895:11946  TaralSwapLibrary.quote(amountA, reserveA, reserveB) */\n      jump\t// in\n        /* \"UniV2/v2-periphery/TaralSwapRouter01.sol\":3948:4789  function removeLiquidity(... */\n    tag_113:\n        /* \"UniV2/v2-periphery/TaralSwapRouter01.sol\":4186:4198  uint amountA */\n      0x00\n        /* \"UniV2/v2-periphery/TaralSwapRouter01.sol\":4200:4212  uint amountB */\n      dup1\n        /* \"UniV2/v2-periphery/TaralSwapRouter01.sol\":4167:4175  deadline */\n      dup3\n        /* \"UniV2/v2-periphery/TaralSwapRouter01.sol\":527:542  block.timestamp */\n      timestamp\n        /* \"UniV2/v2-periphery/TaralSwapRouter01.sol\":515:523  deadline */\n      dup2\n        /* \"UniV2/v2-periphery/TaralSwapRouter01.sol\":515:542  deadline >= block.timestamp */\n      lt\n      iszero\n        /* \"UniV2/v2-periphery/TaralSwapRouter01.sol\":507:571  require(deadline >= block.timestamp, 'TaralSwapRouter: EXPIRED') */\n      tag_272\n      jumpi\n      0x40\n      dup1\n      mload\n      shl(0xe5, 0x461bcd)\n      dup2\n      mstore\n      0x20\n      0x04\n      dup3\n      add\n      mstore\n      0x18\n      0x24\n      dup3\n      add\n      mstore\n      0x00\n      dup1\n      mload\n      0x20\n      data_e96b09f95fa29a1eee4625e76757185dca0ed927e79d13b4068878b0a4e26735\n      dup4\n      codecopy\n      dup2\n      mload\n      swap2\n      mstore\n      0x44\n      dup3\n      add\n      mstore\n      swap1\n      mload\n      swap1\n      dup2\n      swap1\n      sub\n      0x64\n      add\n      swap1\n      revert\n    tag_272:\n        /* \"UniV2/v2-periphery/TaralSwapRouter01.sol\":4224:4236  address pair */\n      0x00\n        /* \"UniV2/v2-periphery/TaralSwapRouter01.sol\":4239:4288  TaralSwapLibrary.pairFor(factory, tokenA, tokenB) */\n      tag_274\n        /* \"UniV2/v2-periphery/TaralSwapRouter01.sol\":4264:4271  factory */\n      immutable(\"0x198ed63d80d143525b60af21f7dc77e6c7796a43366dbb557d0a8832a905997b\")\n        /* \"UniV2/v2-periphery/TaralSwapRouter01.sol\":4273:4279  tokenA */\n      dup13\n        /* \"UniV2/v2-periphery/TaralSwapRouter01.sol\":4281:4287  tokenB */\n      dup13\n        /* \"UniV2/v2-periphery/TaralSwapRouter01.sol\":4239:4263  TaralSwapLibrary.pairFor */\n      tag_175\n        /* \"UniV2/v2-periphery/TaralSwapRouter01.sol\":4239:4288  TaralSwapLibrary.pairFor(factory, tokenA, tokenB) */\n      jump\t// in\n    tag_274:\n        /* \"UniV2/v2-periphery/TaralSwapRouter01.sol\":4298:4360  IUniswapV2Pair(pair).transferFrom(msg.sender, pair, liquidity) */\n      0x40\n      dup1\n      mload\n      shl(0xe0, 0x23b872dd)\n      dup2\n      mstore\n        /* \"UniV2/v2-periphery/TaralSwapRouter01.sol\":4332:4342  msg.sender */\n      caller\n        /* \"UniV2/v2-periphery/TaralSwapRouter01.sol\":4298:4360  IUniswapV2Pair(pair).transferFrom(msg.sender, pair, liquidity) */\n      0x04\n      dup3\n      add\n      mstore\n      sub(shl(0xa0, 0x01), 0x01)\n        /* \"UniV2/v2-periphery/TaralSwapRouter01.sol\":4298:4331  IUniswapV2Pair(pair).transferFrom */\n      dup4\n      and\n        /* \"UniV2/v2-periphery/TaralSwapRouter01.sol\":4298:4360  IUniswapV2Pair(pair).transferFrom(msg.sender, pair, liquidity) */\n      0x24\n      dup3\n      add\n      dup2\n      swap1\n      mstore\n      0x44\n      dup3\n      add\n      dup14\n      swap1\n      mstore\n      swap2\n      mload\n        /* \"UniV2/v2-periphery/TaralSwapRouter01.sol\":4224:4288  address pair = TaralSwapLibrary.pairFor(factory, tokenA, tokenB) */\n      swap3\n      swap4\n      pop\n        /* \"UniV2/v2-periphery/TaralSwapRouter01.sol\":4298:4331  IUniswapV2Pair(pair).transferFrom */\n      swap1\n      swap2\n      0x23b872dd\n      swap2\n        /* \"UniV2/v2-periphery/TaralSwapRouter01.sol\":4298:4360  IUniswapV2Pair(pair).transferFrom(msg.sender, pair, liquidity) */\n      0x64\n      dup1\n      dup3\n      add\n      swap3\n      0x20\n      swap3\n      swap1\n      swap2\n      swap1\n      dup3\n      swap1\n      sub\n      add\n      dup2\n      0x00\n        /* \"UniV2/v2-periphery/TaralSwapRouter01.sol\":4298:4331  IUniswapV2Pair(pair).transferFrom */\n      dup8\n        /* \"UniV2/v2-periphery/TaralSwapRouter01.sol\":4298:4360  IUniswapV2Pair(pair).transferFrom(msg.sender, pair, liquidity) */\n      dup1\n      extcodesize\n      iszero\n        /* \"--CODEGEN--\":2:4   */\n      dup1\n      iszero\n      tag_275\n      jumpi\n        /* \"--CODEGEN--\":27:28   */\n      0x00\n        /* \"--CODEGEN--\":24:25   */\n      dup1\n        /* \"--CODEGEN--\":17:29   */\n      revert\n        /* \"--CODEGEN--\":2:4   */\n    tag_275:\n        /* \"UniV2/v2-periphery/TaralSwapRouter01.sol\":4298:4360  IUniswapV2Pair(pair).transferFrom(msg.sender, pair, liquidity) */\n      pop\n      gas\n      call\n      iszero\n        /* \"--CODEGEN--\":8:17   */\n      dup1\n        /* \"--CODEGEN--\":5:7   */\n      iszero\n      tag_277\n      jumpi\n        /* \"--CODEGEN--\":45:61   */\n      returndatasize\n        /* \"--CODEGEN--\":42:43   */\n      0x00\n        /* \"--CODEGEN--\":39:40   */\n      dup1\n        /* \"--CODEGEN--\":24:62   */\n      returndatacopy\n        /* \"--CODEGEN--\":77:93   */\n      returndatasize\n        /* \"--CODEGEN--\":74:75   */\n      0x00\n        /* \"--CODEGEN--\":67:94   */\n      revert\n        /* \"--CODEGEN--\":5:7   */\n    tag_277:\n        /* \"UniV2/v2-periphery/TaralSwapRouter01.sol\":4298:4360  IUniswapV2Pair(pair).transferFrom(msg.sender, pair, liquidity) */\n      pop\n      pop\n      pop\n      pop\n      mload(0x40)\n      returndatasize\n        /* \"--CODEGEN--\":15:17   */\n      0x20\n        /* \"--CODEGEN--\":10:13   */\n      dup2\n        /* \"--CODEGEN--\":7:18   */\n      lt\n        /* \"--CODEGEN--\":4:6   */\n      iszero\n      tag_278\n      jumpi\n        /* \"--CODEGEN--\":31:32   */\n      0x00\n        /* \"--CODEGEN--\":28:29   */\n      dup1\n        /* \"--CODEGEN--\":21:33   */\n      revert\n        /* \"--CODEGEN--\":4:6   */\n    tag_278:\n      pop\n      pop\n        /* \"UniV2/v2-periphery/TaralSwapRouter01.sol\":4427:4456  IUniswapV2Pair(pair).burn(to) */\n      0x40\n      dup1\n      mload\n      shl(0xe2, 0x226bf2d1)\n      dup2\n      mstore\n      sub(shl(0xa0, 0x01), 0x01)\n      dup9\n      dup2\n      and\n      0x04\n      dup4\n      add\n      mstore\n      dup3\n      mload\n        /* \"UniV2/v2-periphery/TaralSwapRouter01.sol\":4397:4409  uint amount0 */\n      0x00\n      swap4\n      dup5\n      swap4\n        /* \"UniV2/v2-periphery/TaralSwapRouter01.sol\":4427:4452  IUniswapV2Pair(pair).burn */\n      swap3\n      dup7\n      and\n      swap3\n      0x89afcb44\n      swap3\n        /* \"UniV2/v2-periphery/TaralSwapRouter01.sol\":4427:4456  IUniswapV2Pair(pair).burn(to) */\n      0x24\n      dup1\n      dup4\n      add\n      swap4\n      swap3\n      dup3\n      swap1\n      sub\n      add\n      dup2\n        /* \"UniV2/v2-periphery/TaralSwapRouter01.sol\":4397:4409  uint amount0 */\n      dup8\n        /* \"UniV2/v2-periphery/TaralSwapRouter01.sol\":4427:4452  IUniswapV2Pair(pair).burn */\n      dup8\n        /* \"UniV2/v2-periphery/TaralSwapRouter01.sol\":4427:4456  IUniswapV2Pair(pair).burn(to) */\n      dup1\n      extcodesize\n      iszero\n        /* \"--CODEGEN--\":2:4   */\n      dup1\n      iszero\n      tag_279\n      jumpi\n        /* \"--CODEGEN--\":27:28   */\n      0x00\n        /* \"--CODEGEN--\":24:25   */\n      dup1\n        /* \"--CODEGEN--\":17:29   */\n      revert\n        /* \"--CODEGEN--\":2:4   */\n    tag_279:\n        /* \"UniV2/v2-periphery/TaralSwapRouter01.sol\":4427:4456  IUniswapV2Pair(pair).burn(to) */\n      pop\n      gas\n      call\n      iszero\n        /* \"--CODEGEN--\":8:17   */\n      dup1\n        /* \"--CODEGEN--\":5:7   */\n      iszero\n      tag_281\n      jumpi\n        /* \"--CODEGEN--\":45:61   */\n      returndatasize\n        /* \"--CODEGEN--\":42:43   */\n      0x00\n        /* \"--CODEGEN--\":39:40   */\n      dup1\n        /* \"--CODEGEN--\":24:62   */\n      returndatacopy\n        /* \"--CODEGEN--\":77:93   */\n      returndatasize\n        /* \"--CODEGEN--\":74:75   */\n      0x00\n        /* \"--CODEGEN--\":67:94   */\n      revert\n        /* \"--CODEGEN--\":5:7   */\n    tag_281:\n        /* \"UniV2/v2-periphery/TaralSwapRouter01.sol\":4427:4456  IUniswapV2Pair(pair).burn(to) */\n      pop\n      pop\n      pop\n      pop\n      mload(0x40)\n      returndatasize\n        /* \"--CODEGEN--\":15:17   */\n      0x40\n        /* \"--CODEGEN--\":10:13   */\n      dup2\n        /* \"--CODEGEN--\":7:18   */\n      lt\n        /* \"--CODEGEN--\":4:6   */\n      iszero\n      tag_282\n      jumpi\n        /* \"--CODEGEN--\":31:32   */\n      0x00\n        /* \"--CODEGEN--\":28:29   */\n      dup1\n        /* \"--CODEGEN--\":21:33   */\n      revert\n        /* \"--CODEGEN--\":4:6   */\n    tag_282:\n      pop\n        /* \"UniV2/v2-periphery/TaralSwapRouter01.sol\":4427:4456  IUniswapV2Pair(pair).burn(to) */\n      dup1\n      mload\n      0x20\n      swap1\n      swap2\n      add\n      mload\n      swap1\n      swap3\n      pop\n      swap1\n      pop\n        /* \"UniV2/v2-periphery/TaralSwapRouter01.sol\":4467:4481  address token0 */\n      0x00\n        /* \"UniV2/v2-periphery/TaralSwapRouter01.sol\":4486:4529  TaralSwapLibrary.sortTokens(tokenA, tokenB) */\n      tag_283\n        /* \"UniV2/v2-periphery/TaralSwapRouter01.sol\":4514:4520  tokenA */\n      dup15\n        /* \"UniV2/v2-periphery/TaralSwapRouter01.sol\":4522:4528  tokenB */\n      dup15\n        /* \"UniV2/v2-periphery/TaralSwapRouter01.sol\":4486:4513  TaralSwapLibrary.sortTokens */\n      tag_284\n        /* \"UniV2/v2-periphery/TaralSwapRouter01.sol\":4486:4529  TaralSwapLibrary.sortTokens(tokenA, tokenB) */\n      jump\t// in\n    tag_283:\n        /* \"UniV2/v2-periphery/TaralSwapRouter01.sol\":4466:4529  (address token0,) = TaralSwapLibrary.sortTokens(tokenA, tokenB) */\n      pop\n      swap1\n      pop\n        /* \"UniV2/v2-periphery/TaralSwapRouter01.sol\":4570:4576  token0 */\n      dup1\n      sub(shl(0xa0, 0x01), 0x01)\n        /* \"UniV2/v2-periphery/TaralSwapRouter01.sol\":4560:4576  tokenA == token0 */\n      and\n        /* \"UniV2/v2-periphery/TaralSwapRouter01.sol\":4560:4566  tokenA */\n      dup15\n      sub(shl(0xa0, 0x01), 0x01)\n        /* \"UniV2/v2-periphery/TaralSwapRouter01.sol\":4560:4576  tokenA == token0 */\n      and\n      eq\n        /* \"UniV2/v2-periphery/TaralSwapRouter01.sol\":4560:4618  tokenA == token0 ? (amount0, amount1) : (amount1, amount0) */\n      tag_285\n      jumpi\n        /* \"UniV2/v2-periphery/TaralSwapRouter01.sol\":4601:4608  amount1 */\n      dup2\n        /* \"UniV2/v2-periphery/TaralSwapRouter01.sol\":4610:4617  amount0 */\n      dup4\n        /* \"UniV2/v2-periphery/TaralSwapRouter01.sol\":4560:4618  tokenA == token0 ? (amount0, amount1) : (amount1, amount0) */\n      jump(tag_286)\n    tag_285:\n        /* \"UniV2/v2-periphery/TaralSwapRouter01.sol\":4580:4587  amount0 */\n      dup3\n        /* \"UniV2/v2-periphery/TaralSwapRouter01.sol\":4589:4596  amount1 */\n      dup3\n        /* \"UniV2/v2-periphery/TaralSwapRouter01.sol\":4560:4618  tokenA == token0 ? (amount0, amount1) : (amount1, amount0) */\n    tag_286:\n        /* \"UniV2/v2-periphery/TaralSwapRouter01.sol\":4539:4618  (amountA, amountB) = tokenA == token0 ? (amount0, amount1) : (amount1, amount0) */\n      swap1\n      swap8\n      pop\n      swap6\n      pop\n        /* \"UniV2/v2-periphery/TaralSwapRouter01.sol\":4636:4657  amountA >= amountAMin */\n      dup11\n      dup8\n      lt\n      iszero\n        /* \"UniV2/v2-periphery/TaralSwapRouter01.sol\":4628:4700  require(amountA >= amountAMin, 'TaralSwapRouter: INSUFFICIENT_A_AMOUNT') */\n      tag_287\n      jumpi\n      mload(0x40)\n      shl(0xe5, 0x461bcd)\n      dup2\n      mstore\n      0x04\n      add\n      dup1\n      dup1\n      0x20\n      add\n      dup3\n      dup2\n      sub\n      dup3\n      mstore\n      0x26\n      dup2\n      mstore\n      0x20\n      add\n      dup1\n      data_c2e714e99c3be8ba08e251ad3009c4c6fc6c7692f0f9fe0f4bd523f2493f42e8\n      0x26\n      swap2\n      codecopy\n      0x40\n      add\n      swap2\n      pop\n      pop\n      mload(0x40)\n      dup1\n      swap2\n      sub\n      swap1\n      revert\n    tag_287:\n        /* \"UniV2/v2-periphery/TaralSwapRouter01.sol\":4729:4739  amountBMin */\n      dup10\n        /* \"UniV2/v2-periphery/TaralSwapRouter01.sol\":4718:4725  amountB */\n      dup7\n        /* \"UniV2/v2-periphery/TaralSwapRouter01.sol\":4718:4739  amountB >= amountBMin */\n      lt\n      iszero\n        /* \"UniV2/v2-periphery/TaralSwapRouter01.sol\":4710:4782  require(amountB >= amountBMin, 'TaralSwapRouter: INSUFFICIENT_B_AMOUNT') */\n      tag_288\n      jumpi\n      mload(0x40)\n      shl(0xe5, 0x461bcd)\n      dup2\n      mstore\n      0x04\n      add\n      dup1\n      dup1\n      0x20\n      add\n      dup3\n      dup2\n      sub\n      dup3\n      mstore\n      0x26\n      dup2\n      mstore\n      0x20\n      add\n      dup1\n      data_0e1d14f48cda7770d476ed436525ce4406c0c92279fb714d3a7c141f8bf87828\n      0x26\n      swap2\n      codecopy\n      0x40\n      add\n      swap2\n      pop\n      pop\n      mload(0x40)\n      dup1\n      swap2\n      sub\n      swap1\n      revert\n    tag_288:\n        /* \"UniV2/v2-periphery/TaralSwapRouter01.sol\":581:582  _ */\n      pop\n      pop\n      pop\n      pop\n        /* \"UniV2/v2-periphery/TaralSwapRouter01.sol\":3948:4789  function removeLiquidity(... */\n      pop\n      swap8\n      pop\n      swap8\n      swap6\n      pop\n      pop\n      pop\n      pop\n      pop\n      pop\n      jump\t// out\n        /* \"UniV2/v2-periphery/TaralSwapRouter01.sol\":372:413  address public immutable override factory */\n    tag_116:\n      immutable(\"0x198ed63d80d143525b60af21f7dc77e6c7796a43366dbb557d0a8832a905997b\")\n      dup2\n      jump\t// out\n        /* \"UniV2/v2-periphery/TaralSwapRouter01.sol\":12375:12568  function getAmountsOut(uint amountIn, address[] memory path) public view override returns (uint[] memory amounts) {... */\n    tag_123:\n        /* \"UniV2/v2-periphery/TaralSwapRouter01.sol\":12466:12487  uint[] memory amounts */\n      0x60\n        /* \"UniV2/v2-periphery/TaralSwapRouter01.sol\":12506:12561  TaralSwapLibrary.getAmountsOut(factory, amountIn, path) */\n      tag_187\n        /* \"UniV2/v2-periphery/TaralSwapRouter01.sol\":12537:12544  factory */\n      immutable(\"0x198ed63d80d143525b60af21f7dc77e6c7796a43366dbb557d0a8832a905997b\")\n        /* \"UniV2/v2-periphery/TaralSwapRouter01.sol\":12546:12554  amountIn */\n      dup5\n        /* \"UniV2/v2-periphery/TaralSwapRouter01.sol\":12556:12560  path */\n      dup5\n        /* \"UniV2/v2-periphery/TaralSwapRouter01.sol\":12506:12536  TaralSwapLibrary.getAmountsOut */\n      tag_167\n        /* \"UniV2/v2-periphery/TaralSwapRouter01.sol\":12506:12561  TaralSwapLibrary.getAmountsOut(factory, amountIn, path) */\n      jump\t// in\n        /* \"UniV2/v2-periphery/TaralSwapRouter01.sol\":6110:6760  function removeLiquidityETHWithPermit(... */\n    tag_130:\n        /* \"UniV2/v2-periphery/TaralSwapRouter01.sol\":6383:6399  uint amountToken */\n      0x00\n        /* \"UniV2/v2-periphery/TaralSwapRouter01.sol\":6401:6415  uint amountETH */\n      dup1\n        /* \"UniV2/v2-periphery/TaralSwapRouter01.sol\":6427:6439  address pair */\n      0x00\n        /* \"UniV2/v2-periphery/TaralSwapRouter01.sol\":6442:6490  TaralSwapLibrary.pairFor(factory, token, WTARAL) */\n      tag_292\n        /* \"UniV2/v2-periphery/TaralSwapRouter01.sol\":6467:6474  factory */\n      immutable(\"0x198ed63d80d143525b60af21f7dc77e6c7796a43366dbb557d0a8832a905997b\")\n        /* \"UniV2/v2-periphery/TaralSwapRouter01.sol\":6476:6481  token */\n      dup15\n        /* \"UniV2/v2-periphery/TaralSwapRouter01.sol\":6483:6489  WTARAL */\n      immutable(\"0xb87264ef8bf99bc710f0d9de51012e0b2f3ac2595d912802c21dad6f786bfe81\")\n        /* \"UniV2/v2-periphery/TaralSwapRouter01.sol\":6442:6466  TaralSwapLibrary.pairFor */\n      tag_175\n        /* \"UniV2/v2-periphery/TaralSwapRouter01.sol\":6442:6490  TaralSwapLibrary.pairFor(factory, token, WTARAL) */\n      jump\t// in\n    tag_292:\n        /* \"UniV2/v2-periphery/TaralSwapRouter01.sol\":6427:6490  address pair = TaralSwapLibrary.pairFor(factory, token, WTARAL) */\n      swap1\n      pop\n        /* \"UniV2/v2-periphery/TaralSwapRouter01.sol\":6500:6510  uint value */\n      0x00\n        /* \"UniV2/v2-periphery/TaralSwapRouter01.sol\":6513:6523  approveMax */\n      dup8\n        /* \"UniV2/v2-periphery/TaralSwapRouter01.sol\":6513:6546  approveMax ? uint(-1) : liquidity */\n      tag_293\n      jumpi\n        /* \"UniV2/v2-periphery/TaralSwapRouter01.sol\":6537:6546  liquidity */\n      dup13\n        /* \"UniV2/v2-periphery/TaralSwapRouter01.sol\":6513:6546  approveMax ? uint(-1) : liquidity */\n      jump(tag_294)\n    tag_293:\n      not(0x00)\n    tag_294:\n        /* \"UniV2/v2-periphery/TaralSwapRouter01.sol\":6556:6636  IUniswapV2Pair(pair).permit(msg.sender, address(this), value, deadline, v, r, s) */\n      0x40\n      dup1\n      mload\n      shl(0xe0, 0xd505accf)\n      dup2\n      mstore\n        /* \"UniV2/v2-periphery/TaralSwapRouter01.sol\":6584:6594  msg.sender */\n      caller\n        /* \"UniV2/v2-periphery/TaralSwapRouter01.sol\":6556:6636  IUniswapV2Pair(pair).permit(msg.sender, address(this), value, deadline, v, r, s) */\n      0x04\n      dup3\n      add\n      mstore\n        /* \"UniV2/v2-periphery/TaralSwapRouter01.sol\":6604:6608  this */\n      address\n        /* \"UniV2/v2-periphery/TaralSwapRouter01.sol\":6556:6636  IUniswapV2Pair(pair).permit(msg.sender, address(this), value, deadline, v, r, s) */\n      0x24\n      dup3\n      add\n      mstore\n      0x44\n      dup2\n      add\n      dup4\n      swap1\n      mstore\n      0x64\n      dup2\n      add\n      dup13\n      swap1\n      mstore\n      0xff\n      dup11\n      and\n      0x84\n      dup3\n      add\n      mstore\n      0xa4\n      dup2\n      add\n      dup10\n      swap1\n      mstore\n      0xc4\n      dup2\n      add\n      dup9\n      swap1\n      mstore\n      swap1\n      mload\n        /* \"UniV2/v2-periphery/TaralSwapRouter01.sol\":6500:6546  uint value = approveMax ? uint(-1) : liquidity */\n      swap2\n      swap3\n      pop\n      sub(shl(0xa0, 0x01), 0x01)\n        /* \"UniV2/v2-periphery/TaralSwapRouter01.sol\":6556:6583  IUniswapV2Pair(pair).permit */\n      dup5\n      and\n      swap2\n      0xd505accf\n      swap2\n        /* \"UniV2/v2-periphery/TaralSwapRouter01.sol\":6556:6636  IUniswapV2Pair(pair).permit(msg.sender, address(this), value, deadline, v, r, s) */\n      0xe4\n      dup1\n      dup3\n      add\n      swap3\n      0x00\n      swap3\n      swap1\n      swap2\n      swap1\n      dup3\n      swap1\n      sub\n      add\n      dup2\n      dup4\n        /* \"UniV2/v2-periphery/TaralSwapRouter01.sol\":6556:6583  IUniswapV2Pair(pair).permit */\n      dup8\n        /* \"UniV2/v2-periphery/TaralSwapRouter01.sol\":6556:6636  IUniswapV2Pair(pair).permit(msg.sender, address(this), value, deadline, v, r, s) */\n      dup1\n      extcodesize\n      iszero\n        /* \"--CODEGEN--\":2:4   */\n      dup1\n      iszero\n      tag_295\n      jumpi\n        /* \"--CODEGEN--\":27:28   */\n      0x00\n        /* \"--CODEGEN--\":24:25   */\n      dup1\n        /* \"--CODEGEN--\":17:29   */\n      revert\n        /* \"--CODEGEN--\":2:4   */\n    tag_295:\n        /* \"UniV2/v2-periphery/TaralSwapRouter01.sol\":6556:6636  IUniswapV2Pair(pair).permit(msg.sender, address(this), value, deadline, v, r, s) */\n      pop\n      gas\n      call\n      iszero\n        /* \"--CODEGEN--\":8:17   */\n      dup1\n        /* \"--CODEGEN--\":5:7   */\n      iszero\n      tag_297\n      jumpi\n        /* \"--CODEGEN--\":45:61   */\n      returndatasize\n        /* \"--CODEGEN--\":42:43   */\n      0x00\n        /* \"--CODEGEN--\":39:40   */\n      dup1\n        /* \"--CODEGEN--\":24:62   */\n      returndatacopy\n        /* \"--CODEGEN--\":77:93   */\n      returndatasize\n        /* \"--CODEGEN--\":74:75   */\n      0x00\n        /* \"--CODEGEN--\":67:94   */\n      revert\n        /* \"--CODEGEN--\":5:7   */\n    tag_297:\n        /* \"UniV2/v2-periphery/TaralSwapRouter01.sol\":6556:6636  IUniswapV2Pair(pair).permit(msg.sender, address(this), value, deadline, v, r, s) */\n      pop\n      pop\n      pop\n      pop\n        /* \"UniV2/v2-periphery/TaralSwapRouter01.sol\":6673:6753  removeLiquidityETH(token, liquidity, amountTokenMin, amountETHMin, to, deadline) */\n      tag_298\n        /* \"UniV2/v2-periphery/TaralSwapRouter01.sol\":6692:6697  token */\n      dup15\n        /* \"UniV2/v2-periphery/TaralSwapRouter01.sol\":6699:6708  liquidity */\n      dup15\n        /* \"UniV2/v2-periphery/TaralSwapRouter01.sol\":6710:6724  amountTokenMin */\n      dup15\n        /* \"UniV2/v2-periphery/TaralSwapRouter01.sol\":6726:6738  amountETHMin */\n      dup15\n        /* \"UniV2/v2-periphery/TaralSwapRouter01.sol\":6740:6742  to */\n      dup15\n        /* \"UniV2/v2-periphery/TaralSwapRouter01.sol\":6744:6752  deadline */\n      dup15\n        /* \"UniV2/v2-periphery/TaralSwapRouter01.sol\":6673:6691  removeLiquidityETH */\n      tag_31\n        /* \"UniV2/v2-periphery/TaralSwapRouter01.sol\":6673:6753  removeLiquidityETH(token, liquidity, amountTokenMin, amountETHMin, to, deadline) */\n      jump\t// in\n    tag_298:\n        /* \"UniV2/v2-periphery/TaralSwapRouter01.sol\":6646:6753  (amountToken, amountETH) = removeLiquidityETH(token, liquidity, amountTokenMin, amountETHMin, to, deadline) */\n      swap1\n      swap16\n      swap1\n      swap15\n      pop\n        /* \"UniV2/v2-periphery/TaralSwapRouter01.sol\":6110:6760  function removeLiquidityETHWithPermit(... */\n      swap13\n      pop\n      pop\n      pop\n      pop\n      pop\n      pop\n      pop\n      pop\n      pop\n      pop\n      pop\n      pop\n      pop\n      jump\t// out\n        /* \"UniV2/v2-periphery/TaralSwapRouter01.sol\":2241:2956  function addLiquidity(... */\n    tag_134:\n        /* \"UniV2/v2-periphery/TaralSwapRouter01.sol\":2512:2524  uint amountA */\n      0x00\n        /* \"UniV2/v2-periphery/TaralSwapRouter01.sol\":2526:2538  uint amountB */\n      dup1\n        /* \"UniV2/v2-periphery/TaralSwapRouter01.sol\":2540:2554  uint liquidity */\n      0x00\n        /* \"UniV2/v2-periphery/TaralSwapRouter01.sol\":2493:2501  deadline */\n      dup4\n        /* \"UniV2/v2-periphery/TaralSwapRouter01.sol\":527:542  block.timestamp */\n      timestamp\n        /* \"UniV2/v2-periphery/TaralSwapRouter01.sol\":515:523  deadline */\n      dup2\n        /* \"UniV2/v2-periphery/TaralSwapRouter01.sol\":515:542  deadline >= block.timestamp */\n      lt\n      iszero\n        /* \"UniV2/v2-periphery/TaralSwapRouter01.sol\":507:571  require(deadline >= block.timestamp, 'TaralSwapRouter: EXPIRED') */\n      tag_300\n      jumpi\n      0x40\n      dup1\n      mload\n      shl(0xe5, 0x461bcd)\n      dup2\n      mstore\n      0x20\n      0x04\n      dup3\n      add\n      mstore\n      0x18\n      0x24\n      dup3\n      add\n      mstore\n      0x00\n      dup1\n      mload\n      0x20\n      data_e96b09f95fa29a1eee4625e76757185dca0ed927e79d13b4068878b0a4e26735\n      dup4\n      codecopy\n      dup2\n      mload\n      swap2\n      mstore\n      0x44\n      dup3\n      add\n      mstore\n      swap1\n      mload\n      swap1\n      dup2\n      swap1\n      sub\n      0x64\n      add\n      swap1\n      revert\n    tag_300:\n        /* \"UniV2/v2-periphery/TaralSwapRouter01.sol\":2587:2672  _addLiquidity(tokenA, tokenB, amountADesired, amountBDesired, amountAMin, amountBMin) */\n      tag_302\n        /* \"UniV2/v2-periphery/TaralSwapRouter01.sol\":2601:2607  tokenA */\n      dup13\n        /* \"UniV2/v2-periphery/TaralSwapRouter01.sol\":2609:2615  tokenB */\n      dup13\n        /* \"UniV2/v2-periphery/TaralSwapRouter01.sol\":2617:2631  amountADesired */\n      dup13\n        /* \"UniV2/v2-periphery/TaralSwapRouter01.sol\":2633:2647  amountBDesired */\n      dup13\n        /* \"UniV2/v2-periphery/TaralSwapRouter01.sol\":2649:2659  amountAMin */\n      dup13\n        /* \"UniV2/v2-periphery/TaralSwapRouter01.sol\":2661:2671  amountBMin */\n      dup13\n        /* \"UniV2/v2-periphery/TaralSwapRouter01.sol\":2587:2600  _addLiquidity */\n      tag_303\n        /* \"UniV2/v2-periphery/TaralSwapRouter01.sol\":2587:2672  _addLiquidity(tokenA, tokenB, amountADesired, amountBDesired, amountAMin, amountBMin) */\n      jump\t// in\n    tag_302:\n        /* \"UniV2/v2-periphery/TaralSwapRouter01.sol\":2566:2672  (amountA, amountB) = _addLiquidity(tokenA, tokenB, amountADesired, amountBDesired, amountAMin, amountBMin) */\n      swap1\n      swap5\n      pop\n      swap3\n      pop\n        /* \"UniV2/v2-periphery/TaralSwapRouter01.sol\":2682:2694  address pair */\n      0x00\n        /* \"UniV2/v2-periphery/TaralSwapRouter01.sol\":2697:2746  TaralSwapLibrary.pairFor(factory, tokenA, tokenB) */\n      tag_304\n        /* \"UniV2/v2-periphery/TaralSwapRouter01.sol\":2722:2729  factory */\n      immutable(\"0x198ed63d80d143525b60af21f7dc77e6c7796a43366dbb557d0a8832a905997b\")\n        /* \"UniV2/v2-periphery/TaralSwapRouter01.sol\":2731:2737  tokenA */\n      dup15\n        /* \"UniV2/v2-periphery/TaralSwapRouter01.sol\":2739:2745  tokenB */\n      dup15\n        /* \"UniV2/v2-periphery/TaralSwapRouter01.sol\":2697:2721  TaralSwapLibrary.pairFor */\n      tag_175\n        /* \"UniV2/v2-periphery/TaralSwapRouter01.sol\":2697:2746  TaralSwapLibrary.pairFor(factory, tokenA, tokenB) */\n      jump\t// in\n    tag_304:\n        /* \"UniV2/v2-periphery/TaralSwapRouter01.sol\":2682:2746  address pair = TaralSwapLibrary.pairFor(factory, tokenA, tokenB) */\n      swap1\n      pop\n        /* \"UniV2/v2-periphery/TaralSwapRouter01.sol\":2756:2822  TransferHelper.safeTransferFrom(tokenA, msg.sender, pair, amountA) */\n      tag_305\n        /* \"UniV2/v2-periphery/TaralSwapRouter01.sol\":2788:2794  tokenA */\n      dup14\n        /* \"UniV2/v2-periphery/TaralSwapRouter01.sol\":2796:2806  msg.sender */\n      caller\n        /* \"UniV2/v2-periphery/TaralSwapRouter01.sol\":2808:2812  pair */\n      dup4\n        /* \"UniV2/v2-periphery/TaralSwapRouter01.sol\":2814:2821  amountA */\n      dup9\n        /* \"UniV2/v2-periphery/TaralSwapRouter01.sol\":2756:2787  TransferHelper.safeTransferFrom */\n      tag_177\n        /* \"UniV2/v2-periphery/TaralSwapRouter01.sol\":2756:2822  TransferHelper.safeTransferFrom(tokenA, msg.sender, pair, amountA) */\n      jump\t// in\n    tag_305:\n        /* \"UniV2/v2-periphery/TaralSwapRouter01.sol\":2832:2898  TransferHelper.safeTransferFrom(tokenB, msg.sender, pair, amountB) */\n      tag_306\n        /* \"UniV2/v2-periphery/TaralSwapRouter01.sol\":2864:2870  tokenB */\n      dup13\n        /* \"UniV2/v2-periphery/TaralSwapRouter01.sol\":2872:2882  msg.sender */\n      caller\n        /* \"UniV2/v2-periphery/TaralSwapRouter01.sol\":2884:2888  pair */\n      dup4\n        /* \"UniV2/v2-periphery/TaralSwapRouter01.sol\":2890:2897  amountB */\n      dup8\n        /* \"UniV2/v2-periphery/TaralSwapRouter01.sol\":2832:2863  TransferHelper.safeTransferFrom */\n      tag_177\n        /* \"UniV2/v2-periphery/TaralSwapRouter01.sol\":2832:2898  TransferHelper.safeTransferFrom(tokenB, msg.sender, pair, amountB) */\n      jump\t// in\n    tag_306:\n        /* \"UniV2/v2-periphery/TaralSwapRouter01.sol\":2935:2939  pair */\n      dup1\n      sub(shl(0xa0, 0x01), 0x01)\n        /* \"UniV2/v2-periphery/TaralSwapRouter01.sol\":2920:2945  IUniswapV2Pair(pair).mint */\n      and\n      0x6a627842\n        /* \"UniV2/v2-periphery/TaralSwapRouter01.sol\":2946:2948  to */\n      dup9\n        /* \"UniV2/v2-periphery/TaralSwapRouter01.sol\":2920:2949  IUniswapV2Pair(pair).mint(to) */\n      mload(0x40)\n      dup3\n      0xffffffff\n      and\n      0xe0\n      shl\n      dup2\n      mstore\n      0x04\n      add\n      dup1\n      dup3\n      sub(shl(0xa0, 0x01), 0x01)\n      and\n      sub(shl(0xa0, 0x01), 0x01)\n      and\n      dup2\n      mstore\n      0x20\n      add\n      swap2\n      pop\n      pop\n      0x20\n      mload(0x40)\n      dup1\n      dup4\n      sub\n      dup2\n      0x00\n      dup8\n      dup1\n      extcodesize\n      iszero\n        /* \"--CODEGEN--\":5:14   */\n      dup1\n        /* \"--CODEGEN--\":2:4   */\n      iszero\n      tag_307\n      jumpi\n        /* \"--CODEGEN--\":27:28   */\n      0x00\n        /* \"--CODEGEN--\":24:25   */\n      dup1\n        /* \"--CODEGEN--\":17:29   */\n      revert\n        /* \"--CODEGEN--\":2:4   */\n    tag_307:\n        /* \"UniV2/v2-periphery/TaralSwapRouter01.sol\":2920:2949  IUniswapV2Pair(pair).mint(to) */\n      pop\n      gas\n      call\n      iszero\n        /* \"--CODEGEN--\":8:17   */\n      dup1\n        /* \"--CODEGEN--\":5:7   */\n      iszero\n      tag_309\n      jumpi\n        /* \"--CODEGEN--\":45:61   */\n      returndatasize\n        /* \"--CODEGEN--\":42:43   */\n      0x00\n        /* \"--CODEGEN--\":39:40   */\n      dup1\n        /* \"--CODEGEN--\":24:62   */\n      returndatacopy\n        /* \"--CODEGEN--\":77:93   */\n      returndatasize\n        /* \"--CODEGEN--\":74:75   */\n      0x00\n        /* \"--CODEGEN--\":67:94   */\n      revert\n        /* \"--CODEGEN--\":5:7   */\n    tag_309:\n        /* \"UniV2/v2-periphery/TaralSwapRouter01.sol\":2920:2949  IUniswapV2Pair(pair).mint(to) */\n      pop\n      pop\n      pop\n      pop\n      mload(0x40)\n      returndatasize\n        /* \"--CODEGEN--\":15:17   */\n      0x20\n        /* \"--CODEGEN--\":10:13   */\n      dup2\n        /* \"--CODEGEN--\":7:18   */\n      lt\n        /* \"--CODEGEN--\":4:6   */\n      iszero\n      tag_310\n      jumpi\n        /* \"--CODEGEN--\":31:32   */\n      0x00\n        /* \"--CODEGEN--\":28:29   */\n      dup1\n        /* \"--CODEGEN--\":21:33   */\n      revert\n        /* \"--CODEGEN--\":4:6   */\n    tag_310:\n      pop\n        /* \"UniV2/v2-periphery/TaralSwapRouter01.sol\":2920:2949  IUniswapV2Pair(pair).mint(to) */\n      mload\n        /* \"UniV2/v2-periphery/TaralSwapRouter01.sol\":2241:2956  function addLiquidity(... */\n      swap5\n      swap14\n      swap4\n      swap13\n      pop\n        /* \"UniV2/v2-periphery/TaralSwapRouter01.sol\":2920:2949  IUniswapV2Pair(pair).mint(to) */\n      swap4\n      swap11\n      pop\n        /* \"UniV2/v2-periphery/TaralSwapRouter01.sol\":2241:2956  function addLiquidity(... */\n      swap2\n      swap9\n      pop\n      pop\n      pop\n      pop\n      pop\n      pop\n      pop\n      pop\n      pop\n      jump\t// out\n        /* \"UniV2/v2-periphery/TaralSwapRouter01.sol\":2961:3908  function addLiquidityETH(... */\n    tag_137:\n        /* \"UniV2/v2-periphery/TaralSwapRouter01.sol\":3199:3215  uint amountToken */\n      0x00\n        /* \"UniV2/v2-periphery/TaralSwapRouter01.sol\":3217:3231  uint amountETH */\n      dup1\n        /* \"UniV2/v2-periphery/TaralSwapRouter01.sol\":3233:3247  uint liquidity */\n      0x00\n        /* \"UniV2/v2-periphery/TaralSwapRouter01.sol\":3180:3188  deadline */\n      dup4\n        /* \"UniV2/v2-periphery/TaralSwapRouter01.sol\":527:542  block.timestamp */\n      timestamp\n        /* \"UniV2/v2-periphery/TaralSwapRouter01.sol\":515:523  deadline */\n      dup2\n        /* \"UniV2/v2-periphery/TaralSwapRouter01.sol\":515:542  deadline >= block.timestamp */\n      lt\n      iszero\n        /* \"UniV2/v2-periphery/TaralSwapRouter01.sol\":507:571  require(deadline >= block.timestamp, 'TaralSwapRouter: EXPIRED') */\n      tag_312\n      jumpi\n      0x40\n      dup1\n      mload\n      shl(0xe5, 0x461bcd)\n      dup2\n      mstore\n      0x20\n      0x04\n      dup3\n      add\n      mstore\n      0x18\n      0x24\n      dup3\n      add\n      mstore\n      0x00\n      dup1\n      mload\n      0x20\n      data_e96b09f95fa29a1eee4625e76757185dca0ed927e79d13b4068878b0a4e26735\n      dup4\n      codecopy\n      dup2\n      mload\n      swap2\n      mstore\n      0x44\n      dup3\n      add\n      mstore\n      swap1\n      mload\n      swap1\n      dup2\n      swap1\n      sub\n      0x64\n      add\n      swap1\n      revert\n    tag_312:\n        /* \"UniV2/v2-periphery/TaralSwapRouter01.sol\":3286:3457  _addLiquidity(... */\n      tag_314\n        /* \"UniV2/v2-periphery/TaralSwapRouter01.sol\":3313:3318  token */\n      dup11\n        /* \"UniV2/v2-periphery/TaralSwapRouter01.sol\":3332:3338  WTARAL */\n      immutable(\"0xb87264ef8bf99bc710f0d9de51012e0b2f3ac2595d912802c21dad6f786bfe81\")\n        /* \"UniV2/v2-periphery/TaralSwapRouter01.sol\":3352:3370  amountTokenDesired */\n      dup12\n        /* \"UniV2/v2-periphery/TaralSwapRouter01.sol\":3384:3393  msg.value */\n      callvalue\n        /* \"UniV2/v2-periphery/TaralSwapRouter01.sol\":3407:3421  amountTokenMin */\n      dup13\n        /* \"UniV2/v2-periphery/TaralSwapRouter01.sol\":3435:3447  amountETHMin */\n      dup13\n        /* \"UniV2/v2-periphery/TaralSwapRouter01.sol\":3286:3299  _addLiquidity */\n      tag_303\n        /* \"UniV2/v2-periphery/TaralSwapRouter01.sol\":3286:3457  _addLiquidity(... */\n      jump\t// in\n    tag_314:\n        /* \"UniV2/v2-periphery/TaralSwapRouter01.sol\":3259:3457  (amountToken, amountETH) = _addLiquidity(... */\n      swap1\n      swap5\n      pop\n      swap3\n      pop\n        /* \"UniV2/v2-periphery/TaralSwapRouter01.sol\":3467:3479  address pair */\n      0x00\n        /* \"UniV2/v2-periphery/TaralSwapRouter01.sol\":3482:3530  TaralSwapLibrary.pairFor(factory, token, WTARAL) */\n      tag_315\n        /* \"UniV2/v2-periphery/TaralSwapRouter01.sol\":3507:3514  factory */\n      immutable(\"0x198ed63d80d143525b60af21f7dc77e6c7796a43366dbb557d0a8832a905997b\")\n        /* \"UniV2/v2-periphery/TaralSwapRouter01.sol\":3516:3521  token */\n      dup13\n        /* \"UniV2/v2-periphery/TaralSwapRouter01.sol\":3523:3529  WTARAL */\n      immutable(\"0xb87264ef8bf99bc710f0d9de51012e0b2f3ac2595d912802c21dad6f786bfe81\")\n        /* \"UniV2/v2-periphery/TaralSwapRouter01.sol\":3482:3506  TaralSwapLibrary.pairFor */\n      tag_175\n        /* \"UniV2/v2-periphery/TaralSwapRouter01.sol\":3482:3530  TaralSwapLibrary.pairFor(factory, token, WTARAL) */\n      jump\t// in\n    tag_315:\n        /* \"UniV2/v2-periphery/TaralSwapRouter01.sol\":3467:3530  address pair = TaralSwapLibrary.pairFor(factory, token, WTARAL) */\n      swap1\n      pop\n        /* \"UniV2/v2-periphery/TaralSwapRouter01.sol\":3540:3609  TransferHelper.safeTransferFrom(token, msg.sender, pair, amountToken) */\n      tag_316\n        /* \"UniV2/v2-periphery/TaralSwapRouter01.sol\":3572:3577  token */\n      dup12\n        /* \"UniV2/v2-periphery/TaralSwapRouter01.sol\":3579:3589  msg.sender */\n      caller\n        /* \"UniV2/v2-periphery/TaralSwapRouter01.sol\":3591:3595  pair */\n      dup4\n        /* \"UniV2/v2-periphery/TaralSwapRouter01.sol\":3597:3608  amountToken */\n      dup9\n        /* \"UniV2/v2-periphery/TaralSwapRouter01.sol\":3540:3571  TransferHelper.safeTransferFrom */\n      tag_177\n        /* \"UniV2/v2-periphery/TaralSwapRouter01.sol\":3540:3609  TransferHelper.safeTransferFrom(token, msg.sender, pair, amountToken) */\n      jump\t// in\n    tag_316:\n        /* \"UniV2/v2-periphery/TaralSwapRouter01.sol\":3627:3633  WTARAL */\n      immutable(\"0xb87264ef8bf99bc710f0d9de51012e0b2f3ac2595d912802c21dad6f786bfe81\")\n      sub(shl(0xa0, 0x01), 0x01)\n        /* \"UniV2/v2-periphery/TaralSwapRouter01.sol\":3619:3642  IWTARAL(WTARAL).deposit */\n      and\n      0xd0e30db0\n        /* \"UniV2/v2-periphery/TaralSwapRouter01.sol\":3650:3659  amountETH */\n      dup6\n        /* \"UniV2/v2-periphery/TaralSwapRouter01.sol\":3619:3662  IWTARAL(WTARAL).deposit{value: amountETH}() */\n      mload(0x40)\n      dup3\n      0xffffffff\n      and\n      0xe0\n      shl\n      dup2\n      mstore\n      0x04\n      add\n      0x00\n      mload(0x40)\n      dup1\n      dup4\n      sub\n      dup2\n      dup6\n      dup9\n      dup1\n      extcodesize\n      iszero\n        /* \"--CODEGEN--\":5:14   */\n      dup1\n        /* \"--CODEGEN--\":2:4   */\n      iszero\n      tag_317\n      jumpi\n        /* \"--CODEGEN--\":27:28   */\n      0x00\n        /* \"--CODEGEN--\":24:25   */\n      dup1\n        /* \"--CODEGEN--\":17:29   */\n      revert\n        /* \"--CODEGEN--\":2:4   */\n    tag_317:\n        /* \"UniV2/v2-periphery/TaralSwapRouter01.sol\":3619:3662  IWTARAL(WTARAL).deposit{value: amountETH}() */\n      pop\n      gas\n      call\n      iszero\n        /* \"--CODEGEN--\":8:17   */\n      dup1\n        /* \"--CODEGEN--\":5:7   */\n      iszero\n      tag_319\n      jumpi\n        /* \"--CODEGEN--\":45:61   */\n      returndatasize\n        /* \"--CODEGEN--\":42:43   */\n      0x00\n        /* \"--CODEGEN--\":39:40   */\n      dup1\n        /* \"--CODEGEN--\":24:62   */\n      returndatacopy\n        /* \"--CODEGEN--\":77:93   */\n      returndatasize\n        /* \"--CODEGEN--\":74:75   */\n      0x00\n        /* \"--CODEGEN--\":67:94   */\n      revert\n        /* \"--CODEGEN--\":5:7   */\n    tag_319:\n        /* \"UniV2/v2-periphery/TaralSwapRouter01.sol\":3619:3662  IWTARAL(WTARAL).deposit{value: amountETH}() */\n      pop\n      pop\n      pop\n      pop\n      pop\n        /* \"UniV2/v2-periphery/TaralSwapRouter01.sol\":3687:3693  WTARAL */\n      immutable(\"0xb87264ef8bf99bc710f0d9de51012e0b2f3ac2595d912802c21dad6f786bfe81\")\n      sub(shl(0xa0, 0x01), 0x01)\n        /* \"UniV2/v2-periphery/TaralSwapRouter01.sol\":3679:3703  IWTARAL(WTARAL).transfer */\n      and\n      0xa9059cbb\n        /* \"UniV2/v2-periphery/TaralSwapRouter01.sol\":3704:3708  pair */\n      dup3\n        /* \"UniV2/v2-periphery/TaralSwapRouter01.sol\":3710:3719  amountETH */\n      dup7\n        /* \"UniV2/v2-periphery/TaralSwapRouter01.sol\":3679:3720  IWTARAL(WTARAL).transfer(pair, amountETH) */\n      mload(0x40)\n      dup4\n      0xffffffff\n      and\n      0xe0\n      shl\n      dup2\n      mstore\n      0x04\n      add\n      dup1\n      dup4\n      sub(shl(0xa0, 0x01), 0x01)\n      and\n      sub(shl(0xa0, 0x01), 0x01)\n      and\n      dup2\n      mstore\n      0x20\n      add\n      dup3\n      dup2\n      mstore\n      0x20\n      add\n      swap3\n      pop\n      pop\n      pop\n      0x20\n      mload(0x40)\n      dup1\n      dup4\n      sub\n      dup2\n      0x00\n      dup8\n      dup1\n      extcodesize\n      iszero\n        /* \"--CODEGEN--\":5:14   */\n      dup1\n        /* \"--CODEGEN--\":2:4   */\n      iszero\n      tag_320\n      jumpi\n        /* \"--CODEGEN--\":27:28   */\n      0x00\n        /* \"--CODEGEN--\":24:25   */\n      dup1\n        /* \"--CODEGEN--\":17:29   */\n      revert\n        /* \"--CODEGEN--\":2:4   */\n    tag_320:\n        /* \"UniV2/v2-periphery/TaralSwapRouter01.sol\":3679:3720  IWTARAL(WTARAL).transfer(pair, amountETH) */\n      pop\n      gas\n      call\n      iszero\n        /* \"--CODEGEN--\":8:17   */\n      dup1\n        /* \"--CODEGEN--\":5:7   */\n      iszero\n      tag_322\n      jumpi\n        /* \"--CODEGEN--\":45:61   */\n      returndatasize\n        /* \"--CODEGEN--\":42:43   */\n      0x00\n        /* \"--CODEGEN--\":39:40   */\n      dup1\n        /* \"--CODEGEN--\":24:62   */\n      returndatacopy\n        /* \"--CODEGEN--\":77:93   */\n      returndatasize\n        /* \"--CODEGEN--\":74:75   */\n      0x00\n        /* \"--CODEGEN--\":67:94   */\n      revert\n        /* \"--CODEGEN--\":5:7   */\n    tag_322:\n        /* \"UniV2/v2-periphery/TaralSwapRouter01.sol\":3679:3720  IWTARAL(WTARAL).transfer(pair, amountETH) */\n      pop\n      pop\n      pop\n      pop\n      mload(0x40)\n      returndatasize\n        /* \"--CODEGEN--\":15:17   */\n      0x20\n        /* \"--CODEGEN--\":10:13   */\n      dup2\n        /* \"--CODEGEN--\":7:18   */\n      lt\n        /* \"--CODEGEN--\":4:6   */\n      iszero\n      tag_323\n      jumpi\n        /* \"--CODEGEN--\":31:32   */\n      0x00\n        /* \"--CODEGEN--\":28:29   */\n      dup1\n        /* \"--CODEGEN--\":21:33   */\n      revert\n        /* \"--CODEGEN--\":4:6   */\n    tag_323:\n      pop\n        /* \"UniV2/v2-periphery/TaralSwapRouter01.sol\":3679:3720  IWTARAL(WTARAL).transfer(pair, amountETH) */\n      mload\n        /* \"UniV2/v2-periphery/TaralSwapRouter01.sol\":3672:3721  assert(IWTARAL(WTARAL).transfer(pair, amountETH)) */\n      tag_324\n      jumpi\n      invalid\n    tag_324:\n        /* \"UniV2/v2-periphery/TaralSwapRouter01.sol\":3758:3762  pair */\n      dup1\n      sub(shl(0xa0, 0x01), 0x01)\n        /* \"UniV2/v2-periphery/TaralSwapRouter01.sol\":3743:3768  IUniswapV2Pair(pair).mint */\n      and\n      0x6a627842\n        /* \"UniV2/v2-periphery/TaralSwapRouter01.sol\":3769:3771  to */\n      dup9\n        /* \"UniV2/v2-periphery/TaralSwapRouter01.sol\":3743:3772  IUniswapV2Pair(pair).mint(to) */\n      mload(0x40)\n      dup3\n      0xffffffff\n      and\n      0xe0\n      shl\n      dup2\n      mstore\n      0x04\n      add\n      dup1\n      dup3\n      sub(shl(0xa0, 0x01), 0x01)\n      and\n      sub(shl(0xa0, 0x01), 0x01)\n      and\n      dup2\n      mstore\n      0x20\n      add\n      swap2\n      pop\n      pop\n      0x20\n      mload(0x40)\n      dup1\n      dup4\n      sub\n      dup2\n      0x00\n      dup8\n      dup1\n      extcodesize\n      iszero\n        /* \"--CODEGEN--\":5:14   */\n      dup1\n        /* \"--CODEGEN--\":2:4   */\n      iszero\n      tag_325\n      jumpi\n        /* \"--CODEGEN--\":27:28   */\n      0x00\n        /* \"--CODEGEN--\":24:25   */\n      dup1\n        /* \"--CODEGEN--\":17:29   */\n      revert\n        /* \"--CODEGEN--\":2:4   */\n    tag_325:\n        /* \"UniV2/v2-periphery/TaralSwapRouter01.sol\":3743:3772  IUniswapV2Pair(pair).mint(to) */\n      pop\n      gas\n      call\n      iszero\n        /* \"--CODEGEN--\":8:17   */\n      dup1\n        /* \"--CODEGEN--\":5:7   */\n      iszero\n      tag_327\n      jumpi\n        /* \"--CODEGEN--\":45:61   */\n      returndatasize\n        /* \"--CODEGEN--\":42:43   */\n      0x00\n        /* \"--CODEGEN--\":39:40   */\n      dup1\n        /* \"--CODEGEN--\":24:62   */\n      returndatacopy\n        /* \"--CODEGEN--\":77:93   */\n      returndatasize\n        /* \"--CODEGEN--\":74:75   */\n      0x00\n        /* \"--CODEGEN--\":67:94   */\n      revert\n        /* \"--CODEGEN--\":5:7   */\n    tag_327:\n        /* \"UniV2/v2-periphery/TaralSwapRouter01.sol\":3743:3772  IUniswapV2Pair(pair).mint(to) */\n      pop\n      pop\n      pop\n      pop\n      mload(0x40)\n      returndatasize\n        /* \"--CODEGEN--\":15:17   */\n      0x20\n        /* \"--CODEGEN--\":10:13   */\n      dup2\n        /* \"--CODEGEN--\":7:18   */\n      lt\n        /* \"--CODEGEN--\":4:6   */\n      iszero\n      tag_328\n      jumpi\n        /* \"--CODEGEN--\":31:32   */\n      0x00\n        /* \"--CODEGEN--\":28:29   */\n      dup1\n        /* \"--CODEGEN--\":21:33   */\n      revert\n        /* \"--CODEGEN--\":4:6   */\n    tag_328:\n      pop\n        /* \"UniV2/v2-periphery/TaralSwapRouter01.sol\":3743:3772  IUniswapV2Pair(pair).mint(to) */\n      mload\n      swap3\n      pop\n        /* \"UniV2/v2-periphery/TaralSwapRouter01.sol\":3786:3795  msg.value */\n      callvalue\n        /* \"UniV2/v2-periphery/TaralSwapRouter01.sol\":3786:3807  msg.value > amountETH */\n      dup5\n      lt\n        /* \"UniV2/v2-periphery/TaralSwapRouter01.sol\":3782:3874  if (msg.value > amountETH) TransferHelper.safeTransferETH(msg.sender, msg.value - amountETH) */\n      iszero\n      tag_330\n      jumpi\n        /* \"UniV2/v2-periphery/TaralSwapRouter01.sol\":3809:3874  TransferHelper.safeTransferETH(msg.sender, msg.value - amountETH) */\n      tag_330\n        /* \"UniV2/v2-periphery/TaralSwapRouter01.sol\":3840:3850  msg.sender */\n      caller\n        /* \"UniV2/v2-periphery/TaralSwapRouter01.sol\":3864:3873  amountETH */\n      dup6\n        /* \"UniV2/v2-periphery/TaralSwapRouter01.sol\":3852:3861  msg.value */\n      callvalue\n        /* \"UniV2/v2-periphery/TaralSwapRouter01.sol\":3852:3873  msg.value - amountETH */\n      sub\n        /* \"UniV2/v2-periphery/TaralSwapRouter01.sol\":3809:3839  TransferHelper.safeTransferETH */\n      tag_157\n        /* \"UniV2/v2-periphery/TaralSwapRouter01.sol\":3809:3874  TransferHelper.safeTransferETH(msg.sender, msg.value - amountETH) */\n      jump\t// in\n    tag_330:\n        /* \"UniV2/v2-periphery/TaralSwapRouter01.sol\":581:582  _ */\n      pop\n        /* \"UniV2/v2-periphery/TaralSwapRouter01.sol\":2961:3908  function addLiquidityETH(... */\n      pop\n      swap7\n      pop\n      swap7\n      pop\n      swap7\n      swap4\n      pop\n      pop\n      pop\n      pop\n      jump\t// out\n        /* \"UniV2/v2-periphery/TaralSwapRouter01.sol\":10989:11769  function swapETHForExactTokens(uint amountOut, address[] calldata path, address to, uint deadline)... */\n    tag_143:\n        /* \"UniV2/v2-periphery/TaralSwapRouter01.sol\":11180:11201  uint[] memory amounts */\n      0x60\n        /* \"UniV2/v2-periphery/TaralSwapRouter01.sol\":11153:11161  deadline */\n      dup2\n        /* \"UniV2/v2-periphery/TaralSwapRouter01.sol\":527:542  block.timestamp */\n      timestamp\n        /* \"UniV2/v2-periphery/TaralSwapRouter01.sol\":515:523  deadline */\n      dup2\n        /* \"UniV2/v2-periphery/TaralSwapRouter01.sol\":515:542  deadline >= block.timestamp */\n      lt\n      iszero\n        /* \"UniV2/v2-periphery/TaralSwapRouter01.sol\":507:571  require(deadline >= block.timestamp, 'TaralSwapRouter: EXPIRED') */\n      tag_332\n      jumpi\n      0x40\n      dup1\n      mload\n      shl(0xe5, 0x461bcd)\n      dup2\n      mstore\n      0x20\n      0x04\n      dup3\n      add\n      mstore\n      0x18\n      0x24\n      dup3\n      add\n      mstore\n      0x00\n      dup1\n      mload\n      0x20\n      data_e96b09f95fa29a1eee4625e76757185dca0ed927e79d13b4068878b0a4e26735\n      dup4\n      codecopy\n      dup2\n      mload\n      swap2\n      mstore\n      0x44\n      dup3\n      add\n      mstore\n      swap1\n      mload\n      swap1\n      dup2\n      swap1\n      sub\n      0x64\n      add\n      swap1\n      revert\n    tag_332:\n        /* \"UniV2/v2-periphery/TaralSwapRouter01.sol\":11236:11242  WTARAL */\n      immutable(\"0xb87264ef8bf99bc710f0d9de51012e0b2f3ac2595d912802c21dad6f786bfe81\")\n      sub(shl(0xa0, 0x01), 0x01)\n        /* \"UniV2/v2-periphery/TaralSwapRouter01.sol\":11225:11242  path[0] == WTARAL */\n      and\n        /* \"UniV2/v2-periphery/TaralSwapRouter01.sol\":11225:11229  path */\n      dup7\n      dup7\n        /* \"UniV2/v2-periphery/TaralSwapRouter01.sol\":11230:11231  0 */\n      0x00\n        /* \"UniV2/v2-periphery/TaralSwapRouter01.sol\":11225:11232  path[0] */\n      dup2\n      dup2\n      lt\n      tag_334\n      jumpi\n      invalid\n    tag_334:\n      swap1\n      pop\n      0x20\n      mul\n      add\n      calldataload\n      sub(shl(0xa0, 0x01), 0x01)\n      and\n      sub(shl(0xa0, 0x01), 0x01)\n        /* \"UniV2/v2-periphery/TaralSwapRouter01.sol\":11225:11242  path[0] == WTARAL */\n      and\n      eq\n        /* \"UniV2/v2-periphery/TaralSwapRouter01.sol\":11217:11276  require(path[0] == WTARAL, 'TaralSwapRouter: INVALID_PATH') */\n      tag_335\n      jumpi\n      0x40\n      dup1\n      mload\n      shl(0xe5, 0x461bcd)\n      dup2\n      mstore\n      0x20\n      0x04\n      dup3\n      add\n      mstore\n      0x1d\n      0x24\n      dup3\n      add\n      mstore\n      0x00\n      dup1\n      mload\n      0x20\n      data_df971177b5426e6ce4d394de74a4e6abf41b62b9e691f4e6867726998c87692f\n      dup4\n      codecopy\n      dup2\n      mload\n      swap2\n      mstore\n      0x44\n      dup3\n      add\n      mstore\n      swap1\n      mload\n      swap1\n      dup2\n      swap1\n      sub\n      0x64\n      add\n      swap1\n      revert\n    tag_335:\n        /* \"UniV2/v2-periphery/TaralSwapRouter01.sol\":11296:11351  TaralSwapLibrary.getAmountsIn(factory, amountOut, path) */\n      tag_336\n        /* \"UniV2/v2-periphery/TaralSwapRouter01.sol\":11326:11333  factory */\n      immutable(\"0x198ed63d80d143525b60af21f7dc77e6c7796a43366dbb557d0a8832a905997b\")\n        /* \"UniV2/v2-periphery/TaralSwapRouter01.sol\":11335:11344  amountOut */\n      dup9\n        /* \"UniV2/v2-periphery/TaralSwapRouter01.sol\":11346:11350  path */\n      dup9\n      dup9\n        /* \"UniV2/v2-periphery/TaralSwapRouter01.sol\":11296:11351  TaralSwapLibrary.getAmountsIn(factory, amountOut, path) */\n      dup1\n      dup1\n      0x20\n      mul\n      0x20\n      add\n      mload(0x40)\n      swap1\n      dup2\n      add\n      0x40\n      mstore\n      dup1\n      swap4\n      swap3\n      swap2\n      swap1\n      dup2\n      dup2\n      mstore\n      0x20\n      add\n      dup4\n      dup4\n      0x20\n      mul\n        /* \"--CODEGEN--\":30:33   */\n      dup1\n        /* \"--CODEGEN--\":22:28   */\n      dup3\n        /* \"--CODEGEN--\":14:20   */\n      dup5\n        /* \"--CODEGEN--\":1:34   */\n      calldatacopy\n        /* \"--CODEGEN--\":99:100   */\n      0x00\n        /* \"--CODEGEN--\":81:97   */\n      swap3\n      add\n        /* \"--CODEGEN--\":74:101   */\n      swap2\n      swap1\n      swap2\n      mstore\n      pop\n        /* \"UniV2/v2-periphery/TaralSwapRouter01.sol\":11296:11325  TaralSwapLibrary.getAmountsIn */\n      tag_188\n      swap3\n      pop\n      pop\n      pop\n        /* \"UniV2/v2-periphery/TaralSwapRouter01.sol\":11296:11351  TaralSwapLibrary.getAmountsIn(factory, amountOut, path) */\n      jump\t// in\n    tag_336:\n        /* \"UniV2/v2-periphery/TaralSwapRouter01.sol\":11286:11351  amounts = TaralSwapLibrary.getAmountsIn(factory, amountOut, path) */\n      swap2\n      pop\n        /* \"UniV2/v2-periphery/TaralSwapRouter01.sol\":11383:11392  msg.value */\n      callvalue\n        /* \"UniV2/v2-periphery/TaralSwapRouter01.sol\":11369:11376  amounts */\n      dup3\n        /* \"UniV2/v2-periphery/TaralSwapRouter01.sol\":11377:11378  0 */\n      0x00\n        /* \"UniV2/v2-periphery/TaralSwapRouter01.sol\":11369:11379  amounts[0] */\n      dup2\n      mload\n      dup2\n      lt\n      tag_337\n      jumpi\n      invalid\n    tag_337:\n      0x20\n      mul\n      0x20\n      add\n      add\n      mload\n        /* \"UniV2/v2-periphery/TaralSwapRouter01.sol\":11369:11392  amounts[0] <= msg.value */\n      gt\n      iszero\n        /* \"UniV2/v2-periphery/TaralSwapRouter01.sol\":11361:11436  require(amounts[0] <= msg.value, 'TaralSwapRouter: EXCESSIVE_INPUT_AMOUNT') */\n      tag_338\n      jumpi\n      mload(0x40)\n      shl(0xe5, 0x461bcd)\n      dup2\n      mstore\n      0x04\n      add\n      dup1\n      dup1\n      0x20\n      add\n      dup3\n      dup2\n      sub\n      dup3\n      mstore\n      0x27\n      dup2\n      mstore\n      0x20\n      add\n      dup1\n      data_5c443119ebb8aeb32321126cfb2ff0dcc2f8093b40ff96bbc9a97732d462f01a\n      0x27\n      swap2\n      codecopy\n      0x40\n      add\n      swap2\n      pop\n      pop\n      mload(0x40)\n      dup1\n      swap2\n      sub\n      swap1\n      revert\n    tag_338:\n        /* \"UniV2/v2-periphery/TaralSwapRouter01.sol\":11454:11460  WTARAL */\n      immutable(\"0xb87264ef8bf99bc710f0d9de51012e0b2f3ac2595d912802c21dad6f786bfe81\")\n      sub(shl(0xa0, 0x01), 0x01)\n        /* \"UniV2/v2-periphery/TaralSwapRouter01.sol\":11446:11469  IWTARAL(WTARAL).deposit */\n      and\n      0xd0e30db0\n        /* \"UniV2/v2-periphery/TaralSwapRouter01.sol\":11477:11484  amounts */\n      dup4\n        /* \"UniV2/v2-periphery/TaralSwapRouter01.sol\":11485:11486  0 */\n      0x00\n        /* \"UniV2/v2-periphery/TaralSwapRouter01.sol\":11477:11487  amounts[0] */\n      dup2\n      mload\n      dup2\n      lt\n      tag_339\n      jumpi\n      invalid\n    tag_339:\n      0x20\n      mul\n      0x20\n      add\n      add\n      mload\n        /* \"UniV2/v2-periphery/TaralSwapRouter01.sol\":11446:11490  IWTARAL(WTARAL).deposit{value: amounts[0]}() */\n      mload(0x40)\n      dup3\n      0xffffffff\n      and\n      0xe0\n      shl\n      dup2\n      mstore\n      0x04\n      add\n      0x00\n      mload(0x40)\n      dup1\n      dup4\n      sub\n      dup2\n      dup6\n      dup9\n      dup1\n      extcodesize\n      iszero\n        /* \"--CODEGEN--\":5:14   */\n      dup1\n        /* \"--CODEGEN--\":2:4   */\n      iszero\n      tag_340\n      jumpi\n        /* \"--CODEGEN--\":27:28   */\n      0x00\n        /* \"--CODEGEN--\":24:25   */\n      dup1\n        /* \"--CODEGEN--\":17:29   */\n      revert\n        /* \"--CODEGEN--\":2:4   */\n    tag_340:\n        /* \"UniV2/v2-periphery/TaralSwapRouter01.sol\":11446:11490  IWTARAL(WTARAL).deposit{value: amounts[0]}() */\n      pop\n      gas\n      call\n      iszero\n        /* \"--CODEGEN--\":8:17   */\n      dup1\n        /* \"--CODEGEN--\":5:7   */\n      iszero\n      tag_342\n      jumpi\n        /* \"--CODEGEN--\":45:61   */\n      returndatasize\n        /* \"--CODEGEN--\":42:43   */\n      0x00\n        /* \"--CODEGEN--\":39:40   */\n      dup1\n        /* \"--CODEGEN--\":24:62   */\n      returndatacopy\n        /* \"--CODEGEN--\":77:93   */\n      returndatasize\n        /* \"--CODEGEN--\":74:75   */\n      0x00\n        /* \"--CODEGEN--\":67:94   */\n      revert\n        /* \"--CODEGEN--\":5:7   */\n    tag_342:\n        /* \"UniV2/v2-periphery/TaralSwapRouter01.sol\":11446:11490  IWTARAL(WTARAL).deposit{value: amounts[0]}() */\n      pop\n      pop\n      pop\n      pop\n      pop\n        /* \"UniV2/v2-periphery/TaralSwapRouter01.sol\":11515:11521  WTARAL */\n      immutable(\"0xb87264ef8bf99bc710f0d9de51012e0b2f3ac2595d912802c21dad6f786bfe81\")\n      sub(shl(0xa0, 0x01), 0x01)\n        /* \"UniV2/v2-periphery/TaralSwapRouter01.sol\":11507:11531  IWTARAL(WTARAL).transfer */\n      and\n      0xa9059cbb\n        /* \"UniV2/v2-periphery/TaralSwapRouter01.sol\":11532:11583  TaralSwapLibrary.pairFor(factory, path[0], path[1]) */\n      tag_343\n        /* \"UniV2/v2-periphery/TaralSwapRouter01.sol\":11557:11564  factory */\n      immutable(\"0x198ed63d80d143525b60af21f7dc77e6c7796a43366dbb557d0a8832a905997b\")\n        /* \"UniV2/v2-periphery/TaralSwapRouter01.sol\":11566:11570  path */\n      dup10\n      dup10\n        /* \"UniV2/v2-periphery/TaralSwapRouter01.sol\":11571:11572  0 */\n      0x00\n        /* \"UniV2/v2-periphery/TaralSwapRouter01.sol\":11566:11573  path[0] */\n      dup2\n      dup2\n      lt\n      tag_244\n      jumpi\n      invalid\n        /* \"UniV2/v2-periphery/TaralSwapRouter01.sol\":11532:11583  TaralSwapLibrary.pairFor(factory, path[0], path[1]) */\n    tag_343:\n        /* \"UniV2/v2-periphery/TaralSwapRouter01.sol\":11585:11592  amounts */\n      dup5\n        /* \"UniV2/v2-periphery/TaralSwapRouter01.sol\":11593:11594  0 */\n      0x00\n        /* \"UniV2/v2-periphery/TaralSwapRouter01.sol\":11585:11595  amounts[0] */\n      dup2\n      mload\n      dup2\n      lt\n      tag_346\n      jumpi\n      invalid\n    tag_346:\n      0x20\n      mul\n      0x20\n      add\n      add\n      mload\n        /* \"UniV2/v2-periphery/TaralSwapRouter01.sol\":11507:11596  IWTARAL(WTARAL).transfer(TaralSwapLibrary.pairFor(factory, path[0], path[1]), amounts[0]) */\n      mload(0x40)\n      dup4\n      0xffffffff\n      and\n      0xe0\n      shl\n      dup2\n      mstore\n      0x04\n      add\n      dup1\n      dup4\n      sub(shl(0xa0, 0x01), 0x01)\n      and\n      sub(shl(0xa0, 0x01), 0x01)\n      and\n      dup2\n      mstore\n      0x20\n      add\n      dup3\n      dup2\n      mstore\n      0x20\n      add\n      swap3\n      pop\n      pop\n      pop\n      0x20\n      mload(0x40)\n      dup1\n      dup4\n      sub\n      dup2\n      0x00\n      dup8\n      dup1\n      extcodesize\n      iszero\n        /* \"--CODEGEN--\":5:14   */\n      dup1\n        /* \"--CODEGEN--\":2:4   */\n      iszero\n      tag_347\n      jumpi\n        /* \"--CODEGEN--\":27:28   */\n      0x00\n        /* \"--CODEGEN--\":24:25   */\n      dup1\n        /* \"--CODEGEN--\":17:29   */\n      revert\n        /* \"--CODEGEN--\":2:4   */\n    tag_347:\n        /* \"UniV2/v2-periphery/TaralSwapRouter01.sol\":11507:11596  IWTARAL(WTARAL).transfer(TaralSwapLibrary.pairFor(factory, path[0], path[1]), amounts[0]) */\n      pop\n      gas\n      call\n      iszero\n        /* \"--CODEGEN--\":8:17   */\n      dup1\n        /* \"--CODEGEN--\":5:7   */\n      iszero\n      tag_349\n      jumpi\n        /* \"--CODEGEN--\":45:61   */\n      returndatasize\n        /* \"--CODEGEN--\":42:43   */\n      0x00\n        /* \"--CODEGEN--\":39:40   */\n      dup1\n        /* \"--CODEGEN--\":24:62   */\n      returndatacopy\n        /* \"--CODEGEN--\":77:93   */\n      returndatasize\n        /* \"--CODEGEN--\":74:75   */\n      0x00\n        /* \"--CODEGEN--\":67:94   */\n      revert\n        /* \"--CODEGEN--\":5:7   */\n    tag_349:\n        /* \"UniV2/v2-periphery/TaralSwapRouter01.sol\":11507:11596  IWTARAL(WTARAL).transfer(TaralSwapLibrary.pairFor(factory, path[0], path[1]), amounts[0]) */\n      pop\n      pop\n      pop\n      pop\n      mload(0x40)\n      returndatasize\n        /* \"--CODEGEN--\":15:17   */\n      0x20\n        /* \"--CODEGEN--\":10:13   */\n      dup2\n        /* \"--CODEGEN--\":7:18   */\n      lt\n        /* \"--CODEGEN--\":4:6   */\n      iszero\n      tag_350\n      jumpi\n        /* \"--CODEGEN--\":31:32   */\n      0x00\n        /* \"--CODEGEN--\":28:29   */\n      dup1\n        /* \"--CODEGEN--\":21:33   */\n      revert\n        /* \"--CODEGEN--\":4:6   */\n    tag_350:\n      pop\n        /* \"UniV2/v2-periphery/TaralSwapRouter01.sol\":11507:11596  IWTARAL(WTARAL).transfer(TaralSwapLibrary.pairFor(factory, path[0], path[1]), amounts[0]) */\n      mload\n        /* \"UniV2/v2-periphery/TaralSwapRouter01.sol\":11500:11597  assert(IWTARAL(WTARAL).transfer(TaralSwapLibrary.pairFor(factory, path[0], path[1]), amounts[0])) */\n      tag_351\n      jumpi\n      invalid\n    tag_351:\n        /* \"UniV2/v2-periphery/TaralSwapRouter01.sol\":11607:11631  _swap(amounts, path, to) */\n      tag_352\n        /* \"UniV2/v2-periphery/TaralSwapRouter01.sol\":11613:11620  amounts */\n      dup3\n        /* \"UniV2/v2-periphery/TaralSwapRouter01.sol\":11622:11626  path */\n      dup8\n      dup8\n        /* \"UniV2/v2-periphery/TaralSwapRouter01.sol\":11607:11631  _swap(amounts, path, to) */\n      dup1\n      dup1\n      0x20\n      mul\n      0x20\n      add\n      mload(0x40)\n      swap1\n      dup2\n      add\n      0x40\n      mstore\n      dup1\n      swap4\n      swap3\n      swap2\n      swap1\n      dup2\n      dup2\n      mstore\n      0x20\n      add\n      dup4\n      dup4\n      0x20\n      mul\n        /* \"--CODEGEN--\":30:33   */\n      dup1\n        /* \"--CODEGEN--\":22:28   */\n      dup3\n        /* \"--CODEGEN--\":14:20   */\n      dup5\n        /* \"--CODEGEN--\":1:34   */\n      calldatacopy\n        /* \"--CODEGEN--\":99:100   */\n      0x00\n        /* \"--CODEGEN--\":81:97   */\n      swap3\n      add\n        /* \"--CODEGEN--\":74:101   */\n      swap2\n      swap1\n      swap2\n      mstore\n      pop\n        /* \"UniV2/v2-periphery/TaralSwapRouter01.sol\":11628:11630  to */\n      dup10\n      swap3\n      pop\n        /* \"UniV2/v2-periphery/TaralSwapRouter01.sol\":11607:11612  _swap */\n      tag_179\n      swap2\n      pop\n      pop\n        /* \"UniV2/v2-periphery/TaralSwapRouter01.sol\":11607:11631  _swap(amounts, path, to) */\n      jump\t// in\n    tag_352:\n        /* \"UniV2/v2-periphery/TaralSwapRouter01.sol\":11657:11664  amounts */\n      dup2\n        /* \"UniV2/v2-periphery/TaralSwapRouter01.sol\":11665:11666  0 */\n      0x00\n        /* \"UniV2/v2-periphery/TaralSwapRouter01.sol\":11657:11667  amounts[0] */\n      dup2\n      mload\n      dup2\n      lt\n      tag_353\n      jumpi\n      invalid\n    tag_353:\n      0x20\n      mul\n      0x20\n      add\n      add\n      mload\n        /* \"UniV2/v2-periphery/TaralSwapRouter01.sol\":11645:11654  msg.value */\n      callvalue\n        /* \"UniV2/v2-periphery/TaralSwapRouter01.sol\":11645:11667  msg.value > amounts[0] */\n      gt\n        /* \"UniV2/v2-periphery/TaralSwapRouter01.sol\":11641:11735  if (msg.value > amounts[0]) TransferHelper.safeTransferETH(msg.sender, msg.value - amounts[0]) */\n      iszero\n      tag_252\n      jumpi\n        /* \"UniV2/v2-periphery/TaralSwapRouter01.sol\":11669:11735  TransferHelper.safeTransferETH(msg.sender, msg.value - amounts[0]) */\n      tag_252\n        /* \"UniV2/v2-periphery/TaralSwapRouter01.sol\":11700:11710  msg.sender */\n      caller\n        /* \"UniV2/v2-periphery/TaralSwapRouter01.sol\":11724:11731  amounts */\n      dup4\n        /* \"UniV2/v2-periphery/TaralSwapRouter01.sol\":11732:11733  0 */\n      0x00\n        /* \"UniV2/v2-periphery/TaralSwapRouter01.sol\":11724:11734  amounts[0] */\n      dup2\n      mload\n      dup2\n      lt\n      tag_356\n      jumpi\n      invalid\n    tag_356:\n      0x20\n      mul\n      0x20\n      add\n      add\n      mload\n        /* \"UniV2/v2-periphery/TaralSwapRouter01.sol\":11712:11721  msg.value */\n      callvalue\n        /* \"UniV2/v2-periphery/TaralSwapRouter01.sol\":11712:11734  msg.value - amounts[0] */\n      sub\n        /* \"UniV2/v2-periphery/TaralSwapRouter01.sol\":11669:11699  TransferHelper.safeTransferETH */\n      tag_157\n        /* \"UniV2/v2-periphery/TaralSwapRouter01.sol\":11669:11735  TransferHelper.safeTransferETH(msg.sender, msg.value - amounts[0]) */\n      jump\t// in\n        /* \"@uniswap/lib/contracts/libraries/TransferHelper.sol\":652:1090  function safeTransfer(... */\n    tag_152:\n        /* \"@uniswap/lib/contracts/libraries/TransferHelper.sol\":878:923  abi.encodeWithSelector(0xa9059cbb, to, value) */\n      0x40\n      dup1\n      mload\n      sub(shl(0xa0, 0x01), 0x01)\n      dup5\n      dup2\n      and\n      0x24\n      dup4\n      add\n      mstore\n      0x44\n      dup1\n      dup4\n      add\n      dup6\n      swap1\n      mstore\n      dup4\n      mload\n        /* \"--CODEGEN--\":26:47   */\n      dup1\n      dup5\n      sub\n        /* \"--CODEGEN--\":22:54   */\n      swap1\n      swap2\n      add\n        /* \"--CODEGEN--\":6:55   */\n      dup2\n      mstore\n        /* \"@uniswap/lib/contracts/libraries/TransferHelper.sol\":878:923  abi.encodeWithSelector(0xa9059cbb, to, value) */\n      0x64\n      swap1\n      swap3\n      add\n      dup4\n      mstore\n      0x20\n        /* \"--CODEGEN--\":25:43   */\n      dup3\n      add\n        /* \"--CODEGEN--\":61:78   */\n      dup1\n      mload\n      sub(shl(0xe0, 0x01), 0x01)\n        /* \"--CODEGEN--\":182:197   */\n      and\n      shl(0xe0, 0xa9059cbb)\n        /* \"--CODEGEN--\":179:208   */\n      or\n        /* \"--CODEGEN--\":160:209   */\n      dup2\n      mstore\n        /* \"@uniswap/lib/contracts/libraries/TransferHelper.sol\":867:924  token.call(abi.encodeWithSelector(0xa9059cbb, to, value)) */\n      swap3\n      mload\n      dup3\n      mload\n        /* \"@uniswap/lib/contracts/libraries/TransferHelper.sol\":832:844  bool success */\n      0x00\n      swap5\n        /* \"@uniswap/lib/contracts/libraries/TransferHelper.sol\":846:863  bytes memory data */\n      0x60\n      swap5\n        /* \"@uniswap/lib/contracts/libraries/TransferHelper.sol\":867:877  token.call */\n      swap4\n      dup10\n      and\n      swap4\n        /* \"@uniswap/lib/contracts/libraries/TransferHelper.sol\":878:923  abi.encodeWithSelector(0xa9059cbb, to, value) */\n      swap3\n        /* \"@uniswap/lib/contracts/libraries/TransferHelper.sol\":867:924  token.call(abi.encodeWithSelector(0xa9059cbb, to, value)) */\n      swap2\n      dup3\n      swap2\n        /* \"--CODEGEN--\":25:43   */\n      swap1\n        /* \"@uniswap/lib/contracts/libraries/TransferHelper.sol\":867:924  token.call(abi.encodeWithSelector(0xa9059cbb, to, value)) */\n      dup1\n      dup4\n        /* \"--CODEGEN--\":25:43   */\n      dup4\n        /* \"--CODEGEN--\":36:189   */\n    tag_358:\n        /* \"--CODEGEN--\":66:68   */\n      0x20\n        /* \"--CODEGEN--\":61:64   */\n      dup4\n        /* \"--CODEGEN--\":58:69   */\n      lt\n        /* \"--CODEGEN--\":36:189   */\n      tag_360\n      jumpi\n        /* \"--CODEGEN--\":176:186   */\n      dup1\n      mload\n        /* \"--CODEGEN--\":164:187   */\n      dup3\n      mstore\n      not(0x1f)\n        /* \"--CODEGEN--\":139:151   */\n      swap1\n      swap3\n      add\n      swap2\n        /* \"--CODEGEN--\":98:100   */\n      0x20\n        /* \"--CODEGEN--\":89:101   */\n      swap2\n      dup3\n      add\n      swap2\n        /* \"--CODEGEN--\":114:126   */\n      add\n        /* \"--CODEGEN--\":36:189   */\n      jump(tag_358)\n    tag_360:\n        /* \"--CODEGEN--\":274:275   */\n      0x01\n        /* \"--CODEGEN--\":267:270   */\n      dup4\n        /* \"--CODEGEN--\":263:265   */\n      0x20\n        /* \"--CODEGEN--\":259:271   */\n      sub\n        /* \"--CODEGEN--\":254:257   */\n      0x0100\n        /* \"--CODEGEN--\":250:272   */\n      exp\n        /* \"--CODEGEN--\":246:276   */\n      sub\n        /* \"--CODEGEN--\":315:319   */\n      dup1\n        /* \"--CODEGEN--\":311:320   */\n      not\n        /* \"--CODEGEN--\":305:308   */\n      dup3\n        /* \"--CODEGEN--\":299:309   */\n      mload\n        /* \"--CODEGEN--\":295:321   */\n      and\n        /* \"--CODEGEN--\":356:360   */\n      dup2\n        /* \"--CODEGEN--\":350:353   */\n      dup5\n        /* \"--CODEGEN--\":344:354   */\n      mload\n        /* \"--CODEGEN--\":340:361   */\n      and\n        /* \"--CODEGEN--\":389:396   */\n      dup1\n        /* \"--CODEGEN--\":380:387   */\n      dup3\n        /* \"--CODEGEN--\":377:397   */\n      or\n        /* \"--CODEGEN--\":372:375   */\n      dup6\n        /* \"--CODEGEN--\":365:398   */\n      mstore\n        /* \"--CODEGEN--\":3:402   */\n      pop\n      pop\n      pop\n        /* \"@uniswap/lib/contracts/libraries/TransferHelper.sol\":867:924  token.call(abi.encodeWithSelector(0xa9059cbb, to, value)) */\n      pop\n      pop\n      pop\n      swap1\n      pop\n      add\n      swap2\n      pop\n      pop\n      0x00\n      mload(0x40)\n      dup1\n      dup4\n      sub\n      dup2\n      0x00\n      dup7\n      gas\n      call\n      swap2\n      pop\n      pop\n      returndatasize\n        /* \"--CODEGEN--\":12:13   */\n      dup1\n        /* \"--CODEGEN--\":19:20   */\n      0x00\n        /* \"--CODEGEN--\":14:41   */\n      dup2\n      eq\n      tag_363\n      jumpi\n        /* \"--CODEGEN--\":67:71   */\n      0x40\n        /* \"--CODEGEN--\":61:72   */\n      mload\n        /* \"--CODEGEN--\":56:72   */\n      swap2\n      pop\n        /* \"--CODEGEN--\":134:138   */\n      0x1f\n        /* \"--CODEGEN--\":130:139   */\n      not\n        /* \"--CODEGEN--\":123:127   */\n      0x3f\n        /* \"--CODEGEN--\":105:121   */\n      returndatasize\n        /* \"--CODEGEN--\":101:128   */\n      add\n        /* \"--CODEGEN--\":97:140   */\n      and\n        /* \"--CODEGEN--\":94:95   */\n      dup3\n        /* \"--CODEGEN--\":90:141   */\n      add\n        /* \"--CODEGEN--\":84:88   */\n      0x40\n        /* \"--CODEGEN--\":77:142   */\n      mstore\n        /* \"--CODEGEN--\":157:173   */\n      returndatasize\n        /* \"--CODEGEN--\":154:155   */\n      dup3\n        /* \"--CODEGEN--\":147:174   */\n      mstore\n        /* \"--CODEGEN--\":211:227   */\n      returndatasize\n        /* \"--CODEGEN--\":208:209   */\n      0x00\n        /* \"--CODEGEN--\":201:205   */\n      0x20\n        /* \"--CODEGEN--\":198:199   */\n      dup5\n        /* \"--CODEGEN--\":194:206   */\n      add\n        /* \"--CODEGEN--\":179:228   */\n      returndatacopy\n        /* \"--CODEGEN--\":5:233   */\n      jump(tag_362)\n        /* \"--CODEGEN--\":14:41   */\n    tag_363:\n        /* \"--CODEGEN--\":32:36   */\n      0x60\n        /* \"--CODEGEN--\":27:36   */\n      swap2\n      pop\n        /* \"--CODEGEN--\":5:233   */\n    tag_362:\n      pop\n        /* \"@uniswap/lib/contracts/libraries/TransferHelper.sol\":831:924  (bool success, bytes memory data) = token.call(abi.encodeWithSelector(0xa9059cbb, to, value)) */\n      swap2\n      pop\n      swap2\n      pop\n        /* \"@uniswap/lib/contracts/libraries/TransferHelper.sol\":955:962  success */\n      dup2\n        /* \"@uniswap/lib/contracts/libraries/TransferHelper.sol\":955:1012  success && (data.length == 0 || abi.decode(data, (bool))) */\n      dup1\n      iszero\n      tag_365\n      jumpi\n      pop\n        /* \"@uniswap/lib/contracts/libraries/TransferHelper.sol\":967:978  data.length */\n      dup1\n      mload\n        /* \"@uniswap/lib/contracts/libraries/TransferHelper.sol\":967:983  data.length == 0 */\n      iszero\n      dup1\n        /* \"@uniswap/lib/contracts/libraries/TransferHelper.sol\":967:1011  data.length == 0 || abi.decode(data, (bool)) */\n      tag_365\n      jumpi\n      pop\n        /* \"@uniswap/lib/contracts/libraries/TransferHelper.sol\":998:1002  data */\n      dup1\n        /* \"@uniswap/lib/contracts/libraries/TransferHelper.sol\":987:1011  abi.decode(data, (bool)) */\n      dup1\n      0x20\n      add\n      swap1\n      mload\n        /* \"--CODEGEN--\":15:17   */\n      0x20\n        /* \"--CODEGEN--\":10:13   */\n      dup2\n        /* \"--CODEGEN--\":7:18   */\n      lt\n        /* \"--CODEGEN--\":4:6   */\n      iszero\n      tag_366\n      jumpi\n        /* \"--CODEGEN--\":31:32   */\n      0x00\n        /* \"--CODEGEN--\":28:29   */\n      dup1\n        /* \"--CODEGEN--\":21:33   */\n      revert\n        /* \"--CODEGEN--\":4:6   */\n    tag_366:\n      pop\n        /* \"@uniswap/lib/contracts/libraries/TransferHelper.sol\":987:1011  abi.decode(data, (bool)) */\n      mload\n        /* \"@uniswap/lib/contracts/libraries/TransferHelper.sol\":967:1011  data.length == 0 || abi.decode(data, (bool)) */\n    tag_365:\n        /* \"@uniswap/lib/contracts/libraries/TransferHelper.sol\":934:1083  require(... */\n      tag_367\n      jumpi\n      mload(0x40)\n      shl(0xe5, 0x461bcd)\n      dup2\n      mstore\n      0x04\n      add\n      dup1\n      dup1\n      0x20\n      add\n      dup3\n      dup2\n      sub\n      dup3\n      mstore\n      0x2d\n      dup2\n      mstore\n      0x20\n      add\n      dup1\n      data_daea69421eeb1164e163c36f3d4349f0db3ec4e0d1381bd5bf4faf53496c2611\n      0x2d\n      swap2\n      codecopy\n      0x40\n      add\n      swap2\n      pop\n      pop\n      mload(0x40)\n      dup1\n      swap2\n      sub\n      swap1\n      revert\n    tag_367:\n        /* \"@uniswap/lib/contracts/libraries/TransferHelper.sol\":652:1090  function safeTransfer(... */\n      pop\n      pop\n      pop\n      pop\n      pop\n      jump\t// out\n        /* \"@uniswap/lib/contracts/libraries/TransferHelper.sol\":1588:1802  function safeTransferETH(address to, uint256 value) internal {... */\n    tag_157:\n        /* \"@uniswap/lib/contracts/libraries/TransferHelper.sol\":1700:1712  new bytes(0) */\n      0x40\n      dup1\n      mload\n        /* \"@uniswap/lib/contracts/libraries/TransferHelper.sol\":1660:1672  bool success */\n      0x00\n        /* \"@uniswap/lib/contracts/libraries/TransferHelper.sol\":1700:1712  new bytes(0) */\n      dup1\n      dup3\n      mstore\n      0x20\n      dup3\n      add\n      swap1\n      swap3\n      mstore\n      sub(shl(0xa0, 0x01), 0x01)\n        /* \"@uniswap/lib/contracts/libraries/TransferHelper.sol\":1678:1685  to.call */\n      dup5\n      and\n      swap1\n        /* \"@uniswap/lib/contracts/libraries/TransferHelper.sol\":1693:1698  value */\n      dup4\n      swap1\n        /* \"@uniswap/lib/contracts/libraries/TransferHelper.sol\":1678:1713  to.call{value: value}(new bytes(0)) */\n      mload(0x40)\n      dup1\n      dup3\n      dup1\n      mload\n      swap1\n      0x20\n      add\n      swap1\n      dup1\n      dup4\n      dup4\n        /* \"--CODEGEN--\":36:189   */\n    tag_371:\n        /* \"--CODEGEN--\":66:68   */\n      0x20\n        /* \"--CODEGEN--\":61:64   */\n      dup4\n        /* \"--CODEGEN--\":58:69   */\n      lt\n        /* \"--CODEGEN--\":36:189   */\n      tag_373\n      jumpi\n        /* \"--CODEGEN--\":176:186   */\n      dup1\n      mload\n        /* \"--CODEGEN--\":164:187   */\n      dup3\n      mstore\n      not(0x1f)\n        /* \"--CODEGEN--\":139:151   */\n      swap1\n      swap3\n      add\n      swap2\n        /* \"--CODEGEN--\":98:100   */\n      0x20\n        /* \"--CODEGEN--\":89:101   */\n      swap2\n      dup3\n      add\n      swap2\n        /* \"--CODEGEN--\":114:126   */\n      add\n        /* \"--CODEGEN--\":36:189   */\n      jump(tag_371)\n    tag_373:\n        /* \"--CODEGEN--\":274:275   */\n      0x01\n        /* \"--CODEGEN--\":267:270   */\n      dup4\n        /* \"--CODEGEN--\":263:265   */\n      0x20\n        /* \"--CODEGEN--\":259:271   */\n      sub\n        /* \"--CODEGEN--\":254:257   */\n      0x0100\n        /* \"--CODEGEN--\":250:272   */\n      exp\n        /* \"--CODEGEN--\":246:276   */\n      sub\n        /* \"--CODEGEN--\":315:319   */\n      dup1\n        /* \"--CODEGEN--\":311:320   */\n      not\n        /* \"--CODEGEN--\":305:308   */\n      dup3\n        /* \"--CODEGEN--\":299:309   */\n      mload\n        /* \"--CODEGEN--\":295:321   */\n      and\n        /* \"--CODEGEN--\":356:360   */\n      dup2\n        /* \"--CODEGEN--\":350:353   */\n      dup5\n        /* \"--CODEGEN--\":344:354   */\n      mload\n        /* \"--CODEGEN--\":340:361   */\n      and\n        /* \"--CODEGEN--\":389:396   */\n      dup1\n        /* \"--CODEGEN--\":380:387   */\n      dup3\n        /* \"--CODEGEN--\":377:397   */\n      or\n        /* \"--CODEGEN--\":372:375   */\n      dup6\n        /* \"--CODEGEN--\":365:398   */\n      mstore\n        /* \"--CODEGEN--\":3:402   */\n      pop\n      pop\n      pop\n        /* \"@uniswap/lib/contracts/libraries/TransferHelper.sol\":1678:1713  to.call{value: value}(new bytes(0)) */\n      pop\n      pop\n      pop\n      swap1\n      pop\n      add\n      swap2\n      pop\n      pop\n      0x00\n      mload(0x40)\n      dup1\n      dup4\n      sub\n      dup2\n      dup6\n      dup8\n      gas\n      call\n      swap3\n      pop\n      pop\n      pop\n      returndatasize\n        /* \"--CODEGEN--\":12:13   */\n      dup1\n        /* \"--CODEGEN--\":19:20   */\n      0x00\n        /* \"--CODEGEN--\":14:41   */\n      dup2\n      eq\n      tag_376\n      jumpi\n        /* \"--CODEGEN--\":67:71   */\n      0x40\n        /* \"--CODEGEN--\":61:72   */\n      mload\n        /* \"--CODEGEN--\":56:72   */\n      swap2\n      pop\n        /* \"--CODEGEN--\":134:138   */\n      0x1f\n        /* \"--CODEGEN--\":130:139   */\n      not\n        /* \"--CODEGEN--\":123:127   */\n      0x3f\n        /* \"--CODEGEN--\":105:121   */\n      returndatasize\n        /* \"--CODEGEN--\":101:128   */\n      add\n        /* \"--CODEGEN--\":97:140   */\n      and\n        /* \"--CODEGEN--\":94:95   */\n      dup3\n        /* \"--CODEGEN--\":90:141   */\n      add\n        /* \"--CODEGEN--\":84:88   */\n      0x40\n        /* \"--CODEGEN--\":77:142   */\n      mstore\n        /* \"--CODEGEN--\":157:173   */\n      returndatasize\n        /* \"--CODEGEN--\":154:155   */\n      dup3\n        /* \"--CODEGEN--\":147:174   */\n      mstore\n        /* \"--CODEGEN--\":211:227   */\n      returndatasize\n        /* \"--CODEGEN--\":208:209   */\n      0x00\n        /* \"--CODEGEN--\":201:205   */\n      0x20\n        /* \"--CODEGEN--\":198:199   */\n      dup5\n        /* \"--CODEGEN--\":194:206   */\n      add\n        /* \"--CODEGEN--\":179:228   */\n      returndatacopy\n        /* \"--CODEGEN--\":5:233   */\n      jump(tag_375)\n        /* \"--CODEGEN--\":14:41   */\n    tag_376:\n        /* \"--CODEGEN--\":32:36   */\n      0x60\n        /* \"--CODEGEN--\":27:36   */\n      swap2\n      pop\n        /* \"--CODEGEN--\":5:233   */\n    tag_375:\n      pop\n        /* \"@uniswap/lib/contracts/libraries/TransferHelper.sol\":1659:1713  (bool success, ) = to.call{value: value}(new bytes(0)) */\n      pop\n      swap1\n      pop\n        /* \"@uniswap/lib/contracts/libraries/TransferHelper.sol\":1731:1738  success */\n      dup1\n        /* \"@uniswap/lib/contracts/libraries/TransferHelper.sol\":1723:1795  require(success, 'TransferHelper::safeTransferETH: ETH transfer failed') */\n      tag_377\n      jumpi\n      mload(0x40)\n      shl(0xe5, 0x461bcd)\n      dup2\n      mstore\n      0x04\n      add\n      dup1\n      dup1\n      0x20\n      add\n      dup3\n      dup2\n      sub\n      dup3\n      mstore\n      0x34\n      dup2\n      mstore\n      0x20\n      add\n      dup1\n      data_43d7bec223ecf9eb06ea147e7d564bc71c2448662d62a4ea86ce71fc4518b350\n      0x34\n      swap2\n      codecopy\n      0x40\n      add\n      swap2\n      pop\n      pop\n      mload(0x40)\n      dup1\n      swap2\n      sub\n      swap1\n      revert\n    tag_377:\n        /* \"@uniswap/lib/contracts/libraries/TransferHelper.sol\":1588:1802  function safeTransferETH(address to, uint256 value) internal {... */\n      pop\n      pop\n      pop\n      jump\t// out\n        /* \"UniV2/v2-periphery/libraries/TaralSwapLibrary.sol\":2173:2683  function getAmountOut(uint amountIn, uint reserveIn, uint reserveOut) internal pure returns (uint amountOut) {... */\n    tag_160:\n        /* \"UniV2/v2-periphery/libraries/TaralSwapLibrary.sol\":2266:2280  uint amountOut */\n      0x00\n        /* \"UniV2/v2-periphery/libraries/TaralSwapLibrary.sol\":2311:2312  0 */\n      dup1\n        /* \"UniV2/v2-periphery/libraries/TaralSwapLibrary.sol\":2300:2308  amountIn */\n      dup5\n        /* \"UniV2/v2-periphery/libraries/TaralSwapLibrary.sol\":2300:2312  amountIn > 0 */\n      gt\n        /* \"UniV2/v2-periphery/libraries/TaralSwapLibrary.sol\":2292:2360  require(amountIn > 0, 'TaralSwapLibrary: INSUFFICIENT_INPUT_AMOUNT') */\n      tag_379\n      jumpi\n      mload(0x40)\n      shl(0xe5, 0x461bcd)\n      dup2\n      mstore\n      0x04\n      add\n      dup1\n      dup1\n      0x20\n      add\n      dup3\n      dup2\n      sub\n      dup3\n      mstore\n      0x2b\n      dup2\n      mstore\n      0x20\n      add\n      dup1\n      data_b18e0d2ae3d4c6733fe45932601b22e743f26fbdc73de55b81abdcfabf5f07b2\n      0x2b\n      swap2\n      codecopy\n      0x40\n      add\n      swap2\n      pop\n      pop\n      mload(0x40)\n      dup1\n      swap2\n      sub\n      swap1\n      revert\n    tag_379:\n        /* \"UniV2/v2-periphery/libraries/TaralSwapLibrary.sol\":2390:2391  0 */\n      0x00\n        /* \"UniV2/v2-periphery/libraries/TaralSwapLibrary.sol\":2378:2387  reserveIn */\n      dup4\n        /* \"UniV2/v2-periphery/libraries/TaralSwapLibrary.sol\":2378:2391  reserveIn > 0 */\n      gt\n        /* \"UniV2/v2-periphery/libraries/TaralSwapLibrary.sol\":2378:2409  reserveIn > 0 && reserveOut > 0 */\n      dup1\n      iszero\n      tag_380\n      jumpi\n      pop\n        /* \"UniV2/v2-periphery/libraries/TaralSwapLibrary.sol\":2408:2409  0 */\n      0x00\n        /* \"UniV2/v2-periphery/libraries/TaralSwapLibrary.sol\":2395:2405  reserveOut */\n      dup3\n        /* \"UniV2/v2-periphery/libraries/TaralSwapLibrary.sol\":2395:2409  reserveOut > 0 */\n      gt\n        /* \"UniV2/v2-periphery/libraries/TaralSwapLibrary.sol\":2378:2409  reserveIn > 0 && reserveOut > 0 */\n    tag_380:\n        /* \"UniV2/v2-periphery/libraries/TaralSwapLibrary.sol\":2370:2454  require(reserveIn > 0 && reserveOut > 0, 'TaralSwapLibrary: INSUFFICIENT_LIQUIDITY') */\n      tag_381\n      jumpi\n      mload(0x40)\n      shl(0xe5, 0x461bcd)\n      dup2\n      mstore\n      0x04\n      add\n      dup1\n      dup1\n      0x20\n      add\n      dup3\n      dup2\n      sub\n      dup3\n      mstore\n      0x28\n      dup2\n      mstore\n      0x20\n      add\n      dup1\n      data_f2c40de7ed9adcb4e59ec81d78154f2e89db89ddb3544fc3359ec385080f4437\n      0x28\n      swap2\n      codecopy\n      0x40\n      add\n      swap2\n      pop\n      pop\n      mload(0x40)\n      dup1\n      swap2\n      sub\n      swap1\n      revert\n    tag_381:\n        /* \"UniV2/v2-periphery/libraries/TaralSwapLibrary.sol\":2464:2484  uint amountInWithFee */\n      0x00\n        /* \"UniV2/v2-periphery/libraries/TaralSwapLibrary.sol\":2487:2504  amountIn.mul(997) */\n      tag_382\n        /* \"UniV2/v2-periphery/libraries/TaralSwapLibrary.sol\":2487:2495  amountIn */\n      dup6\n        /* \"UniV2/v2-periphery/libraries/TaralSwapLibrary.sol\":2500:2503  997 */\n      0x03e5\n        /* \"UniV2/v2-periphery/libraries/TaralSwapLibrary.sol\":2487:2504  amountIn.mul(997) */\n      0xffffffff\n        /* \"UniV2/v2-periphery/libraries/TaralSwapLibrary.sol\":2487:2499  amountIn.mul */\n      tag_383\n        /* \"UniV2/v2-periphery/libraries/TaralSwapLibrary.sol\":2487:2504  amountIn.mul(997) */\n      and\n      jump\t// in\n    tag_382:\n        /* \"UniV2/v2-periphery/libraries/TaralSwapLibrary.sol\":2464:2504  uint amountInWithFee = amountIn.mul(997) */\n      swap1\n      pop\n        /* \"UniV2/v2-periphery/libraries/TaralSwapLibrary.sol\":2514:2528  uint numerator */\n      0x00\n        /* \"UniV2/v2-periphery/libraries/TaralSwapLibrary.sol\":2531:2562  amountInWithFee.mul(reserveOut) */\n      tag_384\n        /* \"UniV2/v2-periphery/libraries/TaralSwapLibrary.sol\":2464:2504  uint amountInWithFee = amountIn.mul(997) */\n      dup3\n        /* \"UniV2/v2-periphery/libraries/TaralSwapLibrary.sol\":2551:2561  reserveOut */\n      dup6\n        /* \"UniV2/v2-periphery/libraries/TaralSwapLibrary.sol\":2531:2562  amountInWithFee.mul(reserveOut) */\n      0xffffffff\n        /* \"UniV2/v2-periphery/libraries/TaralSwapLibrary.sol\":2531:2550  amountInWithFee.mul */\n      tag_383\n        /* \"UniV2/v2-periphery/libraries/TaralSwapLibrary.sol\":2531:2562  amountInWithFee.mul(reserveOut) */\n      and\n      jump\t// in\n    tag_384:\n        /* \"UniV2/v2-periphery/libraries/TaralSwapLibrary.sol\":2514:2562  uint numerator = amountInWithFee.mul(reserveOut) */\n      swap1\n      pop\n        /* \"UniV2/v2-periphery/libraries/TaralSwapLibrary.sol\":2572:2588  uint denominator */\n      0x00\n        /* \"UniV2/v2-periphery/libraries/TaralSwapLibrary.sol\":2591:2631  reserveIn.mul(1000).add(amountInWithFee) */\n      tag_385\n        /* \"UniV2/v2-periphery/libraries/TaralSwapLibrary.sol\":2615:2630  amountInWithFee */\n      dup4\n        /* \"UniV2/v2-periphery/libraries/TaralSwapLibrary.sol\":2591:2610  reserveIn.mul(1000) */\n      tag_386\n        /* \"UniV2/v2-periphery/libraries/TaralSwapLibrary.sol\":2591:2600  reserveIn */\n      dup9\n        /* \"UniV2/v2-periphery/libraries/TaralSwapLibrary.sol\":2605:2609  1000 */\n      0x03e8\n        /* \"UniV2/v2-periphery/libraries/TaralSwapLibrary.sol\":2591:2610  reserveIn.mul(1000) */\n      0xffffffff\n        /* \"UniV2/v2-periphery/libraries/TaralSwapLibrary.sol\":2591:2604  reserveIn.mul */\n      tag_383\n        /* \"UniV2/v2-periphery/libraries/TaralSwapLibrary.sol\":2591:2610  reserveIn.mul(1000) */\n      and\n      jump\t// in\n    tag_386:\n        /* \"UniV2/v2-periphery/libraries/TaralSwapLibrary.sol\":2591:2614  reserveIn.mul(1000).add */\n      swap1\n        /* \"UniV2/v2-periphery/libraries/TaralSwapLibrary.sol\":2591:2631  reserveIn.mul(1000).add(amountInWithFee) */\n      0xffffffff\n        /* \"UniV2/v2-periphery/libraries/TaralSwapLibrary.sol\":2591:2614  reserveIn.mul(1000).add */\n      tag_387\n        /* \"UniV2/v2-periphery/libraries/TaralSwapLibrary.sol\":2591:2631  reserveIn.mul(1000).add(amountInWithFee) */\n      and\n      jump\t// in\n    tag_385:\n        /* \"UniV2/v2-periphery/libraries/TaralSwapLibrary.sol\":2572:2631  uint denominator = reserveIn.mul(1000).add(amountInWithFee) */\n      swap1\n      pop\n        /* \"UniV2/v2-periphery/libraries/TaralSwapLibrary.sol\":2665:2676  denominator */\n      dup1\n        /* \"UniV2/v2-periphery/libraries/TaralSwapLibrary.sol\":2653:2662  numerator */\n      dup3\n        /* \"UniV2/v2-periphery/libraries/TaralSwapLibrary.sol\":2653:2676  numerator / denominator */\n      dup2\n      tag_388\n      jumpi\n      invalid\n    tag_388:\n      div\n      swap8\n        /* \"UniV2/v2-periphery/libraries/TaralSwapLibrary.sol\":2173:2683  function getAmountOut(uint amountIn, uint reserveIn, uint reserveOut) internal pure returns (uint amountOut) {... */\n      swap7\n      pop\n      pop\n      pop\n      pop\n      pop\n      pop\n      pop\n      jump\t// out\n        /* \"UniV2/v2-periphery/libraries/TaralSwapLibrary.sol\":3346:3849  function getAmountsOut(address factory, uint amountIn, address[] memory path) internal view returns (uint[] memory amounts) {... */\n    tag_167:\n        /* \"UniV2/v2-periphery/libraries/TaralSwapLibrary.sol\":3447:3468  uint[] memory amounts */\n      0x60\n        /* \"UniV2/v2-periphery/libraries/TaralSwapLibrary.sol\":3503:3504  2 */\n      0x02\n        /* \"UniV2/v2-periphery/libraries/TaralSwapLibrary.sol\":3488:3492  path */\n      dup3\n        /* \"UniV2/v2-periphery/libraries/TaralSwapLibrary.sol\":3488:3499  path.length */\n      mload\n        /* \"UniV2/v2-periphery/libraries/TaralSwapLibrary.sol\":3488:3504  path.length >= 2 */\n      lt\n      iszero\n        /* \"UniV2/v2-periphery/libraries/TaralSwapLibrary.sol\":3480:3539  require(path.length >= 2, 'TaralSwapLibrary: INVALID_PATH') */\n      tag_390\n      jumpi\n      0x40\n      dup1\n      mload\n      shl(0xe5, 0x461bcd)\n      dup2\n      mstore\n      0x20\n      0x04\n      dup3\n      add\n      mstore\n      0x1e\n      0x24\n      dup3\n      add\n      mstore\n      0x546172616c537761704c6962726172793a20494e56414c49445f504154480000\n      0x44\n      dup3\n      add\n      mstore\n      swap1\n      mload\n      swap1\n      dup2\n      swap1\n      sub\n      0x64\n      add\n      swap1\n      revert\n    tag_390:\n        /* \"UniV2/v2-periphery/libraries/TaralSwapLibrary.sol\":3570:3574  path */\n      dup2\n        /* \"UniV2/v2-periphery/libraries/TaralSwapLibrary.sol\":3570:3581  path.length */\n      mload\n        /* \"UniV2/v2-periphery/libraries/TaralSwapLibrary.sol\":3559:3582  new uint[](path.length) */\n      0xffffffffffffffff\n      dup2\n      gt\n        /* \"--CODEGEN--\":5:14   */\n      dup1\n        /* \"--CODEGEN--\":2:4   */\n      iszero\n      tag_391\n      jumpi\n        /* \"--CODEGEN--\":27:28   */\n      0x00\n        /* \"--CODEGEN--\":24:25   */\n      dup1\n        /* \"--CODEGEN--\":17:29   */\n      revert\n        /* \"--CODEGEN--\":2:4   */\n    tag_391:\n        /* \"UniV2/v2-periphery/libraries/TaralSwapLibrary.sol\":3559:3582  new uint[](path.length) */\n      pop\n      mload(0x40)\n      swap1\n      dup1\n      dup3\n      mstore\n      dup1\n      0x20\n      mul\n      0x20\n      add\n      dup3\n      add\n      0x40\n      mstore\n      dup1\n      iszero\n      tag_392\n      jumpi\n      dup2\n      0x20\n      add\n        /* \"--CODEGEN--\":29:31   */\n      0x20\n        /* \"--CODEGEN--\":21:27   */\n      dup3\n        /* \"--CODEGEN--\":17:32   */\n      mul\n        /* \"--CODEGEN--\":125:129   */\n      dup1\n        /* \"--CODEGEN--\":109:123   */\n      calldatasize\n        /* \"--CODEGEN--\":101:107   */\n      dup4\n        /* \"--CODEGEN--\":88:130   */\n      calldatacopy\n        /* \"--CODEGEN--\":144:161   */\n      add\n      swap1\n      pop\n        /* \"UniV2/v2-periphery/libraries/TaralSwapLibrary.sol\":3559:3582  new uint[](path.length) */\n    tag_392:\n      pop\n        /* \"UniV2/v2-periphery/libraries/TaralSwapLibrary.sol\":3549:3582  amounts = new uint[](path.length) */\n      swap1\n      pop\n        /* \"UniV2/v2-periphery/libraries/TaralSwapLibrary.sol\":3605:3613  amountIn */\n      dup3\n        /* \"UniV2/v2-periphery/libraries/TaralSwapLibrary.sol\":3592:3599  amounts */\n      dup2\n        /* \"UniV2/v2-periphery/libraries/TaralSwapLibrary.sol\":3600:3601  0 */\n      0x00\n        /* \"UniV2/v2-periphery/libraries/TaralSwapLibrary.sol\":3592:3602  amounts[0] */\n      dup2\n      mload\n      dup2\n      lt\n      tag_393\n      jumpi\n      invalid\n    tag_393:\n      0x20\n      mul\n      0x20\n      add\n      add\n        /* \"UniV2/v2-periphery/libraries/TaralSwapLibrary.sol\":3592:3613  amounts[0] = amountIn */\n      dup2\n      dup2\n      mstore\n      pop\n      pop\n        /* \"UniV2/v2-periphery/libraries/TaralSwapLibrary.sol\":3628:3634  uint i */\n      0x00\n        /* \"UniV2/v2-periphery/libraries/TaralSwapLibrary.sol\":3623:3843  for (uint i; i < path.length - 1; i++) {... */\n    tag_394:\n        /* \"UniV2/v2-periphery/libraries/TaralSwapLibrary.sol\":3654:3655  1 */\n      0x01\n        /* \"UniV2/v2-periphery/libraries/TaralSwapLibrary.sol\":3640:3644  path */\n      dup4\n        /* \"UniV2/v2-periphery/libraries/TaralSwapLibrary.sol\":3640:3651  path.length */\n      mload\n        /* \"UniV2/v2-periphery/libraries/TaralSwapLibrary.sol\":3640:3655  path.length - 1 */\n      sub\n        /* \"UniV2/v2-periphery/libraries/TaralSwapLibrary.sol\":3636:3637  i */\n      dup2\n        /* \"UniV2/v2-periphery/libraries/TaralSwapLibrary.sol\":3636:3655  i < path.length - 1 */\n      lt\n        /* \"UniV2/v2-periphery/libraries/TaralSwapLibrary.sol\":3623:3843  for (uint i; i < path.length - 1; i++) {... */\n      iszero\n      tag_395\n      jumpi\n        /* \"UniV2/v2-periphery/libraries/TaralSwapLibrary.sol\":3677:3691  uint reserveIn */\n      0x00\n        /* \"UniV2/v2-periphery/libraries/TaralSwapLibrary.sol\":3693:3708  uint reserveOut */\n      dup1\n        /* \"UniV2/v2-periphery/libraries/TaralSwapLibrary.sol\":3712:3754  getReserves(factory, path[i], path[i + 1]) */\n      tag_397\n        /* \"UniV2/v2-periphery/libraries/TaralSwapLibrary.sol\":3724:3731  factory */\n      dup8\n        /* \"UniV2/v2-periphery/libraries/TaralSwapLibrary.sol\":3733:3737  path */\n      dup7\n        /* \"UniV2/v2-periphery/libraries/TaralSwapLibrary.sol\":3738:3739  i */\n      dup6\n        /* \"UniV2/v2-periphery/libraries/TaralSwapLibrary.sol\":3733:3740  path[i] */\n      dup2\n      mload\n      dup2\n      lt\n      tag_398\n      jumpi\n      invalid\n    tag_398:\n      0x20\n      mul\n      0x20\n      add\n      add\n      mload\n        /* \"UniV2/v2-periphery/libraries/TaralSwapLibrary.sol\":3742:3746  path */\n      dup8\n        /* \"UniV2/v2-periphery/libraries/TaralSwapLibrary.sol\":3747:3748  i */\n      dup7\n        /* \"UniV2/v2-periphery/libraries/TaralSwapLibrary.sol\":3751:3752  1 */\n      0x01\n        /* \"UniV2/v2-periphery/libraries/TaralSwapLibrary.sol\":3747:3752  i + 1 */\n      add\n        /* \"UniV2/v2-periphery/libraries/TaralSwapLibrary.sol\":3742:3753  path[i + 1] */\n      dup2\n      mload\n      dup2\n      lt\n      tag_399\n      jumpi\n      invalid\n    tag_399:\n      0x20\n      mul\n      0x20\n      add\n      add\n      mload\n        /* \"UniV2/v2-periphery/libraries/TaralSwapLibrary.sol\":3712:3723  getReserves */\n      tag_400\n        /* \"UniV2/v2-periphery/libraries/TaralSwapLibrary.sol\":3712:3754  getReserves(factory, path[i], path[i + 1]) */\n      jump\t// in\n    tag_397:\n        /* \"UniV2/v2-periphery/libraries/TaralSwapLibrary.sol\":3676:3754  (uint reserveIn, uint reserveOut) = getReserves(factory, path[i], path[i + 1]) */\n      swap2\n      pop\n      swap2\n      pop\n        /* \"UniV2/v2-periphery/libraries/TaralSwapLibrary.sol\":3785:3832  getAmountOut(amounts[i], reserveIn, reserveOut) */\n      tag_401\n        /* \"UniV2/v2-periphery/libraries/TaralSwapLibrary.sol\":3798:3805  amounts */\n      dup5\n        /* \"UniV2/v2-periphery/libraries/TaralSwapLibrary.sol\":3806:3807  i */\n      dup5\n        /* \"UniV2/v2-periphery/libraries/TaralSwapLibrary.sol\":3798:3808  amounts[i] */\n      dup2\n      mload\n      dup2\n      lt\n      tag_402\n      jumpi\n      invalid\n    tag_402:\n      0x20\n      mul\n      0x20\n      add\n      add\n      mload\n        /* \"UniV2/v2-periphery/libraries/TaralSwapLibrary.sol\":3810:3819  reserveIn */\n      dup4\n        /* \"UniV2/v2-periphery/libraries/TaralSwapLibrary.sol\":3821:3831  reserveOut */\n      dup4\n        /* \"UniV2/v2-periphery/libraries/TaralSwapLibrary.sol\":3785:3797  getAmountOut */\n      tag_160\n        /* \"UniV2/v2-periphery/libraries/TaralSwapLibrary.sol\":3785:3832  getAmountOut(amounts[i], reserveIn, reserveOut) */\n      jump\t// in\n    tag_401:\n        /* \"UniV2/v2-periphery/libraries/TaralSwapLibrary.sol\":3768:3775  amounts */\n      dup5\n        /* \"UniV2/v2-periphery/libraries/TaralSwapLibrary.sol\":3776:3777  i */\n      dup5\n        /* \"UniV2/v2-periphery/libraries/TaralSwapLibrary.sol\":3780:3781  1 */\n      0x01\n        /* \"UniV2/v2-periphery/libraries/TaralSwapLibrary.sol\":3776:3781  i + 1 */\n      add\n        /* \"UniV2/v2-periphery/libraries/TaralSwapLibrary.sol\":3768:3782  amounts[i + 1] */\n      dup2\n      mload\n      dup2\n      lt\n      tag_403\n      jumpi\n      invalid\n    tag_403:\n      0x20\n      swap1\n      dup2\n      mul\n      swap2\n      swap1\n      swap2\n      add\n      add\n        /* \"UniV2/v2-periphery/libraries/TaralSwapLibrary.sol\":3768:3832  amounts[i + 1] = getAmountOut(amounts[i], reserveIn, reserveOut) */\n      mstore\n      pop\n      pop\n        /* \"UniV2/v2-periphery/libraries/TaralSwapLibrary.sol\":3657:3660  i++ */\n      0x01\n      add\n        /* \"UniV2/v2-periphery/libraries/TaralSwapLibrary.sol\":3623:3843  for (uint i; i < path.length - 1; i++) {... */\n      jump(tag_394)\n    tag_395:\n      pop\n        /* \"UniV2/v2-periphery/libraries/TaralSwapLibrary.sol\":3346:3849  function getAmountsOut(address factory, uint amountIn, address[] memory path) internal view returns (uint[] memory amounts) {... */\n      swap4\n      swap3\n      pop\n      pop\n      pop\n      jump\t// out\n        /* \"UniV2/v2-periphery/libraries/TaralSwapLibrary.sol\":715:1185  function pairFor(address factory, address tokenA, address tokenB) internal pure returns (address pair) {... */\n    tag_175:\n        /* \"UniV2/v2-periphery/libraries/TaralSwapLibrary.sol\":804:816  address pair */\n      0x00\n        /* \"UniV2/v2-periphery/libraries/TaralSwapLibrary.sol\":829:843  address token0 */\n      dup1\n        /* \"UniV2/v2-periphery/libraries/TaralSwapLibrary.sol\":845:859  address token1 */\n      0x00\n        /* \"UniV2/v2-periphery/libraries/TaralSwapLibrary.sol\":863:889  sortTokens(tokenA, tokenB) */\n      tag_405\n        /* \"UniV2/v2-periphery/libraries/TaralSwapLibrary.sol\":874:880  tokenA */\n      dup6\n        /* \"UniV2/v2-periphery/libraries/TaralSwapLibrary.sol\":882:888  tokenB */\n      dup6\n        /* \"UniV2/v2-periphery/libraries/TaralSwapLibrary.sol\":863:873  sortTokens */\n      tag_284\n        /* \"UniV2/v2-periphery/libraries/TaralSwapLibrary.sol\":863:889  sortTokens(tokenA, tokenB) */\n      jump\t// in\n    tag_405:\n        /* \"UniV2/v2-periphery/libraries/TaralSwapLibrary.sol\":1023:1055  abi.encodePacked(token0, token1) */\n      0x40\n      dup1\n      mload\n      not(0xffffffffffffffffffffffff)\n      0x60\n      swap5\n      dup6\n      shl\n      dup2\n      and\n      0x20\n      dup1\n      dup5\n      add\n      swap2\n      swap1\n      swap2\n      mstore\n      swap4\n      dup6\n      shl\n      dup2\n      and\n      0x34\n      dup4\n      add\n      mstore\n      dup3\n      mload\n        /* \"--CODEGEN--\":22:54   */\n      0x28\n        /* \"--CODEGEN--\":26:47   */\n      dup2\n      dup5\n      sub\n        /* \"--CODEGEN--\":22:54   */\n      add\n        /* \"--CODEGEN--\":6:55   */\n      dup2\n      mstore\n        /* \"UniV2/v2-periphery/libraries/TaralSwapLibrary.sol\":1023:1055  abi.encodePacked(token0, token1) */\n      0x48\n      dup4\n      add\n      dup5\n      mstore\n        /* \"UniV2/v2-periphery/libraries/TaralSwapLibrary.sol\":1013:1056  keccak256(abi.encodePacked(token0, token1)) */\n      dup1\n      mload\n      swap1\n      dup6\n      add\n      keccak256\n      not(sub(shl(0xf8, 0x01), 0x01))\n        /* \"UniV2/v2-periphery/libraries/TaralSwapLibrary.sol\":929:1175  abi.encodePacked(... */\n      0x68\n      dup5\n      add\n      mstore\n      swap11\n      swap1\n      swap5\n      shl\n      swap1\n      swap4\n      and\n      0x69\n      dup5\n      add\n      mstore\n      0x7d\n      dup4\n      add\n      swap9\n      swap1\n      swap9\n      mstore\n      0x27f067e989d1eaf4b3fe6715de948cfbabd7bf6fcb5097e2dd4928e4871347a7\n      0x9d\n      dup1\n      dup5\n      add\n      swap2\n      swap1\n      swap2\n      mstore\n      dup9\n      mload\n        /* \"--CODEGEN--\":26:47   */\n      dup1\n      dup5\n      sub\n        /* \"--CODEGEN--\":22:54   */\n      swap1\n      swap2\n      add\n        /* \"--CODEGEN--\":6:55   */\n      dup2\n      mstore\n        /* \"UniV2/v2-periphery/libraries/TaralSwapLibrary.sol\":929:1175  abi.encodePacked(... */\n      0xbd\n      swap1\n      swap3\n      add\n      swap1\n      swap8\n      mstore\n        /* \"UniV2/v2-periphery/libraries/TaralSwapLibrary.sol\":919:1176  keccak256(abi.encodePacked(... */\n      dup1\n      mload\n      swap7\n      add\n      swap6\n      swap1\n      swap6\n      keccak256\n      swap6\n        /* \"UniV2/v2-periphery/libraries/TaralSwapLibrary.sol\":715:1185  function pairFor(address factory, address tokenA, address tokenB) internal pure returns (address pair) {... */\n      swap5\n      pop\n      pop\n      pop\n      pop\n      pop\n      jump\t// out\n        /* \"@uniswap/lib/contracts/libraries/TransferHelper.sol\":1096:1582  function safeTransferFrom(... */\n    tag_177:\n        /* \"@uniswap/lib/contracts/libraries/TransferHelper.sol\":1360:1411  abi.encodeWithSelector(0x23b872dd, from, to, value) */\n      0x40\n      dup1\n      mload\n      sub(shl(0xa0, 0x01), 0x01)\n      dup6\n      dup2\n      and\n      0x24\n      dup4\n      add\n      mstore\n      dup5\n      dup2\n      and\n      0x44\n      dup4\n      add\n      mstore\n      0x64\n      dup1\n      dup4\n      add\n      dup6\n      swap1\n      mstore\n      dup4\n      mload\n        /* \"--CODEGEN--\":26:47   */\n      dup1\n      dup5\n      sub\n        /* \"--CODEGEN--\":22:54   */\n      swap1\n      swap2\n      add\n        /* \"--CODEGEN--\":6:55   */\n      dup2\n      mstore\n        /* \"@uniswap/lib/contracts/libraries/TransferHelper.sol\":1360:1411  abi.encodeWithSelector(0x23b872dd, from, to, value) */\n      0x84\n      swap1\n      swap3\n      add\n      dup4\n      mstore\n      0x20\n        /* \"--CODEGEN--\":25:43   */\n      dup3\n      add\n        /* \"--CODEGEN--\":61:78   */\n      dup1\n      mload\n      sub(shl(0xe0, 0x01), 0x01)\n        /* \"--CODEGEN--\":182:197   */\n      and\n      shl(0xe0, 0x23b872dd)\n        /* \"--CODEGEN--\":179:208   */\n      or\n        /* \"--CODEGEN--\":160:209   */\n      dup2\n      mstore\n        /* \"@uniswap/lib/contracts/libraries/TransferHelper.sol\":1349:1412  token.call(abi.encodeWithSelector(0x23b872dd, from, to, value)) */\n      swap3\n      mload\n      dup3\n      mload\n        /* \"@uniswap/lib/contracts/libraries/TransferHelper.sol\":1314:1326  bool success */\n      0x00\n      swap5\n        /* \"@uniswap/lib/contracts/libraries/TransferHelper.sol\":1328:1345  bytes memory data */\n      0x60\n      swap5\n        /* \"@uniswap/lib/contracts/libraries/TransferHelper.sol\":1349:1359  token.call */\n      swap4\n      dup11\n      and\n      swap4\n        /* \"@uniswap/lib/contracts/libraries/TransferHelper.sol\":1360:1411  abi.encodeWithSelector(0x23b872dd, from, to, value) */\n      swap3\n        /* \"@uniswap/lib/contracts/libraries/TransferHelper.sol\":1349:1412  token.call(abi.encodeWithSelector(0x23b872dd, from, to, value)) */\n      swap2\n      dup3\n      swap2\n        /* \"--CODEGEN--\":25:43   */\n      swap1\n        /* \"@uniswap/lib/contracts/libraries/TransferHelper.sol\":1349:1412  token.call(abi.encodeWithSelector(0x23b872dd, from, to, value)) */\n      dup1\n      dup4\n        /* \"--CODEGEN--\":25:43   */\n      dup4\n        /* \"--CODEGEN--\":36:189   */\n    tag_407:\n        /* \"--CODEGEN--\":66:68   */\n      0x20\n        /* \"--CODEGEN--\":61:64   */\n      dup4\n        /* \"--CODEGEN--\":58:69   */\n      lt\n        /* \"--CODEGEN--\":36:189   */\n      tag_409\n      jumpi\n        /* \"--CODEGEN--\":176:186   */\n      dup1\n      mload\n        /* \"--CODEGEN--\":164:187   */\n      dup3\n      mstore\n      not(0x1f)\n        /* \"--CODEGEN--\":139:151   */\n      swap1\n      swap3\n      add\n      swap2\n        /* \"--CODEGEN--\":98:100   */\n      0x20\n        /* \"--CODEGEN--\":89:101   */\n      swap2\n      dup3\n      add\n      swap2\n        /* \"--CODEGEN--\":114:126   */\n      add\n        /* \"--CODEGEN--\":36:189   */\n      jump(tag_407)\n    tag_409:\n        /* \"--CODEGEN--\":274:275   */\n      0x01\n        /* \"--CODEGEN--\":267:270   */\n      dup4\n        /* \"--CODEGEN--\":263:265   */\n      0x20\n        /* \"--CODEGEN--\":259:271   */\n      sub\n        /* \"--CODEGEN--\":254:257   */\n      0x0100\n        /* \"--CODEGEN--\":250:272   */\n      exp\n        /* \"--CODEGEN--\":246:276   */\n      sub\n        /* \"--CODEGEN--\":315:319   */\n      dup1\n        /* \"--CODEGEN--\":311:320   */\n      not\n        /* \"--CODEGEN--\":305:308   */\n      dup3\n        /* \"--CODEGEN--\":299:309   */\n      mload\n        /* \"--CODEGEN--\":295:321   */\n      and\n        /* \"--CODEGEN--\":356:360   */\n      dup2\n        /* \"--CODEGEN--\":350:353   */\n      dup5\n        /* \"--CODEGEN--\":344:354   */\n      mload\n        /* \"--CODEGEN--\":340:361   */\n      and\n        /* \"--CODEGEN--\":389:396   */\n      dup1\n        /* \"--CODEGEN--\":380:387   */\n      dup3\n        /* \"--CODEGEN--\":377:397   */\n      or\n        /* \"--CODEGEN--\":372:375   */\n      dup6\n        /* \"--CODEGEN--\":365:398   */\n      mstore\n        /* \"--CODEGEN--\":3:402   */\n      pop\n      pop\n      pop\n        /* \"@uniswap/lib/contracts/libraries/TransferHelper.sol\":1349:1412  token.call(abi.encodeWithSelector(0x23b872dd, from, to, value)) */\n      pop\n      pop\n      pop\n      swap1\n      pop\n      add\n      swap2\n      pop\n      pop\n      0x00\n      mload(0x40)\n      dup1\n      dup4\n      sub\n      dup2\n      0x00\n      dup7\n      gas\n      call\n      swap2\n      pop\n      pop\n      returndatasize\n        /* \"--CODEGEN--\":12:13   */\n      dup1\n        /* \"--CODEGEN--\":19:20   */\n      0x00\n        /* \"--CODEGEN--\":14:41   */\n      dup2\n      eq\n      tag_412\n      jumpi\n        /* \"--CODEGEN--\":67:71   */\n      0x40\n        /* \"--CODEGEN--\":61:72   */\n      mload\n        /* \"--CODEGEN--\":56:72   */\n      swap2\n      pop\n        /* \"--CODEGEN--\":134:138   */\n      0x1f\n        /* \"--CODEGEN--\":130:139   */\n      not\n        /* \"--CODEGEN--\":123:127   */\n      0x3f\n        /* \"--CODEGEN--\":105:121   */\n      returndatasize\n        /* \"--CODEGEN--\":101:128   */\n      add\n        /* \"--CODEGEN--\":97:140   */\n      and\n        /* \"--CODEGEN--\":94:95   */\n      dup3\n        /* \"--CODEGEN--\":90:141   */\n      add\n        /* \"--CODEGEN--\":84:88   */\n      0x40\n        /* \"--CODEGEN--\":77:142   */\n      mstore\n        /* \"--CODEGEN--\":157:173   */\n      returndatasize\n        /* \"--CODEGEN--\":154:155   */\n      dup3\n        /* \"--CODEGEN--\":147:174   */\n      mstore\n        /* \"--CODEGEN--\":211:227   */\n      returndatasize\n        /* \"--CODEGEN--\":208:209   */\n      0x00\n        /* \"--CODEGEN--\":201:205   */\n      0x20\n        /* \"--CODEGEN--\":198:199   */\n      dup5\n        /* \"--CODEGEN--\":194:206   */\n      add\n        /* \"--CODEGEN--\":179:228   */\n      returndatacopy\n        /* \"--CODEGEN--\":5:233   */\n      jump(tag_411)\n        /* \"--CODEGEN--\":14:41   */\n    tag_412:\n        /* \"--CODEGEN--\":32:36   */\n      0x60\n        /* \"--CODEGEN--\":27:36   */\n      swap2\n      pop\n        /* \"--CODEGEN--\":5:233   */\n    tag_411:\n      pop\n        /* \"@uniswap/lib/contracts/libraries/TransferHelper.sol\":1313:1412  (bool success, bytes memory data) = token.call(abi.encodeWithSelector(0x23b872dd, from, to, value)) */\n      swap2\n      pop\n      swap2\n      pop\n        /* \"@uniswap/lib/contracts/libraries/TransferHelper.sol\":1443:1450  success */\n      dup2\n        /* \"@uniswap/lib/contracts/libraries/TransferHelper.sol\":1443:1500  success && (data.length == 0 || abi.decode(data, (bool))) */\n      dup1\n      iszero\n      tag_414\n      jumpi\n      pop\n        /* \"@uniswap/lib/contracts/libraries/TransferHelper.sol\":1455:1466  data.length */\n      dup1\n      mload\n        /* \"@uniswap/lib/contracts/libraries/TransferHelper.sol\":1455:1471  data.length == 0 */\n      iszero\n      dup1\n        /* \"@uniswap/lib/contracts/libraries/TransferHelper.sol\":1455:1499  data.length == 0 || abi.decode(data, (bool)) */\n      tag_414\n      jumpi\n      pop\n        /* \"@uniswap/lib/contracts/libraries/TransferHelper.sol\":1486:1490  data */\n      dup1\n        /* \"@uniswap/lib/contracts/libraries/TransferHelper.sol\":1475:1499  abi.decode(data, (bool)) */\n      dup1\n      0x20\n      add\n      swap1\n      mload\n        /* \"--CODEGEN--\":15:17   */\n      0x20\n        /* \"--CODEGEN--\":10:13   */\n      dup2\n        /* \"--CODEGEN--\":7:18   */\n      lt\n        /* \"--CODEGEN--\":4:6   */\n      iszero\n      tag_415\n      jumpi\n        /* \"--CODEGEN--\":31:32   */\n      0x00\n        /* \"--CODEGEN--\":28:29   */\n      dup1\n        /* \"--CODEGEN--\":21:33   */\n      revert\n        /* \"--CODEGEN--\":4:6   */\n    tag_415:\n      pop\n        /* \"@uniswap/lib/contracts/libraries/TransferHelper.sol\":1475:1499  abi.decode(data, (bool)) */\n      mload\n        /* \"@uniswap/lib/contracts/libraries/TransferHelper.sol\":1455:1499  data.length == 0 || abi.decode(data, (bool)) */\n    tag_414:\n        /* \"@uniswap/lib/contracts/libraries/TransferHelper.sol\":1422:1575  require(... */\n      tag_416\n      jumpi\n      mload(0x40)\n      shl(0xe5, 0x461bcd)\n      dup2\n      mstore\n      0x04\n      add\n      dup1\n      dup1\n      0x20\n      add\n      dup3\n      dup2\n      sub\n      dup3\n      mstore\n      0x31\n      dup2\n      mstore\n      0x20\n      add\n      dup1\n      data_3f8faf98afe9344b6d4b0e75b0101259bf282914b3b5a9320c6918b6e27ede1c\n      0x31\n      swap2\n      codecopy\n      0x40\n      add\n      swap2\n      pop\n      pop\n      mload(0x40)\n      dup1\n      swap2\n      sub\n      swap1\n      revert\n    tag_416:\n        /* \"@uniswap/lib/contracts/libraries/TransferHelper.sol\":1096:1582  function safeTransferFrom(... */\n      pop\n      pop\n      pop\n      pop\n      pop\n      pop\n      jump\t// out\n        /* \"UniV2/v2-periphery/TaralSwapRouter01.sol\":6867:7552  function _swap(uint[] memory amounts, address[] memory path, address _to) private {... */\n    tag_179:\n        /* \"UniV2/v2-periphery/TaralSwapRouter01.sol\":6964:6970  uint i */\n      0x00\n        /* \"UniV2/v2-periphery/TaralSwapRouter01.sol\":6959:7546  for (uint i; i < path.length - 1; i++) {... */\n    tag_418:\n        /* \"UniV2/v2-periphery/TaralSwapRouter01.sol\":6990:6991  1 */\n      0x01\n        /* \"UniV2/v2-periphery/TaralSwapRouter01.sol\":6976:6980  path */\n      dup4\n        /* \"UniV2/v2-periphery/TaralSwapRouter01.sol\":6976:6987  path.length */\n      mload\n        /* \"UniV2/v2-periphery/TaralSwapRouter01.sol\":6976:6991  path.length - 1 */\n      sub\n        /* \"UniV2/v2-periphery/TaralSwapRouter01.sol\":6972:6973  i */\n      dup2\n        /* \"UniV2/v2-periphery/TaralSwapRouter01.sol\":6972:6991  i < path.length - 1 */\n      lt\n        /* \"UniV2/v2-periphery/TaralSwapRouter01.sol\":6959:7546  for (uint i; i < path.length - 1; i++) {... */\n      iszero\n      tag_419\n      jumpi\n        /* \"UniV2/v2-periphery/TaralSwapRouter01.sol\":7013:7026  address input */\n      0x00\n        /* \"UniV2/v2-periphery/TaralSwapRouter01.sol\":7028:7042  address output */\n      dup1\n        /* \"UniV2/v2-periphery/TaralSwapRouter01.sol\":7047:7051  path */\n      dup5\n        /* \"UniV2/v2-periphery/TaralSwapRouter01.sol\":7052:7053  i */\n      dup4\n        /* \"UniV2/v2-periphery/TaralSwapRouter01.sol\":7047:7054  path[i] */\n      dup2\n      mload\n      dup2\n      lt\n      tag_421\n      jumpi\n      invalid\n    tag_421:\n      0x20\n      mul\n      0x20\n      add\n      add\n      mload\n        /* \"UniV2/v2-periphery/TaralSwapRouter01.sol\":7056:7060  path */\n      dup6\n        /* \"UniV2/v2-periphery/TaralSwapRouter01.sol\":7061:7062  i */\n      dup5\n        /* \"UniV2/v2-periphery/TaralSwapRouter01.sol\":7065:7066  1 */\n      0x01\n        /* \"UniV2/v2-periphery/TaralSwapRouter01.sol\":7061:7066  i + 1 */\n      add\n        /* \"UniV2/v2-periphery/TaralSwapRouter01.sol\":7056:7067  path[i + 1] */\n      dup2\n      mload\n      dup2\n      lt\n      tag_422\n      jumpi\n      invalid\n    tag_422:\n      0x20\n      mul\n      0x20\n      add\n      add\n      mload\n        /* \"UniV2/v2-periphery/TaralSwapRouter01.sol\":7012:7068  (address input, address output) = (path[i], path[i + 1]) */\n      swap2\n      pop\n      swap2\n      pop\n        /* \"UniV2/v2-periphery/TaralSwapRouter01.sol\":7083:7097  address token0 */\n      0x00\n        /* \"UniV2/v2-periphery/TaralSwapRouter01.sol\":7102:7144  TaralSwapLibrary.sortTokens(input, output) */\n      tag_423\n        /* \"UniV2/v2-periphery/TaralSwapRouter01.sol\":7130:7135  input */\n      dup4\n        /* \"UniV2/v2-periphery/TaralSwapRouter01.sol\":7137:7143  output */\n      dup4\n        /* \"UniV2/v2-periphery/TaralSwapRouter01.sol\":7102:7129  TaralSwapLibrary.sortTokens */\n      tag_284\n        /* \"UniV2/v2-periphery/TaralSwapRouter01.sol\":7102:7144  TaralSwapLibrary.sortTokens(input, output) */\n      jump\t// in\n    tag_423:\n        /* \"UniV2/v2-periphery/TaralSwapRouter01.sol\":7082:7144  (address token0,) = TaralSwapLibrary.sortTokens(input, output) */\n      pop\n      swap1\n      pop\n        /* \"UniV2/v2-periphery/TaralSwapRouter01.sol\":7158:7172  uint amountOut */\n      0x00\n        /* \"UniV2/v2-periphery/TaralSwapRouter01.sol\":7175:7182  amounts */\n      dup8\n        /* \"UniV2/v2-periphery/TaralSwapRouter01.sol\":7183:7184  i */\n      dup6\n        /* \"UniV2/v2-periphery/TaralSwapRouter01.sol\":7187:7188  1 */\n      0x01\n        /* \"UniV2/v2-periphery/TaralSwapRouter01.sol\":7183:7188  i + 1 */\n      add\n        /* \"UniV2/v2-periphery/TaralSwapRouter01.sol\":7175:7189  amounts[i + 1] */\n      dup2\n      mload\n      dup2\n      lt\n      tag_424\n      jumpi\n      invalid\n    tag_424:\n      0x20\n      mul\n      0x20\n      add\n      add\n      mload\n        /* \"UniV2/v2-periphery/TaralSwapRouter01.sol\":7158:7189  uint amountOut = amounts[i + 1] */\n      swap1\n      pop\n        /* \"UniV2/v2-periphery/TaralSwapRouter01.sol\":7204:7219  uint amount0Out */\n      0x00\n        /* \"UniV2/v2-periphery/TaralSwapRouter01.sol\":7221:7236  uint amount1Out */\n      dup1\n        /* \"UniV2/v2-periphery/TaralSwapRouter01.sol\":7249:7255  token0 */\n      dup4\n      sub(shl(0xa0, 0x01), 0x01)\n        /* \"UniV2/v2-periphery/TaralSwapRouter01.sol\":7240:7255  input == token0 */\n      and\n        /* \"UniV2/v2-periphery/TaralSwapRouter01.sol\":7240:7245  input */\n      dup7\n      sub(shl(0xa0, 0x01), 0x01)\n        /* \"UniV2/v2-periphery/TaralSwapRouter01.sol\":7240:7255  input == token0 */\n      and\n      eq\n        /* \"UniV2/v2-periphery/TaralSwapRouter01.sol\":7240:7301  input == token0 ? (uint(0), amountOut) : (amountOut, uint(0)) */\n      tag_425\n      jumpi\n        /* \"UniV2/v2-periphery/TaralSwapRouter01.sol\":7282:7291  amountOut */\n      dup3\n        /* \"UniV2/v2-periphery/TaralSwapRouter01.sol\":7298:7299  0 */\n      0x00\n        /* \"UniV2/v2-periphery/TaralSwapRouter01.sol\":7240:7301  input == token0 ? (uint(0), amountOut) : (amountOut, uint(0)) */\n      jump(tag_426)\n    tag_425:\n        /* \"UniV2/v2-periphery/TaralSwapRouter01.sol\":7264:7265  0 */\n      0x00\n        /* \"UniV2/v2-periphery/TaralSwapRouter01.sol\":7268:7277  amountOut */\n      dup4\n        /* \"UniV2/v2-periphery/TaralSwapRouter01.sol\":7240:7301  input == token0 ? (uint(0), amountOut) : (amountOut, uint(0)) */\n    tag_426:\n        /* \"UniV2/v2-periphery/TaralSwapRouter01.sol\":7203:7301  (uint amount0Out, uint amount1Out) = input == token0 ? (uint(0), amountOut) : (amountOut, uint(0)) */\n      swap2\n      pop\n      swap2\n      pop\n        /* \"UniV2/v2-periphery/TaralSwapRouter01.sol\":7315:7325  address to */\n      0x00\n        /* \"UniV2/v2-periphery/TaralSwapRouter01.sol\":7346:7347  2 */\n      0x02\n        /* \"UniV2/v2-periphery/TaralSwapRouter01.sol\":7332:7336  path */\n      dup11\n        /* \"UniV2/v2-periphery/TaralSwapRouter01.sol\":7332:7343  path.length */\n      mload\n        /* \"UniV2/v2-periphery/TaralSwapRouter01.sol\":7332:7347  path.length - 2 */\n      sub\n        /* \"UniV2/v2-periphery/TaralSwapRouter01.sol\":7328:7329  i */\n      dup9\n        /* \"UniV2/v2-periphery/TaralSwapRouter01.sol\":7328:7347  i < path.length - 2 */\n      lt\n        /* \"UniV2/v2-periphery/TaralSwapRouter01.sol\":7328:7410  i < path.length - 2 ? TaralSwapLibrary.pairFor(factory, output, path[i + 2]) : _to */\n      tag_427\n      jumpi\n        /* \"UniV2/v2-periphery/TaralSwapRouter01.sol\":7407:7410  _to */\n      dup9\n        /* \"UniV2/v2-periphery/TaralSwapRouter01.sol\":7328:7410  i < path.length - 2 ? TaralSwapLibrary.pairFor(factory, output, path[i + 2]) : _to */\n      jump(tag_429)\n    tag_427:\n        /* \"UniV2/v2-periphery/TaralSwapRouter01.sol\":7350:7404  TaralSwapLibrary.pairFor(factory, output, path[i + 2]) */\n      tag_429\n        /* \"UniV2/v2-periphery/TaralSwapRouter01.sol\":7375:7382  factory */\n      immutable(\"0x198ed63d80d143525b60af21f7dc77e6c7796a43366dbb557d0a8832a905997b\")\n        /* \"UniV2/v2-periphery/TaralSwapRouter01.sol\":7384:7390  output */\n      dup8\n        /* \"UniV2/v2-periphery/TaralSwapRouter01.sol\":7392:7396  path */\n      dup13\n        /* \"UniV2/v2-periphery/TaralSwapRouter01.sol\":7397:7398  i */\n      dup12\n        /* \"UniV2/v2-periphery/TaralSwapRouter01.sol\":7401:7402  2 */\n      0x02\n        /* \"UniV2/v2-periphery/TaralSwapRouter01.sol\":7397:7402  i + 2 */\n      add\n        /* \"UniV2/v2-periphery/TaralSwapRouter01.sol\":7392:7403  path[i + 2] */\n      dup2\n      mload\n      dup2\n      lt\n      tag_430\n      jumpi\n      invalid\n    tag_430:\n      0x20\n      mul\n      0x20\n      add\n      add\n      mload\n        /* \"UniV2/v2-periphery/TaralSwapRouter01.sol\":7350:7374  TaralSwapLibrary.pairFor */\n      tag_175\n        /* \"UniV2/v2-periphery/TaralSwapRouter01.sol\":7350:7404  TaralSwapLibrary.pairFor(factory, output, path[i + 2]) */\n      jump\t// in\n    tag_429:\n        /* \"UniV2/v2-periphery/TaralSwapRouter01.sol\":7315:7410  address to = i < path.length - 2 ? TaralSwapLibrary.pairFor(factory, output, path[i + 2]) : _to */\n      swap1\n      pop\n        /* \"UniV2/v2-periphery/TaralSwapRouter01.sol\":7439:7487  TaralSwapLibrary.pairFor(factory, input, output) */\n      tag_431\n        /* \"UniV2/v2-periphery/TaralSwapRouter01.sol\":7464:7471  factory */\n      immutable(\"0x198ed63d80d143525b60af21f7dc77e6c7796a43366dbb557d0a8832a905997b\")\n        /* \"UniV2/v2-periphery/TaralSwapRouter01.sol\":7473:7478  input */\n      dup9\n        /* \"UniV2/v2-periphery/TaralSwapRouter01.sol\":7480:7486  output */\n      dup9\n        /* \"UniV2/v2-periphery/TaralSwapRouter01.sol\":7439:7463  TaralSwapLibrary.pairFor */\n      tag_175\n        /* \"UniV2/v2-periphery/TaralSwapRouter01.sol\":7439:7487  TaralSwapLibrary.pairFor(factory, input, output) */\n      jump\t// in\n    tag_431:\n      sub(shl(0xa0, 0x01), 0x01)\n        /* \"UniV2/v2-periphery/TaralSwapRouter01.sol\":7424:7493  IUniswapV2Pair(TaralSwapLibrary.pairFor(factory, input, output)).swap */\n      and\n      0x022c0d9f\n        /* \"UniV2/v2-periphery/TaralSwapRouter01.sol\":7494:7504  amount0Out */\n      dup5\n        /* \"UniV2/v2-periphery/TaralSwapRouter01.sol\":7506:7516  amount1Out */\n      dup5\n        /* \"UniV2/v2-periphery/TaralSwapRouter01.sol\":7518:7520  to */\n      dup5\n        /* \"UniV2/v2-periphery/TaralSwapRouter01.sol\":7532:7533  0 */\n      0x00\n        /* \"UniV2/v2-periphery/TaralSwapRouter01.sol\":7522:7534  new bytes(0) */\n      mload(0x40)\n      swap1\n      dup1\n      dup3\n      mstore\n      dup1\n      0x1f\n      add\n      not(0x1f)\n      and\n      0x20\n      add\n      dup3\n      add\n      0x40\n      mstore\n      dup1\n      iszero\n      tag_433\n      jumpi\n      0x20\n      dup3\n      add\n        /* \"--CODEGEN--\":21:27   */\n      dup2\n      dup1\n        /* \"--CODEGEN--\":108:122   */\n      calldatasize\n        /* \"UniV2/v2-periphery/TaralSwapRouter01.sol\":7522:7534  new bytes(0) */\n      dup4\n        /* \"--CODEGEN--\":87:129   */\n      calldatacopy\n        /* \"--CODEGEN--\":143:160   */\n      add\n      swap1\n      pop\n        /* \"UniV2/v2-periphery/TaralSwapRouter01.sol\":7522:7534  new bytes(0) */\n    tag_433:\n      pop\n        /* \"UniV2/v2-periphery/TaralSwapRouter01.sol\":7424:7535  IUniswapV2Pair(TaralSwapLibrary.pairFor(factory, input, output)).swap(amount0Out, amount1Out, to, new bytes(0)) */\n      mload(0x40)\n      dup6\n      0xffffffff\n      and\n      0xe0\n      shl\n      dup2\n      mstore\n      0x04\n      add\n      dup1\n      dup6\n      dup2\n      mstore\n      0x20\n      add\n      dup5\n      dup2\n      mstore\n      0x20\n      add\n      dup4\n      sub(shl(0xa0, 0x01), 0x01)\n      and\n      sub(shl(0xa0, 0x01), 0x01)\n      and\n      dup2\n      mstore\n      0x20\n      add\n      dup1\n      0x20\n      add\n      dup3\n      dup2\n      sub\n      dup3\n      mstore\n      dup4\n      dup2\n      dup2\n      mload\n      dup2\n      mstore\n      0x20\n      add\n      swap2\n      pop\n      dup1\n      mload\n      swap1\n      0x20\n      add\n      swap1\n      dup1\n      dup4\n      dup4\n        /* \"--CODEGEN--\":23:24   */\n      0x00\n        /* \"--CODEGEN--\":8:108   */\n    tag_434:\n        /* \"--CODEGEN--\":33:36   */\n      dup4\n        /* \"--CODEGEN--\":30:31   */\n      dup2\n        /* \"--CODEGEN--\":27:37   */\n      lt\n        /* \"--CODEGEN--\":8:108   */\n      iszero\n      tag_436\n      jumpi\n        /* \"--CODEGEN--\":90:101   */\n      dup2\n      dup2\n      add\n        /* \"--CODEGEN--\":84:102   */\n      mload\n        /* \"--CODEGEN--\":71:82   */\n      dup4\n      dup3\n      add\n        /* \"--CODEGEN--\":64:103   */\n      mstore\n        /* \"--CODEGEN--\":52:54   */\n      0x20\n        /* \"--CODEGEN--\":45:55   */\n      add\n        /* \"--CODEGEN--\":8:108   */\n      jump(tag_434)\n    tag_436:\n        /* \"--CODEGEN--\":12:26   */\n      pop\n        /* \"UniV2/v2-periphery/TaralSwapRouter01.sol\":7424:7535  IUniswapV2Pair(TaralSwapLibrary.pairFor(factory, input, output)).swap(amount0Out, amount1Out, to, new bytes(0)) */\n      pop\n      pop\n      pop\n      swap1\n      pop\n      swap1\n      dup2\n      add\n      swap1\n      0x1f\n      and\n      dup1\n      iszero\n      tag_437\n      jumpi\n      dup1\n      dup3\n      sub\n      dup1\n      mload\n      0x01\n      dup4\n      0x20\n      sub\n      0x0100\n      exp\n      sub\n      not\n      and\n      dup2\n      mstore\n      0x20\n      add\n      swap2\n      pop\n    tag_437:\n      pop\n      swap6\n      pop\n      pop\n      pop\n      pop\n      pop\n      pop\n      0x00\n      mload(0x40)\n      dup1\n      dup4\n      sub\n      dup2\n      0x00\n      dup8\n      dup1\n      extcodesize\n      iszero\n        /* \"--CODEGEN--\":5:14   */\n      dup1\n        /* \"--CODEGEN--\":2:4   */\n      iszero\n      tag_438\n      jumpi\n        /* \"--CODEGEN--\":27:28   */\n      0x00\n        /* \"--CODEGEN--\":24:25   */\n      dup1\n        /* \"--CODEGEN--\":17:29   */\n      revert\n        /* \"--CODEGEN--\":2:4   */\n    tag_438:\n        /* \"UniV2/v2-periphery/TaralSwapRouter01.sol\":7424:7535  IUniswapV2Pair(TaralSwapLibrary.pairFor(factory, input, output)).swap(amount0Out, amount1Out, to, new bytes(0)) */\n      pop\n      gas\n      call\n      iszero\n        /* \"--CODEGEN--\":8:17   */\n      dup1\n        /* \"--CODEGEN--\":5:7   */\n      iszero\n      tag_440\n      jumpi\n        /* \"--CODEGEN--\":45:61   */\n      returndatasize\n        /* \"--CODEGEN--\":42:43   */\n      0x00\n        /* \"--CODEGEN--\":39:40   */\n      dup1\n        /* \"--CODEGEN--\":24:62   */\n      returndatacopy\n        /* \"--CODEGEN--\":77:93   */\n      returndatasize\n        /* \"--CODEGEN--\":74:75   */\n      0x00\n        /* \"--CODEGEN--\":67:94   */\n      revert\n        /* \"--CODEGEN--\":5:7   */\n    tag_440:\n      pop\n      pop\n        /* \"UniV2/v2-periphery/TaralSwapRouter01.sol\":6993:6996  i++ */\n      0x01\n      swap1\n      swap10\n      add\n      swap9\n      pop\n        /* \"UniV2/v2-periphery/TaralSwapRouter01.sol\":6959:7546  for (uint i; i < path.length - 1; i++) {... */\n      tag_418\n      swap8\n      pop\n      pop\n      pop\n      pop\n      pop\n      pop\n      pop\n      pop\n      jump\n    tag_419:\n      pop\n        /* \"UniV2/v2-periphery/TaralSwapRouter01.sol\":6867:7552  function _swap(uint[] memory amounts, address[] memory path, address _to) private {... */\n      pop\n      pop\n      pop\n      jump\t// out\n        /* \"UniV2/v2-periphery/libraries/TaralSwapLibrary.sol\":3927:4451  function getAmountsIn(address factory, uint amountOut, address[] memory path) internal view returns (uint[] memory amounts) {... */\n    tag_188:\n        /* \"UniV2/v2-periphery/libraries/TaralSwapLibrary.sol\":4028:4049  uint[] memory amounts */\n      0x60\n        /* \"UniV2/v2-periphery/libraries/TaralSwapLibrary.sol\":4084:4085  2 */\n      0x02\n        /* \"UniV2/v2-periphery/libraries/TaralSwapLibrary.sol\":4069:4073  path */\n      dup3\n        /* \"UniV2/v2-periphery/libraries/TaralSwapLibrary.sol\":4069:4080  path.length */\n      mload\n        /* \"UniV2/v2-periphery/libraries/TaralSwapLibrary.sol\":4069:4085  path.length >= 2 */\n      lt\n      iszero\n        /* \"UniV2/v2-periphery/libraries/TaralSwapLibrary.sol\":4061:4120  require(path.length >= 2, 'TaralSwapLibrary: INVALID_PATH') */\n      tag_442\n      jumpi\n      0x40\n      dup1\n      mload\n      shl(0xe5, 0x461bcd)\n      dup2\n      mstore\n      0x20\n      0x04\n      dup3\n      add\n      mstore\n      0x1e\n      0x24\n      dup3\n      add\n      mstore\n      0x546172616c537761704c6962726172793a20494e56414c49445f504154480000\n      0x44\n      dup3\n      add\n      mstore\n      swap1\n      mload\n      swap1\n      dup2\n      swap1\n      sub\n      0x64\n      add\n      swap1\n      revert\n    tag_442:\n        /* \"UniV2/v2-periphery/libraries/TaralSwapLibrary.sol\":4151:4155  path */\n      dup2\n        /* \"UniV2/v2-periphery/libraries/TaralSwapLibrary.sol\":4151:4162  path.length */\n      mload\n        /* \"UniV2/v2-periphery/libraries/TaralSwapLibrary.sol\":4140:4163  new uint[](path.length) */\n      0xffffffffffffffff\n      dup2\n      gt\n        /* \"--CODEGEN--\":5:14   */\n      dup1\n        /* \"--CODEGEN--\":2:4   */\n      iszero\n      tag_443\n      jumpi\n        /* \"--CODEGEN--\":27:28   */\n      0x00\n        /* \"--CODEGEN--\":24:25   */\n      dup1\n        /* \"--CODEGEN--\":17:29   */\n      revert\n        /* \"--CODEGEN--\":2:4   */\n    tag_443:\n        /* \"UniV2/v2-periphery/libraries/TaralSwapLibrary.sol\":4140:4163  new uint[](path.length) */\n      pop\n      mload(0x40)\n      swap1\n      dup1\n      dup3\n      mstore\n      dup1\n      0x20\n      mul\n      0x20\n      add\n      dup3\n      add\n      0x40\n      mstore\n      dup1\n      iszero\n      tag_444\n      jumpi\n      dup2\n      0x20\n      add\n        /* \"--CODEGEN--\":29:31   */\n      0x20\n        /* \"--CODEGEN--\":21:27   */\n      dup3\n        /* \"--CODEGEN--\":17:32   */\n      mul\n        /* \"--CODEGEN--\":125:129   */\n      dup1\n        /* \"--CODEGEN--\":109:123   */\n      calldatasize\n        /* \"--CODEGEN--\":101:107   */\n      dup4\n        /* \"--CODEGEN--\":88:130   */\n      calldatacopy\n        /* \"--CODEGEN--\":144:161   */\n      add\n      swap1\n      pop\n        /* \"UniV2/v2-periphery/libraries/TaralSwapLibrary.sol\":4140:4163  new uint[](path.length) */\n    tag_444:\n      pop\n        /* \"UniV2/v2-periphery/libraries/TaralSwapLibrary.sol\":4130:4163  amounts = new uint[](path.length) */\n      swap1\n      pop\n        /* \"UniV2/v2-periphery/libraries/TaralSwapLibrary.sol\":4203:4212  amountOut */\n      dup3\n        /* \"UniV2/v2-periphery/libraries/TaralSwapLibrary.sol\":4173:4180  amounts */\n      dup2\n        /* \"UniV2/v2-periphery/libraries/TaralSwapLibrary.sol\":4198:4199  1 */\n      0x01\n        /* \"UniV2/v2-periphery/libraries/TaralSwapLibrary.sol\":4181:4188  amounts */\n      dup4\n        /* \"UniV2/v2-periphery/libraries/TaralSwapLibrary.sol\":4181:4195  amounts.length */\n      mload\n        /* \"UniV2/v2-periphery/libraries/TaralSwapLibrary.sol\":4181:4199  amounts.length - 1 */\n      sub\n        /* \"UniV2/v2-periphery/libraries/TaralSwapLibrary.sol\":4173:4200  amounts[amounts.length - 1] */\n      dup2\n      mload\n      dup2\n      lt\n      tag_445\n      jumpi\n      invalid\n    tag_445:\n      0x20\n      swap1\n      dup2\n      mul\n      swap2\n      swap1\n      swap2\n      add\n      add\n        /* \"UniV2/v2-periphery/libraries/TaralSwapLibrary.sol\":4173:4212  amounts[amounts.length - 1] = amountOut */\n      mstore\n        /* \"UniV2/v2-periphery/libraries/TaralSwapLibrary.sol\":4236:4247  path.length */\n      dup2\n      mload\n      not(0x00)\n        /* \"UniV2/v2-periphery/libraries/TaralSwapLibrary.sol\":4236:4251  path.length - 1 */\n      add\n        /* \"UniV2/v2-periphery/libraries/TaralSwapLibrary.sol\":4222:4445  for (uint i = path.length - 1; i > 0; i--) {... */\n    tag_446:\n        /* \"UniV2/v2-periphery/libraries/TaralSwapLibrary.sol\":4253:4258  i > 0 */\n      dup1\n      iszero\n        /* \"UniV2/v2-periphery/libraries/TaralSwapLibrary.sol\":4222:4445  for (uint i = path.length - 1; i > 0; i--) {... */\n      tag_395\n      jumpi\n        /* \"UniV2/v2-periphery/libraries/TaralSwapLibrary.sol\":4280:4294  uint reserveIn */\n      0x00\n        /* \"UniV2/v2-periphery/libraries/TaralSwapLibrary.sol\":4296:4311  uint reserveOut */\n      dup1\n        /* \"UniV2/v2-periphery/libraries/TaralSwapLibrary.sol\":4315:4357  getReserves(factory, path[i - 1], path[i]) */\n      tag_449\n        /* \"UniV2/v2-periphery/libraries/TaralSwapLibrary.sol\":4327:4334  factory */\n      dup8\n        /* \"UniV2/v2-periphery/libraries/TaralSwapLibrary.sol\":4336:4340  path */\n      dup7\n        /* \"UniV2/v2-periphery/libraries/TaralSwapLibrary.sol\":4345:4346  1 */\n      0x01\n        /* \"UniV2/v2-periphery/libraries/TaralSwapLibrary.sol\":4341:4342  i */\n      dup7\n        /* \"UniV2/v2-periphery/libraries/TaralSwapLibrary.sol\":4341:4346  i - 1 */\n      sub\n        /* \"UniV2/v2-periphery/libraries/TaralSwapLibrary.sol\":4336:4347  path[i - 1] */\n      dup2\n      mload\n      dup2\n      lt\n      tag_450\n      jumpi\n      invalid\n    tag_450:\n      0x20\n      mul\n      0x20\n      add\n      add\n      mload\n        /* \"UniV2/v2-periphery/libraries/TaralSwapLibrary.sol\":4349:4353  path */\n      dup8\n        /* \"UniV2/v2-periphery/libraries/TaralSwapLibrary.sol\":4354:4355  i */\n      dup7\n        /* \"UniV2/v2-periphery/libraries/TaralSwapLibrary.sol\":4349:4356  path[i] */\n      dup2\n      mload\n      dup2\n      lt\n      tag_399\n      jumpi\n      invalid\n        /* \"UniV2/v2-periphery/libraries/TaralSwapLibrary.sol\":4315:4357  getReserves(factory, path[i - 1], path[i]) */\n    tag_449:\n        /* \"UniV2/v2-periphery/libraries/TaralSwapLibrary.sol\":4279:4357  (uint reserveIn, uint reserveOut) = getReserves(factory, path[i - 1], path[i]) */\n      swap2\n      pop\n      swap2\n      pop\n        /* \"UniV2/v2-periphery/libraries/TaralSwapLibrary.sol\":4388:4434  getAmountIn(amounts[i], reserveIn, reserveOut) */\n      tag_452\n        /* \"UniV2/v2-periphery/libraries/TaralSwapLibrary.sol\":4400:4407  amounts */\n      dup5\n        /* \"UniV2/v2-periphery/libraries/TaralSwapLibrary.sol\":4408:4409  i */\n      dup5\n        /* \"UniV2/v2-periphery/libraries/TaralSwapLibrary.sol\":4400:4410  amounts[i] */\n      dup2\n      mload\n      dup2\n      lt\n      tag_453\n      jumpi\n      invalid\n    tag_453:\n      0x20\n      mul\n      0x20\n      add\n      add\n      mload\n        /* \"UniV2/v2-periphery/libraries/TaralSwapLibrary.sol\":4412:4421  reserveIn */\n      dup4\n        /* \"UniV2/v2-periphery/libraries/TaralSwapLibrary.sol\":4423:4433  reserveOut */\n      dup4\n        /* \"UniV2/v2-periphery/libraries/TaralSwapLibrary.sol\":4388:4399  getAmountIn */\n      tag_454\n        /* \"UniV2/v2-periphery/libraries/TaralSwapLibrary.sol\":4388:4434  getAmountIn(amounts[i], reserveIn, reserveOut) */\n      jump\t// in\n    tag_452:\n        /* \"UniV2/v2-periphery/libraries/TaralSwapLibrary.sol\":4371:4378  amounts */\n      dup5\n        /* \"UniV2/v2-periphery/libraries/TaralSwapLibrary.sol\":4383:4384  1 */\n      0x01\n        /* \"UniV2/v2-periphery/libraries/TaralSwapLibrary.sol\":4379:4380  i */\n      dup6\n        /* \"UniV2/v2-periphery/libraries/TaralSwapLibrary.sol\":4379:4384  i - 1 */\n      sub\n        /* \"UniV2/v2-periphery/libraries/TaralSwapLibrary.sol\":4371:4385  amounts[i - 1] */\n      dup2\n      mload\n      dup2\n      lt\n      tag_455\n      jumpi\n      invalid\n    tag_455:\n      0x20\n      swap1\n      dup2\n      mul\n      swap2\n      swap1\n      swap2\n      add\n      add\n        /* \"UniV2/v2-periphery/libraries/TaralSwapLibrary.sol\":4371:4434  amounts[i - 1] = getAmountIn(amounts[i], reserveIn, reserveOut) */\n      mstore\n      pop\n      pop\n      not(0x00)\n        /* \"UniV2/v2-periphery/libraries/TaralSwapLibrary.sol\":4260:4263  i-- */\n      add\n        /* \"UniV2/v2-periphery/libraries/TaralSwapLibrary.sol\":4222:4445  for (uint i = path.length - 1; i > 0; i--) {... */\n      jump(tag_446)\n        /* \"UniV2/v2-periphery/libraries/TaralSwapLibrary.sol\":1737:2054  function quote(uint amountA, uint reserveA, uint reserveB) internal pure returns (uint amountB) {... */\n    tag_270:\n        /* \"UniV2/v2-periphery/libraries/TaralSwapLibrary.sol\":1819:1831  uint amountB */\n      0x00\n        /* \"UniV2/v2-periphery/libraries/TaralSwapLibrary.sol\":1861:1862  0 */\n      dup1\n        /* \"UniV2/v2-periphery/libraries/TaralSwapLibrary.sol\":1851:1858  amountA */\n      dup5\n        /* \"UniV2/v2-periphery/libraries/TaralSwapLibrary.sol\":1851:1862  amountA > 0 */\n      gt\n        /* \"UniV2/v2-periphery/libraries/TaralSwapLibrary.sol\":1843:1904  require(amountA > 0, 'TaralSwapLibrary: INSUFFICIENT_AMOUNT') */\n      tag_457\n      jumpi\n      mload(0x40)\n      shl(0xe5, 0x461bcd)\n      dup2\n      mstore\n      0x04\n      add\n      dup1\n      dup1\n      0x20\n      add\n      dup3\n      dup2\n      sub\n      dup3\n      mstore\n      0x25\n      dup2\n      mstore\n      0x20\n      add\n      dup1\n      data_b9d07f19374242e33ecc3bbcba924d538b5e40f1dacd912af197388ebf04c28c\n      0x25\n      swap2\n      codecopy\n      0x40\n      add\n      swap2\n      pop\n      pop\n      mload(0x40)\n      dup1\n      swap2\n      sub\n      swap1\n      revert\n    tag_457:\n        /* \"UniV2/v2-periphery/libraries/TaralSwapLibrary.sol\":1933:1934  0 */\n      0x00\n        /* \"UniV2/v2-periphery/libraries/TaralSwapLibrary.sol\":1922:1930  reserveA */\n      dup4\n        /* \"UniV2/v2-periphery/libraries/TaralSwapLibrary.sol\":1922:1934  reserveA > 0 */\n      gt\n        /* \"UniV2/v2-periphery/libraries/TaralSwapLibrary.sol\":1922:1950  reserveA > 0 && reserveB > 0 */\n      dup1\n      iszero\n      tag_458\n      jumpi\n      pop\n        /* \"UniV2/v2-periphery/libraries/TaralSwapLibrary.sol\":1949:1950  0 */\n      0x00\n        /* \"UniV2/v2-periphery/libraries/TaralSwapLibrary.sol\":1938:1946  reserveB */\n      dup3\n        /* \"UniV2/v2-periphery/libraries/TaralSwapLibrary.sol\":1938:1950  reserveB > 0 */\n      gt\n        /* \"UniV2/v2-periphery/libraries/TaralSwapLibrary.sol\":1922:1950  reserveA > 0 && reserveB > 0 */\n    tag_458:\n        /* \"UniV2/v2-periphery/libraries/TaralSwapLibrary.sol\":1914:1995  require(reserveA > 0 && reserveB > 0, 'TaralSwapLibrary: INSUFFICIENT_LIQUIDITY') */\n      tag_459\n      jumpi\n      mload(0x40)\n      shl(0xe5, 0x461bcd)\n      dup2\n      mstore\n      0x04\n      add\n      dup1\n      dup1\n      0x20\n      add\n      dup3\n      dup2\n      sub\n      dup3\n      mstore\n      0x28\n      dup2\n      mstore\n      0x20\n      add\n      dup1\n      data_f2c40de7ed9adcb4e59ec81d78154f2e89db89ddb3544fc3359ec385080f4437\n      0x28\n      swap2\n      codecopy\n      0x40\n      add\n      swap2\n      pop\n      pop\n      mload(0x40)\n      dup1\n      swap2\n      sub\n      swap1\n      revert\n    tag_459:\n        /* \"UniV2/v2-periphery/libraries/TaralSwapLibrary.sol\":2039:2047  reserveA */\n      dup3\n        /* \"UniV2/v2-periphery/libraries/TaralSwapLibrary.sol\":2015:2036  amountA.mul(reserveB) */\n      tag_460\n        /* \"UniV2/v2-periphery/libraries/TaralSwapLibrary.sol\":2015:2022  amountA */\n      dup6\n        /* \"UniV2/v2-periphery/libraries/TaralSwapLibrary.sol\":2027:2035  reserveB */\n      dup5\n        /* \"UniV2/v2-periphery/libraries/TaralSwapLibrary.sol\":2015:2036  amountA.mul(reserveB) */\n      0xffffffff\n        /* \"UniV2/v2-periphery/libraries/TaralSwapLibrary.sol\":2015:2026  amountA.mul */\n      tag_383\n        /* \"UniV2/v2-periphery/libraries/TaralSwapLibrary.sol\":2015:2036  amountA.mul(reserveB) */\n      and\n      jump\t// in\n    tag_460:\n        /* \"UniV2/v2-periphery/libraries/TaralSwapLibrary.sol\":2015:2047  amountA.mul(reserveB) / reserveA */\n      dup2\n      tag_461\n      jumpi\n      invalid\n    tag_461:\n      div\n      swap5\n        /* \"UniV2/v2-periphery/libraries/TaralSwapLibrary.sol\":1737:2054  function quote(uint amountA, uint reserveA, uint reserveB) internal pure returns (uint amountB) {... */\n      swap4\n      pop\n      pop\n      pop\n      pop\n      jump\t// out\n        /* \"UniV2/v2-periphery/libraries/TaralSwapLibrary.sol\":281:626  function sortTokens(address tokenA, address tokenB) internal pure returns (address token0, address token1) {... */\n    tag_284:\n        /* \"UniV2/v2-periphery/libraries/TaralSwapLibrary.sol\":356:370  address token0 */\n      0x00\n        /* \"UniV2/v2-periphery/libraries/TaralSwapLibrary.sol\":372:386  address token1 */\n      dup1\n        /* \"UniV2/v2-periphery/libraries/TaralSwapLibrary.sol\":416:422  tokenB */\n      dup3\n      sub(shl(0xa0, 0x01), 0x01)\n        /* \"UniV2/v2-periphery/libraries/TaralSwapLibrary.sol\":406:422  tokenA != tokenB */\n      and\n        /* \"UniV2/v2-periphery/libraries/TaralSwapLibrary.sol\":406:412  tokenA */\n      dup5\n      sub(shl(0xa0, 0x01), 0x01)\n        /* \"UniV2/v2-periphery/libraries/TaralSwapLibrary.sol\":406:422  tokenA != tokenB */\n      and\n      eq\n      iszero\n        /* \"UniV2/v2-periphery/libraries/TaralSwapLibrary.sol\":398:464  require(tokenA != tokenB, 'TaralSwapLibrary: IDENTICAL_ADDRESSES') */\n      tag_463\n      jumpi\n      mload(0x40)\n      shl(0xe5, 0x461bcd)\n      dup2\n      mstore\n      0x04\n      add\n      dup1\n      dup1\n      0x20\n      add\n      dup3\n      dup2\n      sub\n      dup3\n      mstore\n      0x25\n      dup2\n      mstore\n      0x20\n      add\n      dup1\n      data_3d7ba32bd0fe4a3356e9d1d70c5c84868abb46ba7f379f47c3ef0b4fe8dd4895\n      0x25\n      swap2\n      codecopy\n      0x40\n      add\n      swap2\n      pop\n      pop\n      mload(0x40)\n      dup1\n      swap2\n      sub\n      swap1\n      revert\n    tag_463:\n        /* \"UniV2/v2-periphery/libraries/TaralSwapLibrary.sol\":502:508  tokenB */\n      dup3\n      sub(shl(0xa0, 0x01), 0x01)\n        /* \"UniV2/v2-periphery/libraries/TaralSwapLibrary.sol\":493:508  tokenA < tokenB */\n      and\n        /* \"UniV2/v2-periphery/libraries/TaralSwapLibrary.sol\":493:499  tokenA */\n      dup5\n      sub(shl(0xa0, 0x01), 0x01)\n        /* \"UniV2/v2-periphery/libraries/TaralSwapLibrary.sol\":493:508  tokenA < tokenB */\n      and\n      lt\n        /* \"UniV2/v2-periphery/libraries/TaralSwapLibrary.sol\":493:546  tokenA < tokenB ? (tokenA, tokenB) : (tokenB, tokenA) */\n      tag_464\n      jumpi\n        /* \"UniV2/v2-periphery/libraries/TaralSwapLibrary.sol\":531:537  tokenB */\n      dup3\n        /* \"UniV2/v2-periphery/libraries/TaralSwapLibrary.sol\":539:545  tokenA */\n      dup5\n        /* \"UniV2/v2-periphery/libraries/TaralSwapLibrary.sol\":493:546  tokenA < tokenB ? (tokenA, tokenB) : (tokenB, tokenA) */\n      jump(tag_465)\n    tag_464:\n        /* \"UniV2/v2-periphery/libraries/TaralSwapLibrary.sol\":512:518  tokenA */\n      dup4\n        /* \"UniV2/v2-periphery/libraries/TaralSwapLibrary.sol\":520:526  tokenB */\n      dup4\n        /* \"UniV2/v2-periphery/libraries/TaralSwapLibrary.sol\":493:546  tokenA < tokenB ? (tokenA, tokenB) : (tokenB, tokenA) */\n    tag_465:\n        /* \"UniV2/v2-periphery/libraries/TaralSwapLibrary.sol\":474:546  (token0, token1) = tokenA < tokenB ? (tokenA, tokenB) : (tokenB, tokenA) */\n      swap1\n      swap3\n      pop\n      swap1\n      pop\n      sub(shl(0xa0, 0x01), 0x01)\n        /* \"UniV2/v2-periphery/libraries/TaralSwapLibrary.sol\":564:584  token0 != address(0) */\n      dup3\n      and\n        /* \"UniV2/v2-periphery/libraries/TaralSwapLibrary.sol\":556:619  require(token0 != address(0), 'TaralSwapLibrary: ZERO_ADDRESS') */\n      tag_466\n      jumpi\n      0x40\n      dup1\n      mload\n      shl(0xe5, 0x461bcd)\n      dup2\n      mstore\n      0x20\n      0x04\n      dup3\n      add\n      mstore\n      0x1e\n      0x24\n      dup3\n      add\n      mstore\n      0x546172616c537761704c6962726172793a205a45524f5f414444524553530000\n      0x44\n      dup3\n      add\n      mstore\n      swap1\n      mload\n      swap1\n      dup2\n      swap1\n      sub\n      0x64\n      add\n      swap1\n      revert\n    tag_466:\n        /* \"UniV2/v2-periphery/libraries/TaralSwapLibrary.sol\":281:626  function sortTokens(address tokenA, address tokenB) internal pure returns (address token0, address token1) {... */\n      swap3\n      pop\n      swap3\n      swap1\n      pop\n      jump\t// out\n        /* \"UniV2/v2-periphery/TaralSwapRouter01.sol\":882:2236  function _addLiquidity(... */\n    tag_303:\n        /* \"UniV2/v2-periphery/TaralSwapRouter01.sol\":1177:1227  IUniswapV2Factory(factory).getPair(tokenA, tokenB) */\n      0x40\n      dup1\n      mload\n      shl(0xe0, 0xe6a43905)\n      dup2\n      mstore\n      sub(shl(0xa0, 0x01), 0x01)\n      dup9\n      dup2\n      and\n      0x04\n      dup4\n      add\n      mstore\n      dup8\n      dup2\n      and\n      0x24\n      dup4\n      add\n      mstore\n      swap2\n      mload\n        /* \"UniV2/v2-periphery/TaralSwapRouter01.sol\":1084:1096  uint amountA */\n      0x00\n      swap3\n      dup4\n      swap3\n      dup4\n      swap3\n        /* \"UniV2/v2-periphery/TaralSwapRouter01.sol\":1195:1202  factory */\n      immutable(\"0x198ed63d80d143525b60af21f7dc77e6c7796a43366dbb557d0a8832a905997b\")\n        /* \"UniV2/v2-periphery/TaralSwapRouter01.sol\":1177:1211  IUniswapV2Factory(factory).getPair */\n      swap1\n      swap3\n      and\n      swap2\n      0xe6a43905\n      swap2\n        /* \"UniV2/v2-periphery/TaralSwapRouter01.sol\":1177:1227  IUniswapV2Factory(factory).getPair(tokenA, tokenB) */\n      0x44\n      dup1\n      dup3\n      add\n      swap3\n      0x20\n      swap3\n      swap1\n      swap2\n      swap1\n      dup3\n      swap1\n      sub\n      add\n      dup2\n        /* \"UniV2/v2-periphery/TaralSwapRouter01.sol\":1177:1211  IUniswapV2Factory(factory).getPair */\n      dup7\n        /* \"UniV2/v2-periphery/TaralSwapRouter01.sol\":1177:1227  IUniswapV2Factory(factory).getPair(tokenA, tokenB) */\n      dup1\n      extcodesize\n      iszero\n        /* \"--CODEGEN--\":2:4   */\n      dup1\n      iszero\n      tag_468\n      jumpi\n        /* \"--CODEGEN--\":27:28   */\n      0x00\n        /* \"--CODEGEN--\":24:25   */\n      dup1\n        /* \"--CODEGEN--\":17:29   */\n      revert\n        /* \"--CODEGEN--\":2:4   */\n    tag_468:\n        /* \"UniV2/v2-periphery/TaralSwapRouter01.sol\":1177:1227  IUniswapV2Factory(factory).getPair(tokenA, tokenB) */\n      pop\n      gas\n      staticcall\n      iszero\n        /* \"--CODEGEN--\":8:17   */\n      dup1\n        /* \"--CODEGEN--\":5:7   */\n      iszero\n      tag_470\n      jumpi\n        /* \"--CODEGEN--\":45:61   */\n      returndatasize\n        /* \"--CODEGEN--\":42:43   */\n      0x00\n        /* \"--CODEGEN--\":39:40   */\n      dup1\n        /* \"--CODEGEN--\":24:62   */\n      returndatacopy\n        /* \"--CODEGEN--\":77:93   */\n      returndatasize\n        /* \"--CODEGEN--\":74:75   */\n      0x00\n        /* \"--CODEGEN--\":67:94   */\n      revert\n        /* \"--CODEGEN--\":5:7   */\n    tag_470:\n        /* \"UniV2/v2-periphery/TaralSwapRouter01.sol\":1177:1227  IUniswapV2Factory(factory).getPair(tokenA, tokenB) */\n      pop\n      pop\n      pop\n      pop\n      mload(0x40)\n      returndatasize\n        /* \"--CODEGEN--\":15:17   */\n      0x20\n        /* \"--CODEGEN--\":10:13   */\n      dup2\n        /* \"--CODEGEN--\":7:18   */\n      lt\n        /* \"--CODEGEN--\":4:6   */\n      iszero\n      tag_471\n      jumpi\n        /* \"--CODEGEN--\":31:32   */\n      0x00\n        /* \"--CODEGEN--\":28:29   */\n      dup1\n        /* \"--CODEGEN--\":21:33   */\n      revert\n        /* \"--CODEGEN--\":4:6   */\n    tag_471:\n      pop\n        /* \"UniV2/v2-periphery/TaralSwapRouter01.sol\":1177:1227  IUniswapV2Factory(factory).getPair(tokenA, tokenB) */\n      mload\n      sub(shl(0xa0, 0x01), 0x01)\n        /* \"UniV2/v2-periphery/TaralSwapRouter01.sol\":1177:1241  IUniswapV2Factory(factory).getPair(tokenA, tokenB) == address(0) */\n      and\n      eq\n        /* \"UniV2/v2-periphery/TaralSwapRouter01.sol\":1173:1321  if (IUniswapV2Factory(factory).getPair(tokenA, tokenB) == address(0)) {... */\n      iszero\n      tag_472\n      jumpi\n        /* \"UniV2/v2-periphery/TaralSwapRouter01.sol\":1257:1310  IUniswapV2Factory(factory).createPair(tokenA, tokenB) */\n      0x40\n      dup1\n      mload\n      shl(0xe1, 0x64e329cb)\n      dup2\n      mstore\n      sub(shl(0xa0, 0x01), 0x01)\n      dup11\n      dup2\n      and\n      0x04\n      dup4\n      add\n      mstore\n      dup10\n      dup2\n      and\n      0x24\n      dup4\n      add\n      mstore\n      swap2\n      mload\n        /* \"UniV2/v2-periphery/TaralSwapRouter01.sol\":1275:1282  factory */\n      immutable(\"0x198ed63d80d143525b60af21f7dc77e6c7796a43366dbb557d0a8832a905997b\")\n        /* \"UniV2/v2-periphery/TaralSwapRouter01.sol\":1257:1294  IUniswapV2Factory(factory).createPair */\n      swap1\n      swap3\n      and\n      swap2\n      0xc9c65396\n      swap2\n        /* \"UniV2/v2-periphery/TaralSwapRouter01.sol\":1257:1310  IUniswapV2Factory(factory).createPair(tokenA, tokenB) */\n      0x44\n      dup1\n      dup3\n      add\n      swap3\n      0x20\n      swap3\n      swap1\n      swap2\n      swap1\n      dup3\n      swap1\n      sub\n      add\n      dup2\n      0x00\n        /* \"UniV2/v2-periphery/TaralSwapRouter01.sol\":1257:1294  IUniswapV2Factory(factory).createPair */\n      dup8\n        /* \"UniV2/v2-periphery/TaralSwapRouter01.sol\":1257:1310  IUniswapV2Factory(factory).createPair(tokenA, tokenB) */\n      dup1\n      extcodesize\n      iszero\n        /* \"--CODEGEN--\":2:4   */\n      dup1\n      iszero\n      tag_473\n      jumpi\n        /* \"--CODEGEN--\":27:28   */\n      0x00\n        /* \"--CODEGEN--\":24:25   */\n      dup1\n        /* \"--CODEGEN--\":17:29   */\n      revert\n        /* \"--CODEGEN--\":2:4   */\n    tag_473:\n        /* \"UniV2/v2-periphery/TaralSwapRouter01.sol\":1257:1310  IUniswapV2Factory(factory).createPair(tokenA, tokenB) */\n      pop\n      gas\n      call\n      iszero\n        /* \"--CODEGEN--\":8:17   */\n      dup1\n        /* \"--CODEGEN--\":5:7   */\n      iszero\n      tag_475\n      jumpi\n        /* \"--CODEGEN--\":45:61   */\n      returndatasize\n        /* \"--CODEGEN--\":42:43   */\n      0x00\n        /* \"--CODEGEN--\":39:40   */\n      dup1\n        /* \"--CODEGEN--\":24:62   */\n      returndatacopy\n        /* \"--CODEGEN--\":77:93   */\n      returndatasize\n        /* \"--CODEGEN--\":74:75   */\n      0x00\n        /* \"--CODEGEN--\":67:94   */\n      revert\n        /* \"--CODEGEN--\":5:7   */\n    tag_475:\n        /* \"UniV2/v2-periphery/TaralSwapRouter01.sol\":1257:1310  IUniswapV2Factory(factory).createPair(tokenA, tokenB) */\n      pop\n      pop\n      pop\n      pop\n      mload(0x40)\n      returndatasize\n        /* \"--CODEGEN--\":15:17   */\n      0x20\n        /* \"--CODEGEN--\":10:13   */\n      dup2\n        /* \"--CODEGEN--\":7:18   */\n      lt\n        /* \"--CODEGEN--\":4:6   */\n      iszero\n      tag_476\n      jumpi\n        /* \"--CODEGEN--\":31:32   */\n      0x00\n        /* \"--CODEGEN--\":28:29   */\n      dup1\n        /* \"--CODEGEN--\":21:33   */\n      revert\n        /* \"--CODEGEN--\":4:6   */\n    tag_476:\n      pop\n      pop\n        /* \"UniV2/v2-periphery/TaralSwapRouter01.sol\":1173:1321  if (IUniswapV2Factory(factory).getPair(tokenA, tokenB) == address(0)) {... */\n    tag_472:\n        /* \"UniV2/v2-periphery/TaralSwapRouter01.sol\":1331:1344  uint reserveA */\n      0x00\n        /* \"UniV2/v2-periphery/TaralSwapRouter01.sol\":1346:1359  uint reserveB */\n      dup1\n        /* \"UniV2/v2-periphery/TaralSwapRouter01.sol\":1363:1416  TaralSwapLibrary.getReserves(factory, tokenA, tokenB) */\n      tag_477\n        /* \"UniV2/v2-periphery/TaralSwapRouter01.sol\":1392:1399  factory */\n      immutable(\"0x198ed63d80d143525b60af21f7dc77e6c7796a43366dbb557d0a8832a905997b\")\n        /* \"UniV2/v2-periphery/TaralSwapRouter01.sol\":1401:1407  tokenA */\n      dup12\n        /* \"UniV2/v2-periphery/TaralSwapRouter01.sol\":1409:1415  tokenB */\n      dup12\n        /* \"UniV2/v2-periphery/TaralSwapRouter01.sol\":1363:1391  TaralSwapLibrary.getReserves */\n      tag_400\n        /* \"UniV2/v2-periphery/TaralSwapRouter01.sol\":1363:1416  TaralSwapLibrary.getReserves(factory, tokenA, tokenB) */\n      jump\t// in\n    tag_477:\n        /* \"UniV2/v2-periphery/TaralSwapRouter01.sol\":1330:1416  (uint reserveA, uint reserveB) = TaralSwapLibrary.getReserves(factory, tokenA, tokenB) */\n      swap2\n      pop\n      swap2\n      pop\n        /* \"UniV2/v2-periphery/TaralSwapRouter01.sol\":1430:1438  reserveA */\n      dup2\n        /* \"UniV2/v2-periphery/TaralSwapRouter01.sol\":1442:1443  0 */\n      0x00\n        /* \"UniV2/v2-periphery/TaralSwapRouter01.sol\":1430:1443  reserveA == 0 */\n      eq\n        /* \"UniV2/v2-periphery/TaralSwapRouter01.sol\":1430:1460  reserveA == 0 && reserveB == 0 */\n      dup1\n      iszero\n      tag_478\n      jumpi\n      pop\n        /* \"UniV2/v2-periphery/TaralSwapRouter01.sol\":1447:1460  reserveB == 0 */\n      dup1\n      iszero\n        /* \"UniV2/v2-periphery/TaralSwapRouter01.sol\":1430:1460  reserveA == 0 && reserveB == 0 */\n    tag_478:\n        /* \"UniV2/v2-periphery/TaralSwapRouter01.sol\":1426:2230  if (reserveA == 0 && reserveB == 0) {... */\n      iszero\n      tag_479\n      jumpi\n        /* \"UniV2/v2-periphery/TaralSwapRouter01.sol\":1498:1512  amountADesired */\n      dup8\n      swap4\n      pop\n        /* \"UniV2/v2-periphery/TaralSwapRouter01.sol\":1514:1528  amountBDesired */\n      dup7\n      swap3\n      pop\n        /* \"UniV2/v2-periphery/TaralSwapRouter01.sol\":1426:2230  if (reserveA == 0 && reserveB == 0) {... */\n      jump(tag_480)\n    tag_479:\n        /* \"UniV2/v2-periphery/TaralSwapRouter01.sol\":1560:1579  uint amountBOptimal */\n      0x00\n        /* \"UniV2/v2-periphery/TaralSwapRouter01.sol\":1582:1640  TaralSwapLibrary.quote(amountADesired, reserveA, reserveB) */\n      tag_481\n        /* \"UniV2/v2-periphery/TaralSwapRouter01.sol\":1605:1619  amountADesired */\n      dup10\n        /* \"UniV2/v2-periphery/TaralSwapRouter01.sol\":1621:1629  reserveA */\n      dup5\n        /* \"UniV2/v2-periphery/TaralSwapRouter01.sol\":1631:1639  reserveB */\n      dup5\n        /* \"UniV2/v2-periphery/TaralSwapRouter01.sol\":1582:1604  TaralSwapLibrary.quote */\n      tag_270\n        /* \"UniV2/v2-periphery/TaralSwapRouter01.sol\":1582:1640  TaralSwapLibrary.quote(amountADesired, reserveA, reserveB) */\n      jump\t// in\n    tag_481:\n        /* \"UniV2/v2-periphery/TaralSwapRouter01.sol\":1560:1640  uint amountBOptimal = TaralSwapLibrary.quote(amountADesired, reserveA, reserveB) */\n      swap1\n      pop\n        /* \"UniV2/v2-periphery/TaralSwapRouter01.sol\":1676:1690  amountBDesired */\n      dup8\n        /* \"UniV2/v2-periphery/TaralSwapRouter01.sol\":1658:1672  amountBOptimal */\n      dup2\n        /* \"UniV2/v2-periphery/TaralSwapRouter01.sol\":1658:1690  amountBOptimal <= amountBDesired */\n      gt\n        /* \"UniV2/v2-periphery/TaralSwapRouter01.sol\":1654:2220  if (amountBOptimal <= amountBDesired) {... */\n      tag_482\n      jumpi\n        /* \"UniV2/v2-periphery/TaralSwapRouter01.sol\":1736:1746  amountBMin */\n      dup6\n        /* \"UniV2/v2-periphery/TaralSwapRouter01.sol\":1718:1732  amountBOptimal */\n      dup2\n        /* \"UniV2/v2-periphery/TaralSwapRouter01.sol\":1718:1746  amountBOptimal >= amountBMin */\n      lt\n      iszero\n        /* \"UniV2/v2-periphery/TaralSwapRouter01.sol\":1710:1789  require(amountBOptimal >= amountBMin, 'TaralSwapRouter: INSUFFICIENT_B_AMOUNT') */\n      tag_483\n      jumpi\n      mload(0x40)\n      shl(0xe5, 0x461bcd)\n      dup2\n      mstore\n      0x04\n      add\n      dup1\n      dup1\n      0x20\n      add\n      dup3\n      dup2\n      sub\n      dup3\n      mstore\n      0x26\n      dup2\n      mstore\n      0x20\n      add\n      dup1\n      data_0e1d14f48cda7770d476ed436525ce4406c0c92279fb714d3a7c141f8bf87828\n      0x26\n      swap2\n      codecopy\n      0x40\n      add\n      swap2\n      pop\n      pop\n      mload(0x40)\n      dup1\n      swap2\n      sub\n      swap1\n      revert\n    tag_483:\n        /* \"UniV2/v2-periphery/TaralSwapRouter01.sol\":1829:1843  amountADesired */\n      dup9\n      swap5\n      pop\n        /* \"UniV2/v2-periphery/TaralSwapRouter01.sol\":1845:1859  amountBOptimal */\n      swap3\n      pop\n      dup3\n        /* \"UniV2/v2-periphery/TaralSwapRouter01.sol\":1654:2220  if (amountBOptimal <= amountBDesired) {... */\n      jump(tag_484)\n    tag_482:\n        /* \"UniV2/v2-periphery/TaralSwapRouter01.sol\":1899:1918  uint amountAOptimal */\n      0x00\n        /* \"UniV2/v2-periphery/TaralSwapRouter01.sol\":1921:1979  TaralSwapLibrary.quote(amountBDesired, reserveB, reserveA) */\n      tag_485\n        /* \"UniV2/v2-periphery/TaralSwapRouter01.sol\":1944:1958  amountBDesired */\n      dup10\n        /* \"UniV2/v2-periphery/TaralSwapRouter01.sol\":1960:1968  reserveB */\n      dup5\n        /* \"UniV2/v2-periphery/TaralSwapRouter01.sol\":1970:1978  reserveA */\n      dup7\n        /* \"UniV2/v2-periphery/TaralSwapRouter01.sol\":1921:1943  TaralSwapLibrary.quote */\n      tag_270\n        /* \"UniV2/v2-periphery/TaralSwapRouter01.sol\":1921:1979  TaralSwapLibrary.quote(amountBDesired, reserveB, reserveA) */\n      jump\t// in\n    tag_485:\n        /* \"UniV2/v2-periphery/TaralSwapRouter01.sol\":1899:1979  uint amountAOptimal = TaralSwapLibrary.quote(amountBDesired, reserveB, reserveA) */\n      swap1\n      pop\n        /* \"UniV2/v2-periphery/TaralSwapRouter01.sol\":2022:2036  amountADesired */\n      dup10\n        /* \"UniV2/v2-periphery/TaralSwapRouter01.sol\":2004:2018  amountAOptimal */\n      dup2\n        /* \"UniV2/v2-periphery/TaralSwapRouter01.sol\":2004:2036  amountAOptimal <= amountADesired */\n      gt\n      iszero\n        /* \"UniV2/v2-periphery/TaralSwapRouter01.sol\":1997:2037  assert(amountAOptimal <= amountADesired) */\n      tag_486\n      jumpi\n      invalid\n    tag_486:\n        /* \"UniV2/v2-periphery/TaralSwapRouter01.sol\":2081:2091  amountAMin */\n      dup8\n        /* \"UniV2/v2-periphery/TaralSwapRouter01.sol\":2063:2077  amountAOptimal */\n      dup2\n        /* \"UniV2/v2-periphery/TaralSwapRouter01.sol\":2063:2091  amountAOptimal >= amountAMin */\n      lt\n      iszero\n        /* \"UniV2/v2-periphery/TaralSwapRouter01.sol\":2055:2134  require(amountAOptimal >= amountAMin, 'TaralSwapRouter: INSUFFICIENT_A_AMOUNT') */\n      tag_487\n      jumpi\n      mload(0x40)\n      shl(0xe5, 0x461bcd)\n      dup2\n      mstore\n      0x04\n      add\n      dup1\n      dup1\n      0x20\n      add\n      dup3\n      dup2\n      sub\n      dup3\n      mstore\n      0x26\n      dup2\n      mstore\n      0x20\n      add\n      dup1\n      data_c2e714e99c3be8ba08e251ad3009c4c6fc6c7692f0f9fe0f4bd523f2493f42e8\n      0x26\n      swap2\n      codecopy\n      0x40\n      add\n      swap2\n      pop\n      pop\n      mload(0x40)\n      dup1\n      swap2\n      sub\n      swap1\n      revert\n    tag_487:\n        /* \"UniV2/v2-periphery/TaralSwapRouter01.sol\":2174:2188  amountAOptimal */\n      swap5\n      pop\n        /* \"UniV2/v2-periphery/TaralSwapRouter01.sol\":2190:2204  amountBDesired */\n      dup8\n      swap4\n      pop\n        /* \"UniV2/v2-periphery/TaralSwapRouter01.sol\":1654:2220  if (amountBOptimal <= amountBDesired) {... */\n    tag_484:\n        /* \"UniV2/v2-periphery/TaralSwapRouter01.sol\":1426:2230  if (reserveA == 0 && reserveB == 0) {... */\n      pop\n    tag_480:\n        /* \"UniV2/v2-periphery/TaralSwapRouter01.sol\":882:2236  function _addLiquidity(... */\n      pop\n      pop\n      swap7\n      pop\n      swap7\n      swap5\n      pop\n      pop\n      pop\n      pop\n      pop\n      jump\t// out\n        /* \"UniV2/v2-periphery/libraries/SafeMath.sol\":313:453  function mul(uint x, uint y) internal pure returns (uint z) {... */\n    tag_383:\n        /* \"UniV2/v2-periphery/libraries/SafeMath.sol\":365:371  uint z */\n      0x00\n        /* \"UniV2/v2-periphery/libraries/SafeMath.sol\":391:397  y == 0 */\n      dup2\n      iszero\n      dup1\n        /* \"UniV2/v2-periphery/libraries/SafeMath.sol\":391:421  y == 0 || (z = x * y) / y == x */\n      tag_489\n      jumpi\n      pop\n      pop\n        /* \"UniV2/v2-periphery/libraries/SafeMath.sol\":406:411  x * y */\n      dup1\n      dup3\n      mul\n        /* \"UniV2/v2-periphery/libraries/SafeMath.sol\":420:421  x */\n      dup3\n        /* \"UniV2/v2-periphery/libraries/SafeMath.sol\":415:416  y */\n      dup3\n        /* \"UniV2/v2-periphery/libraries/SafeMath.sol\":406:411  x * y */\n      dup3\n        /* \"UniV2/v2-periphery/libraries/SafeMath.sol\":415:416  y */\n      dup2\n        /* \"UniV2/v2-periphery/libraries/SafeMath.sol\":401:416  (z = x * y) / y */\n      tag_490\n      jumpi\n      invalid\n    tag_490:\n      div\n        /* \"UniV2/v2-periphery/libraries/SafeMath.sol\":401:421  (z = x * y) / y == x */\n      eq\n        /* \"UniV2/v2-periphery/libraries/SafeMath.sol\":391:421  y == 0 || (z = x * y) / y == x */\n    tag_489:\n        /* \"UniV2/v2-periphery/libraries/SafeMath.sol\":383:446  require(y == 0 || (z = x * y) / y == x, 'ds-math-mul-overflow') */\n      tag_186\n      jumpi\n      0x40\n      dup1\n      mload\n      shl(0xe5, 0x461bcd)\n      dup2\n      mstore\n      0x20\n      0x04\n      dup3\n      add\n      mstore\n      0x14\n      0x24\n      dup3\n      add\n      mstore\n      shl(0x60, 0x64732d6d6174682d6d756c2d6f766572666c6f77)\n      0x44\n      dup3\n      add\n      mstore\n      swap1\n      mload\n      swap1\n      dup2\n      swap1\n      sub\n      0x64\n      add\n      swap1\n      revert\n        /* \"UniV2/v2-periphery/libraries/SafeMath.sol\":48:174  function add(uint x, uint y) internal pure returns (uint z) {... */\n    tag_387:\n        /* \"UniV2/v2-periphery/libraries/SafeMath.sol\":131:136  x + y */\n      dup1\n      dup3\n      add\n        /* \"UniV2/v2-periphery/libraries/SafeMath.sol\":126:142  (z = x + y) >= x */\n      dup3\n      dup2\n      lt\n      iszero\n        /* \"UniV2/v2-periphery/libraries/SafeMath.sol\":118:167  require((z = x + y) >= x, 'ds-math-add-overflow') */\n      tag_186\n      jumpi\n      0x40\n      dup1\n      mload\n      shl(0xe5, 0x461bcd)\n      dup2\n      mstore\n      0x20\n      0x04\n      dup3\n      add\n      mstore\n      0x14\n      0x24\n      dup3\n      add\n      mstore\n      shl(0x60, 0x64732d6d6174682d6164642d6f766572666c6f77)\n      0x44\n      dup3\n      add\n      mstore\n      swap1\n      mload\n      swap1\n      dup2\n      swap1\n      sub\n      0x64\n      add\n      swap1\n      revert\n        /* \"UniV2/v2-periphery/libraries/TaralSwapLibrary.sol\":1240:1627  function getReserves(address factory, address tokenA, address tokenB) internal view returns (uint reserveA, uint reserveB) {... */\n    tag_400:\n        /* \"UniV2/v2-periphery/libraries/TaralSwapLibrary.sol\":1333:1346  uint reserveA */\n      0x00\n        /* \"UniV2/v2-periphery/libraries/TaralSwapLibrary.sol\":1348:1361  uint reserveB */\n      dup1\n        /* \"UniV2/v2-periphery/libraries/TaralSwapLibrary.sol\":1374:1388  address token0 */\n      0x00\n        /* \"UniV2/v2-periphery/libraries/TaralSwapLibrary.sol\":1393:1419  sortTokens(tokenA, tokenB) */\n      tag_495\n        /* \"UniV2/v2-periphery/libraries/TaralSwapLibrary.sol\":1404:1410  tokenA */\n      dup6\n        /* \"UniV2/v2-periphery/libraries/TaralSwapLibrary.sol\":1412:1418  tokenB */\n      dup6\n        /* \"UniV2/v2-periphery/libraries/TaralSwapLibrary.sol\":1393:1403  sortTokens */\n      tag_284\n        /* \"UniV2/v2-periphery/libraries/TaralSwapLibrary.sol\":1393:1419  sortTokens(tokenA, tokenB) */\n      jump\t// in\n    tag_495:\n        /* \"UniV2/v2-periphery/libraries/TaralSwapLibrary.sol\":1373:1419  (address token0,) = sortTokens(tokenA, tokenB) */\n      pop\n      swap1\n      pop\n        /* \"UniV2/v2-periphery/libraries/TaralSwapLibrary.sol\":1430:1443  uint reserve0 */\n      0x00\n        /* \"UniV2/v2-periphery/libraries/TaralSwapLibrary.sol\":1445:1458  uint reserve1 */\n      dup1\n        /* \"UniV2/v2-periphery/libraries/TaralSwapLibrary.sol\":1478:1510  pairFor(factory, tokenA, tokenB) */\n      tag_496\n        /* \"UniV2/v2-periphery/libraries/TaralSwapLibrary.sol\":1486:1493  factory */\n      dup9\n        /* \"UniV2/v2-periphery/libraries/TaralSwapLibrary.sol\":1495:1501  tokenA */\n      dup9\n        /* \"UniV2/v2-periphery/libraries/TaralSwapLibrary.sol\":1503:1509  tokenB */\n      dup9\n        /* \"UniV2/v2-periphery/libraries/TaralSwapLibrary.sol\":1478:1485  pairFor */\n      tag_175\n        /* \"UniV2/v2-periphery/libraries/TaralSwapLibrary.sol\":1478:1510  pairFor(factory, tokenA, tokenB) */\n      jump\t// in\n    tag_496:\n      sub(shl(0xa0, 0x01), 0x01)\n        /* \"UniV2/v2-periphery/libraries/TaralSwapLibrary.sol\":1463:1523  IUniswapV2Pair(pairFor(factory, tokenA, tokenB)).getReserves */\n      and\n      0x0902f1ac\n        /* \"UniV2/v2-periphery/libraries/TaralSwapLibrary.sol\":1463:1525  IUniswapV2Pair(pairFor(factory, tokenA, tokenB)).getReserves() */\n      mload(0x40)\n      dup2\n      0xffffffff\n      and\n      0xe0\n      shl\n      dup2\n      mstore\n      0x04\n      add\n      0x60\n      mload(0x40)\n      dup1\n      dup4\n      sub\n      dup2\n      dup7\n      dup1\n      extcodesize\n      iszero\n        /* \"--CODEGEN--\":5:14   */\n      dup1\n        /* \"--CODEGEN--\":2:4   */\n      iszero\n      tag_497\n      jumpi\n        /* \"--CODEGEN--\":27:28   */\n      0x00\n        /* \"--CODEGEN--\":24:25   */\n      dup1\n        /* \"--CODEGEN--\":17:29   */\n      revert\n        /* \"--CODEGEN--\":2:4   */\n    tag_497:\n        /* \"UniV2/v2-periphery/libraries/TaralSwapLibrary.sol\":1463:1525  IUniswapV2Pair(pairFor(factory, tokenA, tokenB)).getReserves() */\n      pop\n      gas\n      staticcall\n      iszero\n        /* \"--CODEGEN--\":8:17   */\n      dup1\n        /* \"--CODEGEN--\":5:7   */\n      iszero\n      tag_499\n      jumpi\n        /* \"--CODEGEN--\":45:61   */\n      returndatasize\n        /* \"--CODEGEN--\":42:43   */\n      0x00\n        /* \"--CODEGEN--\":39:40   */\n      dup1\n        /* \"--CODEGEN--\":24:62   */\n      returndatacopy\n        /* \"--CODEGEN--\":77:93   */\n      returndatasize\n        /* \"--CODEGEN--\":74:75   */\n      0x00\n        /* \"--CODEGEN--\":67:94   */\n      revert\n        /* \"--CODEGEN--\":5:7   */\n    tag_499:\n        /* \"UniV2/v2-periphery/libraries/TaralSwapLibrary.sol\":1463:1525  IUniswapV2Pair(pairFor(factory, tokenA, tokenB)).getReserves() */\n      pop\n      pop\n      pop\n      pop\n      mload(0x40)\n      returndatasize\n        /* \"--CODEGEN--\":15:17   */\n      0x60\n        /* \"--CODEGEN--\":10:13   */\n      dup2\n        /* \"--CODEGEN--\":7:18   */\n      lt\n        /* \"--CODEGEN--\":4:6   */\n      iszero\n      tag_500\n      jumpi\n        /* \"--CODEGEN--\":31:32   */\n      0x00\n        /* \"--CODEGEN--\":28:29   */\n      dup1\n        /* \"--CODEGEN--\":21:33   */\n      revert\n        /* \"--CODEGEN--\":4:6   */\n    tag_500:\n      pop\n        /* \"UniV2/v2-periphery/libraries/TaralSwapLibrary.sol\":1463:1525  IUniswapV2Pair(pairFor(factory, tokenA, tokenB)).getReserves() */\n      dup1\n      mload\n      0x20\n      swap1\n      swap2\n      add\n      mload\n        /* \"UniV2/v2-periphery/libraries/TaralSwapLibrary.sol\":1429:1525  (uint reserve0, uint reserve1,) = IUniswapV2Pair(pairFor(factory, tokenA, tokenB)).getReserves() */\n      0xffffffffffffffffffffffffffff\n      swap2\n      dup3\n      and\n      swap4\n      pop\n      and\n      swap1\n      pop\n      sub(shl(0xa0, 0x01), 0x01)\n        /* \"UniV2/v2-periphery/libraries/TaralSwapLibrary.sol\":1558:1574  tokenA == token0 */\n      dup8\n      dup2\n      and\n      swap1\n      dup5\n      and\n      eq\n        /* \"UniV2/v2-periphery/libraries/TaralSwapLibrary.sol\":1558:1620  tokenA == token0 ? (reserve0, reserve1) : (reserve1, reserve0) */\n      tag_501\n      jumpi\n        /* \"UniV2/v2-periphery/libraries/TaralSwapLibrary.sol\":1601:1609  reserve1 */\n      dup1\n        /* \"UniV2/v2-periphery/libraries/TaralSwapLibrary.sol\":1611:1619  reserve0 */\n      dup3\n        /* \"UniV2/v2-periphery/libraries/TaralSwapLibrary.sol\":1558:1620  tokenA == token0 ? (reserve0, reserve1) : (reserve1, reserve0) */\n      jump(tag_502)\n    tag_501:\n        /* \"UniV2/v2-periphery/libraries/TaralSwapLibrary.sol\":1578:1586  reserve0 */\n      dup2\n        /* \"UniV2/v2-periphery/libraries/TaralSwapLibrary.sol\":1588:1596  reserve1 */\n      dup2\n        /* \"UniV2/v2-periphery/libraries/TaralSwapLibrary.sol\":1558:1620  tokenA == token0 ? (reserve0, reserve1) : (reserve1, reserve0) */\n    tag_502:\n        /* \"UniV2/v2-periphery/libraries/TaralSwapLibrary.sol\":1535:1620  (reserveA, reserveB) = tokenA == token0 ? (reserve0, reserve1) : (reserve1, reserve0) */\n      swap1\n      swap10\n      swap1\n      swap9\n      pop\n        /* \"UniV2/v2-periphery/libraries/TaralSwapLibrary.sol\":1240:1627  function getReserves(address factory, address tokenA, address tokenB) internal view returns (uint reserveA, uint reserveB) {... */\n      swap7\n      pop\n      pop\n      pop\n      pop\n      pop\n      pop\n      pop\n      jump\t// out\n        /* \"UniV2/v2-periphery/libraries/TaralSwapLibrary.sol\":2801:3267  function getAmountIn(uint amountOut, uint reserveIn, uint reserveOut) internal pure returns (uint amountIn) {... */\n    tag_454:\n        /* \"UniV2/v2-periphery/libraries/TaralSwapLibrary.sol\":2894:2907  uint amountIn */\n      0x00\n        /* \"UniV2/v2-periphery/libraries/TaralSwapLibrary.sol\":2939:2940  0 */\n      dup1\n        /* \"UniV2/v2-periphery/libraries/TaralSwapLibrary.sol\":2927:2936  amountOut */\n      dup5\n        /* \"UniV2/v2-periphery/libraries/TaralSwapLibrary.sol\":2927:2940  amountOut > 0 */\n      gt\n        /* \"UniV2/v2-periphery/libraries/TaralSwapLibrary.sol\":2919:2989  require(amountOut > 0, 'TaralSwapLibrary: INSUFFICIENT_OUTPUT_AMOUNT') */\n      tag_504\n      jumpi\n      mload(0x40)\n      shl(0xe5, 0x461bcd)\n      dup2\n      mstore\n      0x04\n      add\n      dup1\n      dup1\n      0x20\n      add\n      dup3\n      dup2\n      sub\n      dup3\n      mstore\n      0x2c\n      dup2\n      mstore\n      0x20\n      add\n      dup1\n      data_277628410963c234a24b4650a6e84e7d2a62eb96c2b7eb680e318381e3b4f951\n      0x2c\n      swap2\n      codecopy\n      0x40\n      add\n      swap2\n      pop\n      pop\n      mload(0x40)\n      dup1\n      swap2\n      sub\n      swap1\n      revert\n    tag_504:\n        /* \"UniV2/v2-periphery/libraries/TaralSwapLibrary.sol\":3019:3020  0 */\n      0x00\n        /* \"UniV2/v2-periphery/libraries/TaralSwapLibrary.sol\":3007:3016  reserveIn */\n      dup4\n        /* \"UniV2/v2-periphery/libraries/TaralSwapLibrary.sol\":3007:3020  reserveIn > 0 */\n      gt\n        /* \"UniV2/v2-periphery/libraries/TaralSwapLibrary.sol\":3007:3038  reserveIn > 0 && reserveOut > 0 */\n      dup1\n      iszero\n      tag_505\n      jumpi\n      pop\n        /* \"UniV2/v2-periphery/libraries/TaralSwapLibrary.sol\":3037:3038  0 */\n      0x00\n        /* \"UniV2/v2-periphery/libraries/TaralSwapLibrary.sol\":3024:3034  reserveOut */\n      dup3\n        /* \"UniV2/v2-periphery/libraries/TaralSwapLibrary.sol\":3024:3038  reserveOut > 0 */\n      gt\n        /* \"UniV2/v2-periphery/libraries/TaralSwapLibrary.sol\":3007:3038  reserveIn > 0 && reserveOut > 0 */\n    tag_505:\n        /* \"UniV2/v2-periphery/libraries/TaralSwapLibrary.sol\":2999:3083  require(reserveIn > 0 && reserveOut > 0, 'TaralSwapLibrary: INSUFFICIENT_LIQUIDITY') */\n      tag_506\n      jumpi\n      mload(0x40)\n      shl(0xe5, 0x461bcd)\n      dup2\n      mstore\n      0x04\n      add\n      dup1\n      dup1\n      0x20\n      add\n      dup3\n      dup2\n      sub\n      dup3\n      mstore\n      0x28\n      dup2\n      mstore\n      0x20\n      add\n      dup1\n      data_f2c40de7ed9adcb4e59ec81d78154f2e89db89ddb3544fc3359ec385080f4437\n      0x28\n      swap2\n      codecopy\n      0x40\n      add\n      swap2\n      pop\n      pop\n      mload(0x40)\n      dup1\n      swap2\n      sub\n      swap1\n      revert\n    tag_506:\n        /* \"UniV2/v2-periphery/libraries/TaralSwapLibrary.sol\":3093:3107  uint numerator */\n      0x00\n        /* \"UniV2/v2-periphery/libraries/TaralSwapLibrary.sol\":3110:3144  reserveIn.mul(amountOut).mul(1000) */\n      tag_507\n        /* \"UniV2/v2-periphery/libraries/TaralSwapLibrary.sol\":3139:3143  1000 */\n      0x03e8\n        /* \"UniV2/v2-periphery/libraries/TaralSwapLibrary.sol\":3110:3134  reserveIn.mul(amountOut) */\n      tag_508\n        /* \"UniV2/v2-periphery/libraries/TaralSwapLibrary.sol\":3110:3119  reserveIn */\n      dup7\n        /* \"UniV2/v2-periphery/libraries/TaralSwapLibrary.sol\":3124:3133  amountOut */\n      dup9\n        /* \"UniV2/v2-periphery/libraries/TaralSwapLibrary.sol\":3110:3134  reserveIn.mul(amountOut) */\n      0xffffffff\n        /* \"UniV2/v2-periphery/libraries/TaralSwapLibrary.sol\":3110:3123  reserveIn.mul */\n      tag_383\n        /* \"UniV2/v2-periphery/libraries/TaralSwapLibrary.sol\":3110:3134  reserveIn.mul(amountOut) */\n      and\n      jump\t// in\n    tag_508:\n        /* \"UniV2/v2-periphery/libraries/TaralSwapLibrary.sol\":3110:3138  reserveIn.mul(amountOut).mul */\n      swap1\n        /* \"UniV2/v2-periphery/libraries/TaralSwapLibrary.sol\":3110:3144  reserveIn.mul(amountOut).mul(1000) */\n      0xffffffff\n        /* \"UniV2/v2-periphery/libraries/TaralSwapLibrary.sol\":3110:3138  reserveIn.mul(amountOut).mul */\n      tag_383\n        /* \"UniV2/v2-periphery/libraries/TaralSwapLibrary.sol\":3110:3144  reserveIn.mul(amountOut).mul(1000) */\n      and\n      jump\t// in\n    tag_507:\n        /* \"UniV2/v2-periphery/libraries/TaralSwapLibrary.sol\":3093:3144  uint numerator = reserveIn.mul(amountOut).mul(1000) */\n      swap1\n      pop\n        /* \"UniV2/v2-periphery/libraries/TaralSwapLibrary.sol\":3154:3170  uint denominator */\n      0x00\n        /* \"UniV2/v2-periphery/libraries/TaralSwapLibrary.sol\":3173:3207  reserveOut.sub(amountOut).mul(997) */\n      tag_509\n        /* \"UniV2/v2-periphery/libraries/TaralSwapLibrary.sol\":3203:3206  997 */\n      0x03e5\n        /* \"UniV2/v2-periphery/libraries/TaralSwapLibrary.sol\":3173:3198  reserveOut.sub(amountOut) */\n      tag_508\n        /* \"UniV2/v2-periphery/libraries/TaralSwapLibrary.sol\":3173:3183  reserveOut */\n      dup7\n        /* \"UniV2/v2-periphery/libraries/TaralSwapLibrary.sol\":3188:3197  amountOut */\n      dup10\n        /* \"UniV2/v2-periphery/libraries/TaralSwapLibrary.sol\":3173:3198  reserveOut.sub(amountOut) */\n      0xffffffff\n        /* \"UniV2/v2-periphery/libraries/TaralSwapLibrary.sol\":3173:3187  reserveOut.sub */\n      tag_511\n        /* \"UniV2/v2-periphery/libraries/TaralSwapLibrary.sol\":3173:3198  reserveOut.sub(amountOut) */\n      and\n      jump\t// in\n        /* \"UniV2/v2-periphery/libraries/TaralSwapLibrary.sol\":3173:3207  reserveOut.sub(amountOut).mul(997) */\n    tag_509:\n        /* \"UniV2/v2-periphery/libraries/TaralSwapLibrary.sol\":3154:3207  uint denominator = reserveOut.sub(amountOut).mul(997) */\n      swap1\n      pop\n        /* \"UniV2/v2-periphery/libraries/TaralSwapLibrary.sol\":3228:3260  (numerator / denominator).add(1) */\n      tag_512\n        /* \"UniV2/v2-periphery/libraries/TaralSwapLibrary.sol\":3258:3259  1 */\n      0x01\n        /* \"UniV2/v2-periphery/libraries/TaralSwapLibrary.sol\":3241:3252  denominator */\n      dup3\n        /* \"UniV2/v2-periphery/libraries/TaralSwapLibrary.sol\":3229:3238  numerator */\n      dup5\n        /* \"UniV2/v2-periphery/libraries/TaralSwapLibrary.sol\":3229:3252  numerator / denominator */\n      dup2\n      tag_513\n      jumpi\n      invalid\n    tag_513:\n      div\n      swap1\n        /* \"UniV2/v2-periphery/libraries/TaralSwapLibrary.sol\":3228:3260  (numerator / denominator).add(1) */\n      0xffffffff\n        /* \"UniV2/v2-periphery/libraries/TaralSwapLibrary.sol\":3228:3257  (numerator / denominator).add */\n      tag_387\n        /* \"UniV2/v2-periphery/libraries/TaralSwapLibrary.sol\":3228:3260  (numerator / denominator).add(1) */\n      and\n      jump\t// in\n    tag_512:\n        /* \"UniV2/v2-periphery/libraries/TaralSwapLibrary.sol\":3217:3260  amountIn = (numerator / denominator).add(1) */\n      swap7\n        /* \"UniV2/v2-periphery/libraries/TaralSwapLibrary.sol\":2801:3267  function getAmountIn(uint amountOut, uint reserveIn, uint reserveOut) internal pure returns (uint amountIn) {... */\n      swap6\n      pop\n      pop\n      pop\n      pop\n      pop\n      pop\n      jump\t// out\n        /* \"UniV2/v2-periphery/libraries/SafeMath.sol\":180:307  function sub(uint x, uint y) internal pure returns (uint z) {... */\n    tag_511:\n        /* \"UniV2/v2-periphery/libraries/SafeMath.sol\":263:268  x - y */\n      dup1\n      dup3\n      sub\n        /* \"UniV2/v2-periphery/libraries/SafeMath.sol\":258:274  (z = x - y) <= x */\n      dup3\n      dup2\n      gt\n      iszero\n        /* \"UniV2/v2-periphery/libraries/SafeMath.sol\":250:300  require((z = x - y) <= x, 'ds-math-sub-underflow') */\n      tag_186\n      jumpi\n      0x40\n      dup1\n      mload\n      shl(0xe5, 0x461bcd)\n      dup2\n      mstore\n      0x20\n      0x04\n      dup3\n      add\n      mstore\n      0x15\n      0x24\n      dup3\n      add\n      mstore\n      shl(0x58, 0x64732d6d6174682d7375622d756e646572666c6f77)\n      0x44\n      dup3\n      add\n      mstore\n      swap1\n      mload\n      swap1\n      dup2\n      swap1\n      sub\n      0x64\n      add\n      swap1\n      revert\n    stop\n    data_0e1d14f48cda7770d476ed436525ce4406c0c92279fb714d3a7c141f8bf87828 546172616c53776170526f757465723a20494e53554646494349454e545f425f414d4f554e54\n    data_277628410963c234a24b4650a6e84e7d2a62eb96c2b7eb680e318381e3b4f951 546172616c537761704c6962726172793a20494e53554646494349454e545f4f55545055545f414d4f554e54\n    data_3d7ba32bd0fe4a3356e9d1d70c5c84868abb46ba7f379f47c3ef0b4fe8dd4895 546172616c537761704c6962726172793a204944454e544943414c5f414444524553534553\n    data_3f8faf98afe9344b6d4b0e75b0101259bf282914b3b5a9320c6918b6e27ede1c 5472616e7366657248656c7065723a3a7472616e7366657246726f6d3a207472616e7366657246726f6d206661696c6564\n    data_43d7bec223ecf9eb06ea147e7d564bc71c2448662d62a4ea86ce71fc4518b350 5472616e7366657248656c7065723a3a736166655472616e736665724554483a20455448207472616e73666572206661696c6564\n    data_5c443119ebb8aeb32321126cfb2ff0dcc2f8093b40ff96bbc9a97732d462f01a 546172616c53776170526f757465723a204558434553534956455f494e5055545f414d4f554e54\n    data_b18e0d2ae3d4c6733fe45932601b22e743f26fbdc73de55b81abdcfabf5f07b2 546172616c537761704c6962726172793a20494e53554646494349454e545f494e5055545f414d4f554e54\n    data_b9d07f19374242e33ecc3bbcba924d538b5e40f1dacd912af197388ebf04c28c 546172616c537761704c6962726172793a20494e53554646494349454e545f414d4f554e54\n    data_c2e714e99c3be8ba08e251ad3009c4c6fc6c7692f0f9fe0f4bd523f2493f42e8 546172616c53776170526f757465723a20494e53554646494349454e545f415f414d4f554e54\n    data_d1cedc27005fb96d9303e9bc5ef4636504c9cdd8f302363019a792c8d594671d 546172616c53776170526f757465723a20494e53554646494349454e545f4f55545055545f414d4f554e54\n    data_daea69421eeb1164e163c36f3d4349f0db3ec4e0d1381bd5bf4faf53496c2611 5472616e7366657248656c7065723a3a736166655472616e736665723a207472616e73666572206661696c6564\n    data_df971177b5426e6ce4d394de74a4e6abf41b62b9e691f4e6867726998c87692f 546172616c53776170526f757465723a20494e56414c49445f50415448000000\n    data_e96b09f95fa29a1eee4625e76757185dca0ed927e79d13b4068878b0a4e26735 546172616c53776170526f757465723a20455850495245440000000000000000\n    data_f2c40de7ed9adcb4e59ec81d78154f2e89db89ddb3544fc3359ec385080f4437 546172616c537761704c6962726172793a20494e53554646494349454e545f4c4951554944495459\n\n    auxdata: 0xa2646970667358221220985ff7e01d1ab4b65bf5ac75a27f11b29c8dcea4fe747de88bdcb1cb0011252664736f6c63430006060033\n}\n",
				"bytecode": {
					"linkReferences": {},
					"object": "60c060405234801561001057600080fd5b506040516136493803806136498339818101604052604081101561003357600080fd5b5080516020909101516001600160601b0319606092831b8116608052911b1660a05260805160601c60a05160601c61350d61013c600039806101285280610a015280610a3c5280610b335280610d515280610e1252806110ff528061128352806113c9528061145152806119725280611be55280611c3b5280611c6f5280611ce35280611e835280611fc6528061204e525080610bc15280610c985280610e3b5280610e745280610faf528061118d5280611316528061148352806115f652806116ff52806118f7528061192052806119505280611abd5280611c195280611f165280612080528061291152806129545280612d9b5280612e495280612ec9525061350d6000f3fe6080604052600436106101185760003560e01c806385f8c259116100a0578063d06ca61f11610064578063d06ca61f14610742578063ded9382a146107f7578063e8e337001461086a578063f305d719146108ea578063fb3bdb411461093057610151565b806385f8c259146101c25780638803dbee14610604578063ad615dec1461069a578063baa2abde146106d0578063c45a01551461072d57610151565b80631f00ca74116100e75780631f00ca74146103215780632195995c146103d657806338ed1739146104545780634a25d94a146104ea5780637ff36ab51461058057610151565b806302751cec14610156578063054d50d4146101c257806318cbafe51461020a5780631f003483146102f057610151565b3661015157336001600160a01b037f0000000000000000000000000000000000000000000000000000000000000000161461014f57fe5b005b600080fd5b34801561016257600080fd5b506101a9600480360360c081101561017957600080fd5b506001600160a01b0381358116916020810135916040820135916060810135916080820135169060a001356109b4565b6040805192835260208301919091528051918290030190f35b3480156101ce57600080fd5b506101f8600480360360608110156101e557600080fd5b5080359060208101359060400135610ace565b60408051918252519081900360200190f35b34801561021657600080fd5b506102a0600480360360a081101561022d57600080fd5b813591602081013591810190606081016040820135600160201b81111561025357600080fd5b82018360208201111561026557600080fd5b803590602001918460208302840111600160201b8311171561028657600080fd5b91935091506001600160a01b038135169060200135610ae3565b60408051602080825283518183015283519192839290830191858101910280838360005b838110156102dc5781810151838201526020016102c4565b505050509050019250505060405180910390f35b3480156102fc57600080fd5b50610305610e10565b604080516001600160a01b039092168252519081900360200190f35b34801561032d57600080fd5b506102a06004803603604081101561034457600080fd5b81359190810190604081016020820135600160201b81111561036557600080fd5b82018360208201111561037757600080fd5b803590602001918460208302840111600160201b8311171561039857600080fd5b919080806020026020016040519081016040528093929190818152602001838360200280828437600092019190915250929550610e34945050505050565b3480156103e257600080fd5b506101a960048036036101608110156103fa57600080fd5b506001600160a01b038135811691602081013582169160408201359160608101359160808201359160a08101359091169060c08101359060e081013515159060ff6101008201351690610120810135906101400135610e6a565b34801561046057600080fd5b506102a0600480360360a081101561047757600080fd5b813591602081013591810190606081016040820135600160201b81111561049d57600080fd5b8201836020820111156104af57600080fd5b803590602001918460208302840111600160201b831117156104d057600080fd5b91935091506001600160a01b038135169060200135610f64565b3480156104f657600080fd5b506102a0600480360360a081101561050d57600080fd5b813591602081013591810190606081016040820135600160201b81111561053357600080fd5b82018360208201111561054557600080fd5b803590602001918460208302840111600160201b8311171561056657600080fd5b91935091506001600160a01b0381351690602001356110af565b6102a06004803603608081101561059657600080fd5b81359190810190604081016020820135600160201b8111156105b757600080fd5b8201836020820111156105c957600080fd5b803590602001918460208302840111600160201b831117156105ea57600080fd5b91935091506001600160a01b03813516906020013561123b565b34801561061057600080fd5b506102a0600480360360a081101561062757600080fd5b813591602081013591810190606081016040820135600160201b81111561064d57600080fd5b82018360208201111561065f57600080fd5b803590602001918460208302840111600160201b8311171561068057600080fd5b91935091506001600160a01b0381351690602001356115ab565b3480156106a657600080fd5b506101f8600480360360608110156106bd57600080fd5b50803590602081013590604001356116a4565b3480156106dc57600080fd5b506101a9600480360360e08110156106f357600080fd5b506001600160a01b038135811691602081013582169160408201359160608101359160808201359160a08101359091169060c001356116b1565b34801561073957600080fd5b506103056118f5565b34801561074e57600080fd5b506102a06004803603604081101561076557600080fd5b81359190810190604081016020820135600160201b81111561078657600080fd5b82018360208201111561079857600080fd5b803590602001918460208302840111600160201b831117156107b957600080fd5b919080806020026020016040519081016040528093929190818152602001838360200280828437600092019190915250929550611919945050505050565b34801561080357600080fd5b506101a9600480360361014081101561081b57600080fd5b506001600160a01b0381358116916020810135916040820135916060810135916080820135169060a08101359060c081013515159060ff60e08201351690610100810135906101200135611946565b34801561087657600080fd5b506108cc600480360361010081101561088e57600080fd5b506001600160a01b038135811691602081013582169160408201359160608101359160808201359160a08101359160c0820135169060e00135611a5a565b60408051938452602084019290925282820152519081900360600190f35b6108cc600480360360c081101561090057600080fd5b506001600160a01b0381358116916020810135916040820135916060810135916080820135169060a00135611b96565b6102a06004803603608081101561094657600080fd5b81359190810190604081016020820135600160201b81111561096757600080fd5b82018360208201111561097957600080fd5b803590602001918460208302840111600160201b8311171561099a57600080fd5b91935091506001600160a01b038135169060200135611e3b565b60008082428110156109fb576040805162461bcd60e51b81526020600482015260186024820152600080516020613490833981519152604482015290519081900360640190fd5b610a2a897f00000000000000000000000000000000000000000000000000000000000000008a8a8a308a6116b1565b9093509150610a3a8986856121bd565b7f00000000000000000000000000000000000000000000000000000000000000006001600160a01b0316632e1a7d4d836040518263ffffffff1660e01b815260040180828152602001915050600060405180830381600087803b158015610aa057600080fd5b505af1158015610ab4573d6000803e3d6000fd5b50505050610ac28583612311565b50965096945050505050565b6000610adb848484612409565b949350505050565b60608142811015610b29576040805162461bcd60e51b81526020600482015260186024820152600080516020613490833981519152604482015290519081900360640190fd5b6001600160a01b037f00000000000000000000000000000000000000000000000000000000000000001686866000198101818110610b6357fe5b905060200201356001600160a01b03166001600160a01b031614610bbc576040805162461bcd60e51b815260206004820152601d6024820152600080516020613470833981519152604482015290519081900360640190fd5b610c1a7f0000000000000000000000000000000000000000000000000000000000000000898888808060200260200160405190810160405280939291908181526020018383602002808284376000920191909152506124f992505050565b91508682600184510381518110610c2d57fe5b60200260200101511015610c725760405162461bcd60e51b815260040180806020018281038252602b815260200180613418602b913960400191505060405180910390fd5b610d1086866000818110610c8257fe5b905060200201356001600160a01b031633610cf67f00000000000000000000000000000000000000000000000000000000000000008a8a6000818110610cc457fe5b905060200201356001600160a01b03168b8b6001818110610ce157fe5b905060200201356001600160a01b0316612645565b85600081518110610d0357fe5b6020026020010151612705565b610d4f82878780806020026020016040519081016040528093929190818152602001838360200280828437600092019190915250309250612862915050565b7f00000000000000000000000000000000000000000000000000000000000000006001600160a01b0316632e1a7d4d83600185510381518110610d8e57fe5b60200260200101516040518263ffffffff1660e01b815260040180828152602001915050600060405180830381600087803b158015610dcc57600080fd5b505af1158015610de0573d6000803e3d6000fd5b50505050610e058483600185510381518110610df857fe5b6020026020010151612311565b509695505050505050565b7f000000000000000000000000000000000000000000000000000000000000000081565b6060610e617f00000000000000000000000000000000000000000000000000000000000000008484612aa8565b90505b92915050565b6000806000610e9a7f00000000000000000000000000000000000000000000000000000000000000008f8f612645565b9050600087610ea9578c610ead565b6000195b6040805163d505accf60e01b815233600482015230602482015260448101839052606481018c905260ff8a16608482015260a4810189905260c4810188905290519192506001600160a01b0384169163d505accf9160e48082019260009290919082900301818387803b158015610f2357600080fd5b505af1158015610f37573d6000803e3d6000fd5b50505050610f4a8f8f8f8f8f8f8f6116b1565b809450819550505050509b509b9950505050505050505050565b60608142811015610faa576040805162461bcd60e51b81526020600482015260186024820152600080516020613490833981519152604482015290519081900360640190fd5b6110087f0000000000000000000000000000000000000000000000000000000000000000898888808060200260200160405190810160405280939291908181526020018383602002808284376000920191909152506124f992505050565b9150868260018451038151811061101b57fe5b602002602001015110156110605760405162461bcd60e51b815260040180806020018281038252602b815260200180613418602b913960400191505060405180910390fd5b61107086866000818110610c8257fe5b610e0582878780806020026020016040519081016040528093929190818152602001838360200280828437600092019190915250899250612862915050565b606081428110156110f5576040805162461bcd60e51b81526020600482015260186024820152600080516020613490833981519152604482015290519081900360640190fd5b6001600160a01b037f0000000000000000000000000000000000000000000000000000000000000000168686600019810181811061112f57fe5b905060200201356001600160a01b03166001600160a01b031614611188576040805162461bcd60e51b815260206004820152601d6024820152600080516020613470833981519152604482015290519081900360640190fd5b6111e67f000000000000000000000000000000000000000000000000000000000000000089888880806020026020016040519081016040528093929190818152602001838360200280828437600092019190915250612aa892505050565b915086826000815181106111f657fe5b60200260200101511115610c725760405162461bcd60e51b815260040180806020018281038252602781526020018061337b6027913960400191505060405180910390fd5b60608142811015611281576040805162461bcd60e51b81526020600482015260186024820152600080516020613490833981519152604482015290519081900360640190fd5b7f00000000000000000000000000000000000000000000000000000000000000006001600160a01b0316868660008181106112b857fe5b905060200201356001600160a01b03166001600160a01b031614611311576040805162461bcd60e51b815260206004820152601d6024820152600080516020613470833981519152604482015290519081900360640190fd5b61136f7f0000000000000000000000000000000000000000000000000000000000000000348888808060200260200160405190810160405280939291908181526020018383602002808284376000920191909152506124f992505050565b9150868260018451038151811061138257fe5b602002602001015110156113c75760405162461bcd60e51b815260040180806020018281038252602b815260200180613418602b913960400191505060405180910390fd5b7f00000000000000000000000000000000000000000000000000000000000000006001600160a01b031663d0e30db08360008151811061140357fe5b60200260200101516040518263ffffffff1660e01b81526004016000604051808303818588803b15801561143657600080fd5b505af115801561144a573d6000803e3d6000fd5b50505050507f00000000000000000000000000000000000000000000000000000000000000006001600160a01b031663a9059cbb6114cc7f0000000000000000000000000000000000000000000000000000000000000000898960008181106114af57fe5b905060200201356001600160a01b03168a8a6001818110610ce157fe5b846000815181106114d957fe5b60200260200101516040518363ffffffff1660e01b815260040180836001600160a01b03166001600160a01b0316815260200182815260200192505050602060405180830381600087803b15801561153057600080fd5b505af1158015611544573d6000803e3d6000fd5b505050506040513d602081101561155a57600080fd5b505161156257fe5b6115a182878780806020026020016040519081016040528093929190818152602001838360200280828437600092019190915250899250612862915050565b5095945050505050565b606081428110156115f1576040805162461bcd60e51b81526020600482015260186024820152600080516020613490833981519152604482015290519081900360640190fd5b61164f7f000000000000000000000000000000000000000000000000000000000000000089888880806020026020016040519081016040528093929190818152602001838360200280828437600092019190915250612aa892505050565b9150868260008151811061165f57fe5b602002602001015111156110605760405162461bcd60e51b815260040180806020018281038252602781526020018061337b6027913960400191505060405180910390fd5b6000610adb848484612be0565b60008082428110156116f8576040805162461bcd60e51b81526020600482015260186024820152600080516020613490833981519152604482015290519081900360640190fd5b60006117257f00000000000000000000000000000000000000000000000000000000000000008c8c612645565b604080516323b872dd60e01b81523360048201526001600160a01b03831660248201819052604482018d9052915192935090916323b872dd916064808201926020929091908290030181600087803b15801561178057600080fd5b505af1158015611794573d6000803e3d6000fd5b505050506040513d60208110156117aa57600080fd5b50506040805163226bf2d160e21b81526001600160a01b03888116600483015282516000938493928616926389afcb44926024808301939282900301818787803b1580156117f757600080fd5b505af115801561180b573d6000803e3d6000fd5b505050506040513d604081101561182157600080fd5b5080516020909101519092509050600061183b8e8e612c8c565b509050806001600160a01b03168e6001600160a01b03161461185e578183611861565b82825b90975095508a8710156118a55760405162461bcd60e51b81526004018080602001828103825260268152602001806133f26026913960400191505060405180910390fd5b898610156118e45760405162461bcd60e51b815260040180806020018281038252602681526020018061329f6026913960400191505060405180910390fd5b505050505097509795505050505050565b7f000000000000000000000000000000000000000000000000000000000000000081565b6060610e617f000000000000000000000000000000000000000000000000000000000000000084846124f9565b60008060006119967f00000000000000000000000000000000000000000000000000000000000000008e7f0000000000000000000000000000000000000000000000000000000000000000612645565b90506000876119a5578c6119a9565b6000195b6040805163d505accf60e01b815233600482015230602482015260448101839052606481018c905260ff8a16608482015260a4810189905260c4810188905290519192506001600160a01b0384169163d505accf9160e48082019260009290919082900301818387803b158015611a1f57600080fd5b505af1158015611a33573d6000803e3d6000fd5b50505050611a458e8e8e8e8e8e6109b4565b909f909e509c50505050505050505050505050565b60008060008342811015611aa3576040805162461bcd60e51b81526020600482015260186024820152600080516020613490833981519152604482015290519081900360640190fd5b611ab18c8c8c8c8c8c612d6a565b90945092506000611ae37f00000000000000000000000000000000000000000000000000000000000000008e8e612645565b9050611af18d338388612705565b611afd8c338387612705565b806001600160a01b0316636a627842886040518263ffffffff1660e01b815260040180826001600160a01b03166001600160a01b03168152602001915050602060405180830381600087803b158015611b5557600080fd5b505af1158015611b69573d6000803e3d6000fd5b505050506040513d6020811015611b7f57600080fd5b5051949d939c50939a509198505050505050505050565b60008060008342811015611bdf576040805162461bcd60e51b81526020600482015260186024820152600080516020613490833981519152604482015290519081900360640190fd5b611c0d8a7f00000000000000000000000000000000000000000000000000000000000000008b348c8c612d6a565b90945092506000611c5f7f00000000000000000000000000000000000000000000000000000000000000008c7f0000000000000000000000000000000000000000000000000000000000000000612645565b9050611c6d8b338388612705565b7f00000000000000000000000000000000000000000000000000000000000000006001600160a01b031663d0e30db0856040518263ffffffff1660e01b81526004016000604051808303818588803b158015611cc857600080fd5b505af1158015611cdc573d6000803e3d6000fd5b50505050507f00000000000000000000000000000000000000000000000000000000000000006001600160a01b031663a9059cbb82866040518363ffffffff1660e01b815260040180836001600160a01b03166001600160a01b0316815260200182815260200192505050602060405180830381600087803b158015611d6157600080fd5b505af1158015611d75573d6000803e3d6000fd5b505050506040513d6020811015611d8b57600080fd5b5051611d9357fe5b806001600160a01b0316636a627842886040518263ffffffff1660e01b815260040180826001600160a01b03166001600160a01b03168152602001915050602060405180830381600087803b158015611deb57600080fd5b505af1158015611dff573d6000803e3d6000fd5b505050506040513d6020811015611e1557600080fd5b5051925034841015611e2d57611e2d33853403612311565b505096509650969350505050565b60608142811015611e81576040805162461bcd60e51b81526020600482015260186024820152600080516020613490833981519152604482015290519081900360640190fd5b7f00000000000000000000000000000000000000000000000000000000000000006001600160a01b031686866000818110611eb857fe5b905060200201356001600160a01b03166001600160a01b031614611f11576040805162461bcd60e51b815260206004820152601d6024820152600080516020613470833981519152604482015290519081900360640190fd5b611f6f7f000000000000000000000000000000000000000000000000000000000000000088888880806020026020016040519081016040528093929190818152602001838360200280828437600092019190915250612aa892505050565b91503482600081518110611f7f57fe5b60200260200101511115611fc45760405162461bcd60e51b815260040180806020018281038252602781526020018061337b6027913960400191505060405180910390fd5b7f00000000000000000000000000000000000000000000000000000000000000006001600160a01b031663d0e30db08360008151811061200057fe5b60200260200101516040518263ffffffff1660e01b81526004016000604051808303818588803b15801561203357600080fd5b505af1158015612047573d6000803e3d6000fd5b50505050507f00000000000000000000000000000000000000000000000000000000000000006001600160a01b031663a9059cbb6120ac7f0000000000000000000000000000000000000000000000000000000000000000898960008181106114af57fe5b846000815181106120b957fe5b60200260200101516040518363ffffffff1660e01b815260040180836001600160a01b03166001600160a01b0316815260200182815260200192505050602060405180830381600087803b15801561211057600080fd5b505af1158015612124573d6000803e3d6000fd5b505050506040513d602081101561213a57600080fd5b505161214257fe5b61218182878780806020026020016040519081016040528093929190818152602001838360200280828437600092019190915250899250612862915050565b8160008151811061218e57fe5b60200260200101513411156115a1576115a133836000815181106121ae57fe5b60200260200101513403612311565b604080516001600160a01b038481166024830152604480830185905283518084039091018152606490920183526020820180516001600160e01b031663a9059cbb60e01b178152925182516000946060949389169392918291908083835b6020831061223a5780518252601f19909201916020918201910161221b565b6001836020036101000a0380198251168184511680821785525050505050509050019150506000604051808303816000865af19150503d806000811461229c576040519150601f19603f3d011682016040523d82523d6000602084013e6122a1565b606091505b50915091508180156122cf5750805115806122cf57508080602001905160208110156122cc57600080fd5b50515b61230a5760405162461bcd60e51b815260040180806020018281038252602d815260200180613443602d913960400191505060405180910390fd5b5050505050565b604080516000808252602082019092526001600160a01b0384169083906040518082805190602001908083835b6020831061235d5780518252601f19909201916020918201910161233e565b6001836020036101000a03801982511681845116808217855250505050505090500191505060006040518083038185875af1925050503d80600081146123bf576040519150601f19603f3d011682016040523d82523d6000602084013e6123c4565b606091505b50509050806124045760405162461bcd60e51b81526004018080602001828103825260348152602001806133476034913960400191505060405180910390fd5b505050565b60008084116124495760405162461bcd60e51b815260040180806020018281038252602b8152602001806133a2602b913960400191505060405180910390fd5b6000831180156124595750600082115b6124945760405162461bcd60e51b81526004018080602001828103825260288152602001806134b06028913960400191505060405180910390fd5b60006124a8856103e563ffffffff612fde16565b905060006124bc828563ffffffff612fde16565b905060006124e2836124d6886103e863ffffffff612fde16565b9063ffffffff61304116565b90508082816124ed57fe5b04979650505050505050565b6060600282511015612552576040805162461bcd60e51b815260206004820152601e60248201527f546172616c537761704c6962726172793a20494e56414c49445f504154480000604482015290519081900360640190fd5b815167ffffffffffffffff8111801561256a57600080fd5b50604051908082528060200260200182016040528015612594578160200160208202803683370190505b50905082816000815181106125a557fe5b60200260200101818152505060005b600183510381101561263d576000806125f7878685815181106125d357fe5b60200260200101518786600101815181106125ea57fe5b6020026020010151613090565b9150915061261984848151811061260a57fe5b60200260200101518383612409565b84846001018151811061262857fe5b602090810291909101015250506001016125b4565b509392505050565b60008060006126548585612c8c565b604080516bffffffffffffffffffffffff19606094851b811660208084019190915293851b81166034830152825160288184030181526048830184528051908501206001600160f81b031960688401529a90941b9093166069840152607d8301989098527f27f067e989d1eaf4b3fe6715de948cfbabd7bf6fcb5097e2dd4928e4871347a7609d808401919091528851808403909101815260bd909201909752805196019590952095945050505050565b604080516001600160a01b0385811660248301528481166044830152606480830185905283518084039091018152608490920183526020820180516001600160e01b03166323b872dd60e01b17815292518251600094606094938a169392918291908083835b6020831061278a5780518252601f19909201916020918201910161276b565b6001836020036101000a0380198251168184511680821785525050505050509050019150506000604051808303816000865af19150503d80600081146127ec576040519150601f19603f3d011682016040523d82523d6000602084013e6127f1565b606091505b509150915081801561281f57508051158061281f575080806020019051602081101561281c57600080fd5b50515b61285a5760405162461bcd60e51b81526004018080602001828103825260318152602001806133166031913960400191505060405180910390fd5b505050505050565b60005b6001835103811015612aa25760008084838151811061288057fe5b602002602001015185846001018151811061289757fe5b60200260200101519150915060006128af8383612c8c565b50905060008785600101815181106128c357fe5b60200260200101519050600080836001600160a01b0316866001600160a01b0316146128f1578260006128f5565b6000835b91509150600060028a5103881061290c578861294d565b61294d7f0000000000000000000000000000000000000000000000000000000000000000878c8b6002018151811061294057fe5b6020026020010151612645565b905061297a7f00000000000000000000000000000000000000000000000000000000000000008888612645565b6001600160a01b031663022c0d9f84848460006040519080825280601f01601f1916602001820160405280156129b7576020820181803683370190505b506040518563ffffffff1660e01b815260040180858152602001848152602001836001600160a01b03166001600160a01b0316815260200180602001828103825283818151815260200191508051906020019080838360005b83811015612a28578181015183820152602001612a10565b50505050905090810190601f168015612a555780820380516001836020036101000a031916815260200191505b5095505050505050600060405180830381600087803b158015612a7757600080fd5b505af1158015612a8b573d6000803e3d6000fd5b505060019099019850612865975050505050505050565b50505050565b6060600282511015612b01576040805162461bcd60e51b815260206004820152601e60248201527f546172616c537761704c6962726172793a20494e56414c49445f504154480000604482015290519081900360640190fd5b815167ffffffffffffffff81118015612b1957600080fd5b50604051908082528060200260200182016040528015612b43578160200160208202803683370190505b5090508281600183510381518110612b5757fe5b60209081029190910101528151600019015b801561263d57600080612b9987866001860381518110612b8557fe5b60200260200101518786815181106125ea57fe5b91509150612bbb848481518110612bac57fe5b6020026020010151838361315e565b846001850381518110612bca57fe5b6020908102919091010152505060001901612b69565b6000808411612c205760405162461bcd60e51b81526004018080602001828103825260258152602001806133cd6025913960400191505060405180910390fd5b600083118015612c305750600082115b612c6b5760405162461bcd60e51b81526004018080602001828103825260288152602001806134b06028913960400191505060405180910390fd5b82612c7c858463ffffffff612fde16565b81612c8357fe5b04949350505050565b600080826001600160a01b0316846001600160a01b03161415612ce05760405162461bcd60e51b81526004018080602001828103825260258152602001806132f16025913960400191505060405180910390fd5b826001600160a01b0316846001600160a01b031610612d00578284612d03565b83835b90925090506001600160a01b038216612d63576040805162461bcd60e51b815260206004820152601e60248201527f546172616c537761704c6962726172793a205a45524f5f414444524553530000604482015290519081900360640190fd5b9250929050565b6040805163e6a4390560e01b81526001600160a01b03888116600483015287811660248301529151600092839283927f00000000000000000000000000000000000000000000000000000000000000009092169163e6a4390591604480820192602092909190829003018186803b158015612de457600080fd5b505afa158015612df8573d6000803e3d6000fd5b505050506040513d6020811015612e0e57600080fd5b50516001600160a01b03161415612ec157604080516364e329cb60e11b81526001600160a01b038a81166004830152898116602483015291517f00000000000000000000000000000000000000000000000000000000000000009092169163c9c65396916044808201926020929091908290030181600087803b158015612e9457600080fd5b505af1158015612ea8573d6000803e3d6000fd5b505050506040513d6020811015612ebe57600080fd5b50505b600080612eef7f00000000000000000000000000000000000000000000000000000000000000008b8b613090565b91509150816000148015612f01575080155b15612f1157879350869250612fd1565b6000612f1e898484612be0565b9050878111612f715785811015612f665760405162461bcd60e51b815260040180806020018281038252602681526020018061329f6026913960400191505060405180910390fd5b889450925082612fcf565b6000612f7e898486612be0565b905089811115612f8a57fe5b87811015612fc95760405162461bcd60e51b81526004018080602001828103825260268152602001806133f26026913960400191505060405180910390fd5b94508793505b505b5050965096945050505050565b6000811580612ff957505080820282828281612ff657fe5b04145b610e64576040805162461bcd60e51b815260206004820152601460248201527364732d6d6174682d6d756c2d6f766572666c6f7760601b604482015290519081900360640190fd5b80820182811015610e64576040805162461bcd60e51b815260206004820152601460248201527364732d6d6174682d6164642d6f766572666c6f7760601b604482015290519081900360640190fd5b600080600061309f8585612c8c565b5090506000806130b0888888612645565b6001600160a01b0316630902f1ac6040518163ffffffff1660e01b815260040160606040518083038186803b1580156130e857600080fd5b505afa1580156130fc573d6000803e3d6000fd5b505050506040513d606081101561311257600080fd5b5080516020909101516dffffffffffffffffffffffffffff91821693501690506001600160a01b038781169084161461314c57808261314f565b81815b90999098509650505050505050565b600080841161319e5760405162461bcd60e51b815260040180806020018281038252602c8152602001806132c5602c913960400191505060405180910390fd5b6000831180156131ae5750600082115b6131e95760405162461bcd60e51b81526004018080602001828103825260288152602001806134b06028913960400191505060405180910390fd5b600061320d6103e8613201868863ffffffff612fde16565b9063ffffffff612fde16565b905060006132276103e5613201868963ffffffff61324e16565b9050613244600182848161323757fe5b049063ffffffff61304116565b9695505050505050565b80820382811115610e64576040805162461bcd60e51b815260206004820152601560248201527464732d6d6174682d7375622d756e646572666c6f7760581b604482015290519081900360640190fdfe546172616c53776170526f757465723a20494e53554646494349454e545f425f414d4f554e54546172616c537761704c6962726172793a20494e53554646494349454e545f4f55545055545f414d4f554e54546172616c537761704c6962726172793a204944454e544943414c5f4144445245535345535472616e7366657248656c7065723a3a7472616e7366657246726f6d3a207472616e7366657246726f6d206661696c65645472616e7366657248656c7065723a3a736166655472616e736665724554483a20455448207472616e73666572206661696c6564546172616c53776170526f757465723a204558434553534956455f494e5055545f414d4f554e54546172616c537761704c6962726172793a20494e53554646494349454e545f494e5055545f414d4f554e54546172616c537761704c6962726172793a20494e53554646494349454e545f414d4f554e54546172616c53776170526f757465723a20494e53554646494349454e545f415f414d4f554e54546172616c53776170526f757465723a20494e53554646494349454e545f4f55545055545f414d4f554e545472616e7366657248656c7065723a3a736166655472616e736665723a207472616e73666572206661696c6564546172616c53776170526f757465723a20494e56414c49445f50415448000000546172616c53776170526f757465723a20455850495245440000000000000000546172616c537761704c6962726172793a20494e53554646494349454e545f4c4951554944495459a2646970667358221220985ff7e01d1ab4b65bf5ac75a27f11b29c8dcea4fe747de88bdcb1cb0011252664736f6c63430006060033",
					"opcodes": "PUSH1 0xC0 PUSH1 0x40 MSTORE CALLVALUE DUP1 ISZERO PUSH2 0x10 JUMPI PUSH1 0x0 DUP1 REVERT JUMPDEST POP PUSH1 0x40 MLOAD PUSH2 0x3649 CODESIZE SUB DUP1 PUSH2 0x3649 DUP4 CODECOPY DUP2 DUP2 ADD PUSH1 0x40 MSTORE PUSH1 0x40 DUP2 LT ISZERO PUSH2 0x33 JUMPI PUSH1 0x0 DUP1 REVERT JUMPDEST POP DUP1 MLOAD PUSH1 0x20 SWAP1 SWAP2 ADD MLOAD PUSH1 0x1 PUSH1 0x1 PUSH1 0x60 SHL SUB NOT PUSH1 0x60 SWAP3 DUP4 SHL DUP2 AND PUSH1 0x80 MSTORE SWAP2 SHL AND PUSH1 0xA0 MSTORE PUSH1 0x80 MLOAD PUSH1 0x60 SHR PUSH1 0xA0 MLOAD PUSH1 0x60 SHR PUSH2 0x350D PUSH2 0x13C PUSH1 0x0 CODECOPY DUP1 PUSH2 0x128 MSTORE DUP1 PUSH2 0xA01 MSTORE DUP1 PUSH2 0xA3C MSTORE DUP1 PUSH2 0xB33 MSTORE DUP1 PUSH2 0xD51 MSTORE DUP1 PUSH2 0xE12 MSTORE DUP1 PUSH2 0x10FF MSTORE DUP1 PUSH2 0x1283 MSTORE DUP1 PUSH2 0x13C9 MSTORE DUP1 PUSH2 0x1451 MSTORE DUP1 PUSH2 0x1972 MSTORE DUP1 PUSH2 0x1BE5 MSTORE DUP1 PUSH2 0x1C3B MSTORE DUP1 PUSH2 0x1C6F MSTORE DUP1 PUSH2 0x1CE3 MSTORE DUP1 PUSH2 0x1E83 MSTORE DUP1 PUSH2 0x1FC6 MSTORE DUP1 PUSH2 0x204E MSTORE POP DUP1 PUSH2 0xBC1 MSTORE DUP1 PUSH2 0xC98 MSTORE DUP1 PUSH2 0xE3B MSTORE DUP1 PUSH2 0xE74 MSTORE DUP1 PUSH2 0xFAF MSTORE DUP1 PUSH2 0x118D MSTORE DUP1 PUSH2 0x1316 MSTORE DUP1 PUSH2 0x1483 MSTORE DUP1 PUSH2 0x15F6 MSTORE DUP1 PUSH2 0x16FF MSTORE DUP1 PUSH2 0x18F7 MSTORE DUP1 PUSH2 0x1920 MSTORE DUP1 PUSH2 0x1950 MSTORE DUP1 PUSH2 0x1ABD MSTORE DUP1 PUSH2 0x1C19 MSTORE DUP1 PUSH2 0x1F16 MSTORE DUP1 PUSH2 0x2080 MSTORE DUP1 PUSH2 0x2911 MSTORE DUP1 PUSH2 0x2954 MSTORE DUP1 PUSH2 0x2D9B MSTORE DUP1 PUSH2 0x2E49 MSTORE DUP1 PUSH2 0x2EC9 MSTORE POP PUSH2 0x350D PUSH1 0x0 RETURN INVALID PUSH1 0x80 PUSH1 0x40 MSTORE PUSH1 0x4 CALLDATASIZE LT PUSH2 0x118 JUMPI PUSH1 0x0 CALLDATALOAD PUSH1 0xE0 SHR DUP1 PUSH4 0x85F8C259 GT PUSH2 0xA0 JUMPI DUP1 PUSH4 0xD06CA61F GT PUSH2 0x64 JUMPI DUP1 PUSH4 0xD06CA61F EQ PUSH2 0x742 JUMPI DUP1 PUSH4 0xDED9382A EQ PUSH2 0x7F7 JUMPI DUP1 PUSH4 0xE8E33700 EQ PUSH2 0x86A JUMPI DUP1 PUSH4 0xF305D719 EQ PUSH2 0x8EA JUMPI DUP1 PUSH4 0xFB3BDB41 EQ PUSH2 0x930 JUMPI PUSH2 0x151 JUMP JUMPDEST DUP1 PUSH4 0x85F8C259 EQ PUSH2 0x1C2 JUMPI DUP1 PUSH4 0x8803DBEE EQ PUSH2 0x604 JUMPI DUP1 PUSH4 0xAD615DEC EQ PUSH2 0x69A JUMPI DUP1 PUSH4 0xBAA2ABDE EQ PUSH2 0x6D0 JUMPI DUP1 PUSH4 0xC45A0155 EQ PUSH2 0x72D JUMPI PUSH2 0x151 JUMP JUMPDEST DUP1 PUSH4 0x1F00CA74 GT PUSH2 0xE7 JUMPI DUP1 PUSH4 0x1F00CA74 EQ PUSH2 0x321 JUMPI DUP1 PUSH4 0x2195995C EQ PUSH2 0x3D6 JUMPI DUP1 PUSH4 0x38ED1739 EQ PUSH2 0x454 JUMPI DUP1 PUSH4 0x4A25D94A EQ PUSH2 0x4EA JUMPI DUP1 PUSH4 0x7FF36AB5 EQ PUSH2 0x580 JUMPI PUSH2 0x151 JUMP JUMPDEST DUP1 PUSH4 0x2751CEC EQ PUSH2 0x156 JUMPI DUP1 PUSH4 0x54D50D4 EQ PUSH2 0x1C2 JUMPI DUP1 PUSH4 0x18CBAFE5 EQ PUSH2 0x20A JUMPI DUP1 PUSH4 0x1F003483 EQ PUSH2 0x2F0 JUMPI PUSH2 0x151 JUMP JUMPDEST CALLDATASIZE PUSH2 0x151 JUMPI CALLER PUSH1 0x1 PUSH1 0x1 PUSH1 0xA0 SHL SUB PUSH32 0x0 AND EQ PUSH2 0x14F JUMPI INVALID JUMPDEST STOP JUMPDEST PUSH1 0x0 DUP1 REVERT JUMPDEST CALLVALUE DUP1 ISZERO PUSH2 0x162 JUMPI PUSH1 0x0 DUP1 REVERT JUMPDEST POP PUSH2 0x1A9 PUSH1 0x4 DUP1 CALLDATASIZE SUB PUSH1 0xC0 DUP2 LT ISZERO PUSH2 0x179 JUMPI PUSH1 0x0 DUP1 REVERT JUMPDEST POP PUSH1 0x1 PUSH1 0x1 PUSH1 0xA0 SHL SUB DUP2 CALLDATALOAD DUP2 AND SWAP2 PUSH1 0x20 DUP2 ADD CALLDATALOAD SWAP2 PUSH1 0x40 DUP3 ADD CALLDATALOAD SWAP2 PUSH1 0x60 DUP2 ADD CALLDATALOAD SWAP2 PUSH1 0x80 DUP3 ADD CALLDATALOAD AND SWAP1 PUSH1 0xA0 ADD CALLDATALOAD PUSH2 0x9B4 JUMP JUMPDEST PUSH1 0x40 DUP1 MLOAD SWAP3 DUP4 MSTORE PUSH1 0x20 DUP4 ADD SWAP2 SWAP1 SWAP2 MSTORE DUP1 MLOAD SWAP2 DUP3 SWAP1 SUB ADD SWAP1 RETURN JUMPDEST CALLVALUE DUP1 ISZERO PUSH2 0x1CE JUMPI PUSH1 0x0 DUP1 REVERT JUMPDEST POP PUSH2 0x1F8 PUSH1 0x4 DUP1 CALLDATASIZE SUB PUSH1 0x60 DUP2 LT ISZERO PUSH2 0x1E5 JUMPI PUSH1 0x0 DUP1 REVERT JUMPDEST POP DUP1 CALLDATALOAD SWAP1 PUSH1 0x20 DUP2 ADD CALLDATALOAD SWAP1 PUSH1 0x40 ADD CALLDATALOAD PUSH2 0xACE JUMP JUMPDEST PUSH1 0x40 DUP1 MLOAD SWAP2 DUP3 MSTORE MLOAD SWAP1 DUP2 SWAP1 SUB PUSH1 0x20 ADD SWAP1 RETURN JUMPDEST CALLVALUE DUP1 ISZERO PUSH2 0x216 JUMPI PUSH1 0x0 DUP1 REVERT JUMPDEST POP PUSH2 0x2A0 PUSH1 0x4 DUP1 CALLDATASIZE SUB PUSH1 0xA0 DUP2 LT ISZERO PUSH2 0x22D JUMPI PUSH1 0x0 DUP1 REVERT JUMPDEST DUP2 CALLDATALOAD SWAP2 PUSH1 0x20 DUP2 ADD CALLDATALOAD SWAP2 DUP2 ADD SWAP1 PUSH1 0x60 DUP2 ADD PUSH1 0x40 DUP3 ADD CALLDATALOAD PUSH1 0x1 PUSH1 0x20 SHL DUP2 GT ISZERO PUSH2 0x253 JUMPI PUSH1 0x0 DUP1 REVERT JUMPDEST DUP3 ADD DUP4 PUSH1 0x20 DUP3 ADD GT ISZERO PUSH2 0x265 JUMPI PUSH1 0x0 DUP1 REVERT JUMPDEST DUP1 CALLDATALOAD SWAP1 PUSH1 0x20 ADD SWAP2 DUP5 PUSH1 0x20 DUP4 MUL DUP5 ADD GT PUSH1 0x1 PUSH1 0x20 SHL DUP4 GT OR ISZERO PUSH2 0x286 JUMPI PUSH1 0x0 DUP1 REVERT JUMPDEST SWAP2 SWAP4 POP SWAP2 POP PUSH1 0x1 PUSH1 0x1 PUSH1 0xA0 SHL SUB DUP2 CALLDATALOAD AND SWAP1 PUSH1 0x20 ADD CALLDATALOAD PUSH2 0xAE3 JUMP JUMPDEST PUSH1 0x40 DUP1 MLOAD PUSH1 0x20 DUP1 DUP3 MSTORE DUP4 MLOAD DUP2 DUP4 ADD MSTORE DUP4 MLOAD SWAP2 SWAP3 DUP4 SWAP3 SWAP1 DUP4 ADD SWAP2 DUP6 DUP2 ADD SWAP2 MUL DUP1 DUP4 DUP4 PUSH1 0x0 JUMPDEST DUP4 DUP2 LT ISZERO PUSH2 0x2DC JUMPI DUP2 DUP2 ADD MLOAD DUP4 DUP3 ADD MSTORE PUSH1 0x20 ADD PUSH2 0x2C4 JUMP JUMPDEST POP POP POP POP SWAP1 POP ADD SWAP3 POP POP POP PUSH1 0x40 MLOAD DUP1 SWAP2 SUB SWAP1 RETURN JUMPDEST CALLVALUE DUP1 ISZERO PUSH2 0x2FC JUMPI PUSH1 0x0 DUP1 REVERT JUMPDEST POP PUSH2 0x305 PUSH2 0xE10 JUMP JUMPDEST PUSH1 0x40 DUP1 MLOAD PUSH1 0x1 PUSH1 0x1 PUSH1 0xA0 SHL SUB SWAP1 SWAP3 AND DUP3 MSTORE MLOAD SWAP1 DUP2 SWAP1 SUB PUSH1 0x20 ADD SWAP1 RETURN JUMPDEST CALLVALUE DUP1 ISZERO PUSH2 0x32D JUMPI PUSH1 0x0 DUP1 REVERT JUMPDEST POP PUSH2 0x2A0 PUSH1 0x4 DUP1 CALLDATASIZE SUB PUSH1 0x40 DUP2 LT ISZERO PUSH2 0x344 JUMPI PUSH1 0x0 DUP1 REVERT JUMPDEST DUP2 CALLDATALOAD SWAP2 SWAP1 DUP2 ADD SWAP1 PUSH1 0x40 DUP2 ADD PUSH1 0x20 DUP3 ADD CALLDATALOAD PUSH1 0x1 PUSH1 0x20 SHL DUP2 GT ISZERO PUSH2 0x365 JUMPI PUSH1 0x0 DUP1 REVERT JUMPDEST DUP3 ADD DUP4 PUSH1 0x20 DUP3 ADD GT ISZERO PUSH2 0x377 JUMPI PUSH1 0x0 DUP1 REVERT JUMPDEST DUP1 CALLDATALOAD SWAP1 PUSH1 0x20 ADD SWAP2 DUP5 PUSH1 0x20 DUP4 MUL DUP5 ADD GT PUSH1 0x1 PUSH1 0x20 SHL DUP4 GT OR ISZERO PUSH2 0x398 JUMPI PUSH1 0x0 DUP1 REVERT JUMPDEST SWAP2 SWAP1 DUP1 DUP1 PUSH1 0x20 MUL PUSH1 0x20 ADD PUSH1 0x40 MLOAD SWAP1 DUP2 ADD PUSH1 0x40 MSTORE DUP1 SWAP4 SWAP3 SWAP2 SWAP1 DUP2 DUP2 MSTORE PUSH1 0x20 ADD DUP4 DUP4 PUSH1 0x20 MUL DUP1 DUP3 DUP5 CALLDATACOPY PUSH1 0x0 SWAP3 ADD SWAP2 SWAP1 SWAP2 MSTORE POP SWAP3 SWAP6 POP PUSH2 0xE34 SWAP5 POP POP POP POP POP JUMP JUMPDEST CALLVALUE DUP1 ISZERO PUSH2 0x3E2 JUMPI PUSH1 0x0 DUP1 REVERT JUMPDEST POP PUSH2 0x1A9 PUSH1 0x4 DUP1 CALLDATASIZE SUB PUSH2 0x160 DUP2 LT ISZERO PUSH2 0x3FA JUMPI PUSH1 0x0 DUP1 REVERT JUMPDEST POP PUSH1 0x1 PUSH1 0x1 PUSH1 0xA0 SHL SUB DUP2 CALLDATALOAD DUP2 AND SWAP2 PUSH1 0x20 DUP2 ADD CALLDATALOAD DUP3 AND SWAP2 PUSH1 0x40 DUP3 ADD CALLDATALOAD SWAP2 PUSH1 0x60 DUP2 ADD CALLDATALOAD SWAP2 PUSH1 0x80 DUP3 ADD CALLDATALOAD SWAP2 PUSH1 0xA0 DUP2 ADD CALLDATALOAD SWAP1 SWAP2 AND SWAP1 PUSH1 0xC0 DUP2 ADD CALLDATALOAD SWAP1 PUSH1 0xE0 DUP2 ADD CALLDATALOAD ISZERO ISZERO SWAP1 PUSH1 0xFF PUSH2 0x100 DUP3 ADD CALLDATALOAD AND SWAP1 PUSH2 0x120 DUP2 ADD CALLDATALOAD SWAP1 PUSH2 0x140 ADD CALLDATALOAD PUSH2 0xE6A JUMP JUMPDEST CALLVALUE DUP1 ISZERO PUSH2 0x460 JUMPI PUSH1 0x0 DUP1 REVERT JUMPDEST POP PUSH2 0x2A0 PUSH1 0x4 DUP1 CALLDATASIZE SUB PUSH1 0xA0 DUP2 LT ISZERO PUSH2 0x477 JUMPI PUSH1 0x0 DUP1 REVERT JUMPDEST DUP2 CALLDATALOAD SWAP2 PUSH1 0x20 DUP2 ADD CALLDATALOAD SWAP2 DUP2 ADD SWAP1 PUSH1 0x60 DUP2 ADD PUSH1 0x40 DUP3 ADD CALLDATALOAD PUSH1 0x1 PUSH1 0x20 SHL DUP2 GT ISZERO PUSH2 0x49D JUMPI PUSH1 0x0 DUP1 REVERT JUMPDEST DUP3 ADD DUP4 PUSH1 0x20 DUP3 ADD GT ISZERO PUSH2 0x4AF JUMPI PUSH1 0x0 DUP1 REVERT JUMPDEST DUP1 CALLDATALOAD SWAP1 PUSH1 0x20 ADD SWAP2 DUP5 PUSH1 0x20 DUP4 MUL DUP5 ADD GT PUSH1 0x1 PUSH1 0x20 SHL DUP4 GT OR ISZERO PUSH2 0x4D0 JUMPI PUSH1 0x0 DUP1 REVERT JUMPDEST SWAP2 SWAP4 POP SWAP2 POP PUSH1 0x1 PUSH1 0x1 PUSH1 0xA0 SHL SUB DUP2 CALLDATALOAD AND SWAP1 PUSH1 0x20 ADD CALLDATALOAD PUSH2 0xF64 JUMP JUMPDEST CALLVALUE DUP1 ISZERO PUSH2 0x4F6 JUMPI PUSH1 0x0 DUP1 REVERT JUMPDEST POP PUSH2 0x2A0 PUSH1 0x4 DUP1 CALLDATASIZE SUB PUSH1 0xA0 DUP2 LT ISZERO PUSH2 0x50D JUMPI PUSH1 0x0 DUP1 REVERT JUMPDEST DUP2 CALLDATALOAD SWAP2 PUSH1 0x20 DUP2 ADD CALLDATALOAD SWAP2 DUP2 ADD SWAP1 PUSH1 0x60 DUP2 ADD PUSH1 0x40 DUP3 ADD CALLDATALOAD PUSH1 0x1 PUSH1 0x20 SHL DUP2 GT ISZERO PUSH2 0x533 JUMPI PUSH1 0x0 DUP1 REVERT JUMPDEST DUP3 ADD DUP4 PUSH1 0x20 DUP3 ADD GT ISZERO PUSH2 0x545 JUMPI PUSH1 0x0 DUP1 REVERT JUMPDEST DUP1 CALLDATALOAD SWAP1 PUSH1 0x20 ADD SWAP2 DUP5 PUSH1 0x20 DUP4 MUL DUP5 ADD GT PUSH1 0x1 PUSH1 0x20 SHL DUP4 GT OR ISZERO PUSH2 0x566 JUMPI PUSH1 0x0 DUP1 REVERT JUMPDEST SWAP2 SWAP4 POP SWAP2 POP PUSH1 0x1 PUSH1 0x1 PUSH1 0xA0 SHL SUB DUP2 CALLDATALOAD AND SWAP1 PUSH1 0x20 ADD CALLDATALOAD PUSH2 0x10AF JUMP JUMPDEST PUSH2 0x2A0 PUSH1 0x4 DUP1 CALLDATASIZE SUB PUSH1 0x80 DUP2 LT ISZERO PUSH2 0x596 JUMPI PUSH1 0x0 DUP1 REVERT JUMPDEST DUP2 CALLDATALOAD SWAP2 SWAP1 DUP2 ADD SWAP1 PUSH1 0x40 DUP2 ADD PUSH1 0x20 DUP3 ADD CALLDATALOAD PUSH1 0x1 PUSH1 0x20 SHL DUP2 GT ISZERO PUSH2 0x5B7 JUMPI PUSH1 0x0 DUP1 REVERT JUMPDEST DUP3 ADD DUP4 PUSH1 0x20 DUP3 ADD GT ISZERO PUSH2 0x5C9 JUMPI PUSH1 0x0 DUP1 REVERT JUMPDEST DUP1 CALLDATALOAD SWAP1 PUSH1 0x20 ADD SWAP2 DUP5 PUSH1 0x20 DUP4 MUL DUP5 ADD GT PUSH1 0x1 PUSH1 0x20 SHL DUP4 GT OR ISZERO PUSH2 0x5EA JUMPI PUSH1 0x0 DUP1 REVERT JUMPDEST SWAP2 SWAP4 POP SWAP2 POP PUSH1 0x1 PUSH1 0x1 PUSH1 0xA0 SHL SUB DUP2 CALLDATALOAD AND SWAP1 PUSH1 0x20 ADD CALLDATALOAD PUSH2 0x123B JUMP JUMPDEST CALLVALUE DUP1 ISZERO PUSH2 0x610 JUMPI PUSH1 0x0 DUP1 REVERT JUMPDEST POP PUSH2 0x2A0 PUSH1 0x4 DUP1 CALLDATASIZE SUB PUSH1 0xA0 DUP2 LT ISZERO PUSH2 0x627 JUMPI PUSH1 0x0 DUP1 REVERT JUMPDEST DUP2 CALLDATALOAD SWAP2 PUSH1 0x20 DUP2 ADD CALLDATALOAD SWAP2 DUP2 ADD SWAP1 PUSH1 0x60 DUP2 ADD PUSH1 0x40 DUP3 ADD CALLDATALOAD PUSH1 0x1 PUSH1 0x20 SHL DUP2 GT ISZERO PUSH2 0x64D JUMPI PUSH1 0x0 DUP1 REVERT JUMPDEST DUP3 ADD DUP4 PUSH1 0x20 DUP3 ADD GT ISZERO PUSH2 0x65F JUMPI PUSH1 0x0 DUP1 REVERT JUMPDEST DUP1 CALLDATALOAD SWAP1 PUSH1 0x20 ADD SWAP2 DUP5 PUSH1 0x20 DUP4 MUL DUP5 ADD GT PUSH1 0x1 PUSH1 0x20 SHL DUP4 GT OR ISZERO PUSH2 0x680 JUMPI PUSH1 0x0 DUP1 REVERT JUMPDEST SWAP2 SWAP4 POP SWAP2 POP PUSH1 0x1 PUSH1 0x1 PUSH1 0xA0 SHL SUB DUP2 CALLDATALOAD AND SWAP1 PUSH1 0x20 ADD CALLDATALOAD PUSH2 0x15AB JUMP JUMPDEST CALLVALUE DUP1 ISZERO PUSH2 0x6A6 JUMPI PUSH1 0x0 DUP1 REVERT JUMPDEST POP PUSH2 0x1F8 PUSH1 0x4 DUP1 CALLDATASIZE SUB PUSH1 0x60 DUP2 LT ISZERO PUSH2 0x6BD JUMPI PUSH1 0x0 DUP1 REVERT JUMPDEST POP DUP1 CALLDATALOAD SWAP1 PUSH1 0x20 DUP2 ADD CALLDATALOAD SWAP1 PUSH1 0x40 ADD CALLDATALOAD PUSH2 0x16A4 JUMP JUMPDEST CALLVALUE DUP1 ISZERO PUSH2 0x6DC JUMPI PUSH1 0x0 DUP1 REVERT JUMPDEST POP PUSH2 0x1A9 PUSH1 0x4 DUP1 CALLDATASIZE SUB PUSH1 0xE0 DUP2 LT ISZERO PUSH2 0x6F3 JUMPI PUSH1 0x0 DUP1 REVERT JUMPDEST POP PUSH1 0x1 PUSH1 0x1 PUSH1 0xA0 SHL SUB DUP2 CALLDATALOAD DUP2 AND SWAP2 PUSH1 0x20 DUP2 ADD CALLDATALOAD DUP3 AND SWAP2 PUSH1 0x40 DUP3 ADD CALLDATALOAD SWAP2 PUSH1 0x60 DUP2 ADD CALLDATALOAD SWAP2 PUSH1 0x80 DUP3 ADD CALLDATALOAD SWAP2 PUSH1 0xA0 DUP2 ADD CALLDATALOAD SWAP1 SWAP2 AND SWAP1 PUSH1 0xC0 ADD CALLDATALOAD PUSH2 0x16B1 JUMP JUMPDEST CALLVALUE DUP1 ISZERO PUSH2 0x739 JUMPI PUSH1 0x0 DUP1 REVERT JUMPDEST POP PUSH2 0x305 PUSH2 0x18F5 JUMP JUMPDEST CALLVALUE DUP1 ISZERO PUSH2 0x74E JUMPI PUSH1 0x0 DUP1 REVERT JUMPDEST POP PUSH2 0x2A0 PUSH1 0x4 DUP1 CALLDATASIZE SUB PUSH1 0x40 DUP2 LT ISZERO PUSH2 0x765 JUMPI PUSH1 0x0 DUP1 REVERT JUMPDEST DUP2 CALLDATALOAD SWAP2 SWAP1 DUP2 ADD SWAP1 PUSH1 0x40 DUP2 ADD PUSH1 0x20 DUP3 ADD CALLDATALOAD PUSH1 0x1 PUSH1 0x20 SHL DUP2 GT ISZERO PUSH2 0x786 JUMPI PUSH1 0x0 DUP1 REVERT JUMPDEST DUP3 ADD DUP4 PUSH1 0x20 DUP3 ADD GT ISZERO PUSH2 0x798 JUMPI PUSH1 0x0 DUP1 REVERT JUMPDEST DUP1 CALLDATALOAD SWAP1 PUSH1 0x20 ADD SWAP2 DUP5 PUSH1 0x20 DUP4 MUL DUP5 ADD GT PUSH1 0x1 PUSH1 0x20 SHL DUP4 GT OR ISZERO PUSH2 0x7B9 JUMPI PUSH1 0x0 DUP1 REVERT JUMPDEST SWAP2 SWAP1 DUP1 DUP1 PUSH1 0x20 MUL PUSH1 0x20 ADD PUSH1 0x40 MLOAD SWAP1 DUP2 ADD PUSH1 0x40 MSTORE DUP1 SWAP4 SWAP3 SWAP2 SWAP1 DUP2 DUP2 MSTORE PUSH1 0x20 ADD DUP4 DUP4 PUSH1 0x20 MUL DUP1 DUP3 DUP5 CALLDATACOPY PUSH1 0x0 SWAP3 ADD SWAP2 SWAP1 SWAP2 MSTORE POP SWAP3 SWAP6 POP PUSH2 0x1919 SWAP5 POP POP POP POP POP JUMP JUMPDEST CALLVALUE DUP1 ISZERO PUSH2 0x803 JUMPI PUSH1 0x0 DUP1 REVERT JUMPDEST POP PUSH2 0x1A9 PUSH1 0x4 DUP1 CALLDATASIZE SUB PUSH2 0x140 DUP2 LT ISZERO PUSH2 0x81B JUMPI PUSH1 0x0 DUP1 REVERT JUMPDEST POP PUSH1 0x1 PUSH1 0x1 PUSH1 0xA0 SHL SUB DUP2 CALLDATALOAD DUP2 AND SWAP2 PUSH1 0x20 DUP2 ADD CALLDATALOAD SWAP2 PUSH1 0x40 DUP3 ADD CALLDATALOAD SWAP2 PUSH1 0x60 DUP2 ADD CALLDATALOAD SWAP2 PUSH1 0x80 DUP3 ADD CALLDATALOAD AND SWAP1 PUSH1 0xA0 DUP2 ADD CALLDATALOAD SWAP1 PUSH1 0xC0 DUP2 ADD CALLDATALOAD ISZERO ISZERO SWAP1 PUSH1 0xFF PUSH1 0xE0 DUP3 ADD CALLDATALOAD AND SWAP1 PUSH2 0x100 DUP2 ADD CALLDATALOAD SWAP1 PUSH2 0x120 ADD CALLDATALOAD PUSH2 0x1946 JUMP JUMPDEST CALLVALUE DUP1 ISZERO PUSH2 0x876 JUMPI PUSH1 0x0 DUP1 REVERT JUMPDEST POP PUSH2 0x8CC PUSH1 0x4 DUP1 CALLDATASIZE SUB PUSH2 0x100 DUP2 LT ISZERO PUSH2 0x88E JUMPI PUSH1 0x0 DUP1 REVERT JUMPDEST POP PUSH1 0x1 PUSH1 0x1 PUSH1 0xA0 SHL SUB DUP2 CALLDATALOAD DUP2 AND SWAP2 PUSH1 0x20 DUP2 ADD CALLDATALOAD DUP3 AND SWAP2 PUSH1 0x40 DUP3 ADD CALLDATALOAD SWAP2 PUSH1 0x60 DUP2 ADD CALLDATALOAD SWAP2 PUSH1 0x80 DUP3 ADD CALLDATALOAD SWAP2 PUSH1 0xA0 DUP2 ADD CALLDATALOAD SWAP2 PUSH1 0xC0 DUP3 ADD CALLDATALOAD AND SWAP1 PUSH1 0xE0 ADD CALLDATALOAD PUSH2 0x1A5A JUMP JUMPDEST PUSH1 0x40 DUP1 MLOAD SWAP4 DUP5 MSTORE PUSH1 0x20 DUP5 ADD SWAP3 SWAP1 SWAP3 MSTORE DUP3 DUP3 ADD MSTORE MLOAD SWAP1 DUP2 SWAP1 SUB PUSH1 0x60 ADD SWAP1 RETURN JUMPDEST PUSH2 0x8CC PUSH1 0x4 DUP1 CALLDATASIZE SUB PUSH1 0xC0 DUP2 LT ISZERO PUSH2 0x900 JUMPI PUSH1 0x0 DUP1 REVERT JUMPDEST POP PUSH1 0x1 PUSH1 0x1 PUSH1 0xA0 SHL SUB DUP2 CALLDATALOAD DUP2 AND SWAP2 PUSH1 0x20 DUP2 ADD CALLDATALOAD SWAP2 PUSH1 0x40 DUP3 ADD CALLDATALOAD SWAP2 PUSH1 0x60 DUP2 ADD CALLDATALOAD SWAP2 PUSH1 0x80 DUP3 ADD CALLDATALOAD AND SWAP1 PUSH1 0xA0 ADD CALLDATALOAD PUSH2 0x1B96 JUMP JUMPDEST PUSH2 0x2A0 PUSH1 0x4 DUP1 CALLDATASIZE SUB PUSH1 0x80 DUP2 LT ISZERO PUSH2 0x946 JUMPI PUSH1 0x0 DUP1 REVERT JUMPDEST DUP2 CALLDATALOAD SWAP2 SWAP1 DUP2 ADD SWAP1 PUSH1 0x40 DUP2 ADD PUSH1 0x20 DUP3 ADD CALLDATALOAD PUSH1 0x1 PUSH1 0x20 SHL DUP2 GT ISZERO PUSH2 0x967 JUMPI PUSH1 0x0 DUP1 REVERT JUMPDEST DUP3 ADD DUP4 PUSH1 0x20 DUP3 ADD GT ISZERO PUSH2 0x979 JUMPI PUSH1 0x0 DUP1 REVERT JUMPDEST DUP1 CALLDATALOAD SWAP1 PUSH1 0x20 ADD SWAP2 DUP5 PUSH1 0x20 DUP4 MUL DUP5 ADD GT PUSH1 0x1 PUSH1 0x20 SHL DUP4 GT OR ISZERO PUSH2 0x99A JUMPI PUSH1 0x0 DUP1 REVERT JUMPDEST SWAP2 SWAP4 POP SWAP2 POP PUSH1 0x1 PUSH1 0x1 PUSH1 0xA0 SHL SUB DUP2 CALLDATALOAD AND SWAP1 PUSH1 0x20 ADD CALLDATALOAD PUSH2 0x1E3B JUMP JUMPDEST PUSH1 0x0 DUP1 DUP3 TIMESTAMP DUP2 LT ISZERO PUSH2 0x9FB JUMPI PUSH1 0x40 DUP1 MLOAD PUSH3 0x461BCD PUSH1 0xE5 SHL DUP2 MSTORE PUSH1 0x20 PUSH1 0x4 DUP3 ADD MSTORE PUSH1 0x18 PUSH1 0x24 DUP3 ADD MSTORE PUSH1 0x0 DUP1 MLOAD PUSH1 0x20 PUSH2 0x3490 DUP4 CODECOPY DUP2 MLOAD SWAP2 MSTORE PUSH1 0x44 DUP3 ADD MSTORE SWAP1 MLOAD SWAP1 DUP2 SWAP1 SUB PUSH1 0x64 ADD SWAP1 REVERT JUMPDEST PUSH2 0xA2A DUP10 PUSH32 0x0 DUP11 DUP11 DUP11 ADDRESS DUP11 PUSH2 0x16B1 JUMP JUMPDEST SWAP1 SWAP4 POP SWAP2 POP PUSH2 0xA3A DUP10 DUP7 DUP6 PUSH2 0x21BD JUMP JUMPDEST PUSH32 0x0 PUSH1 0x1 PUSH1 0x1 PUSH1 0xA0 SHL SUB AND PUSH4 0x2E1A7D4D DUP4 PUSH1 0x40 MLOAD DUP3 PUSH4 0xFFFFFFFF AND PUSH1 0xE0 SHL DUP2 MSTORE PUSH1 0x4 ADD DUP1 DUP3 DUP2 MSTORE PUSH1 0x20 ADD SWAP2 POP POP PUSH1 0x0 PUSH1 0x40 MLOAD DUP1 DUP4 SUB DUP2 PUSH1 0x0 DUP8 DUP1 EXTCODESIZE ISZERO DUP1 ISZERO PUSH2 0xAA0 JUMPI PUSH1 0x0 DUP1 REVERT JUMPDEST POP GAS CALL ISZERO DUP1 ISZERO PUSH2 0xAB4 JUMPI RETURNDATASIZE PUSH1 0x0 DUP1 RETURNDATACOPY RETURNDATASIZE PUSH1 0x0 REVERT JUMPDEST POP POP POP POP PUSH2 0xAC2 DUP6 DUP4 PUSH2 0x2311 JUMP JUMPDEST POP SWAP7 POP SWAP7 SWAP5 POP POP POP POP POP JUMP JUMPDEST PUSH1 0x0 PUSH2 0xADB DUP5 DUP5 DUP5 PUSH2 0x2409 JUMP JUMPDEST SWAP5 SWAP4 POP POP POP POP JUMP JUMPDEST PUSH1 0x60 DUP2 TIMESTAMP DUP2 LT ISZERO PUSH2 0xB29 JUMPI PUSH1 0x40 DUP1 MLOAD PUSH3 0x461BCD PUSH1 0xE5 SHL DUP2 MSTORE PUSH1 0x20 PUSH1 0x4 DUP3 ADD MSTORE PUSH1 0x18 PUSH1 0x24 DUP3 ADD MSTORE PUSH1 0x0 DUP1 MLOAD PUSH1 0x20 PUSH2 0x3490 DUP4 CODECOPY DUP2 MLOAD SWAP2 MSTORE PUSH1 0x44 DUP3 ADD MSTORE SWAP1 MLOAD SWAP1 DUP2 SWAP1 SUB PUSH1 0x64 ADD SWAP1 REVERT JUMPDEST PUSH1 0x1 PUSH1 0x1 PUSH1 0xA0 SHL SUB PUSH32 0x0 AND DUP7 DUP7 PUSH1 0x0 NOT DUP2 ADD DUP2 DUP2 LT PUSH2 0xB63 JUMPI INVALID JUMPDEST SWAP1 POP PUSH1 0x20 MUL ADD CALLDATALOAD PUSH1 0x1 PUSH1 0x1 PUSH1 0xA0 SHL SUB AND PUSH1 0x1 PUSH1 0x1 PUSH1 0xA0 SHL SUB AND EQ PUSH2 0xBBC JUMPI PUSH1 0x40 DUP1 MLOAD PUSH3 0x461BCD PUSH1 0xE5 SHL DUP2 MSTORE PUSH1 0x20 PUSH1 0x4 DUP3 ADD MSTORE PUSH1 0x1D PUSH1 0x24 DUP3 ADD MSTORE PUSH1 0x0 DUP1 MLOAD PUSH1 0x20 PUSH2 0x3470 DUP4 CODECOPY DUP2 MLOAD SWAP2 MSTORE PUSH1 0x44 DUP3 ADD MSTORE SWAP1 MLOAD SWAP1 DUP2 SWAP1 SUB PUSH1 0x64 ADD SWAP1 REVERT JUMPDEST PUSH2 0xC1A PUSH32 0x0 DUP10 DUP9 DUP9 DUP1 DUP1 PUSH1 0x20 MUL PUSH1 0x20 ADD PUSH1 0x40 MLOAD SWAP1 DUP2 ADD PUSH1 0x40 MSTORE DUP1 SWAP4 SWAP3 SWAP2 SWAP1 DUP2 DUP2 MSTORE PUSH1 0x20 ADD DUP4 DUP4 PUSH1 0x20 MUL DUP1 DUP3 DUP5 CALLDATACOPY PUSH1 0x0 SWAP3 ADD SWAP2 SWAP1 SWAP2 MSTORE POP PUSH2 0x24F9 SWAP3 POP POP POP JUMP JUMPDEST SWAP2 POP DUP7 DUP3 PUSH1 0x1 DUP5 MLOAD SUB DUP2 MLOAD DUP2 LT PUSH2 0xC2D JUMPI INVALID JUMPDEST PUSH1 0x20 MUL PUSH1 0x20 ADD ADD MLOAD LT ISZERO PUSH2 0xC72 JUMPI PUSH1 0x40 MLOAD PUSH3 0x461BCD PUSH1 0xE5 SHL DUP2 MSTORE PUSH1 0x4 ADD DUP1 DUP1 PUSH1 0x20 ADD DUP3 DUP2 SUB DUP3 MSTORE PUSH1 0x2B DUP2 MSTORE PUSH1 0x20 ADD DUP1 PUSH2 0x3418 PUSH1 0x2B SWAP2 CODECOPY PUSH1 0x40 ADD SWAP2 POP POP PUSH1 0x40 MLOAD DUP1 SWAP2 SUB SWAP1 REVERT JUMPDEST PUSH2 0xD10 DUP7 DUP7 PUSH1 0x0 DUP2 DUP2 LT PUSH2 0xC82 JUMPI INVALID JUMPDEST SWAP1 POP PUSH1 0x20 MUL ADD CALLDATALOAD PUSH1 0x1 PUSH1 0x1 PUSH1 0xA0 SHL SUB AND CALLER PUSH2 0xCF6 PUSH32 0x0 DUP11 DUP11 PUSH1 0x0 DUP2 DUP2 LT PUSH2 0xCC4 JUMPI INVALID JUMPDEST SWAP1 POP PUSH1 0x20 MUL ADD CALLDATALOAD PUSH1 0x1 PUSH1 0x1 PUSH1 0xA0 SHL SUB AND DUP12 DUP12 PUSH1 0x1 DUP2 DUP2 LT PUSH2 0xCE1 JUMPI INVALID JUMPDEST SWAP1 POP PUSH1 0x20 MUL ADD CALLDATALOAD PUSH1 0x1 PUSH1 0x1 PUSH1 0xA0 SHL SUB AND PUSH2 0x2645 JUMP JUMPDEST DUP6 PUSH1 0x0 DUP2 MLOAD DUP2 LT PUSH2 0xD03 JUMPI INVALID JUMPDEST PUSH1 0x20 MUL PUSH1 0x20 ADD ADD MLOAD PUSH2 0x2705 JUMP JUMPDEST PUSH2 0xD4F DUP3 DUP8 DUP8 DUP1 DUP1 PUSH1 0x20 MUL PUSH1 0x20 ADD PUSH1 0x40 MLOAD SWAP1 DUP2 ADD PUSH1 0x40 MSTORE DUP1 SWAP4 SWAP3 SWAP2 SWAP1 DUP2 DUP2 MSTORE PUSH1 0x20 ADD DUP4 DUP4 PUSH1 0x20 MUL DUP1 DUP3 DUP5 CALLDATACOPY PUSH1 0x0 SWAP3 ADD SWAP2 SWAP1 SWAP2 MSTORE POP ADDRESS SWAP3 POP PUSH2 0x2862 SWAP2 POP POP JUMP JUMPDEST PUSH32 0x0 PUSH1 0x1 PUSH1 0x1 PUSH1 0xA0 SHL SUB AND PUSH4 0x2E1A7D4D DUP4 PUSH1 0x1 DUP6 MLOAD SUB DUP2 MLOAD DUP2 LT PUSH2 0xD8E JUMPI INVALID JUMPDEST PUSH1 0x20 MUL PUSH1 0x20 ADD ADD MLOAD PUSH1 0x40 MLOAD DUP3 PUSH4 0xFFFFFFFF AND PUSH1 0xE0 SHL DUP2 MSTORE PUSH1 0x4 ADD DUP1 DUP3 DUP2 MSTORE PUSH1 0x20 ADD SWAP2 POP POP PUSH1 0x0 PUSH1 0x40 MLOAD DUP1 DUP4 SUB DUP2 PUSH1 0x0 DUP8 DUP1 EXTCODESIZE ISZERO DUP1 ISZERO PUSH2 0xDCC JUMPI PUSH1 0x0 DUP1 REVERT JUMPDEST POP GAS CALL ISZERO DUP1 ISZERO PUSH2 0xDE0 JUMPI RETURNDATASIZE PUSH1 0x0 DUP1 RETURNDATACOPY RETURNDATASIZE PUSH1 0x0 REVERT JUMPDEST POP POP POP POP PUSH2 0xE05 DUP5 DUP4 PUSH1 0x1 DUP6 MLOAD SUB DUP2 MLOAD DUP2 LT PUSH2 0xDF8 JUMPI INVALID JUMPDEST PUSH1 0x20 MUL PUSH1 0x20 ADD ADD MLOAD PUSH2 0x2311 JUMP JUMPDEST POP SWAP7 SWAP6 POP POP POP POP POP POP JUMP JUMPDEST PUSH32 0x0 DUP2 JUMP JUMPDEST PUSH1 0x60 PUSH2 0xE61 PUSH32 0x0 DUP5 DUP5 PUSH2 0x2AA8 JUMP JUMPDEST SWAP1 POP JUMPDEST SWAP3 SWAP2 POP POP JUMP JUMPDEST PUSH1 0x0 DUP1 PUSH1 0x0 PUSH2 0xE9A PUSH32 0x0 DUP16 DUP16 PUSH2 0x2645 JUMP JUMPDEST SWAP1 POP PUSH1 0x0 DUP8 PUSH2 0xEA9 JUMPI DUP13 PUSH2 0xEAD JUMP JUMPDEST PUSH1 0x0 NOT JUMPDEST PUSH1 0x40 DUP1 MLOAD PUSH4 0xD505ACCF PUSH1 0xE0 SHL DUP2 MSTORE CALLER PUSH1 0x4 DUP3 ADD MSTORE ADDRESS PUSH1 0x24 DUP3 ADD MSTORE PUSH1 0x44 DUP2 ADD DUP4 SWAP1 MSTORE PUSH1 0x64 DUP2 ADD DUP13 SWAP1 MSTORE PUSH1 0xFF DUP11 AND PUSH1 0x84 DUP3 ADD MSTORE PUSH1 0xA4 DUP2 ADD DUP10 SWAP1 MSTORE PUSH1 0xC4 DUP2 ADD DUP9 SWAP1 MSTORE SWAP1 MLOAD SWAP2 SWAP3 POP PUSH1 0x1 PUSH1 0x1 PUSH1 0xA0 SHL SUB DUP5 AND SWAP2 PUSH4 0xD505ACCF SWAP2 PUSH1 0xE4 DUP1 DUP3 ADD SWAP3 PUSH1 0x0 SWAP3 SWAP1 SWAP2 SWAP1 DUP3 SWAP1 SUB ADD DUP2 DUP4 DUP8 DUP1 EXTCODESIZE ISZERO DUP1 ISZERO PUSH2 0xF23 JUMPI PUSH1 0x0 DUP1 REVERT JUMPDEST POP GAS CALL ISZERO DUP1 ISZERO PUSH2 0xF37 JUMPI RETURNDATASIZE PUSH1 0x0 DUP1 RETURNDATACOPY RETURNDATASIZE PUSH1 0x0 REVERT JUMPDEST POP POP POP POP PUSH2 0xF4A DUP16 DUP16 DUP16 DUP16 DUP16 DUP16 DUP16 PUSH2 0x16B1 JUMP JUMPDEST DUP1 SWAP5 POP DUP2 SWAP6 POP POP POP POP POP SWAP12 POP SWAP12 SWAP10 POP POP POP POP POP POP POP POP POP POP JUMP JUMPDEST PUSH1 0x60 DUP2 TIMESTAMP DUP2 LT ISZERO PUSH2 0xFAA JUMPI PUSH1 0x40 DUP1 MLOAD PUSH3 0x461BCD PUSH1 0xE5 SHL DUP2 MSTORE PUSH1 0x20 PUSH1 0x4 DUP3 ADD MSTORE PUSH1 0x18 PUSH1 0x24 DUP3 ADD MSTORE PUSH1 0x0 DUP1 MLOAD PUSH1 0x20 PUSH2 0x3490 DUP4 CODECOPY DUP2 MLOAD SWAP2 MSTORE PUSH1 0x44 DUP3 ADD MSTORE SWAP1 MLOAD SWAP1 DUP2 SWAP1 SUB PUSH1 0x64 ADD SWAP1 REVERT JUMPDEST PUSH2 0x1008 PUSH32 0x0 DUP10 DUP9 DUP9 DUP1 DUP1 PUSH1 0x20 MUL PUSH1 0x20 ADD PUSH1 0x40 MLOAD SWAP1 DUP2 ADD PUSH1 0x40 MSTORE DUP1 SWAP4 SWAP3 SWAP2 SWAP1 DUP2 DUP2 MSTORE PUSH1 0x20 ADD DUP4 DUP4 PUSH1 0x20 MUL DUP1 DUP3 DUP5 CALLDATACOPY PUSH1 0x0 SWAP3 ADD SWAP2 SWAP1 SWAP2 MSTORE POP PUSH2 0x24F9 SWAP3 POP POP POP JUMP JUMPDEST SWAP2 POP DUP7 DUP3 PUSH1 0x1 DUP5 MLOAD SUB DUP2 MLOAD DUP2 LT PUSH2 0x101B JUMPI INVALID JUMPDEST PUSH1 0x20 MUL PUSH1 0x20 ADD ADD MLOAD LT ISZERO PUSH2 0x1060 JUMPI PUSH1 0x40 MLOAD PUSH3 0x461BCD PUSH1 0xE5 SHL DUP2 MSTORE PUSH1 0x4 ADD DUP1 DUP1 PUSH1 0x20 ADD DUP3 DUP2 SUB DUP3 MSTORE PUSH1 0x2B DUP2 MSTORE PUSH1 0x20 ADD DUP1 PUSH2 0x3418 PUSH1 0x2B SWAP2 CODECOPY PUSH1 0x40 ADD SWAP2 POP POP PUSH1 0x40 MLOAD DUP1 SWAP2 SUB SWAP1 REVERT JUMPDEST PUSH2 0x1070 DUP7 DUP7 PUSH1 0x0 DUP2 DUP2 LT PUSH2 0xC82 JUMPI INVALID JUMPDEST PUSH2 0xE05 DUP3 DUP8 DUP8 DUP1 DUP1 PUSH1 0x20 MUL PUSH1 0x20 ADD PUSH1 0x40 MLOAD SWAP1 DUP2 ADD PUSH1 0x40 MSTORE DUP1 SWAP4 SWAP3 SWAP2 SWAP1 DUP2 DUP2 MSTORE PUSH1 0x20 ADD DUP4 DUP4 PUSH1 0x20 MUL DUP1 DUP3 DUP5 CALLDATACOPY PUSH1 0x0 SWAP3 ADD SWAP2 SWAP1 SWAP2 MSTORE POP DUP10 SWAP3 POP PUSH2 0x2862 SWAP2 POP POP JUMP JUMPDEST PUSH1 0x60 DUP2 TIMESTAMP DUP2 LT ISZERO PUSH2 0x10F5 JUMPI PUSH1 0x40 DUP1 MLOAD PUSH3 0x461BCD PUSH1 0xE5 SHL DUP2 MSTORE PUSH1 0x20 PUSH1 0x4 DUP3 ADD MSTORE PUSH1 0x18 PUSH1 0x24 DUP3 ADD MSTORE PUSH1 0x0 DUP1 MLOAD PUSH1 0x20 PUSH2 0x3490 DUP4 CODECOPY DUP2 MLOAD SWAP2 MSTORE PUSH1 0x44 DUP3 ADD MSTORE SWAP1 MLOAD SWAP1 DUP2 SWAP1 SUB PUSH1 0x64 ADD SWAP1 REVERT JUMPDEST PUSH1 0x1 PUSH1 0x1 PUSH1 0xA0 SHL SUB PUSH32 0x0 AND DUP7 DUP7 PUSH1 0x0 NOT DUP2 ADD DUP2 DUP2 LT PUSH2 0x112F JUMPI INVALID JUMPDEST SWAP1 POP PUSH1 0x20 MUL ADD CALLDATALOAD PUSH1 0x1 PUSH1 0x1 PUSH1 0xA0 SHL SUB AND PUSH1 0x1 PUSH1 0x1 PUSH1 0xA0 SHL SUB AND EQ PUSH2 0x1188 JUMPI PUSH1 0x40 DUP1 MLOAD PUSH3 0x461BCD PUSH1 0xE5 SHL DUP2 MSTORE PUSH1 0x20 PUSH1 0x4 DUP3 ADD MSTORE PUSH1 0x1D PUSH1 0x24 DUP3 ADD MSTORE PUSH1 0x0 DUP1 MLOAD PUSH1 0x20 PUSH2 0x3470 DUP4 CODECOPY DUP2 MLOAD SWAP2 MSTORE PUSH1 0x44 DUP3 ADD MSTORE SWAP1 MLOAD SWAP1 DUP2 SWAP1 SUB PUSH1 0x64 ADD SWAP1 REVERT JUMPDEST PUSH2 0x11E6 PUSH32 0x0 DUP10 DUP9 DUP9 DUP1 DUP1 PUSH1 0x20 MUL PUSH1 0x20 ADD PUSH1 0x40 MLOAD SWAP1 DUP2 ADD PUSH1 0x40 MSTORE DUP1 SWAP4 SWAP3 SWAP2 SWAP1 DUP2 DUP2 MSTORE PUSH1 0x20 ADD DUP4 DUP4 PUSH1 0x20 MUL DUP1 DUP3 DUP5 CALLDATACOPY PUSH1 0x0 SWAP3 ADD SWAP2 SWAP1 SWAP2 MSTORE POP PUSH2 0x2AA8 SWAP3 POP POP POP JUMP JUMPDEST SWAP2 POP DUP7 DUP3 PUSH1 0x0 DUP2 MLOAD DUP2 LT PUSH2 0x11F6 JUMPI INVALID JUMPDEST PUSH1 0x20 MUL PUSH1 0x20 ADD ADD MLOAD GT ISZERO PUSH2 0xC72 JUMPI PUSH1 0x40 MLOAD PUSH3 0x461BCD PUSH1 0xE5 SHL DUP2 MSTORE PUSH1 0x4 ADD DUP1 DUP1 PUSH1 0x20 ADD DUP3 DUP2 SUB DUP3 MSTORE PUSH1 0x27 DUP2 MSTORE PUSH1 0x20 ADD DUP1 PUSH2 0x337B PUSH1 0x27 SWAP2 CODECOPY PUSH1 0x40 ADD SWAP2 POP POP PUSH1 0x40 MLOAD DUP1 SWAP2 SUB SWAP1 REVERT JUMPDEST PUSH1 0x60 DUP2 TIMESTAMP DUP2 LT ISZERO PUSH2 0x1281 JUMPI PUSH1 0x40 DUP1 MLOAD PUSH3 0x461BCD PUSH1 0xE5 SHL DUP2 MSTORE PUSH1 0x20 PUSH1 0x4 DUP3 ADD MSTORE PUSH1 0x18 PUSH1 0x24 DUP3 ADD MSTORE PUSH1 0x0 DUP1 MLOAD PUSH1 0x20 PUSH2 0x3490 DUP4 CODECOPY DUP2 MLOAD SWAP2 MSTORE PUSH1 0x44 DUP3 ADD MSTORE SWAP1 MLOAD SWAP1 DUP2 SWAP1 SUB PUSH1 0x64 ADD SWAP1 REVERT JUMPDEST PUSH32 0x0 PUSH1 0x1 PUSH1 0x1 PUSH1 0xA0 SHL SUB AND DUP7 DUP7 PUSH1 0x0 DUP2 DUP2 LT PUSH2 0x12B8 JUMPI INVALID JUMPDEST SWAP1 POP PUSH1 0x20 MUL ADD CALLDATALOAD PUSH1 0x1 PUSH1 0x1 PUSH1 0xA0 SHL SUB AND PUSH1 0x1 PUSH1 0x1 PUSH1 0xA0 SHL SUB AND EQ PUSH2 0x1311 JUMPI PUSH1 0x40 DUP1 MLOAD PUSH3 0x461BCD PUSH1 0xE5 SHL DUP2 MSTORE PUSH1 0x20 PUSH1 0x4 DUP3 ADD MSTORE PUSH1 0x1D PUSH1 0x24 DUP3 ADD MSTORE PUSH1 0x0 DUP1 MLOAD PUSH1 0x20 PUSH2 0x3470 DUP4 CODECOPY DUP2 MLOAD SWAP2 MSTORE PUSH1 0x44 DUP3 ADD MSTORE SWAP1 MLOAD SWAP1 DUP2 SWAP1 SUB PUSH1 0x64 ADD SWAP1 REVERT JUMPDEST PUSH2 0x136F PUSH32 0x0 CALLVALUE DUP9 DUP9 DUP1 DUP1 PUSH1 0x20 MUL PUSH1 0x20 ADD PUSH1 0x40 MLOAD SWAP1 DUP2 ADD PUSH1 0x40 MSTORE DUP1 SWAP4 SWAP3 SWAP2 SWAP1 DUP2 DUP2 MSTORE PUSH1 0x20 ADD DUP4 DUP4 PUSH1 0x20 MUL DUP1 DUP3 DUP5 CALLDATACOPY PUSH1 0x0 SWAP3 ADD SWAP2 SWAP1 SWAP2 MSTORE POP PUSH2 0x24F9 SWAP3 POP POP POP JUMP JUMPDEST SWAP2 POP DUP7 DUP3 PUSH1 0x1 DUP5 MLOAD SUB DUP2 MLOAD DUP2 LT PUSH2 0x1382 JUMPI INVALID JUMPDEST PUSH1 0x20 MUL PUSH1 0x20 ADD ADD MLOAD LT ISZERO PUSH2 0x13C7 JUMPI PUSH1 0x40 MLOAD PUSH3 0x461BCD PUSH1 0xE5 SHL DUP2 MSTORE PUSH1 0x4 ADD DUP1 DUP1 PUSH1 0x20 ADD DUP3 DUP2 SUB DUP3 MSTORE PUSH1 0x2B DUP2 MSTORE PUSH1 0x20 ADD DUP1 PUSH2 0x3418 PUSH1 0x2B SWAP2 CODECOPY PUSH1 0x40 ADD SWAP2 POP POP PUSH1 0x40 MLOAD DUP1 SWAP2 SUB SWAP1 REVERT JUMPDEST PUSH32 0x0 PUSH1 0x1 PUSH1 0x1 PUSH1 0xA0 SHL SUB AND PUSH4 0xD0E30DB0 DUP4 PUSH1 0x0 DUP2 MLOAD DUP2 LT PUSH2 0x1403 JUMPI INVALID JUMPDEST PUSH1 0x20 MUL PUSH1 0x20 ADD ADD MLOAD PUSH1 0x40 MLOAD DUP3 PUSH4 0xFFFFFFFF AND PUSH1 0xE0 SHL DUP2 MSTORE PUSH1 0x4 ADD PUSH1 0x0 PUSH1 0x40 MLOAD DUP1 DUP4 SUB DUP2 DUP6 DUP9 DUP1 EXTCODESIZE ISZERO DUP1 ISZERO PUSH2 0x1436 JUMPI PUSH1 0x0 DUP1 REVERT JUMPDEST POP GAS CALL ISZERO DUP1 ISZERO PUSH2 0x144A JUMPI RETURNDATASIZE PUSH1 0x0 DUP1 RETURNDATACOPY RETURNDATASIZE PUSH1 0x0 REVERT JUMPDEST POP POP POP POP POP PUSH32 0x0 PUSH1 0x1 PUSH1 0x1 PUSH1 0xA0 SHL SUB AND PUSH4 0xA9059CBB PUSH2 0x14CC PUSH32 0x0 DUP10 DUP10 PUSH1 0x0 DUP2 DUP2 LT PUSH2 0x14AF JUMPI INVALID JUMPDEST SWAP1 POP PUSH1 0x20 MUL ADD CALLDATALOAD PUSH1 0x1 PUSH1 0x1 PUSH1 0xA0 SHL SUB AND DUP11 DUP11 PUSH1 0x1 DUP2 DUP2 LT PUSH2 0xCE1 JUMPI INVALID JUMPDEST DUP5 PUSH1 0x0 DUP2 MLOAD DUP2 LT PUSH2 0x14D9 JUMPI INVALID JUMPDEST PUSH1 0x20 MUL PUSH1 0x20 ADD ADD MLOAD PUSH1 0x40 MLOAD DUP4 PUSH4 0xFFFFFFFF AND PUSH1 0xE0 SHL DUP2 MSTORE PUSH1 0x4 ADD DUP1 DUP4 PUSH1 0x1 PUSH1 0x1 PUSH1 0xA0 SHL SUB AND PUSH1 0x1 PUSH1 0x1 PUSH1 0xA0 SHL SUB AND DUP2 MSTORE PUSH1 0x20 ADD DUP3 DUP2 MSTORE PUSH1 0x20 ADD SWAP3 POP POP POP PUSH1 0x20 PUSH1 0x40 MLOAD DUP1 DUP4 SUB DUP2 PUSH1 0x0 DUP8 DUP1 EXTCODESIZE ISZERO DUP1 ISZERO PUSH2 0x1530 JUMPI PUSH1 0x0 DUP1 REVERT JUMPDEST POP GAS CALL ISZERO DUP1 ISZERO PUSH2 0x1544 JUMPI RETURNDATASIZE PUSH1 0x0 DUP1 RETURNDATACOPY RETURNDATASIZE PUSH1 0x0 REVERT JUMPDEST POP POP POP POP PUSH1 0x40 MLOAD RETURNDATASIZE PUSH1 0x20 DUP2 LT ISZERO PUSH2 0x155A JUMPI PUSH1 0x0 DUP1 REVERT JUMPDEST POP MLOAD PUSH2 0x1562 JUMPI INVALID JUMPDEST PUSH2 0x15A1 DUP3 DUP8 DUP8 DUP1 DUP1 PUSH1 0x20 MUL PUSH1 0x20 ADD PUSH1 0x40 MLOAD SWAP1 DUP2 ADD PUSH1 0x40 MSTORE DUP1 SWAP4 SWAP3 SWAP2 SWAP1 DUP2 DUP2 MSTORE PUSH1 0x20 ADD DUP4 DUP4 PUSH1 0x20 MUL DUP1 DUP3 DUP5 CALLDATACOPY PUSH1 0x0 SWAP3 ADD SWAP2 SWAP1 SWAP2 MSTORE POP DUP10 SWAP3 POP PUSH2 0x2862 SWAP2 POP POP JUMP JUMPDEST POP SWAP6 SWAP5 POP POP POP POP POP JUMP JUMPDEST PUSH1 0x60 DUP2 TIMESTAMP DUP2 LT ISZERO PUSH2 0x15F1 JUMPI PUSH1 0x40 DUP1 MLOAD PUSH3 0x461BCD PUSH1 0xE5 SHL DUP2 MSTORE PUSH1 0x20 PUSH1 0x4 DUP3 ADD MSTORE PUSH1 0x18 PUSH1 0x24 DUP3 ADD MSTORE PUSH1 0x0 DUP1 MLOAD PUSH1 0x20 PUSH2 0x3490 DUP4 CODECOPY DUP2 MLOAD SWAP2 MSTORE PUSH1 0x44 DUP3 ADD MSTORE SWAP1 MLOAD SWAP1 DUP2 SWAP1 SUB PUSH1 0x64 ADD SWAP1 REVERT JUMPDEST PUSH2 0x164F PUSH32 0x0 DUP10 DUP9 DUP9 DUP1 DUP1 PUSH1 0x20 MUL PUSH1 0x20 ADD PUSH1 0x40 MLOAD SWAP1 DUP2 ADD PUSH1 0x40 MSTORE DUP1 SWAP4 SWAP3 SWAP2 SWAP1 DUP2 DUP2 MSTORE PUSH1 0x20 ADD DUP4 DUP4 PUSH1 0x20 MUL DUP1 DUP3 DUP5 CALLDATACOPY PUSH1 0x0 SWAP3 ADD SWAP2 SWAP1 SWAP2 MSTORE POP PUSH2 0x2AA8 SWAP3 POP POP POP JUMP JUMPDEST SWAP2 POP DUP7 DUP3 PUSH1 0x0 DUP2 MLOAD DUP2 LT PUSH2 0x165F JUMPI INVALID JUMPDEST PUSH1 0x20 MUL PUSH1 0x20 ADD ADD MLOAD GT ISZERO PUSH2 0x1060 JUMPI PUSH1 0x40 MLOAD PUSH3 0x461BCD PUSH1 0xE5 SHL DUP2 MSTORE PUSH1 0x4 ADD DUP1 DUP1 PUSH1 0x20 ADD DUP3 DUP2 SUB DUP3 MSTORE PUSH1 0x27 DUP2 MSTORE PUSH1 0x20 ADD DUP1 PUSH2 0x337B PUSH1 0x27 SWAP2 CODECOPY PUSH1 0x40 ADD SWAP2 POP POP PUSH1 0x40 MLOAD DUP1 SWAP2 SUB SWAP1 REVERT JUMPDEST PUSH1 0x0 PUSH2 0xADB DUP5 DUP5 DUP5 PUSH2 0x2BE0 JUMP JUMPDEST PUSH1 0x0 DUP1 DUP3 TIMESTAMP DUP2 LT ISZERO PUSH2 0x16F8 JUMPI PUSH1 0x40 DUP1 MLOAD PUSH3 0x461BCD PUSH1 0xE5 SHL DUP2 MSTORE PUSH1 0x20 PUSH1 0x4 DUP3 ADD MSTORE PUSH1 0x18 PUSH1 0x24 DUP3 ADD MSTORE PUSH1 0x0 DUP1 MLOAD PUSH1 0x20 PUSH2 0x3490 DUP4 CODECOPY DUP2 MLOAD SWAP2 MSTORE PUSH1 0x44 DUP3 ADD MSTORE SWAP1 MLOAD SWAP1 DUP2 SWAP1 SUB PUSH1 0x64 ADD SWAP1 REVERT JUMPDEST PUSH1 0x0 PUSH2 0x1725 PUSH32 0x0 DUP13 DUP13 PUSH2 0x2645 JUMP JUMPDEST PUSH1 0x40 DUP1 MLOAD PUSH4 0x23B872DD PUSH1 0xE0 SHL DUP2 MSTORE CALLER PUSH1 0x4 DUP3 ADD MSTORE PUSH1 0x1 PUSH1 0x1 PUSH1 0xA0 SHL SUB DUP4 AND PUSH1 0x24 DUP3 ADD DUP2 SWAP1 MSTORE PUSH1 0x44 DUP3 ADD DUP14 SWAP1 MSTORE SWAP2 MLOAD SWAP3 SWAP4 POP SWAP1 SWAP2 PUSH4 0x23B872DD SWAP2 PUSH1 0x64 DUP1 DUP3 ADD SWAP3 PUSH1 0x20 SWAP3 SWAP1 SWAP2 SWAP1 DUP3 SWAP1 SUB ADD DUP2 PUSH1 0x0 DUP8 DUP1 EXTCODESIZE ISZERO DUP1 ISZERO PUSH2 0x1780 JUMPI PUSH1 0x0 DUP1 REVERT JUMPDEST POP GAS CALL ISZERO DUP1 ISZERO PUSH2 0x1794 JUMPI RETURNDATASIZE PUSH1 0x0 DUP1 RETURNDATACOPY RETURNDATASIZE PUSH1 0x0 REVERT JUMPDEST POP POP POP POP PUSH1 0x40 MLOAD RETURNDATASIZE PUSH1 0x20 DUP2 LT ISZERO PUSH2 0x17AA JUMPI PUSH1 0x0 DUP1 REVERT JUMPDEST POP POP PUSH1 0x40 DUP1 MLOAD PUSH4 0x226BF2D1 PUSH1 0xE2 SHL DUP2 MSTORE PUSH1 0x1 PUSH1 0x1 PUSH1 0xA0 SHL SUB DUP9 DUP2 AND PUSH1 0x4 DUP4 ADD MSTORE DUP3 MLOAD PUSH1 0x0 SWAP4 DUP5 SWAP4 SWAP3 DUP7 AND SWAP3 PUSH4 0x89AFCB44 SWAP3 PUSH1 0x24 DUP1 DUP4 ADD SWAP4 SWAP3 DUP3 SWAP1 SUB ADD DUP2 DUP8 DUP8 DUP1 EXTCODESIZE ISZERO DUP1 ISZERO PUSH2 0x17F7 JUMPI PUSH1 0x0 DUP1 REVERT JUMPDEST POP GAS CALL ISZERO DUP1 ISZERO PUSH2 0x180B JUMPI RETURNDATASIZE PUSH1 0x0 DUP1 RETURNDATACOPY RETURNDATASIZE PUSH1 0x0 REVERT JUMPDEST POP POP POP POP PUSH1 0x40 MLOAD RETURNDATASIZE PUSH1 0x40 DUP2 LT ISZERO PUSH2 0x1821 JUMPI PUSH1 0x0 DUP1 REVERT JUMPDEST POP DUP1 MLOAD PUSH1 0x20 SWAP1 SWAP2 ADD MLOAD SWAP1 SWAP3 POP SWAP1 POP PUSH1 0x0 PUSH2 0x183B DUP15 DUP15 PUSH2 0x2C8C JUMP JUMPDEST POP SWAP1 POP DUP1 PUSH1 0x1 PUSH1 0x1 PUSH1 0xA0 SHL SUB AND DUP15 PUSH1 0x1 PUSH1 0x1 PUSH1 0xA0 SHL SUB AND EQ PUSH2 0x185E JUMPI DUP2 DUP4 PUSH2 0x1861 JUMP JUMPDEST DUP3 DUP3 JUMPDEST SWAP1 SWAP8 POP SWAP6 POP DUP11 DUP8 LT ISZERO PUSH2 0x18A5 JUMPI PUSH1 0x40 MLOAD PUSH3 0x461BCD PUSH1 0xE5 SHL DUP2 MSTORE PUSH1 0x4 ADD DUP1 DUP1 PUSH1 0x20 ADD DUP3 DUP2 SUB DUP3 MSTORE PUSH1 0x26 DUP2 MSTORE PUSH1 0x20 ADD DUP1 PUSH2 0x33F2 PUSH1 0x26 SWAP2 CODECOPY PUSH1 0x40 ADD SWAP2 POP POP PUSH1 0x40 MLOAD DUP1 SWAP2 SUB SWAP1 REVERT JUMPDEST DUP10 DUP7 LT ISZERO PUSH2 0x18E4 JUMPI PUSH1 0x40 MLOAD PUSH3 0x461BCD PUSH1 0xE5 SHL DUP2 MSTORE PUSH1 0x4 ADD DUP1 DUP1 PUSH1 0x20 ADD DUP3 DUP2 SUB DUP3 MSTORE PUSH1 0x26 DUP2 MSTORE PUSH1 0x20 ADD DUP1 PUSH2 0x329F PUSH1 0x26 SWAP2 CODECOPY PUSH1 0x40 ADD SWAP2 POP POP PUSH1 0x40 MLOAD DUP1 SWAP2 SUB SWAP1 REVERT JUMPDEST POP POP POP POP POP SWAP8 POP SWAP8 SWAP6 POP POP POP POP POP POP JUMP JUMPDEST PUSH32 0x0 DUP2 JUMP JUMPDEST PUSH1 0x60 PUSH2 0xE61 PUSH32 0x0 DUP5 DUP5 PUSH2 0x24F9 JUMP JUMPDEST PUSH1 0x0 DUP1 PUSH1 0x0 PUSH2 0x1996 PUSH32 0x0 DUP15 PUSH32 0x0 PUSH2 0x2645 JUMP JUMPDEST SWAP1 POP PUSH1 0x0 DUP8 PUSH2 0x19A5 JUMPI DUP13 PUSH2 0x19A9 JUMP JUMPDEST PUSH1 0x0 NOT JUMPDEST PUSH1 0x40 DUP1 MLOAD PUSH4 0xD505ACCF PUSH1 0xE0 SHL DUP2 MSTORE CALLER PUSH1 0x4 DUP3 ADD MSTORE ADDRESS PUSH1 0x24 DUP3 ADD MSTORE PUSH1 0x44 DUP2 ADD DUP4 SWAP1 MSTORE PUSH1 0x64 DUP2 ADD DUP13 SWAP1 MSTORE PUSH1 0xFF DUP11 AND PUSH1 0x84 DUP3 ADD MSTORE PUSH1 0xA4 DUP2 ADD DUP10 SWAP1 MSTORE PUSH1 0xC4 DUP2 ADD DUP9 SWAP1 MSTORE SWAP1 MLOAD SWAP2 SWAP3 POP PUSH1 0x1 PUSH1 0x1 PUSH1 0xA0 SHL SUB DUP5 AND SWAP2 PUSH4 0xD505ACCF SWAP2 PUSH1 0xE4 DUP1 DUP3 ADD SWAP3 PUSH1 0x0 SWAP3 SWAP1 SWAP2 SWAP1 DUP3 SWAP1 SUB ADD DUP2 DUP4 DUP8 DUP1 EXTCODESIZE ISZERO DUP1 ISZERO PUSH2 0x1A1F JUMPI PUSH1 0x0 DUP1 REVERT JUMPDEST POP GAS CALL ISZERO DUP1 ISZERO PUSH2 0x1A33 JUMPI RETURNDATASIZE PUSH1 0x0 DUP1 RETURNDATACOPY RETURNDATASIZE PUSH1 0x0 REVERT JUMPDEST POP POP POP POP PUSH2 0x1A45 DUP15 DUP15 DUP15 DUP15 DUP15 DUP15 PUSH2 0x9B4 JUMP JUMPDEST SWAP1 SWAP16 SWAP1 SWAP15 POP SWAP13 POP POP POP POP POP POP POP POP POP POP POP POP POP JUMP JUMPDEST PUSH1 0x0 DUP1 PUSH1 0x0 DUP4 TIMESTAMP DUP2 LT ISZERO PUSH2 0x1AA3 JUMPI PUSH1 0x40 DUP1 MLOAD PUSH3 0x461BCD PUSH1 0xE5 SHL DUP2 MSTORE PUSH1 0x20 PUSH1 0x4 DUP3 ADD MSTORE PUSH1 0x18 PUSH1 0x24 DUP3 ADD MSTORE PUSH1 0x0 DUP1 MLOAD PUSH1 0x20 PUSH2 0x3490 DUP4 CODECOPY DUP2 MLOAD SWAP2 MSTORE PUSH1 0x44 DUP3 ADD MSTORE SWAP1 MLOAD SWAP1 DUP2 SWAP1 SUB PUSH1 0x64 ADD SWAP1 REVERT JUMPDEST PUSH2 0x1AB1 DUP13 DUP13 DUP13 DUP13 DUP13 DUP13 PUSH2 0x2D6A JUMP JUMPDEST SWAP1 SWAP5 POP SWAP3 POP PUSH1 0x0 PUSH2 0x1AE3 PUSH32 0x0 DUP15 DUP15 PUSH2 0x2645 JUMP JUMPDEST SWAP1 POP PUSH2 0x1AF1 DUP14 CALLER DUP4 DUP9 PUSH2 0x2705 JUMP JUMPDEST PUSH2 0x1AFD DUP13 CALLER DUP4 DUP8 PUSH2 0x2705 JUMP JUMPDEST DUP1 PUSH1 0x1 PUSH1 0x1 PUSH1 0xA0 SHL SUB AND PUSH4 0x6A627842 DUP9 PUSH1 0x40 MLOAD DUP3 PUSH4 0xFFFFFFFF AND PUSH1 0xE0 SHL DUP2 MSTORE PUSH1 0x4 ADD DUP1 DUP3 PUSH1 0x1 PUSH1 0x1 PUSH1 0xA0 SHL SUB AND PUSH1 0x1 PUSH1 0x1 PUSH1 0xA0 SHL SUB AND DUP2 MSTORE PUSH1 0x20 ADD SWAP2 POP POP PUSH1 0x20 PUSH1 0x40 MLOAD DUP1 DUP4 SUB DUP2 PUSH1 0x0 DUP8 DUP1 EXTCODESIZE ISZERO DUP1 ISZERO PUSH2 0x1B55 JUMPI PUSH1 0x0 DUP1 REVERT JUMPDEST POP GAS CALL ISZERO DUP1 ISZERO PUSH2 0x1B69 JUMPI RETURNDATASIZE PUSH1 0x0 DUP1 RETURNDATACOPY RETURNDATASIZE PUSH1 0x0 REVERT JUMPDEST POP POP POP POP PUSH1 0x40 MLOAD RETURNDATASIZE PUSH1 0x20 DUP2 LT ISZERO PUSH2 0x1B7F JUMPI PUSH1 0x0 DUP1 REVERT JUMPDEST POP MLOAD SWAP5 SWAP14 SWAP4 SWAP13 POP SWAP4 SWAP11 POP SWAP2 SWAP9 POP POP POP POP POP POP POP POP POP JUMP JUMPDEST PUSH1 0x0 DUP1 PUSH1 0x0 DUP4 TIMESTAMP DUP2 LT ISZERO PUSH2 0x1BDF JUMPI PUSH1 0x40 DUP1 MLOAD PUSH3 0x461BCD PUSH1 0xE5 SHL DUP2 MSTORE PUSH1 0x20 PUSH1 0x4 DUP3 ADD MSTORE PUSH1 0x18 PUSH1 0x24 DUP3 ADD MSTORE PUSH1 0x0 DUP1 MLOAD PUSH1 0x20 PUSH2 0x3490 DUP4 CODECOPY DUP2 MLOAD SWAP2 MSTORE PUSH1 0x44 DUP3 ADD MSTORE SWAP1 MLOAD SWAP1 DUP2 SWAP1 SUB PUSH1 0x64 ADD SWAP1 REVERT JUMPDEST PUSH2 0x1C0D DUP11 PUSH32 0x0 DUP12 CALLVALUE DUP13 DUP13 PUSH2 0x2D6A JUMP JUMPDEST SWAP1 SWAP5 POP SWAP3 POP PUSH1 0x0 PUSH2 0x1C5F PUSH32 0x0 DUP13 PUSH32 0x0 PUSH2 0x2645 JUMP JUMPDEST SWAP1 POP PUSH2 0x1C6D DUP12 CALLER DUP4 DUP9 PUSH2 0x2705 JUMP JUMPDEST PUSH32 0x0 PUSH1 0x1 PUSH1 0x1 PUSH1 0xA0 SHL SUB AND PUSH4 0xD0E30DB0 DUP6 PUSH1 0x40 MLOAD DUP3 PUSH4 0xFFFFFFFF AND PUSH1 0xE0 SHL DUP2 MSTORE PUSH1 0x4 ADD PUSH1 0x0 PUSH1 0x40 MLOAD DUP1 DUP4 SUB DUP2 DUP6 DUP9 DUP1 EXTCODESIZE ISZERO DUP1 ISZERO PUSH2 0x1CC8 JUMPI PUSH1 0x0 DUP1 REVERT JUMPDEST POP GAS CALL ISZERO DUP1 ISZERO PUSH2 0x1CDC JUMPI RETURNDATASIZE PUSH1 0x0 DUP1 RETURNDATACOPY RETURNDATASIZE PUSH1 0x0 REVERT JUMPDEST POP POP POP POP POP PUSH32 0x0 PUSH1 0x1 PUSH1 0x1 PUSH1 0xA0 SHL SUB AND PUSH4 0xA9059CBB DUP3 DUP7 PUSH1 0x40 MLOAD DUP4 PUSH4 0xFFFFFFFF AND PUSH1 0xE0 SHL DUP2 MSTORE PUSH1 0x4 ADD DUP1 DUP4 PUSH1 0x1 PUSH1 0x1 PUSH1 0xA0 SHL SUB AND PUSH1 0x1 PUSH1 0x1 PUSH1 0xA0 SHL SUB AND DUP2 MSTORE PUSH1 0x20 ADD DUP3 DUP2 MSTORE PUSH1 0x20 ADD SWAP3 POP POP POP PUSH1 0x20 PUSH1 0x40 MLOAD DUP1 DUP4 SUB DUP2 PUSH1 0x0 DUP8 DUP1 EXTCODESIZE ISZERO DUP1 ISZERO PUSH2 0x1D61 JUMPI PUSH1 0x0 DUP1 REVERT JUMPDEST POP GAS CALL ISZERO DUP1 ISZERO PUSH2 0x1D75 JUMPI RETURNDATASIZE PUSH1 0x0 DUP1 RETURNDATACOPY RETURNDATASIZE PUSH1 0x0 REVERT JUMPDEST POP POP POP POP PUSH1 0x40 MLOAD RETURNDATASIZE PUSH1 0x20 DUP2 LT ISZERO PUSH2 0x1D8B JUMPI PUSH1 0x0 DUP1 REVERT JUMPDEST POP MLOAD PUSH2 0x1D93 JUMPI INVALID JUMPDEST DUP1 PUSH1 0x1 PUSH1 0x1 PUSH1 0xA0 SHL SUB AND PUSH4 0x6A627842 DUP9 PUSH1 0x40 MLOAD DUP3 PUSH4 0xFFFFFFFF AND PUSH1 0xE0 SHL DUP2 MSTORE PUSH1 0x4 ADD DUP1 DUP3 PUSH1 0x1 PUSH1 0x1 PUSH1 0xA0 SHL SUB AND PUSH1 0x1 PUSH1 0x1 PUSH1 0xA0 SHL SUB AND DUP2 MSTORE PUSH1 0x20 ADD SWAP2 POP POP PUSH1 0x20 PUSH1 0x40 MLOAD DUP1 DUP4 SUB DUP2 PUSH1 0x0 DUP8 DUP1 EXTCODESIZE ISZERO DUP1 ISZERO PUSH2 0x1DEB JUMPI PUSH1 0x0 DUP1 REVERT JUMPDEST POP GAS CALL ISZERO DUP1 ISZERO PUSH2 0x1DFF JUMPI RETURNDATASIZE PUSH1 0x0 DUP1 RETURNDATACOPY RETURNDATASIZE PUSH1 0x0 REVERT JUMPDEST POP POP POP POP PUSH1 0x40 MLOAD RETURNDATASIZE PUSH1 0x20 DUP2 LT ISZERO PUSH2 0x1E15 JUMPI PUSH1 0x0 DUP1 REVERT JUMPDEST POP MLOAD SWAP3 POP CALLVALUE DUP5 LT ISZERO PUSH2 0x1E2D JUMPI PUSH2 0x1E2D CALLER DUP6 CALLVALUE SUB PUSH2 0x2311 JUMP JUMPDEST POP POP SWAP7 POP SWAP7 POP SWAP7 SWAP4 POP POP POP POP JUMP JUMPDEST PUSH1 0x60 DUP2 TIMESTAMP DUP2 LT ISZERO PUSH2 0x1E81 JUMPI PUSH1 0x40 DUP1 MLOAD PUSH3 0x461BCD PUSH1 0xE5 SHL DUP2 MSTORE PUSH1 0x20 PUSH1 0x4 DUP3 ADD MSTORE PUSH1 0x18 PUSH1 0x24 DUP3 ADD MSTORE PUSH1 0x0 DUP1 MLOAD PUSH1 0x20 PUSH2 0x3490 DUP4 CODECOPY DUP2 MLOAD SWAP2 MSTORE PUSH1 0x44 DUP3 ADD MSTORE SWAP1 MLOAD SWAP1 DUP2 SWAP1 SUB PUSH1 0x64 ADD SWAP1 REVERT JUMPDEST PUSH32 0x0 PUSH1 0x1 PUSH1 0x1 PUSH1 0xA0 SHL SUB AND DUP7 DUP7 PUSH1 0x0 DUP2 DUP2 LT PUSH2 0x1EB8 JUMPI INVALID JUMPDEST SWAP1 POP PUSH1 0x20 MUL ADD CALLDATALOAD PUSH1 0x1 PUSH1 0x1 PUSH1 0xA0 SHL SUB AND PUSH1 0x1 PUSH1 0x1 PUSH1 0xA0 SHL SUB AND EQ PUSH2 0x1F11 JUMPI PUSH1 0x40 DUP1 MLOAD PUSH3 0x461BCD PUSH1 0xE5 SHL DUP2 MSTORE PUSH1 0x20 PUSH1 0x4 DUP3 ADD MSTORE PUSH1 0x1D PUSH1 0x24 DUP3 ADD MSTORE PUSH1 0x0 DUP1 MLOAD PUSH1 0x20 PUSH2 0x3470 DUP4 CODECOPY DUP2 MLOAD SWAP2 MSTORE PUSH1 0x44 DUP3 ADD MSTORE SWAP1 MLOAD SWAP1 DUP2 SWAP1 SUB PUSH1 0x64 ADD SWAP1 REVERT JUMPDEST PUSH2 0x1F6F PUSH32 0x0 DUP9 DUP9 DUP9 DUP1 DUP1 PUSH1 0x20 MUL PUSH1 0x20 ADD PUSH1 0x40 MLOAD SWAP1 DUP2 ADD PUSH1 0x40 MSTORE DUP1 SWAP4 SWAP3 SWAP2 SWAP1 DUP2 DUP2 MSTORE PUSH1 0x20 ADD DUP4 DUP4 PUSH1 0x20 MUL DUP1 DUP3 DUP5 CALLDATACOPY PUSH1 0x0 SWAP3 ADD SWAP2 SWAP1 SWAP2 MSTORE POP PUSH2 0x2AA8 SWAP3 POP POP POP JUMP JUMPDEST SWAP2 POP CALLVALUE DUP3 PUSH1 0x0 DUP2 MLOAD DUP2 LT PUSH2 0x1F7F JUMPI INVALID JUMPDEST PUSH1 0x20 MUL PUSH1 0x20 ADD ADD MLOAD GT ISZERO PUSH2 0x1FC4 JUMPI PUSH1 0x40 MLOAD PUSH3 0x461BCD PUSH1 0xE5 SHL DUP2 MSTORE PUSH1 0x4 ADD DUP1 DUP1 PUSH1 0x20 ADD DUP3 DUP2 SUB DUP3 MSTORE PUSH1 0x27 DUP2 MSTORE PUSH1 0x20 ADD DUP1 PUSH2 0x337B PUSH1 0x27 SWAP2 CODECOPY PUSH1 0x40 ADD SWAP2 POP POP PUSH1 0x40 MLOAD DUP1 SWAP2 SUB SWAP1 REVERT JUMPDEST PUSH32 0x0 PUSH1 0x1 PUSH1 0x1 PUSH1 0xA0 SHL SUB AND PUSH4 0xD0E30DB0 DUP4 PUSH1 0x0 DUP2 MLOAD DUP2 LT PUSH2 0x2000 JUMPI INVALID JUMPDEST PUSH1 0x20 MUL PUSH1 0x20 ADD ADD MLOAD PUSH1 0x40 MLOAD DUP3 PUSH4 0xFFFFFFFF AND PUSH1 0xE0 SHL DUP2 MSTORE PUSH1 0x4 ADD PUSH1 0x0 PUSH1 0x40 MLOAD DUP1 DUP4 SUB DUP2 DUP6 DUP9 DUP1 EXTCODESIZE ISZERO DUP1 ISZERO PUSH2 0x2033 JUMPI PUSH1 0x0 DUP1 REVERT JUMPDEST POP GAS CALL ISZERO DUP1 ISZERO PUSH2 0x2047 JUMPI RETURNDATASIZE PUSH1 0x0 DUP1 RETURNDATACOPY RETURNDATASIZE PUSH1 0x0 REVERT JUMPDEST POP POP POP POP POP PUSH32 0x0 PUSH1 0x1 PUSH1 0x1 PUSH1 0xA0 SHL SUB AND PUSH4 0xA9059CBB PUSH2 0x20AC PUSH32 0x0 DUP10 DUP10 PUSH1 0x0 DUP2 DUP2 LT PUSH2 0x14AF JUMPI INVALID JUMPDEST DUP5 PUSH1 0x0 DUP2 MLOAD DUP2 LT PUSH2 0x20B9 JUMPI INVALID JUMPDEST PUSH1 0x20 MUL PUSH1 0x20 ADD ADD MLOAD PUSH1 0x40 MLOAD DUP4 PUSH4 0xFFFFFFFF AND PUSH1 0xE0 SHL DUP2 MSTORE PUSH1 0x4 ADD DUP1 DUP4 PUSH1 0x1 PUSH1 0x1 PUSH1 0xA0 SHL SUB AND PUSH1 0x1 PUSH1 0x1 PUSH1 0xA0 SHL SUB AND DUP2 MSTORE PUSH1 0x20 ADD DUP3 DUP2 MSTORE PUSH1 0x20 ADD SWAP3 POP POP POP PUSH1 0x20 PUSH1 0x40 MLOAD DUP1 DUP4 SUB DUP2 PUSH1 0x0 DUP8 DUP1 EXTCODESIZE ISZERO DUP1 ISZERO PUSH2 0x2110 JUMPI PUSH1 0x0 DUP1 REVERT JUMPDEST POP GAS CALL ISZERO DUP1 ISZERO PUSH2 0x2124 JUMPI RETURNDATASIZE PUSH1 0x0 DUP1 RETURNDATACOPY RETURNDATASIZE PUSH1 0x0 REVERT JUMPDEST POP POP POP POP PUSH1 0x40 MLOAD RETURNDATASIZE PUSH1 0x20 DUP2 LT ISZERO PUSH2 0x213A JUMPI PUSH1 0x0 DUP1 REVERT JUMPDEST POP MLOAD PUSH2 0x2142 JUMPI INVALID JUMPDEST PUSH2 0x2181 DUP3 DUP8 DUP8 DUP1 DUP1 PUSH1 0x20 MUL PUSH1 0x20 ADD PUSH1 0x40 MLOAD SWAP1 DUP2 ADD PUSH1 0x40 MSTORE DUP1 SWAP4 SWAP3 SWAP2 SWAP1 DUP2 DUP2 MSTORE PUSH1 0x20 ADD DUP4 DUP4 PUSH1 0x20 MUL DUP1 DUP3 DUP5 CALLDATACOPY PUSH1 0x0 SWAP3 ADD SWAP2 SWAP1 SWAP2 MSTORE POP DUP10 SWAP3 POP PUSH2 0x2862 SWAP2 POP POP JUMP JUMPDEST DUP2 PUSH1 0x0 DUP2 MLOAD DUP2 LT PUSH2 0x218E JUMPI INVALID JUMPDEST PUSH1 0x20 MUL PUSH1 0x20 ADD ADD MLOAD CALLVALUE GT ISZERO PUSH2 0x15A1 JUMPI PUSH2 0x15A1 CALLER DUP4 PUSH1 0x0 DUP2 MLOAD DUP2 LT PUSH2 0x21AE JUMPI INVALID JUMPDEST PUSH1 0x20 MUL PUSH1 0x20 ADD ADD MLOAD CALLVALUE SUB PUSH2 0x2311 JUMP JUMPDEST PUSH1 0x40 DUP1 MLOAD PUSH1 0x1 PUSH1 0x1 PUSH1 0xA0 SHL SUB DUP5 DUP2 AND PUSH1 0x24 DUP4 ADD MSTORE PUSH1 0x44 DUP1 DUP4 ADD DUP6 SWAP1 MSTORE DUP4 MLOAD DUP1 DUP5 SUB SWAP1 SWAP2 ADD DUP2 MSTORE PUSH1 0x64 SWAP1 SWAP3 ADD DUP4 MSTORE PUSH1 0x20 DUP3 ADD DUP1 MLOAD PUSH1 0x1 PUSH1 0x1 PUSH1 0xE0 SHL SUB AND PUSH4 0xA9059CBB PUSH1 0xE0 SHL OR DUP2 MSTORE SWAP3 MLOAD DUP3 MLOAD PUSH1 0x0 SWAP5 PUSH1 0x60 SWAP5 SWAP4 DUP10 AND SWAP4 SWAP3 SWAP2 DUP3 SWAP2 SWAP1 DUP1 DUP4 DUP4 JUMPDEST PUSH1 0x20 DUP4 LT PUSH2 0x223A JUMPI DUP1 MLOAD DUP3 MSTORE PUSH1 0x1F NOT SWAP1 SWAP3 ADD SWAP2 PUSH1 0x20 SWAP2 DUP3 ADD SWAP2 ADD PUSH2 0x221B JUMP JUMPDEST PUSH1 0x1 DUP4 PUSH1 0x20 SUB PUSH2 0x100 EXP SUB DUP1 NOT DUP3 MLOAD AND DUP2 DUP5 MLOAD AND DUP1 DUP3 OR DUP6 MSTORE POP POP POP POP POP POP SWAP1 POP ADD SWAP2 POP POP PUSH1 0x0 PUSH1 0x40 MLOAD DUP1 DUP4 SUB DUP2 PUSH1 0x0 DUP7 GAS CALL SWAP2 POP POP RETURNDATASIZE DUP1 PUSH1 0x0 DUP2 EQ PUSH2 0x229C JUMPI PUSH1 0x40 MLOAD SWAP2 POP PUSH1 0x1F NOT PUSH1 0x3F RETURNDATASIZE ADD AND DUP3 ADD PUSH1 0x40 MSTORE RETURNDATASIZE DUP3 MSTORE RETURNDATASIZE PUSH1 0x0 PUSH1 0x20 DUP5 ADD RETURNDATACOPY PUSH2 0x22A1 JUMP JUMPDEST PUSH1 0x60 SWAP2 POP JUMPDEST POP SWAP2 POP SWAP2 POP DUP2 DUP1 ISZERO PUSH2 0x22CF JUMPI POP DUP1 MLOAD ISZERO DUP1 PUSH2 0x22CF JUMPI POP DUP1 DUP1 PUSH1 0x20 ADD SWAP1 MLOAD PUSH1 0x20 DUP2 LT ISZERO PUSH2 0x22CC JUMPI PUSH1 0x0 DUP1 REVERT JUMPDEST POP MLOAD JUMPDEST PUSH2 0x230A JUMPI PUSH1 0x40 MLOAD PUSH3 0x461BCD PUSH1 0xE5 SHL DUP2 MSTORE PUSH1 0x4 ADD DUP1 DUP1 PUSH1 0x20 ADD DUP3 DUP2 SUB DUP3 MSTORE PUSH1 0x2D DUP2 MSTORE PUSH1 0x20 ADD DUP1 PUSH2 0x3443 PUSH1 0x2D SWAP2 CODECOPY PUSH1 0x40 ADD SWAP2 POP POP PUSH1 0x40 MLOAD DUP1 SWAP2 SUB SWAP1 REVERT JUMPDEST POP POP POP POP POP JUMP JUMPDEST PUSH1 0x40 DUP1 MLOAD PUSH1 0x0 DUP1 DUP3 MSTORE PUSH1 0x20 DUP3 ADD SWAP1 SWAP3 MSTORE PUSH1 0x1 PUSH1 0x1 PUSH1 0xA0 SHL SUB DUP5 AND SWAP1 DUP4 SWAP1 PUSH1 0x40 MLOAD DUP1 DUP3 DUP1 MLOAD SWAP1 PUSH1 0x20 ADD SWAP1 DUP1 DUP4 DUP4 JUMPDEST PUSH1 0x20 DUP4 LT PUSH2 0x235D JUMPI DUP1 MLOAD DUP3 MSTORE PUSH1 0x1F NOT SWAP1 SWAP3 ADD SWAP2 PUSH1 0x20 SWAP2 DUP3 ADD SWAP2 ADD PUSH2 0x233E JUMP JUMPDEST PUSH1 0x1 DUP4 PUSH1 0x20 SUB PUSH2 0x100 EXP SUB DUP1 NOT DUP3 MLOAD AND DUP2 DUP5 MLOAD AND DUP1 DUP3 OR DUP6 MSTORE POP POP POP POP POP POP SWAP1 POP ADD SWAP2 POP POP PUSH1 0x0 PUSH1 0x40 MLOAD DUP1 DUP4 SUB DUP2 DUP6 DUP8 GAS CALL SWAP3 POP POP POP RETURNDATASIZE DUP1 PUSH1 0x0 DUP2 EQ PUSH2 0x23BF JUMPI PUSH1 0x40 MLOAD SWAP2 POP PUSH1 0x1F NOT PUSH1 0x3F RETURNDATASIZE ADD AND DUP3 ADD PUSH1 0x40 MSTORE RETURNDATASIZE DUP3 MSTORE RETURNDATASIZE PUSH1 0x0 PUSH1 0x20 DUP5 ADD RETURNDATACOPY PUSH2 0x23C4 JUMP JUMPDEST PUSH1 0x60 SWAP2 POP JUMPDEST POP POP SWAP1 POP DUP1 PUSH2 0x2404 JUMPI PUSH1 0x40 MLOAD PUSH3 0x461BCD PUSH1 0xE5 SHL DUP2 MSTORE PUSH1 0x4 ADD DUP1 DUP1 PUSH1 0x20 ADD DUP3 DUP2 SUB DUP3 MSTORE PUSH1 0x34 DUP2 MSTORE PUSH1 0x20 ADD DUP1 PUSH2 0x3347 PUSH1 0x34 SWAP2 CODECOPY PUSH1 0x40 ADD SWAP2 POP POP PUSH1 0x40 MLOAD DUP1 SWAP2 SUB SWAP1 REVERT JUMPDEST POP POP POP JUMP JUMPDEST PUSH1 0x0 DUP1 DUP5 GT PUSH2 0x2449 JUMPI PUSH1 0x40 MLOAD PUSH3 0x461BCD PUSH1 0xE5 SHL DUP2 MSTORE PUSH1 0x4 ADD DUP1 DUP1 PUSH1 0x20 ADD DUP3 DUP2 SUB DUP3 MSTORE PUSH1 0x2B DUP2 MSTORE PUSH1 0x20 ADD DUP1 PUSH2 0x33A2 PUSH1 0x2B SWAP2 CODECOPY PUSH1 0x40 ADD SWAP2 POP POP PUSH1 0x40 MLOAD DUP1 SWAP2 SUB SWAP1 REVERT JUMPDEST PUSH1 0x0 DUP4 GT DUP1 ISZERO PUSH2 0x2459 JUMPI POP PUSH1 0x0 DUP3 GT JUMPDEST PUSH2 0x2494 JUMPI PUSH1 0x40 MLOAD PUSH3 0x461BCD PUSH1 0xE5 SHL DUP2 MSTORE PUSH1 0x4 ADD DUP1 DUP1 PUSH1 0x20 ADD DUP3 DUP2 SUB DUP3 MSTORE PUSH1 0x28 DUP2 MSTORE PUSH1 0x20 ADD DUP1 PUSH2 0x34B0 PUSH1 0x28 SWAP2 CODECOPY PUSH1 0x40 ADD SWAP2 POP POP PUSH1 0x40 MLOAD DUP1 SWAP2 SUB SWAP1 REVERT JUMPDEST PUSH1 0x0 PUSH2 0x24A8 DUP6 PUSH2 0x3E5 PUSH4 0xFFFFFFFF PUSH2 0x2FDE AND JUMP JUMPDEST SWAP1 POP PUSH1 0x0 PUSH2 0x24BC DUP3 DUP6 PUSH4 0xFFFFFFFF PUSH2 0x2FDE AND JUMP JUMPDEST SWAP1 POP PUSH1 0x0 PUSH2 0x24E2 DUP4 PUSH2 0x24D6 DUP9 PUSH2 0x3E8 PUSH4 0xFFFFFFFF PUSH2 0x2FDE AND JUMP JUMPDEST SWAP1 PUSH4 0xFFFFFFFF PUSH2 0x3041 AND JUMP JUMPDEST SWAP1 POP DUP1 DUP3 DUP2 PUSH2 0x24ED JUMPI INVALID JUMPDEST DIV SWAP8 SWAP7 POP POP POP POP POP POP POP JUMP JUMPDEST PUSH1 0x60 PUSH1 0x2 DUP3 MLOAD LT ISZERO PUSH2 0x2552 JUMPI PUSH1 0x40 DUP1 MLOAD PUSH3 0x461BCD PUSH1 0xE5 SHL DUP2 MSTORE PUSH1 0x20 PUSH1 0x4 DUP3 ADD MSTORE PUSH1 0x1E PUSH1 0x24 DUP3 ADD MSTORE PUSH32 0x546172616C537761704C6962726172793A20494E56414C49445F504154480000 PUSH1 0x44 DUP3 ADD MSTORE SWAP1 MLOAD SWAP1 DUP2 SWAP1 SUB PUSH1 0x64 ADD SWAP1 REVERT JUMPDEST DUP2 MLOAD PUSH8 0xFFFFFFFFFFFFFFFF DUP2 GT DUP1 ISZERO PUSH2 0x256A JUMPI PUSH1 0x0 DUP1 REVERT JUMPDEST POP PUSH1 0x40 MLOAD SWAP1 DUP1 DUP3 MSTORE DUP1 PUSH1 0x20 MUL PUSH1 0x20 ADD DUP3 ADD PUSH1 0x40 MSTORE DUP1 ISZERO PUSH2 0x2594 JUMPI DUP2 PUSH1 0x20 ADD PUSH1 0x20 DUP3 MUL DUP1 CALLDATASIZE DUP4 CALLDATACOPY ADD SWAP1 POP JUMPDEST POP SWAP1 POP DUP3 DUP2 PUSH1 0x0 DUP2 MLOAD DUP2 LT PUSH2 0x25A5 JUMPI INVALID JUMPDEST PUSH1 0x20 MUL PUSH1 0x20 ADD ADD DUP2 DUP2 MSTORE POP POP PUSH1 0x0 JUMPDEST PUSH1 0x1 DUP4 MLOAD SUB DUP2 LT ISZERO PUSH2 0x263D JUMPI PUSH1 0x0 DUP1 PUSH2 0x25F7 DUP8 DUP7 DUP6 DUP2 MLOAD DUP2 LT PUSH2 0x25D3 JUMPI INVALID JUMPDEST PUSH1 0x20 MUL PUSH1 0x20 ADD ADD MLOAD DUP8 DUP7 PUSH1 0x1 ADD DUP2 MLOAD DUP2 LT PUSH2 0x25EA JUMPI INVALID JUMPDEST PUSH1 0x20 MUL PUSH1 0x20 ADD ADD MLOAD PUSH2 0x3090 JUMP JUMPDEST SWAP2 POP SWAP2 POP PUSH2 0x2619 DUP5 DUP5 DUP2 MLOAD DUP2 LT PUSH2 0x260A JUMPI INVALID JUMPDEST PUSH1 0x20 MUL PUSH1 0x20 ADD ADD MLOAD DUP4 DUP4 PUSH2 0x2409 JUMP JUMPDEST DUP5 DUP5 PUSH1 0x1 ADD DUP2 MLOAD DUP2 LT PUSH2 0x2628 JUMPI INVALID JUMPDEST PUSH1 0x20 SWAP1 DUP2 MUL SWAP2 SWAP1 SWAP2 ADD ADD MSTORE POP POP PUSH1 0x1 ADD PUSH2 0x25B4 JUMP JUMPDEST POP SWAP4 SWAP3 POP POP POP JUMP JUMPDEST PUSH1 0x0 DUP1 PUSH1 0x0 PUSH2 0x2654 DUP6 DUP6 PUSH2 0x2C8C JUMP JUMPDEST PUSH1 0x40 DUP1 MLOAD PUSH12 0xFFFFFFFFFFFFFFFFFFFFFFFF NOT PUSH1 0x60 SWAP5 DUP6 SHL DUP2 AND PUSH1 0x20 DUP1 DUP5 ADD SWAP2 SWAP1 SWAP2 MSTORE SWAP4 DUP6 SHL DUP2 AND PUSH1 0x34 DUP4 ADD MSTORE DUP3 MLOAD PUSH1 0x28 DUP2 DUP5 SUB ADD DUP2 MSTORE PUSH1 0x48 DUP4 ADD DUP5 MSTORE DUP1 MLOAD SWAP1 DUP6 ADD KECCAK256 PUSH1 0x1 PUSH1 0x1 PUSH1 0xF8 SHL SUB NOT PUSH1 0x68 DUP5 ADD MSTORE SWAP11 SWAP1 SWAP5 SHL SWAP1 SWAP4 AND PUSH1 0x69 DUP5 ADD MSTORE PUSH1 0x7D DUP4 ADD SWAP9 SWAP1 SWAP9 MSTORE PUSH32 0x27F067E989D1EAF4B3FE6715DE948CFBABD7BF6FCB5097E2DD4928E4871347A7 PUSH1 0x9D DUP1 DUP5 ADD SWAP2 SWAP1 SWAP2 MSTORE DUP9 MLOAD DUP1 DUP5 SUB SWAP1 SWAP2 ADD DUP2 MSTORE PUSH1 0xBD SWAP1 SWAP3 ADD SWAP1 SWAP8 MSTORE DUP1 MLOAD SWAP7 ADD SWAP6 SWAP1 SWAP6 KECCAK256 SWAP6 SWAP5 POP POP POP POP POP JUMP JUMPDEST PUSH1 0x40 DUP1 MLOAD PUSH1 0x1 PUSH1 0x1 PUSH1 0xA0 SHL SUB DUP6 DUP2 AND PUSH1 0x24 DUP4 ADD MSTORE DUP5 DUP2 AND PUSH1 0x44 DUP4 ADD MSTORE PUSH1 0x64 DUP1 DUP4 ADD DUP6 SWAP1 MSTORE DUP4 MLOAD DUP1 DUP5 SUB SWAP1 SWAP2 ADD DUP2 MSTORE PUSH1 0x84 SWAP1 SWAP3 ADD DUP4 MSTORE PUSH1 0x20 DUP3 ADD DUP1 MLOAD PUSH1 0x1 PUSH1 0x1 PUSH1 0xE0 SHL SUB AND PUSH4 0x23B872DD PUSH1 0xE0 SHL OR DUP2 MSTORE SWAP3 MLOAD DUP3 MLOAD PUSH1 0x0 SWAP5 PUSH1 0x60 SWAP5 SWAP4 DUP11 AND SWAP4 SWAP3 SWAP2 DUP3 SWAP2 SWAP1 DUP1 DUP4 DUP4 JUMPDEST PUSH1 0x20 DUP4 LT PUSH2 0x278A JUMPI DUP1 MLOAD DUP3 MSTORE PUSH1 0x1F NOT SWAP1 SWAP3 ADD SWAP2 PUSH1 0x20 SWAP2 DUP3 ADD SWAP2 ADD PUSH2 0x276B JUMP JUMPDEST PUSH1 0x1 DUP4 PUSH1 0x20 SUB PUSH2 0x100 EXP SUB DUP1 NOT DUP3 MLOAD AND DUP2 DUP5 MLOAD AND DUP1 DUP3 OR DUP6 MSTORE POP POP POP POP POP POP SWAP1 POP ADD SWAP2 POP POP PUSH1 0x0 PUSH1 0x40 MLOAD DUP1 DUP4 SUB DUP2 PUSH1 0x0 DUP7 GAS CALL SWAP2 POP POP RETURNDATASIZE DUP1 PUSH1 0x0 DUP2 EQ PUSH2 0x27EC JUMPI PUSH1 0x40 MLOAD SWAP2 POP PUSH1 0x1F NOT PUSH1 0x3F RETURNDATASIZE ADD AND DUP3 ADD PUSH1 0x40 MSTORE RETURNDATASIZE DUP3 MSTORE RETURNDATASIZE PUSH1 0x0 PUSH1 0x20 DUP5 ADD RETURNDATACOPY PUSH2 0x27F1 JUMP JUMPDEST PUSH1 0x60 SWAP2 POP JUMPDEST POP SWAP2 POP SWAP2 POP DUP2 DUP1 ISZERO PUSH2 0x281F JUMPI POP DUP1 MLOAD ISZERO DUP1 PUSH2 0x281F JUMPI POP DUP1 DUP1 PUSH1 0x20 ADD SWAP1 MLOAD PUSH1 0x20 DUP2 LT ISZERO PUSH2 0x281C JUMPI PUSH1 0x0 DUP1 REVERT JUMPDEST POP MLOAD JUMPDEST PUSH2 0x285A JUMPI PUSH1 0x40 MLOAD PUSH3 0x461BCD PUSH1 0xE5 SHL DUP2 MSTORE PUSH1 0x4 ADD DUP1 DUP1 PUSH1 0x20 ADD DUP3 DUP2 SUB DUP3 MSTORE PUSH1 0x31 DUP2 MSTORE PUSH1 0x20 ADD DUP1 PUSH2 0x3316 PUSH1 0x31 SWAP2 CODECOPY PUSH1 0x40 ADD SWAP2 POP POP PUSH1 0x40 MLOAD DUP1 SWAP2 SUB SWAP1 REVERT JUMPDEST POP POP POP POP POP POP JUMP JUMPDEST PUSH1 0x0 JUMPDEST PUSH1 0x1 DUP4 MLOAD SUB DUP2 LT ISZERO PUSH2 0x2AA2 JUMPI PUSH1 0x0 DUP1 DUP5 DUP4 DUP2 MLOAD DUP2 LT PUSH2 0x2880 JUMPI INVALID JUMPDEST PUSH1 0x20 MUL PUSH1 0x20 ADD ADD MLOAD DUP6 DUP5 PUSH1 0x1 ADD DUP2 MLOAD DUP2 LT PUSH2 0x2897 JUMPI INVALID JUMPDEST PUSH1 0x20 MUL PUSH1 0x20 ADD ADD MLOAD SWAP2 POP SWAP2 POP PUSH1 0x0 PUSH2 0x28AF DUP4 DUP4 PUSH2 0x2C8C JUMP JUMPDEST POP SWAP1 POP PUSH1 0x0 DUP8 DUP6 PUSH1 0x1 ADD DUP2 MLOAD DUP2 LT PUSH2 0x28C3 JUMPI INVALID JUMPDEST PUSH1 0x20 MUL PUSH1 0x20 ADD ADD MLOAD SWAP1 POP PUSH1 0x0 DUP1 DUP4 PUSH1 0x1 PUSH1 0x1 PUSH1 0xA0 SHL SUB AND DUP7 PUSH1 0x1 PUSH1 0x1 PUSH1 0xA0 SHL SUB AND EQ PUSH2 0x28F1 JUMPI DUP3 PUSH1 0x0 PUSH2 0x28F5 JUMP JUMPDEST PUSH1 0x0 DUP4 JUMPDEST SWAP2 POP SWAP2 POP PUSH1 0x0 PUSH1 0x2 DUP11 MLOAD SUB DUP9 LT PUSH2 0x290C JUMPI DUP9 PUSH2 0x294D JUMP JUMPDEST PUSH2 0x294D PUSH32 0x0 DUP8 DUP13 DUP12 PUSH1 0x2 ADD DUP2 MLOAD DUP2 LT PUSH2 0x2940 JUMPI INVALID JUMPDEST PUSH1 0x20 MUL PUSH1 0x20 ADD ADD MLOAD PUSH2 0x2645 JUMP JUMPDEST SWAP1 POP PUSH2 0x297A PUSH32 0x0 DUP9 DUP9 PUSH2 0x2645 JUMP JUMPDEST PUSH1 0x1 PUSH1 0x1 PUSH1 0xA0 SHL SUB AND PUSH4 0x22C0D9F DUP5 DUP5 DUP5 PUSH1 0x0 PUSH1 0x40 MLOAD SWAP1 DUP1 DUP3 MSTORE DUP1 PUSH1 0x1F ADD PUSH1 0x1F NOT AND PUSH1 0x20 ADD DUP3 ADD PUSH1 0x40 MSTORE DUP1 ISZERO PUSH2 0x29B7 JUMPI PUSH1 0x20 DUP3 ADD DUP2 DUP1 CALLDATASIZE DUP4 CALLDATACOPY ADD SWAP1 POP JUMPDEST POP PUSH1 0x40 MLOAD DUP6 PUSH4 0xFFFFFFFF AND PUSH1 0xE0 SHL DUP2 MSTORE PUSH1 0x4 ADD DUP1 DUP6 DUP2 MSTORE PUSH1 0x20 ADD DUP5 DUP2 MSTORE PUSH1 0x20 ADD DUP4 PUSH1 0x1 PUSH1 0x1 PUSH1 0xA0 SHL SUB AND PUSH1 0x1 PUSH1 0x1 PUSH1 0xA0 SHL SUB AND DUP2 MSTORE PUSH1 0x20 ADD DUP1 PUSH1 0x20 ADD DUP3 DUP2 SUB DUP3 MSTORE DUP4 DUP2 DUP2 MLOAD DUP2 MSTORE PUSH1 0x20 ADD SWAP2 POP DUP1 MLOAD SWAP1 PUSH1 0x20 ADD SWAP1 DUP1 DUP4 DUP4 PUSH1 0x0 JUMPDEST DUP4 DUP2 LT ISZERO PUSH2 0x2A28 JUMPI DUP2 DUP2 ADD MLOAD DUP4 DUP3 ADD MSTORE PUSH1 0x20 ADD PUSH2 0x2A10 JUMP JUMPDEST POP POP POP POP SWAP1 POP SWAP1 DUP2 ADD SWAP1 PUSH1 0x1F AND DUP1 ISZERO PUSH2 0x2A55 JUMPI DUP1 DUP3 SUB DUP1 MLOAD PUSH1 0x1 DUP4 PUSH1 0x20 SUB PUSH2 0x100 EXP SUB NOT AND DUP2 MSTORE PUSH1 0x20 ADD SWAP2 POP JUMPDEST POP SWAP6 POP POP POP POP POP POP PUSH1 0x0 PUSH1 0x40 MLOAD DUP1 DUP4 SUB DUP2 PUSH1 0x0 DUP8 DUP1 EXTCODESIZE ISZERO DUP1 ISZERO PUSH2 0x2A77 JUMPI PUSH1 0x0 DUP1 REVERT JUMPDEST POP GAS CALL ISZERO DUP1 ISZERO PUSH2 0x2A8B JUMPI RETURNDATASIZE PUSH1 0x0 DUP1 RETURNDATACOPY RETURNDATASIZE PUSH1 0x0 REVERT JUMPDEST POP POP PUSH1 0x1 SWAP1 SWAP10 ADD SWAP9 POP PUSH2 0x2865 SWAP8 POP POP POP POP POP POP POP POP JUMP JUMPDEST POP POP POP POP JUMP JUMPDEST PUSH1 0x60 PUSH1 0x2 DUP3 MLOAD LT ISZERO PUSH2 0x2B01 JUMPI PUSH1 0x40 DUP1 MLOAD PUSH3 0x461BCD PUSH1 0xE5 SHL DUP2 MSTORE PUSH1 0x20 PUSH1 0x4 DUP3 ADD MSTORE PUSH1 0x1E PUSH1 0x24 DUP3 ADD MSTORE PUSH32 0x546172616C537761704C6962726172793A20494E56414C49445F504154480000 PUSH1 0x44 DUP3 ADD MSTORE SWAP1 MLOAD SWAP1 DUP2 SWAP1 SUB PUSH1 0x64 ADD SWAP1 REVERT JUMPDEST DUP2 MLOAD PUSH8 0xFFFFFFFFFFFFFFFF DUP2 GT DUP1 ISZERO PUSH2 0x2B19 JUMPI PUSH1 0x0 DUP1 REVERT JUMPDEST POP PUSH1 0x40 MLOAD SWAP1 DUP1 DUP3 MSTORE DUP1 PUSH1 0x20 MUL PUSH1 0x20 ADD DUP3 ADD PUSH1 0x40 MSTORE DUP1 ISZERO PUSH2 0x2B43 JUMPI DUP2 PUSH1 0x20 ADD PUSH1 0x20 DUP3 MUL DUP1 CALLDATASIZE DUP4 CALLDATACOPY ADD SWAP1 POP JUMPDEST POP SWAP1 POP DUP3 DUP2 PUSH1 0x1 DUP4 MLOAD SUB DUP2 MLOAD DUP2 LT PUSH2 0x2B57 JUMPI INVALID JUMPDEST PUSH1 0x20 SWAP1 DUP2 MUL SWAP2 SWAP1 SWAP2 ADD ADD MSTORE DUP2 MLOAD PUSH1 0x0 NOT ADD JUMPDEST DUP1 ISZERO PUSH2 0x263D JUMPI PUSH1 0x0 DUP1 PUSH2 0x2B99 DUP8 DUP7 PUSH1 0x1 DUP7 SUB DUP2 MLOAD DUP2 LT PUSH2 0x2B85 JUMPI INVALID JUMPDEST PUSH1 0x20 MUL PUSH1 0x20 ADD ADD MLOAD DUP8 DUP7 DUP2 MLOAD DUP2 LT PUSH2 0x25EA JUMPI INVALID JUMPDEST SWAP2 POP SWAP2 POP PUSH2 0x2BBB DUP5 DUP5 DUP2 MLOAD DUP2 LT PUSH2 0x2BAC JUMPI INVALID JUMPDEST PUSH1 0x20 MUL PUSH1 0x20 ADD ADD MLOAD DUP4 DUP4 PUSH2 0x315E JUMP JUMPDEST DUP5 PUSH1 0x1 DUP6 SUB DUP2 MLOAD DUP2 LT PUSH2 0x2BCA JUMPI INVALID JUMPDEST PUSH1 0x20 SWAP1 DUP2 MUL SWAP2 SWAP1 SWAP2 ADD ADD MSTORE POP POP PUSH1 0x0 NOT ADD PUSH2 0x2B69 JUMP JUMPDEST PUSH1 0x0 DUP1 DUP5 GT PUSH2 0x2C20 JUMPI PUSH1 0x40 MLOAD PUSH3 0x461BCD PUSH1 0xE5 SHL DUP2 MSTORE PUSH1 0x4 ADD DUP1 DUP1 PUSH1 0x20 ADD DUP3 DUP2 SUB DUP3 MSTORE PUSH1 0x25 DUP2 MSTORE PUSH1 0x20 ADD DUP1 PUSH2 0x33CD PUSH1 0x25 SWAP2 CODECOPY PUSH1 0x40 ADD SWAP2 POP POP PUSH1 0x40 MLOAD DUP1 SWAP2 SUB SWAP1 REVERT JUMPDEST PUSH1 0x0 DUP4 GT DUP1 ISZERO PUSH2 0x2C30 JUMPI POP PUSH1 0x0 DUP3 GT JUMPDEST PUSH2 0x2C6B JUMPI PUSH1 0x40 MLOAD PUSH3 0x461BCD PUSH1 0xE5 SHL DUP2 MSTORE PUSH1 0x4 ADD DUP1 DUP1 PUSH1 0x20 ADD DUP3 DUP2 SUB DUP3 MSTORE PUSH1 0x28 DUP2 MSTORE PUSH1 0x20 ADD DUP1 PUSH2 0x34B0 PUSH1 0x28 SWAP2 CODECOPY PUSH1 0x40 ADD SWAP2 POP POP PUSH1 0x40 MLOAD DUP1 SWAP2 SUB SWAP1 REVERT JUMPDEST DUP3 PUSH2 0x2C7C DUP6 DUP5 PUSH4 0xFFFFFFFF PUSH2 0x2FDE AND JUMP JUMPDEST DUP2 PUSH2 0x2C83 JUMPI INVALID JUMPDEST DIV SWAP5 SWAP4 POP POP POP POP JUMP JUMPDEST PUSH1 0x0 DUP1 DUP3 PUSH1 0x1 PUSH1 0x1 PUSH1 0xA0 SHL SUB AND DUP5 PUSH1 0x1 PUSH1 0x1 PUSH1 0xA0 SHL SUB AND EQ ISZERO PUSH2 0x2CE0 JUMPI PUSH1 0x40 MLOAD PUSH3 0x461BCD PUSH1 0xE5 SHL DUP2 MSTORE PUSH1 0x4 ADD DUP1 DUP1 PUSH1 0x20 ADD DUP3 DUP2 SUB DUP3 MSTORE PUSH1 0x25 DUP2 MSTORE PUSH1 0x20 ADD DUP1 PUSH2 0x32F1 PUSH1 0x25 SWAP2 CODECOPY PUSH1 0x40 ADD SWAP2 POP POP PUSH1 0x40 MLOAD DUP1 SWAP2 SUB SWAP1 REVERT JUMPDEST DUP3 PUSH1 0x1 PUSH1 0x1 PUSH1 0xA0 SHL SUB AND DUP5 PUSH1 0x1 PUSH1 0x1 PUSH1 0xA0 SHL SUB AND LT PUSH2 0x2D00 JUMPI DUP3 DUP5 PUSH2 0x2D03 JUMP JUMPDEST DUP4 DUP4 JUMPDEST SWAP1 SWAP3 POP SWAP1 POP PUSH1 0x1 PUSH1 0x1 PUSH1 0xA0 SHL SUB DUP3 AND PUSH2 0x2D63 JUMPI PUSH1 0x40 DUP1 MLOAD PUSH3 0x461BCD PUSH1 0xE5 SHL DUP2 MSTORE PUSH1 0x20 PUSH1 0x4 DUP3 ADD MSTORE PUSH1 0x1E PUSH1 0x24 DUP3 ADD MSTORE PUSH32 0x546172616C537761704C6962726172793A205A45524F5F414444524553530000 PUSH1 0x44 DUP3 ADD MSTORE SWAP1 MLOAD SWAP1 DUP2 SWAP1 SUB PUSH1 0x64 ADD SWAP1 REVERT JUMPDEST SWAP3 POP SWAP3 SWAP1 POP JUMP JUMPDEST PUSH1 0x40 DUP1 MLOAD PUSH4 0xE6A43905 PUSH1 0xE0 SHL DUP2 MSTORE PUSH1 0x1 PUSH1 0x1 PUSH1 0xA0 SHL SUB DUP9 DUP2 AND PUSH1 0x4 DUP4 ADD MSTORE DUP8 DUP2 AND PUSH1 0x24 DUP4 ADD MSTORE SWAP2 MLOAD PUSH1 0x0 SWAP3 DUP4 SWAP3 DUP4 SWAP3 PUSH32 0x0 SWAP1 SWAP3 AND SWAP2 PUSH4 0xE6A43905 SWAP2 PUSH1 0x44 DUP1 DUP3 ADD SWAP3 PUSH1 0x20 SWAP3 SWAP1 SWAP2 SWAP1 DUP3 SWAP1 SUB ADD DUP2 DUP7 DUP1 EXTCODESIZE ISZERO DUP1 ISZERO PUSH2 0x2DE4 JUMPI PUSH1 0x0 DUP1 REVERT JUMPDEST POP GAS STATICCALL ISZERO DUP1 ISZERO PUSH2 0x2DF8 JUMPI RETURNDATASIZE PUSH1 0x0 DUP1 RETURNDATACOPY RETURNDATASIZE PUSH1 0x0 REVERT JUMPDEST POP POP POP POP PUSH1 0x40 MLOAD RETURNDATASIZE PUSH1 0x20 DUP2 LT ISZERO PUSH2 0x2E0E JUMPI PUSH1 0x0 DUP1 REVERT JUMPDEST POP MLOAD PUSH1 0x1 PUSH1 0x1 PUSH1 0xA0 SHL SUB AND EQ ISZERO PUSH2 0x2EC1 JUMPI PUSH1 0x40 DUP1 MLOAD PUSH4 0x64E329CB PUSH1 0xE1 SHL DUP2 MSTORE PUSH1 0x1 PUSH1 0x1 PUSH1 0xA0 SHL SUB DUP11 DUP2 AND PUSH1 0x4 DUP4 ADD MSTORE DUP10 DUP2 AND PUSH1 0x24 DUP4 ADD MSTORE SWAP2 MLOAD PUSH32 0x0 SWAP1 SWAP3 AND SWAP2 PUSH4 0xC9C65396 SWAP2 PUSH1 0x44 DUP1 DUP3 ADD SWAP3 PUSH1 0x20 SWAP3 SWAP1 SWAP2 SWAP1 DUP3 SWAP1 SUB ADD DUP2 PUSH1 0x0 DUP8 DUP1 EXTCODESIZE ISZERO DUP1 ISZERO PUSH2 0x2E94 JUMPI PUSH1 0x0 DUP1 REVERT JUMPDEST POP GAS CALL ISZERO DUP1 ISZERO PUSH2 0x2EA8 JUMPI RETURNDATASIZE PUSH1 0x0 DUP1 RETURNDATACOPY RETURNDATASIZE PUSH1 0x0 REVERT JUMPDEST POP POP POP POP PUSH1 0x40 MLOAD RETURNDATASIZE PUSH1 0x20 DUP2 LT ISZERO PUSH2 0x2EBE JUMPI PUSH1 0x0 DUP1 REVERT JUMPDEST POP POP JUMPDEST PUSH1 0x0 DUP1 PUSH2 0x2EEF PUSH32 0x0 DUP12 DUP12 PUSH2 0x3090 JUMP JUMPDEST SWAP2 POP SWAP2 POP DUP2 PUSH1 0x0 EQ DUP1 ISZERO PUSH2 0x2F01 JUMPI POP DUP1 ISZERO JUMPDEST ISZERO PUSH2 0x2F11 JUMPI DUP8 SWAP4 POP DUP7 SWAP3 POP PUSH2 0x2FD1 JUMP JUMPDEST PUSH1 0x0 PUSH2 0x2F1E DUP10 DUP5 DUP5 PUSH2 0x2BE0 JUMP JUMPDEST SWAP1 POP DUP8 DUP2 GT PUSH2 0x2F71 JUMPI DUP6 DUP2 LT ISZERO PUSH2 0x2F66 JUMPI PUSH1 0x40 MLOAD PUSH3 0x461BCD PUSH1 0xE5 SHL DUP2 MSTORE PUSH1 0x4 ADD DUP1 DUP1 PUSH1 0x20 ADD DUP3 DUP2 SUB DUP3 MSTORE PUSH1 0x26 DUP2 MSTORE PUSH1 0x20 ADD DUP1 PUSH2 0x329F PUSH1 0x26 SWAP2 CODECOPY PUSH1 0x40 ADD SWAP2 POP POP PUSH1 0x40 MLOAD DUP1 SWAP2 SUB SWAP1 REVERT JUMPDEST DUP9 SWAP5 POP SWAP3 POP DUP3 PUSH2 0x2FCF JUMP JUMPDEST PUSH1 0x0 PUSH2 0x2F7E DUP10 DUP5 DUP7 PUSH2 0x2BE0 JUMP JUMPDEST SWAP1 POP DUP10 DUP2 GT ISZERO PUSH2 0x2F8A JUMPI INVALID JUMPDEST DUP8 DUP2 LT ISZERO PUSH2 0x2FC9 JUMPI PUSH1 0x40 MLOAD PUSH3 0x461BCD PUSH1 0xE5 SHL DUP2 MSTORE PUSH1 0x4 ADD DUP1 DUP1 PUSH1 0x20 ADD DUP3 DUP2 SUB DUP3 MSTORE PUSH1 0x26 DUP2 MSTORE PUSH1 0x20 ADD DUP1 PUSH2 0x33F2 PUSH1 0x26 SWAP2 CODECOPY PUSH1 0x40 ADD SWAP2 POP POP PUSH1 0x40 MLOAD DUP1 SWAP2 SUB SWAP1 REVERT JUMPDEST SWAP5 POP DUP8 SWAP4 POP JUMPDEST POP JUMPDEST POP POP SWAP7 POP SWAP7 SWAP5 POP POP POP POP POP JUMP JUMPDEST PUSH1 0x0 DUP2 ISZERO DUP1 PUSH2 0x2FF9 JUMPI POP POP DUP1 DUP3 MUL DUP3 DUP3 DUP3 DUP2 PUSH2 0x2FF6 JUMPI INVALID JUMPDEST DIV EQ JUMPDEST PUSH2 0xE64 JUMPI PUSH1 0x40 DUP1 MLOAD PUSH3 0x461BCD PUSH1 0xE5 SHL DUP2 MSTORE PUSH1 0x20 PUSH1 0x4 DUP3 ADD MSTORE PUSH1 0x14 PUSH1 0x24 DUP3 ADD MSTORE PUSH20 0x64732D6D6174682D6D756C2D6F766572666C6F77 PUSH1 0x60 SHL PUSH1 0x44 DUP3 ADD MSTORE SWAP1 MLOAD SWAP1 DUP2 SWAP1 SUB PUSH1 0x64 ADD SWAP1 REVERT JUMPDEST DUP1 DUP3 ADD DUP3 DUP2 LT ISZERO PUSH2 0xE64 JUMPI PUSH1 0x40 DUP1 MLOAD PUSH3 0x461BCD PUSH1 0xE5 SHL DUP2 MSTORE PUSH1 0x20 PUSH1 0x4 DUP3 ADD MSTORE PUSH1 0x14 PUSH1 0x24 DUP3 ADD MSTORE PUSH20 0x64732D6D6174682D6164642D6F766572666C6F77 PUSH1 0x60 SHL PUSH1 0x44 DUP3 ADD MSTORE SWAP1 MLOAD SWAP1 DUP2 SWAP1 SUB PUSH1 0x64 ADD SWAP1 REVERT JUMPDEST PUSH1 0x0 DUP1 PUSH1 0x0 PUSH2 0x309F DUP6 DUP6 PUSH2 0x2C8C JUMP JUMPDEST POP SWAP1 POP PUSH1 0x0 DUP1 PUSH2 0x30B0 DUP9 DUP9 DUP9 PUSH2 0x2645 JUMP JUMPDEST PUSH1 0x1 PUSH1 0x1 PUSH1 0xA0 SHL SUB AND PUSH4 0x902F1AC PUSH1 0x40 MLOAD DUP2 PUSH4 0xFFFFFFFF AND PUSH1 0xE0 SHL DUP2 MSTORE PUSH1 0x4 ADD PUSH1 0x60 PUSH1 0x40 MLOAD DUP1 DUP4 SUB DUP2 DUP7 DUP1 EXTCODESIZE ISZERO DUP1 ISZERO PUSH2 0x30E8 JUMPI PUSH1 0x0 DUP1 REVERT JUMPDEST POP GAS STATICCALL ISZERO DUP1 ISZERO PUSH2 0x30FC JUMPI RETURNDATASIZE PUSH1 0x0 DUP1 RETURNDATACOPY RETURNDATASIZE PUSH1 0x0 REVERT JUMPDEST POP POP POP POP PUSH1 0x40 MLOAD RETURNDATASIZE PUSH1 0x60 DUP2 LT ISZERO PUSH2 0x3112 JUMPI PUSH1 0x0 DUP1 REVERT JUMPDEST POP DUP1 MLOAD PUSH1 0x20 SWAP1 SWAP2 ADD MLOAD PUSH14 0xFFFFFFFFFFFFFFFFFFFFFFFFFFFF SWAP2 DUP3 AND SWAP4 POP AND SWAP1 POP PUSH1 0x1 PUSH1 0x1 PUSH1 0xA0 SHL SUB DUP8 DUP2 AND SWAP1 DUP5 AND EQ PUSH2 0x314C JUMPI DUP1 DUP3 PUSH2 0x314F JUMP JUMPDEST DUP2 DUP2 JUMPDEST SWAP1 SWAP10 SWAP1 SWAP9 POP SWAP7 POP POP POP POP POP POP POP JUMP JUMPDEST PUSH1 0x0 DUP1 DUP5 GT PUSH2 0x319E JUMPI PUSH1 0x40 MLOAD PUSH3 0x461BCD PUSH1 0xE5 SHL DUP2 MSTORE PUSH1 0x4 ADD DUP1 DUP1 PUSH1 0x20 ADD DUP3 DUP2 SUB DUP3 MSTORE PUSH1 0x2C DUP2 MSTORE PUSH1 0x20 ADD DUP1 PUSH2 0x32C5 PUSH1 0x2C SWAP2 CODECOPY PUSH1 0x40 ADD SWAP2 POP POP PUSH1 0x40 MLOAD DUP1 SWAP2 SUB SWAP1 REVERT JUMPDEST PUSH1 0x0 DUP4 GT DUP1 ISZERO PUSH2 0x31AE JUMPI POP PUSH1 0x0 DUP3 GT JUMPDEST PUSH2 0x31E9 JUMPI PUSH1 0x40 MLOAD PUSH3 0x461BCD PUSH1 0xE5 SHL DUP2 MSTORE PUSH1 0x4 ADD DUP1 DUP1 PUSH1 0x20 ADD DUP3 DUP2 SUB DUP3 MSTORE PUSH1 0x28 DUP2 MSTORE PUSH1 0x20 ADD DUP1 PUSH2 0x34B0 PUSH1 0x28 SWAP2 CODECOPY PUSH1 0x40 ADD SWAP2 POP POP PUSH1 0x40 MLOAD DUP1 SWAP2 SUB SWAP1 REVERT JUMPDEST PUSH1 0x0 PUSH2 0x320D PUSH2 0x3E8 PUSH2 0x3201 DUP7 DUP9 PUSH4 0xFFFFFFFF PUSH2 0x2FDE AND JUMP JUMPDEST SWAP1 PUSH4 0xFFFFFFFF PUSH2 0x2FDE AND JUMP JUMPDEST SWAP1 POP PUSH1 0x0 PUSH2 0x3227 PUSH2 0x3E5 PUSH2 0x3201 DUP7 DUP10 PUSH4 0xFFFFFFFF PUSH2 0x324E AND JUMP JUMPDEST SWAP1 POP PUSH2 0x3244 PUSH1 0x1 DUP3 DUP5 DUP2 PUSH2 0x3237 JUMPI INVALID JUMPDEST DIV SWAP1 PUSH4 0xFFFFFFFF PUSH2 0x3041 AND JUMP JUMPDEST SWAP7 SWAP6 POP POP POP POP POP POP JUMP JUMPDEST DUP1 DUP3 SUB DUP3 DUP2 GT ISZERO PUSH2 0xE64 JUMPI PUSH1 0x40 DUP1 MLOAD PUSH3 0x461BCD PUSH1 0xE5 SHL DUP2 MSTORE PUSH1 0x20 PUSH1 0x4 DUP3 ADD MSTORE PUSH1 0x15 PUSH1 0x24 DUP3 ADD MSTORE PUSH21 0x64732D6D6174682D7375622D756E646572666C6F77 PUSH1 0x58 SHL PUSH1 0x44 DUP3 ADD MSTORE SWAP1 MLOAD SWAP1 DUP2 SWAP1 SUB PUSH1 0x64 ADD SWAP1 REVERT INVALID SLOAD PUSH2 0x7261 PUSH13 0x53776170526F757465723A2049 0x4E MSTORE8 SSTORE CHAINID CHAINID 0x49 NUMBER 0x49 GASLIMIT 0x4E SLOAD 0x5F TIMESTAMP 0x5F COINBASE 0x4D 0x4F SSTORE 0x4E SLOAD SLOAD PUSH2 0x7261 PUSH13 0x537761704C6962726172793A20 0x49 0x4E MSTORE8 SSTORE CHAINID CHAINID 0x49 NUMBER 0x49 GASLIMIT 0x4E SLOAD 0x5F 0x4F SSTORE SLOAD POP SSTORE SLOAD 0x5F COINBASE 0x4D 0x4F SSTORE 0x4E SLOAD SLOAD PUSH2 0x7261 PUSH13 0x537761704C6962726172793A20 0x49 DIFFICULTY GASLIMIT 0x4E SLOAD 0x49 NUMBER COINBASE 0x4C 0x5F COINBASE DIFFICULTY DIFFICULTY MSTORE GASLIMIT MSTORE8 MSTORE8 GASLIMIT MSTORE8 SLOAD PUSH19 0x616E7366657248656C7065723A3A7472616E73 PUSH7 0x657246726F6D3A KECCAK256 PUSH21 0x72616E7366657246726F6D206661696C6564547261 PUSH15 0x7366657248656C7065723A3A736166 PUSH6 0x5472616E7366 PUSH6 0x724554483A20 GASLIMIT SLOAD 0x48 KECCAK256 PUSH21 0x72616E73666572206661696C6564546172616C5377 PUSH2 0x7052 PUSH16 0x757465723A204558434553534956455F 0x49 0x4E POP SSTORE SLOAD 0x5F COINBASE 0x4D 0x4F SSTORE 0x4E SLOAD SLOAD PUSH2 0x7261 PUSH13 0x537761704C6962726172793A20 0x49 0x4E MSTORE8 SSTORE CHAINID CHAINID 0x49 NUMBER 0x49 GASLIMIT 0x4E SLOAD 0x5F 0x49 0x4E POP SSTORE SLOAD 0x5F COINBASE 0x4D 0x4F SSTORE 0x4E SLOAD SLOAD PUSH2 0x7261 PUSH13 0x537761704C6962726172793A20 0x49 0x4E MSTORE8 SSTORE CHAINID CHAINID 0x49 NUMBER 0x49 GASLIMIT 0x4E SLOAD 0x5F COINBASE 0x4D 0x4F SSTORE 0x4E SLOAD SLOAD PUSH2 0x7261 PUSH13 0x53776170526F757465723A2049 0x4E MSTORE8 SSTORE CHAINID CHAINID 0x49 NUMBER 0x49 GASLIMIT 0x4E SLOAD 0x5F COINBASE 0x5F COINBASE 0x4D 0x4F SSTORE 0x4E SLOAD SLOAD PUSH2 0x7261 PUSH13 0x53776170526F757465723A2049 0x4E MSTORE8 SSTORE CHAINID CHAINID 0x49 NUMBER 0x49 GASLIMIT 0x4E SLOAD 0x5F 0x4F SSTORE SLOAD POP SSTORE SLOAD 0x5F COINBASE 0x4D 0x4F SSTORE 0x4E SLOAD SLOAD PUSH19 0x616E7366657248656C7065723A3A7361666554 PUSH19 0x616E736665723A207472616E73666572206661 PUSH10 0x6C6564546172616C5377 PUSH2 0x7052 PUSH16 0x757465723A20494E56414C49445F5041 SLOAD 0x48 STOP STOP STOP SLOAD PUSH2 0x7261 PUSH13 0x53776170526F757465723A2045 PC POP 0x49 MSTORE GASLIMIT DIFFICULTY STOP STOP STOP STOP STOP STOP STOP STOP SLOAD PUSH2 0x7261 PUSH13 0x537761704C6962726172793A20 0x49 0x4E MSTORE8 SSTORE CHAINID CHAINID 0x49 NUMBER 0x49 GASLIMIT 0x4E SLOAD 0x5F 0x4C 0x49 MLOAD SSTORE 0x49 DIFFICULTY 0x49 SLOAD MSIZE LOG2 PUSH5 0x6970667358 0x22 SLT KECCAK256 SWAP9 0x5F 0xF7 0xE0 SAR BYTE 0xB4 0xB6 JUMPDEST CREATE2 0xAC PUSH22 0xA27F11B29C8DCEA4FE747DE88BDCB1CB001125266473 PUSH16 0x6C634300060600330000000000000000 "
				},
				"gasEstimates": {
					"creation": {
						"codeDepositCost": "2716200",
						"executionCost": "infinite",
						"totalCost": "infinite"
					},
					"external": {
						"WTARAL()": "infinite",
						"addLiquidity(address,address,uint256,uint256,uint256,uint256,address,uint256)": "infinite",
						"addLiquidityETH(address,uint256,uint256,uint256,address,uint256)": "infinite",
						"factory()": "infinite",
						"getAmountIn(uint256,uint256,uint256)": "infinite",
						"getAmountOut(uint256,uint256,uint256)": "infinite",
						"getAmountsIn(uint256,address[])": "infinite",
						"getAmountsOut(uint256,address[])": "infinite",
						"quote(uint256,uint256,uint256)": "infinite",
						"removeLiquidity(address,address,uint256,uint256,uint256,address,uint256)": "infinite",
						"removeLiquidityETH(address,uint256,uint256,uint256,address,uint256)": "infinite",
						"removeLiquidityETHWithPermit(address,uint256,uint256,uint256,address,uint256,bool,uint8,bytes32,bytes32)": "infinite",
						"removeLiquidityWithPermit(address,address,uint256,uint256,uint256,address,uint256,bool,uint8,bytes32,bytes32)": "infinite",
						"swapETHForExactTokens(uint256,address[],address,uint256)": "infinite",
						"swapExactETHForTokens(uint256,address[],address,uint256)": "infinite",
						"swapExactTokensForETH(uint256,uint256,address[],address,uint256)": "infinite",
						"swapExactTokensForTokens(uint256,uint256,address[],address,uint256)": "infinite",
						"swapTokensForExactETH(uint256,uint256,address[],address,uint256)": "infinite",
						"swapTokensForExactTokens(uint256,uint256,address[],address,uint256)": "infinite"
					},
					"internal": {
						"_addLiquidity(address,address,uint256,uint256,uint256,uint256)": "infinite",
						"_swap(uint256[] memory,address[] memory,address)": "infinite"
					}
				},
				"methodIdentifiers": {
					"WTARAL()": "1f003483",
					"addLiquidity(address,address,uint256,uint256,uint256,uint256,address,uint256)": "e8e33700",
					"addLiquidityETH(address,uint256,uint256,uint256,address,uint256)": "f305d719",
					"factory()": "c45a0155",
					"getAmountIn(uint256,uint256,uint256)": "85f8c259",
					"getAmountOut(uint256,uint256,uint256)": "054d50d4",
					"getAmountsIn(uint256,address[])": "1f00ca74",
					"getAmountsOut(uint256,address[])": "d06ca61f",
					"quote(uint256,uint256,uint256)": "ad615dec",
					"removeLiquidity(address,address,uint256,uint256,uint256,address,uint256)": "baa2abde",
					"removeLiquidityETH(address,uint256,uint256,uint256,address,uint256)": "02751cec",
					"removeLiquidityETHWithPermit(address,uint256,uint256,uint256,address,uint256,bool,uint8,bytes32,bytes32)": "ded9382a",
					"removeLiquidityWithPermit(address,address,uint256,uint256,uint256,address,uint256,bool,uint8,bytes32,bytes32)": "2195995c",
					"swapETHForExactTokens(uint256,address[],address,uint256)": "fb3bdb41",
					"swapExactETHForTokens(uint256,address[],address,uint256)": "7ff36ab5",
					"swapExactTokensForETH(uint256,uint256,address[],address,uint256)": "18cbafe5",
					"swapExactTokensForTokens(uint256,uint256,address[],address,uint256)": "38ed1739",
					"swapTokensForExactETH(uint256,uint256,address[],address,uint256)": "4a25d94a",
					"swapTokensForExactTokens(uint256,uint256,address[],address,uint256)": "8803dbee"
				}
			},
			"storageLayout": {
				"storage": [],
				"types": null
			},
			"userdoc": {
				"methods": {}
			}
		}
	}
}